:020000040800F2
:1060000008100020516A0008B5B20008B9B20008B3
:10601000DF820108BDB20008C5B20008456F010863
:10602000456F0108456F0108456F0108456F01087C
:10603000C9B2000810ED0108456F0108456F01085D
:10604000516E0008456F0108456F0108456F010852
:10605000456F0108456F0108456F0108456F01084C
:10606000456F010869680008636E0108456F010803
:10607000456F0108456F0108456F0108456F01082C
:10608000456F0108456F0108456F0108456F01081C
:10609000456F010899750008456F0108456F0108B3
:1060A000456F0108D9710008B9710008456F0108F2
:1060B000456F01082D530108D95D010831D0010851
:1060C0002DD001086955010847D0010835D00108D5
:1060D000A95D010839D00108195E0108855E010833
:1060E000456F0108456F0108456F0108456F0108BC
:1060F000456F0108456F0108456F0108456F0108AC
:10610000456F0108456F0108456F0108456F01089B
:10611000456F0108456F0108456F0108456F01088B
:10612000456F0108456F0108456F0108456F01087B
:10613000456F0108456F0108456F0108456F01086B
:10614000456F0108456F0108456F0108FFEB010825
:1061500061390108456F01081BD0010821D00108F1
:10616000456F0108456F0108456F0108456F01083B
:10617000F0B5114A114C124E00F00105E3695F07BA
:1061800013D40DB9334213D103EA00078F4207D16C
:106190000B4A1A40002A0CBF00206FF00100F0BD2E
:1061A000013AEBD16FF00200F9E74FF0FF30F6E76C
:1061B0006FF00100F3E700BF8096980000000350E5
:1061C000020001000B4B70B5D96911F480310DD17B
:1061D00001244FF48072084E084DF46020462C6470
:1061E0001A61FFF7C5FF3464EC6070BD6FF0010009
:1061F000FBE700BF000003500010035000200350D5
:106200004FF4803238B50E4B0E4C9A66E56941F674
:10621000713315400122E3630B4B0021DA60022346
:10622000606121202361FFF7A3FF10B92120FFF750
:106230009FFF0122054BDA600DB10023E36338BDF7
:106240000090005000000350001003500020035045
:1062500070B5134C6061E3695B071ED40E4656F8B7
:10626000043B8D18A361AE420BD1042300212120F1
:106270002361FFF77DFF58B9BDE870402120FFF78B
:1062800077BF08210846FFF773FF10B1042323618D
:1062900070BD56F8043BA361E5E74FF0FF30F7E728
:1062A000000003502DE9F84315464FF48032184B97
:1062B00089469A6603F51C33DF690646174041F6A6
:1062C0007132DA63012203F58053DFF84C80DA6023
:1062D00055B9284601220F4BDA601FB10022A3F501
:1062E0000053DA63BDE8F88306F5005404EA0804B5
:1062F000A41BAC4228BF2C46494622463046FFF735
:10630000A7FF0028E6D12644A1442D1BE0E700BFEB
:10631000009000500020035000E0FFFF000000004C
:10632000000000000000000000000000000000006D
:10633000013800D0FCE770472DE9F84F40220021DA
:10634000294816F04CFF30220021284816F047FF5C
:1063500000209FED237B264B264E274ADFF888B08E
:10636000DFF8ACA0DFF8AC90DFF8AC80DFF8ACE091
:106370001E4FA3F1180C2425002145430BEB4014BC
:1063800043E9054A0CEB050443E9039843F8181C5C
:1063900043F804EC21772162182404FB007442F8CE
:1063A000144C164C42F8181C42F8104C144CA6EC35
:1063B000027B42F80C4C134C43F8241B42F8084C67
:1063C000114C42F8044C114C2C442177216242F8C4
:1063D000241B08B1BDE8F88F0120CCE7AFF30080A3
:1063E0000000000000000000803300205033002037
:1063F0002033002058100020D8320020ADBD000806
:106400002F8301084D83010899830108C0320020C1
:10641000D5BD000851830108178301085583010881
:10642000F7B5012017F042FE0446002840F0A9808D
:10643000574E584B584DC6E9003041F60B23B0601B
:106440002860AB8006F02EFB2146304608F09AFD0E
:10645000044600B9FEE7514909F0B6F800B1FEE77D
:106460000221204616F043F800B1FEE720464C49D1
:1064700009F0CAFA00B1FEE70121204616F03DFA04
:1064800000B1FEE70121204616F045FA074600B1AB
:10649000FEE701463C22434816F0A1FE80233A461F
:1064A000204606F1100116F032F9802800D0FEE7F0
:1064B0003D4E012015F07CFF33A3D3E90023346067
:1064C0002046CDE900234FF0FF324FF0FF3316F0A6
:1064D0007EF8014600B1FEE7284605F0C7FD012120
:1064E000084617F0CFFD0121306815F049FF00B1D3
:1064F000FEE700242D4B2E4A9C801C602D4B6FF034
:1065000063001A60FF229C802B4B83F828202B4AC3
:106510009C801A602A4ADA6007F0FCF82B790B2B72
:1065200011D86B790A2B0ED9264B1D6004F00AFA9C
:10653000204606F0A9FA08223068114616F049F8FC
:10654000044608B1FEE7FEE706F096FA1E4B10215E
:106550001E481C7012F001FA00B9FEE71C491B48E6
:1065600012F00DFA00B9FEE710218C20194A11F043
:1065700055FE00B1FEE7184803B0BDE8F04012F048
:106580003CBC03B0F0BD00BF0AE020FF22020000C7
:106590001C34002059E301081434002007001100C6
:1065A00068F50108CC3300200C340020D8100020FE
:1065B000B03C0020A810002078100020303C0020C3
:1065C0006810002010340020323D0020C03400202C
:1065D0003FEC0108B03400205CF501080348044B8F
:1065E000834202D0034B03B1184770473841002063
:1065F0003841002000000000064B0749C91A8910E5
:1066000048BF0131491003D0044B0BB10148184772
:10661000704700BF384100203841002000000000D2
:1066200010B5064C237843B9FFF7D8FF044B13B1DC
:106630000448AFF300800123237010BDC63B002047
:1066400000000000404C020808B5054B1BB105498D
:106650000548AFF30080BDE80840FFF7CDBF00BF9D
:1066600000000000B0270020404C0208A3F5803A4B
:10667000704700BF174B002B08BF134B9D46FFF719
:10668000F5FF00218B460F461348144A121A16F0E4
:10669000A6FD0E4B002B00D098470D4B002B00D0D1
:1066A00098470020002104000D000D48002802D06A
:1066B0000C48AFF300800FF04FFF2000290010F0CE
:1066C0008CFB0FF03FFE00BF000008000000000040
:1066D000000000000810002008100020803D00206D
:1066E000000000000000000008B512F02AFB054B76
:1066F000186028B96A21044B044A05480FF004FECB
:1067000008BD00BFC827002088EC01089BEC0108E9
:1067100092EC0108014B186806F070BFC8270020F2
:1067200010B5044C206812F06EFB2068BDE81040E4
:1067300006F036BBC827002007B501A803F082FE8B
:106740009DF80530012B14D19DF804308BB94FF41E
:106750008012134B1349586E03F580535A664B6BE6
:1067600023F0E05343F040634B63C3025CBF0E4B26
:106770005A6604F061FB00F089F811F0D0FA04F0D9
:106780001FFB11F0C2FA04F031FB00F073F800F0C7
:1067900021FB06F017FB03B05DF804EB02F0B8B87C
:1067A000008000500040005A00A00050064B1B68BB
:1067B0001A7A022A04D812B11B68044A136070477F
:1067C000032AF9D0704700BFEC3F0020CC270020FF
:1067D00030B51F4D95B00DAC0FCD0FC495E8070037
:1067E000292384E807001B4A0024CDE90223092558
:1067F000082321460E220DF12600CDE9044406941B
:106800008DF811308DF8135016F0E9FC4FF480210B
:10681000114B0DAACDE907130A238DF825300F4B34
:1068200007A90A9320230B9301238DF831300C4BD9
:106830000C48009302AB8DF8245004F081FC05460F
:1068400021464FF4E13010F06EFB284615B030BD04
:10685000B8EC010800C0055024C00550C73B00201B
:10686000D027002034280020014811F05CBC00BF74
:106870003428002008B5044811F049FA10F0B7FA9E
:10688000BDE8084000F01CB85CF40108014811F0B4
:106890003EBA00BF5CF4010807B5082010F0BFFB4A
:1068A00002238DF80030054B6846019310F0FFFA83
:1068B000082003B05DF804EB10F0BCBB006A1810B0
:1068C0002DE9F04F544E97B0354609AC0FCD0FC4AB
:1068D0002B6806F1140523600EAC0FCD0FC495E8AC
:1068E0000F00DFF84C8184E80F004C4811F00FFADC
:1068F000404611F00CFA4FF48073494FADF83C302C
:10690000484B38460B9309A90EAB0D9303F03CFBA3
:106910000421B6F834B00DEB01000122ADF804B04B
:1069200000F0C8FBB6F836A00022012102A8ADF89D
:1069300008A000F0BFFBB6F838900122042103A89C
:10694000ADF80C9000F0B6FB758F0122042104A86D
:10695000354CADF8105000F0ADFB344B4FF448709F
:10696000C4F8C8344FF00213C4F8C434A3F580331C
:10697000C4F8CC341C23C4F8B43405F0F5F908A8E5
:10698000ADF8205000F0F0FB142005F0EDF908A858
:10699000ADF8205000F0C0FB232005F0E5F908A871
:1069A000ADF8205000F0E0FBB921384611F098F81E
:1069B00008A8ADF8205000F0AFFB002205A8114652
:1069C000ADF814B000F076FB002206A81146ADF831
:1069D00018A000F06FFB0122002107A8ADF81C9061
:1069E00000F068FB0122002108A8ADF8205000F05B
:1069F00061FB384603F028FA00234046C4F8B4345B
:106A0000C4F8C834C4F8C434C4F8CC3411F082F9E2
:106A100017B0BDE8F08F00BFD4EC01085CF40108AA
:106A200000000A50E070720000C003500200030032
:106A300060F401080348044A0449121A921010F045
:106A400082BA00BF7061000830630008203E002059
:106A500008B500F02FF8FFF7EDFF124B12498B42FB
:106A600012D30020114B12498B4218D3FFF702FEBC
:106A7000186850F82240586840F82240013298685F
:106A80008242F5D30C33EAE70022F8E71C6844F8A9
:106A9000220001325C68A242F8D30833E4E7002206
:106AA000F8E700BF484C0208544C0208544C020856
:106AB000544C02084FF48041124B134A70B59A604F
:106AC000D3F88820114D42F47002C3F88820104A90
:106AD00005F5005491664FF0FF3222660D4A62665A
:106AE0000222C3F8D020BFF34F8FBFF36F8F4FF454
:106AF0004036002004F0E8F90020E66004F0C8F910
:106B00002E6170BD00ED00E00060000800800044D0
:106B100000900050F7FF3700014B1860704700BF2E
:106B200008400020054B1860054B1B6F03F007035E
:106B3000032B01D116F064BE704700BF1040002047
:106B4000008000504FF000639B6A03F17842B2F579
:106B5000C04F03D21968064A914203D00023037044
:106B600083607047012202709A689B694260F7E770
:106B700007B0CD5E0020054B82B01B689AB262F36D
:106B80000F001B0C63F31F4002B070470000002091
:106B9000024B034A1A6011F0C4B800BF0000002085
:106BA00002020FF073B54F4B04461A781AB1022255
:106BB0001A7002B070BDCDE900220028F9D001267C
:106BC0001E7017F0EDFE484D484B18600BF012FE9A
:106BD0002B785BB901F09CFE40B945480823454A33
:106BE0004549006801F0E4FD00B92E70434B5A6E30
:106BF00062619B6E424AA3614FF480439366414BAE
:106C00005968E16140499960196E2160596E61606F
:106C1000D3F87011A160196CE160596C21613B4996
:106C2000086C1864496C5964012151661B6E9C0400
:106C300041D5374AD368D807FCD4364B1A68531C61
:106C40003ED04FF480139340334A13664FF40073E1
:106C50000426314C2666236610F09EF901300DD0D3
:106C600010F09AF940F20113984207D04FF4005304
:106C700023664FF480432366C4F870610823264CD2
:106C8000684623664FF4805323664FF00063236603
:106C90004FF4002301A9636610F062F9009B23669C
:106CA000019B63662B78002B83D0124B1A682266F7
:106CB0005B6863667DE7194AD368D907FCD4BCE7F3
:106CC000174B1B78002BC1D14FF400720C4B5A6646
:106CD00003F5A6235B68002BB8D14FF480120E4B4E
:106CE0001A66B3E7E83B0020E93B00206C2800204F
:106CF00038400020702800200071080000800050FB
:106D0000009000500080004455CEAC0000C00054FC
:106D10000000044014400020009000440000045093
:106D2000E73B002070B5224D04462E78012E02D09C
:106D300001232B7070BD0028FCD010F02DF901301C
:106D40000BD010F029F940F20113984205D0194BED
:106D5000194A5E66D368DE07FCD42268174B1A66B0
:106D600062685A66A268C3F87021E2681A642269F0
:106D70005A64E269D00744BF00229A60104B1A6837
:106D8000013207D10F4A127822B90F494968C90761
:106D900048BF1A6062690D4B5A66A2699A660BF089
:106DA00031FD0B4B186817F0F6FD0023C1E700BF5B
:106DB000E83B0020009000400000044000800044B8
:106DC00014400020E73B002000C005500080005028
:106DD0006C280020F8B54FF00066B36A03F17842E2
:106DE000B2F5C04F26D21A68144B9A4222D1144DE4
:106DF0002C7814F0FD0402D000242046F8BD4FF496
:106E000080371048FFF7CEFE204604F05DF80E4BA9
:106E10002046DF6004F03CF80C4B1F61B36ADB696D
:106E2000984704460748FFF77DFF002CE5D1012372
:106E30002B70E1E74FF48174DFE700BF07B0CD5E50
:106E4000E73B00204C28002000A0004400900044B4
:106E500013B5204B1B7803B9FEE700231E4CCDE988
:106E600000336A4608231D49206801F0A1FCF8B9E7
:106E70001B4AD2F84031D2F840211F2B4FF00103BA
:106E800011D9203A9340019A1A43019208236A4685
:106E90001249206801F048FC124B134A1A6010F0A6
:106EA00040FF02B010BD9340009A1A430092EDE7F4
:106EB0002D28F1D10A4AD2F84031D2F840211F2BB7
:106EC0004FF0010385BF203A93409340019398BF50
:106ED0000093DBE7E83B0020384000200071080009
:106EE00000800044000000200B020FF0BFF34F8F22
:106EF0000549064BCA6802F4E0621343CB60BFF356
:106F00004F8F00BFFDE700BF00ED00E00400FA0571
:106F1000002307B52948019310F0F9FE4FF44073A0
:106F2000012204216846ADF8003000F0C3F80122C8
:106F3000234B0520C3F8442401A917F0B8FD00280D
:106F400039D1204BD3F8F02042F00102C3F8F020F1
:106F5000D3F8FC2042F08072C3F8FC201A4AA3F553
:106F60005D431A60019B194A03F5D52303F2FC43E4
:106F7000B3FBF2F3164A013B13610223C2F8F0306F
:106F80004FF48073C2F804334FF06043114AC3F8E2
:106F9000B02F114AC3F8802ED3F8002E42F480722D
:106FA000C3F8002EFF2283F82020D3F8002E22F40D
:106FB0008072C3F8002E03B05DF804FB5CF4010896
:106FC00000D0035000ED00E0FF030040F8590D0031
:106FD000000004E055CEACC5090001004FF060434D
:106FE000D3F8802E30B5D20715D501240B4D84403F
:106FF000D5F8FC2042F08072C5F8FC20D3F8002EB2
:107000002243C3F8002E53F82020002AF0D003F8C2
:107010002010002030BD1120FCE700BF00ED00E093
:107020002DE9F04104460C254FF00108124E0CB337
:1070300014F001000BD0002024F0010405FB0062D5
:107040005768002FF3D09168C0B2B847EFE72246E7
:10705000013020284FEA520201D0D307F8D508FAB0
:1070600000F20F2824EA0204E8D9103805FB006278
:10707000B432E5E7BDE8F0817828002008B50C4877
:1070800010F045FE192003F011FF28B1192003F07C
:107090001BFF192003F0FCFE1A2003F007FF28B1A4
:1070A0001A2003F011FF1A2003F0F2FE002008BDA1
:1070B0005CF401082DE9F0410E469046054618B3F0
:1070C0000F2923D80378E3B1012B03D0022B18D06A
:1070D000032B1BD13F236A78D340DB0716D50D4B1A
:1070E000D3F81043A4B917F05BFC07464246284684
:1070F000314603F091FA384617F04DFC2046BDE8C2
:10710000F08140F2FF33E6E72224F7E72124F5E798
:107110000224F3E700C0035010B50446E8B1037839
:10712000C3B1012B03D0022B14D0032B17D13F2363
:107130006278D340DB0712D517F032FC0122637866
:1071400021789A4030235943064B5A5017F023FCBC
:10715000002010BD40F2FF33EAE72220F9E72120AA
:10716000F7E700BF40D0035010B50446E8B10378FC
:10717000C3B1012B03D0022B14D0032B17D13F2313
:107180006278D340DB0712D517F00AFC012263783E
:1071900021789A4030235943064B5A5017F0FBFB95
:1071A000002010BD40F2FF33EAE72220F9E721205A
:1071B000F7E700BF40E0035008B503F023FA054BA2
:1071C00000F0553020F05020C3F82004BDE80840FE
:1071D000FFF726BF00E0035008B503F013FA054B94
:1071E00000F0AA3020F0A020C3F82004BDE8084039
:1071F000FFF716BF00E003502DE9F04F9A46564BBB
:1072000085B01B7806460F461546DDF83C909DF884
:1072100044B0DDF85080002B00F09780072A00F280
:1072200096800E9B002B00F09280B9F1000F00F0C9
:107230008E80129BB3F5006F00F38980012803D183
:10724000109B002B00F08380444B03EB05131B7B4A
:10725000002B7ED0424C10220021684615F0BFFF63
:1072600004EB45141022A7BB3946204615F0B7FFA2
:1072700043F210036380BBF1000F03D1E37843F0C6
:107280000303E370364A0E9B02EB451CCCE90193E5
:10729000129B6901581E9DF84C30C0F30A0003F0A0
:1072A00003039B0643EA001E53582E48012E00EAB2
:1072B00003004EEA0003CDF800A0535017D0B8F1F8
:1072C000000F2ED19CF8023068F304138CF80230C2
:1072D00027E00021204615F082FF4FF444736380BD
:1072E000BBF1000FCED1E37843F03003C9E713239D
:1072F0000CF1100ECCF80C309CE80F008EE80F005B
:107300006FF00301DCF81C20109B61F39F02012F3A
:10731000CCF81C20CCF8143003D1CCF81890CCF861
:10732000043000270D4A290102EB051342F80180C1
:10733000159A28465A60694622469F605E7302F09D
:107340007FFF384605B0BDE8F08F0748FAE70748E9
:10735000F8E70748F6E700BFEA3B0020E02A0020F4
:10736000E02900200F80FFF3028000F0018000F090
:10737000078000F038B5124B05461B78DBB1E0B151
:1073800017F00EFB0F4A00231146147B54B92B60F3
:1073900001251A0101EB03131D738C5017F0FBFA42
:1073A000204638BD0133082B02F11002EDD117F051
:1073B000F2FA0548F5E70548F3E70548F1E700BFAD
:1073C000EA3B0020E02A0020048000F0028000F068
:1073D000018000F038B517F0E3FA002305460B4AA8
:1073E000147B6CB90133082B02F11002F8D102F0C2
:1073F000D3FE074B28461C7017F0CDFA204603E059
:10740000284617F0C8FA034838BD00BFE02A00201C
:10741000EA3B0020058000F00D4B10B51B780446B8
:1074200093B1072812D817F0BBFA0A4B03EB0413E9
:107430001A7B2AB100241C7317F0ADFA204610BD48
:1074400017F0A9FA0448FAE70448F8E70448F6E711
:10745000EA3B0020E02A0020068000F0028000F0D5
:10746000018000F0154B13B51868002301908DF8CA
:10747000043017F095FA124B1C7824B117F08BFAF0
:10748000104802B010BD01221A7017F084FA0E4B9A
:1074900001A81C731C7783F82C4083F83C4083F8C8
:1074A0004C4083F85C4083F86C4083F87C400823B0
:1074B0008DF8073002F094FE2046E2E760ED010807
:1074C000EA3B0020038000F0E02A0020F8B50D4DD3
:1074D0002D7885B1072810DC0B4D060105EB001453
:1074E000277B67B1AB510025069BA560636002F066
:1074F000A7FE2846F8BD0548FCE70548FAE7054819
:10750000F8E700BFEA3B0020E02A0020028000F0FC
:10751000018000F0078000F00A4A08B512785AB1DD
:1075200007280BD8084A02EB00131B7B43B100214C
:1075300002F048FE002008BD0448FCE70448FAE7D2
:107540000448F8E7EA3B0020E02A0020028000F02F
:10755000018000F0078000F00A4A08B512785AB19D
:1075600007280BD8084A02EB00131B7B43B101210B
:1075700002F028FE002008BD0448FCE70448FAE7B2
:107580000448F8E7EA3B0020E02A0020028000F0EF
:10759000018000F0078000F0184B2DE9F0411F6DCD
:1075A0005B6D1F4000D5FEE701260025144CDFF877
:1075B0005880374218D02368C8F85060A3B1A1683A
:1075C000284601316268A1609847637B012B0BD18B
:1075D00050B90C4B03EB45131A7B60F341021A734D
:1075E0001A7F60F341021A770135082D4FEA4606EB
:1075F00004F11004DDD1BDE8F08100BF00000450AB
:10760000E02A0020E0290020002004502DE9F04F5E
:10761000144606460D469B46C36B87B001225B6944
:1076200002A960689847F36B01225B6903A92846A9
:10763000984702A810F0ECF8074648B10023A3755C
:1076400063754FF0FF33A360002007B0BDE8F08FF3
:1076500003A810F0EAF80123A375237E04EBC3030B
:10766000DD611F846368AB420ED1206003A810F077
:10767000FEF84FF0FF332075A360237D043B022BFF
:1076800026D80023A375DFE723681A1A5342534113
:10769000A37503A810F0EBF8237D834218BFA775EC
:1076A00003A810F0C6F8074602A810F0C2F88742F7
:1076B00018BF002303A818BFA37510F0C2F807462F
:1076C00002A810F0BEF887421CBF0023A375D4E7C0
:1076D00003A810F0AEF880B1F36B022228465B6974
:1076E00004A9984704A810F0B3F80346207D0328A6
:1076F00039D8DFE800F03838040903A8F3E7CC22D2
:10770000237E04EBC3031A8401F07AF9109B1870EE
:1077100003A8277E10F081F804EBC70787F8220042
:10772000237E03A804EBC303B3F8209093F82270E0
:1077300010F07FF8804603A810F083F88246B8F175
:10774000000F15D0F36B022228465B6904A9984705
:1077500004A810F042F86075637D6BB90023A3752F
:107760004FF0000838E0227E04EBC2021384CBE71E
:1077700003A810F01DF8EEE794F81680B8F1000F9A
:10778000EED0B9F1000F09D1DFB10123627EE375BC
:10779000002A44D19F4218D1677614E0736C05EB40
:1077A0000A02594285EA020008421CBF0021A17565
:1077B000591E0A409B1A9945D0D8A37D002BE3D1CE
:1077C000CEE7E37D43B94FF000084B4652462946C9
:1077D00030460FF088FDA060A27D12B123694B44B2
:1077E00023611449237E097899421ED901332376F7
:1077F000BBF1000F1BD0D2B1E37DC3B1B8F1000FD4
:1078000015D1032F13D0A1684B1C10D0109B22461A
:10781000009330460123FFF7F9FEA07507E0012F22
:10782000DAD0032F08BFA376CDE70023A375A07D90
:107830000BE700BF84ED01082DE9F04F0E46984696
:1078400000238BB004464FF0FF31104617468DF8E9
:10785000133001F0BFF8B6F5801F3BD3B21C53D1F3
:10786000E56A6B1C57D12046616A0FF082FC054621
:10787000B31C18BF0123DFF810910193636A626C97
:107880000293236805A902FB053AE36B05225B69B5
:107890005046984705A810F056F810F079F8504671
:1078A00010F081F84FF0000B824601464B1C05D0CA
:1078B000636C81EA0A025B42134232D029462046B9
:1078C0000FF057FC029BAB424DD0BBF1000F4DD1E6
:1078D0000546D3E7314605AA04F108000FF0E6FE9D
:1078E0000146481C10D0384601F074F80122394690
:1078F00020460DF113030FF048FD28B19DF8133019
:1079000088F80030002003E0237C002BA8D12D2034
:107910000BB0BDE8F08F2368ED1A636CB5FBF3F58F
:10792000A6E7484601F056F80DF1130349462046F4
:10793000019A0FF02AFD034690B1B21C03D0D9F88A
:107940000020B2420CD19DF8132003930D4B88F810
:10795000002049461A68384615F04CFC039B9B46AC
:10796000D9F80810A2E7BBF1000FD0D0B6F5801F00
:10797000C8D2314698F800307A6804F1080000F067
:1079800057FFBFE780ED0108D43100202DE9F34116
:107990000446174698460E46194D816AE36A8B42A3
:1079A0002AD04B1C18E0284601F014F80122294681
:1079B00020460DF107030FF0E8FC30B1434629469D
:1079C00020469DF80720B847B0B1A9684A1C05D0E9
:1079D000012E0AD0E36A9942E5D10DE0696820469C
:1079E0000FF054FC012E0146D8D16B6881EA0302E6
:1079F000636C5B421A42D1D002B0BDE8F08100BF97
:107A0000A83100202DE9F041036B9046826B076896
:107A10009A4288BF8363426C436A90B002FB03774B
:107A2000C36B0E46052201A95B6904463846984798
:107A300001A80FF088FF01280146307057D0656C0F
:107A4000E26B2368606AD2F814C005FB003005229F
:107A500006A9E04706A80FF076FF01284FF00005C1
:107A600023D0D4E90A3201219342CDE90B458DF8A8
:107A700034800E958DF83C102AD1194620460FF01F
:107A800005FC236B626C14339B1AE06223630C9B2E
:107A900053B99DF83C303BB1626A616C2368E06B7E
:107AA00001FB02310FF007FF0C9DE36B05225B69C0
:107AB00001A93846984701A80FF045FF30702846C5
:107AC000236BA26B9A4288BFA36310B0BDE8F0811C
:107AD000237C33B91C490BAA04F1080000F0F6FE20
:107AE000D5E72046194A0BABFFF750FFCFE7237CC1
:107AF00023BB2246164904F1080000F0E7FE616A44
:107B000020460FF057FB616A421C20460FF020FB15
:107B1000054620B9236B626C1344143B2363204653
:107B2000A16A0FF0B3FB2368A062C01A636CB0FBBC
:107B3000F3F0606220460FF0ECFBB6E7002320462E
:107B4000044AFFF723FFDAE735820008B181000815
:107B5000DD730108AF7301082DE9F04F9A468BB031
:107B60009DF85030DFF850B10293DBF810308046BA
:107B700053450D461646C0F09980D146DBF80430D7
:107B80000193B9F1000F00F08D80D8F83C3001224C
:107B90005B6907A90198984707A80FF046FEDBF834
:107BA0000030984240F0858007A80FF04AFE042874
:107BB000074614D107A80FF04BFE019B029A04461A
:107BC0003B44002A3FD1864212D91446361A404619
:107BD00001990FF05BFBA9EB04090190D1E7D8F8FC
:107BE0003C3002225B69019808A9984708A8E2E79F
:107BF000841B544528BF5446032C03EB0607AAEB0D
:107C0000040A4FEA94021CD9D8F83C302946384679
:107C10005B69984724F0030304F003061F441D44E6
:107C2000002ED4D0D8F83C3001225B6908A9384630
:107C300098473246284608A9354415F0DBFA002655
:107C4000C5E72646ECE7074600F00302039203442B
:107C50002A1804920593049BDD1B059BD81B039BEC
:107C60009F420FD1002FB2D0D8F83C30012208A992
:107C70005B6998473A46284608A915F086FA78B90C
:107C80003D44A4E7D8F83C30012208A95B69984735
:107C90000422284608A915F078FA08B9043FDAE763
:107CA0004FF0360948460BB0BDE8F08F4FF063093E
:107CB000F8E74FF06F09F5E72C3200202DE9F04F7F
:107CC00099B00F4609920A69416C0E931439D31D7D
:107CD000B3FBF1F3013302EBC302036B044693429F
:107CE000C0F00D820023DFF820940D93E36A48462C
:107CF0001946079300F06EFED7E9033604930E9BF6
:107D0000022B4ED1CC2E40F08A81099B002B42D011
:107D1000394620460FF0CEFB656C079A6B1E134068
:107D20001490ED1AE36B01225B6916A978689847F5
:107D300016A80FF07EFD00280CBF04230823782E20
:107D400006933DD9012300254FF0080A05933B68AF
:107D500005990E98C9F80030C9F810600FF08BFD36
:107D60004FEA9A0310930023DDF81CB089F8140041
:107D70000B930F9308930C93616C4A1E0BEA02025B
:107D80008B1A002E38D05544AB4240D8236B5B1A77
:107D900013442363ABE0049B1B68149308230693EE
:107DA000D0E7656C079A6B1E1340782EA5EB030590
:107DB00016D8FB7D7BB9099B002BB3D10423069316
:107DC000331DAB4210D9A6B1082DBBD80425002322
:107DD000AA460593BBE7099B002BA3D10823EEE736
:107DE000099B002B9ED1D9E7002505954FF0040A89
:107DF000ADE704250596F9E75345C7D3B0460BEB2D
:107E00000A030393089B002B18BF032313E0A3EB83
:107E10000A039E42B0460BEB0A0228BF98469E42D8
:107E20000392EFD90123D9F8102089F81730964230
:107E300071D1C9F804B0089399F81730002B6CD0B1
:107E400099F818200899D31C09EBC3030132C3F831
:107E500004B0A3F80880997289F81820B8F1000FCF
:107E600014D00E9B022B5BD10B9B7BB90F9B434421
:107E7000032B0BD9E36B01229B69039814A9984744
:107E80000546002840F03D8101230B93089B16A86E
:107E90000193059B009399F814204346396800F03C
:107EA0004FFDE36B58469B69109A16A99847051E2B
:107EB0000D9B18BF5B4652460D93594643462046DC
:107EC0000FF011FA236B08F10302A3EB0A0322F06F
:107ED00003029B1AC9F808002363002D40F01181AA
:107EE0000F9BDDF80CB04344A6EB08060F935946F0
:107EF00020460FF0CBF900258346002E7FF43CAFDF
:107F0000814A3968936804F10800E36252680E9B65
:107F100000F08EFCDEE002238DE7C9F804B09DE797
:107F2000099B002B30D1049BB8F1030F43440A9303
:107F300027D9DDE90301E36B4FEA98029B69984773
:107F40000546002865D118F003025FD0049B28F095
:107F500003052B440493039B1D444FF0FF33049906
:107F600015A8159315F046F9E36B28469B69012285
:107F700015A9984705460A9B0493002D86D0039BBC
:107F800099E74246039DE8E7039B0A9307F1200324
:107F90001193FB7D78689BB100233D7E0C9AD9B28A
:107FA0008D4211D9119903F1010C31F8331091422E
:107FB00026D9069907EBC303D8690A44104403E0A5
:107FC0000C9B069A13441844E36B01225B6915A9C4
:107FD0009847159B012213930C9B0A9804330C932A
:107FE000E36B13A99B699847039B0A9A43449B1A26
:107FF000042B054607D978B9134604330A93C8E71A
:108000006346521ACBE70A9B0393B6E70A9B049395
:108010003CE70A9B0493B2E70A9B0393AFE7702601
:1080200004F1080303932368079A606CA2EB030A28
:10803000BAFBF0FA00FB0A300FF0B5FCE16A8046AB
:1080400020460FF023F9A26A82424AD0626CD9F826
:108050000830511E0B40216B2568891A0B4423639D
:108060000D9BE0625D1BB5FBF2F5AA4536D1079B7F
:10807000B3EB080A12D0E36B4FEA9A0241469B69C0
:1080800098478346E36A079A5344E362236B039855
:108090009B1A434423630FF0DAFADA462368616CD3
:1080A000E06B01FB05310FF0F3FB20460FF031F8D8
:1080B00020460FF02EF92063BAF1000F11D03A6973
:1080C000616CD31D1439B3FBF1F3013302EBC3022E
:1080D0009042A8D2304619B0BDE8F08F4FF0000AA8
:1080E000DCE73A69616CD31D1439B3FBF1F301335A
:1080F00002EBC302236B9342BFF4F8ADEAE71C2600
:10810000E8E72E468CE700BFD43100202DE9F34785
:108110001E4643690446B342884617469DF8289098
:108120003DD300258DF8075020460EF0BEFFD4F851
:1081300030A082450AD2236AB5EB430F06D2002253
:1081400020460DF10701FFF75DFC30B39DF80730C5
:10815000012B05D1002220460DF10701FFF752FC4B
:10816000B9F1030F06D0314620460EF089FF256B8A
:10817000854218D30D4D4FF0FF31284600F02AFC00
:108180004B46002229462046C5E90376C5F8008003
:1081900002B0BDE8F047FFF791BD0135C4E76220AA
:1081A00002B0BDE8F0871C20FAE700BF00320020D3
:1081B000032A2DE9F34106460D4617461C4606D113
:1081C000237A012B23D0012002B0BDE8F081DFF833
:1081D0006080096842460DF10703FFF72DFB6060E0
:1081E0000028EDD19DF80720237A032AE8D0D8F89B
:1081F00004106A689142E3D1012B2969D4F80CC0BC
:1082000007D172690CEB0103934202D92074207CE0
:10821000DAE708316144E1603B46012229463046F5
:10822000FFF74CFD60600028CAD00020CCE700BFFB
:10823000003200202DE9F341089C032A17462668E6
:1082400006D1237A012B24D0012002B0BDE8F081B1
:10825000DFF89080304642460DF10703FFF7ECFA55
:1082600060600028EDD12568D8F80400A96AD5F827
:1082700044C04840CCF100031840227AE1D1012AE1
:1082800009D1E268D8F8103013447269934202D9D8
:108290002074207CD9E72868EB6A1B1A081AB3FB04
:1082A000FCF3B0FBFCF083420BD1706CF36A421E0E
:1082B0001340326B121A1344284633630EF0E6FF64
:1082C000E862D8F81020E36808321344E360012222
:1082D0003B4604492068FFF7F1FC60600028B0D0FD
:1082E0000020B2E7003200202DE9F04F4FF0FF33BD
:1082F0004FF6FF720025044600F10806C0E9092385
:108300008BB0C3620562056330460F460FF09FF9DC
:1083100020460EF0FEFE20BB204639460EF079FFC7
:1083200020460EF0F6FE20BB5E200BB0BDE8F08FBD
:10833000E26B2368606CD2F814C000FB05300522A4
:1083400005A9E04705A80FF0FEFA012828D1294623
:1083500020460EF02FFF421C294620460EF0F8FE64
:108360000135E3699D42E3D320460EF0D2FE00289A
:10837000D2D000254FF0FF394FF6FF73CA46A8460A
:10838000C4E90853E369984514D3A5EB0905012D09
:1083900036D84FF6FF72636A934246D16720C4E72E
:1083A0000FF0FBFA0028DBD0294620460EF002FF32
:1083B0000246D1E72368E26B606C576900FB083026
:1083C000052205A9B84705A80FF0BDFA834605A800
:1083D0000FF090FA074658460FF0DAFA68B15745A1
:1083E00038BFC4F82480B94528BFB946BD4238BF5C
:1083F0003D46BA46236A0133236208F10108C1E70A
:108400004FF6FF7300256362E3699D42C1D2676C3A
:108410002068E36B052207FB05005B6905A9984707
:1084200005A80FF067FA0135EEE7E26B676C20688C
:10843000694607FB030055690522A84768460FF007
:1084400059FA626A2368606C504D00FB02300FF0ED
:10845000AAFA4FF0FF33A062E3622A466FF00101EF
:10846000204605ABFFF7E8F900284FD1AD68294653
:108470002046E5620EF029FE206320B92046E16A1D
:108480000EF004FFE062294620460EF0FFFE05468E
:10849000A36A9D423CD16569626CE91C143AB1FB48
:1084A000F2F14FF0000805EBC1050335B5FBF2F51D
:1084B000C1460235E36999453CD3A8455AD22046C6
:1084C000616A0EF056FE0027064604F1400AB845E0
:1084D00012D8626C2368694602FB0639E36B0522F9
:1084E0005B694846984768460FF004FA53460246CF
:1084F0004946E06B0FF059FA314620460EF039FE3E
:108500000137AF420646E2D364200EE7A56AAEE724
:10851000294620460EF0D9FD236B29460344074621
:10852000236320460EF0B2FE0546002FB0D1C4E909
:108530000B07ADE7636C2768052203FB0977E36B44
:1085400005A95B693846984705A80FF0FCF90FF0BC
:108550001FFA60B138460FF026FA014620460EF0A9
:10856000B4FD636C143B984208BF08F1010809F19F
:1085700001099FE730460FF06AF8002320461946AC
:10858000034AFFF703FA0020CFE600BF00320020C5
:10859000797301080023624A2DE9F04117680E46FD
:1085A0000446136018B921252846BDE8F08190F8EB
:1085B00034500DB309680268914240F0A980716897
:1085C0004268914240F0A480B1688268914240F0D4
:1085D0009F80F168C268914240F09A803169426997
:1085E000914240F09580B169C26B914240F0908019
:1085F00072691D468261D7E750222946D0F838803B
:1086000014F0EDFDD6E90212336804F1080023608E
:108610007368C4F838806360336963617369A36108
:108620000FF027F8B36904F14000E3639B689847B3
:1086300094F8432020B1E561002AB4D05B25B3E76C
:10864000656C002DF7D06668B6FBF5F3E361002A90
:10865000A9D0B542F2D82268B2FBF5F105FB112290
:10866000002A57D105FB1363002B53D120460EF08F
:108670001CFDA369043303449E424DD340F634727B
:108680006369CC3B934249D8B5F5805FD6D30321CB
:1086900020460EF033FDD4E90001E36B1B689847D8
:1086A0000546E36B0220DB6898471DB1002384F880
:1086B00034301DE039462046FFF716FE6428054693
:1086C00004D139462046FFF70FFE0546636C143B84
:1086D000002DEBD1226A204602FB03F60EF0E5FCEA
:1086E000A369043303449E4206D284F834505A25C9
:1086F000E06B0EF081FE57E70123D4E90001094A3F
:1087000084F834301368013313600FF04CF8EFE74E
:108710005D2549E7592547E75A2545E75F2543E7A2
:10872000642B0020602B00202DE9FF410F4690466E
:108730001E46054698B390F8343093B3B1F5801FC8
:1087400031D21A4C02210EF0D9FC22463946284675
:108750000DF10F03FFF770F8024678B1012342468E
:108760000093394633462846FFF7D0FC0446E86BB1
:108770000EF042FE204604B0BDE8F0819DF80F30B7
:10878000012BEBD12169B142E8D100934146334638
:108790002846FFF7E1F904460028DFD1E7E7212466
:1087A000E8E71124E6E72924E4E700BF2C320020A3
:1087B0002DE9FF410C4616461F46054680B390F84A
:1087C00034307BB3B1F5801F2ED2DFF860800121F9
:1087D0000EF094FC2146424628460DF10F03FFF7A8
:1087E0002BF8044670B99DF80F30012B11D1D8F841
:1087F0001030BB4212D10246009031462846FFF7A6
:10880000ABF90446E86B0EF0F7FD204604B0BDE876
:10881000F081022B14BF2D246024F3E76324F1E7D9
:108820002124F2E71124F0E72924EEE72C3200207E
:108830002DE9F043466886B3056898464FF0000C72
:10884000A946AE4655F83C400CF1010CC4F31307A1
:10885000013401D0B94217D066450EF1080EF1D1AE
:108860002F46002403E0A64207F1080712D055F86E
:10887000343001340133F6D1C1F3130141EA085118
:10888000C7E90012BDE8F08341EA0851CEE90012C1
:10889000BDE8F083B8F1030F03D101230372BDE8F3
:1088A000F083002303E09E4209F10809F5D055F852
:1088B00033400133C4F30754032CF4D1C1F3130341
:1088C00043EA0853C9E90032BDE8F0832DE9F041DD
:1088D0000646406882B0C0B10F4690460024336817
:1088E00053F8345003EBC403C5F30752C5F3130127
:1088F000013504F1010406D05B683046CDF80080F4
:10890000B84710B170688442E9D302B0BDE8F08185
:10891000024B1968024B1868FFF73CBE1840002054
:108920003840002008B516F02EF8014B186008BD3D
:1089300058320020014B186816F020B85832002039
:1089400073B504462248012A00EAC1119DF8185067
:1089500023F07C4007D9961E012E28D9073303F057
:108960007F03194308E09DF81C300A43DB0603F03F
:10897000C053134343F060410023C4E900108DF855
:108980000730B5B1202221460DF107000FF027F87E
:108990001A220DF10700211D0FF021F8082063684D
:1089A0009DF8072043EA8263636002B070BD114303
:1089B000E2E71B220DF1070021460FF010F82368B3
:1089C0009DF80720042043EAC2632360EDE700BF5F
:1089D00080FFFF0738B5094B0D461A680021044691
:1089E00014F0FDFB00234FF0FF322383C4E9002580
:1089F0002361A260E382A37638BD00BF80ED010849
:108A00000138C0B205289ABF014B185C012070479D
:108A100085ED01082DE9F0410746154600240E4674
:108A2000596888B0490A012922464FEA510104F1E8
:108A30000104F8D8DC78997824031B88C90201F472
:108A4000006104F480540C43C3F30A03520323442B
:108A500092B24FF000089C18274B6FEA044403932E
:108A600025F07843ED4302A90DF107001B22029384
:108A70008DF807800EF0B3FF9DF80720029B02A936
:108A800043EAC2630DF107001B2225F078450493E9
:108A900002958DF807800EF0A2FF9DF80720029B3B
:108AA0006FEA144443EAC26305934FF0FF3307941F
:108AB000069307A9BB69012206F110009847BB691C
:108AC00005A90446012206F108009847BB69404504
:108AD00018BF044604A90122301D984701224045D1
:108AE00018BF0446BB69304603A99847404508BFF4
:108AF000204608B0BDE8F08101009AB2044BD3F8DB
:108B00008420D206FBD4D3F88400C0F381107047D0
:108B10000040005038B5174B0546D3F828310C46B5
:108B200003F00703013B052B20D8DFE803F0031314
:108B30001B0F0B1714F03EFE052305B1286004B18E
:108B4000236038BD14F036FE0623F6E714F07CFEF1
:108B50000723F2E714F06EFE0323EEE714F06AFE3B
:108B60000423EAE714F062FE0223E6E70023184636
:108B7000E3E700BF00800050002337B50193164B98
:108B80000546D3F820320C4603F00703042B21D806
:108B9000DFE803F0030B11161B0001230DB1019A4E
:108BA0002A6004B1236003B030BD002101A8FFF7A3
:108BB000B1FF1223F2E714F047FE07230190EDE71F
:108BC00015F0D6FE0A230190E8E714F085FE09238C
:108BD0000190E3E70023E1E70080005038B5104B37
:108BE0000546D3F880300C4603F00303022B0BD06C
:108BF000032B0DD0012B0FD114F0E2FD0E2305B194
:108C0000286004B1236038BD14F01EFE0723F6E788
:108C100014F0D0FD0623F2E700231846EFE700BF6B
:108C20000080005038B5104B0546D3F800310C4693
:108C300003F00303022B0BD0032B0DD0012B0FD11C
:108C400014F0F8FD032305B1286004B1236038BD9A
:108C500014F042FE0923F6E714F0F2FD0823F2E7D0
:108C600001230020EFE700BF0080005038B5184B0B
:108C70000546D3F820010C4600F00700062823D84B
:108C8000DFE800F0040A0E16121A1E00012305B1D7
:108C9000286004B1236038BD14F08CFD0523F6E78D
:108CA00014F0C8FD0323F2E714F0CEFD0723EEE72E
:108CB00014F0BCFD0223EAE714F07CFD0623E6E78E
:108CC00014F0B8FD0423E2E700231846DFE700BFF5
:108CD0000080005038B5104B0546D3F840310C46A3
:108CE00003F00303022B0BD0032B0DD0012B0FD16C
:108CF00015F03EFE0A2305B1286004B1236038BD9B
:108D000014F0EAFD0923F6E715F035FE0C23F2E72F
:108D100001230020EFE700BF00800050002337B59B
:108D20000193164B0546D3F860320C4603F0070357
:108D3000013B032B1FD8DFE803F0020E19140021BA
:108D400001A8FFF793FF10230DB1019A2A6004B127
:108D5000236003B030BD002101A8FFF7BBFF112342
:108D6000F2E714F071FD07230190EDE714F05EFDCA
:108D700002230190E8E70023E6E700BF00800050EF
:108D8000002337B50193164B0546D3F894320C46B1
:108D900003F00703013B032B1FD8DFE803F0020EAB
:108DA0001914002101A8FFF761FF10230DB1019AEA
:108DB0002A6004B1236003B030BD002101A8FFF791
:108DC00089FF1123F2E714F03FFD07230190EDE73F
:108DD00014F02CFD02230190E8E70023E6E700BF32
:108DE0000080005038B5104B0546D3F860310C4672
:108DF00003F00303022B0BD0032B0DD0012B0FD15B
:108E000015F0B6FD0A2305B1286004B1236038BD12
:108E100014F062FD0923F6E715F0ADFD0C23F2E72F
:108E200001230020EFE700BF008000502E4B984246
:108E30004AD022D82D4B984240D014D82C4B98427F
:108E400039D00AD82B4B984232D02B4B98422FD096
:108E50002A4B98422CD000207047294B9842FAD1D7
:108E6000284B186F7047284B98422AD0274B9842BE
:108E7000F1D1244BD3F880007047254B98422BD07A
:108E800009D8244B984223D0234B9842E3D11D4B61
:108E9000D3F88C007047214B984221D003F574031E
:108EA00003F510539842D6D1164BD3F8980070476B
:108EB000144B986D7047134B586E7047114B586F99
:108EC0007047104B986F70470E4BD3F88400704773
:108ED0000C4BD3F8880070470A4BD3F890007047CA
:108EE000084BD3F8940070470048E8010024F400D0
:108EF000C0CF6A0080841E0000093D0040420F0080
:108F0000405DC6000080E00FC0EA210180BA8C01FC
:108F1000007E560380D54302006CDC020090D00333
:108F200073B50D460021114B0191D3F880410646DF
:108F300004F00304022C13D0032C0CD0012C13D109
:108F400001A8FFF793FE10240EB1019B336005B119
:108F50002C6002B070BD14F077FC07240190F3E799
:108F600014F064FC0190EFE70C46EDE70080005040
:108F700038B5104B0546D3F840320C4603F00303D6
:108F8000022B0BD0032B0DD0012B0FD115F0F0FCD1
:108F90000A2305B1286004B1236038BD14F09CFC9D
:108FA0000923F6E715F0E7FC0C23F2E70123002084
:108FB000EFE700BF0080005038B5144B0546D3F8EA
:108FC00000020C4600F0070004281BD8DFE800F080
:108FD00003090D111500012305B1286004B12360B8
:108FE00038BD15F0C5FC0A23F6E714F075FC09231B
:108FF000F2E715F0C0FC0C23EEE714F001FC0F23A0
:10900000800AE9E700231846E6E700BF0080005029
:1090100038B5144B0546D3F808020C4600F007009B
:1090200004281BD8DFE800F003090D111500012307
:1090300005B1286004B1236038BD15F099FC0A23FE
:10904000F6E714F049FC0923F2E715F094FC0C2331
:10905000EEE714F0D5FB0F23800AE9E7002318465A
:10906000E6E700BF00800050B0F5207F1FD009D890
:10907000B0F5007F15D003D868B1B0F5C07F0AD035
:1090800000200CE0B0F5607FFAD10B4BD3F88000E4
:10909000C0F3011003E0084B186FC0F30330013038
:1090A0007047054BD3F89000C0F30460F7E7024B1C
:1090B000186FC0F38020F2E70080005002464FF4A2
:1090C0008030104B10B598660020FFF7CDFF50435D
:1090D00041F671320C4BDC69DA635A6804F480346F
:1090E00022F4401259B90949884294BF0020012056
:1090F000000502435A600CB10022DA6310BD044936
:10910000F2E700BF0090005000000350005A6202D6
:10911000002D3101430905D0012B0CD0022B084B47
:1091200018BF002300F01F0039B103F5805301225E
:1091300082401A607047034BF4E703F50053F6E7EB
:1091400068800050648000501FB50021B0F5807F1A
:109150000446CDE9001100F0D2803AD85E2833D819
:109160005E2833D8DFE800F0453232323232323214
:1091700032323232323232323232323232323232CF
:10918000323232323232323245AC45ACBCBCBCBC7D
:10919000BCACC64E6BDC4EACACAC3232323232328E
:1091A0003232ACACAC7EE6AC3232323232323232B7
:1091B0003232323232BC454545E14E4EEB8D63C111
:1091C00032323232329E4500802870D0009804B08E
:1091D00010BDB0F5D06F00F0A38035D8B0F5607F3A
:1091E00079D01AD8B0F5007F65D005D8B0F5C07F2A
:1091F000ECD114F005FB5CE0B0F5207F60D0B0F559
:10920000407FE3D114F0FCFA02464FF42070FFF7E0
:109210002BFFB2FBF0F252085BE0B0F5B06F69D003
:109220000AD8B0F5806F5BD0B0F5A06FCED1002129
:109230006846FFF7A1FCC9E7B0F5C06FC6D10021B1
:109240006846FFF747FDC1E7B0F5106F6DD00ED847
:10925000B0F5086F78D0B9D8B0F5E06F6AD0B0F546
:10926000F06FB3D100216846FFF7BCFDAEE7B0F563
:10927000406F3AD013D8B0F5206F60D0B0F5286FAA
:10928000A4D10021324B0391D3F8703203F00303D1
:10929000012B02D103A8FFF71DFD039B39E0B0F5B8
:1092A000486F93D100216846FFF76AFD8EE714F0FE
:1092B00087FA00908AE714F083FA0246204604E019
:1092C00014F09EFA02464FF42070FFF7CDFEB2FB79
:1092D000F0F200927AE701A8FFF780FC019AEDE72F
:1092E00000216846FFF7C2FC70E700216846FFF7DF
:1092F00011FC6BE700216846FFF712FE66E74FF0AE
:10930000E02302911B695B0705D514F079FA0290FE
:10931000029B00935AE703A902A8FFF7DBFCF7E7DB
:1093200000216846FFF748FE50E700216846FFF736
:109330006FFE4BE700216846FFF71AFE46E7002163
:109340006846FFF7EBFC41E76846FFF76BFC3DE73B
:109350000080005008B58020FFF7F6FE034B9842CE
:109360009EBF4FF48032024B1A6708BD005A62025A
:1093700000A000501FB503460020B3F5807F019088
:1093800000F0C58065D85D2B56D84C2B07D82D2B07
:1093900048D8232B2CD8019805B05DF804FB4D3B31
:1093A000102BF8D801A252F823F000BF0595000851
:1093B000979300089793000897930008B3940008C8
:1093C00097930008979300085F950008D1940008D0
:1093D0007794000855950008979300089793000824
:1093E00097930008979300089793000869950008E1
:1093F000243B092BCFD801A252F823F00595000891
:1094000005950008059500080595000805950008D4
:1094100097930008FB940008979300089394000822
:109420003B9500083D2B00F083803E2BB3D10020FC
:1094300001A9FFF79DFDAEE7802BACD1504B1B6F10
:1094400003F00703013B032BA5D8DFE803F0544DDD
:109450005052B3F5F06F6BD020D8B3F5B06F4CD04D
:109460000ED8B3F5607F71D095D3B3F5806F49D036
:10947000B3F5A06F8FD1002001A9FFF77DFB8AE72C
:10948000B3F5D06F59D0B3F5E06FD0D0B3F5C06F5E
:1094900081D1002001A9FFF71DFC7CE7B3F5206F07
:1094A0005DD00BD8B3F5086F4CD0B3F5106F7FF4D7
:1094B00072AF002001A9FFF7ABFD6CE7B3F5406F79
:1094C00048D0B3F5486F4FD0B3F5286F7FF463AF42
:1094D0002B4BD3F8703203F00303012B49D0022B3E
:1094E0000CBF1523002300E00523019353E703235A
:1094F000FBE70823F9E70223F7E7002001A9FFF7BC
:109500000FFD48E7002001A9FFF7B0FB43E74FF04C
:10951000E02302901B695B0705D514F071F90D2358
:109520000393039BE1E703A902A8FFF7D3FBF8E746
:10953000002001A9FFF756FC2DE7002001A9FFF745
:109540003BFD28E701A9FFF76DFB24E701A9FFF721
:1095500045FB20E7002001A9FFF7DCFA1BE700200C
:1095600001A9FFF7DBFB16E7002001A9FFF708FCC4
:1095700011E7002103A8FFF7ADFB1123B5E700BFFA
:10958000008000504FF48032074B0849586E03F5B5
:1095900080535A664B6A23F001034B62C3035CBFDE
:1095A000034B5A66704700BF0080005000C0075050
:1095B00000A0005038B504468020FFF7DBFE0328EA
:1095C00000F083804FF48012524B4FF0A0615A6636
:1095D00045F60E02504BC3F88020504A91624FF47A
:1095E000803102F5805291629A6DD203FCD4996D5C
:1095F00011F08041FBD1D4E90002120542EA006279
:10960000E07B0243207B42EA0042607B42EA003278
:10961000A07B42EA80121A619869D4E904521206CA
:1096200042EA856200F000400243A07EE57E0243EC
:10963000207E42EA0042607E42EA00229A611A6A73
:10964000E06922F00F0242EA8502354D00283DD143
:109650001A6294F82420996A94F82000D2002940D4
:1096600042EA40120A4394F8211042EA011242F4FD
:1096700080329A622B49284A936D31EA0303FBD169
:109680004FF08071254881621369A56823F4700347
:1096900043EA055313614FF00043836194F822308D
:1096A0000BB9214B996294F823303BB94FF48032C7
:1096B0001D4B9A62184A936D5B00FCD494F82530D8
:1096C0001BB1154B194AC3F8802038BD024342F044
:1096D000080202281A6208D119614FF408529961F0
:1096E00013484FF47F410EF098F90B4994F822305B
:1096F0008A6A94F820001B062A4043EA4013134369
:1097000094F8242043EAC20394F8232043EA024356
:109710008B62D3E7009000500040005A0050005A7E
:10972000C7FFFEFE030001000060005AF1A7FFFF23
:109730003440005A014B93F900007047204100204B
:10974000F0B5D0E901434FF400061A4A4178057894
:1097500056664FF4D156022702F5B8325662164EBD
:109760004F2977604FF0010728BF4F2106F580563B
:1097700077601669F603FCD441EA052151611B01AB
:10978000417B43EA04230B43017B43EA410393609B
:10979000C37B817B1B0143EA4113417C0B43017C6A
:1097A00043EA41035360837C13B16FF4D153536296
:1097B000F0BD00BF0090005000100250014B188017
:1097C000704700BF0E410020014B1880704700BF5A
:1097D0000C4100204FF4800208B5184B5A66022352
:1097E000174A5360936813F48033FBD1012822D1C8
:1097F00014F020F8134B984215D003F5122303F50B
:10980000F863984213D0104B00EB8002400AB3FB80
:10981000F0F3520A0A49CA620B6301234B62002229
:10982000074B5A6008BD45F67A13084AF2E745F639
:109830001A03074AEEE75362F1E700BF00900050B9
:109840000040025000F0490264666666D8B8050020
:10985000BBCF0500B0F5207F10B50C465DD008D811
:10986000B0F5007F4ED003D8C0B1B0F5C07F15D0A1
:1098700010BDB0F5607FFBD12C4B4C1ED3F8FC2003
:109880002B4912F0807F4FEA041427D1D1F88030A1
:1098900023F030032343C1F88030E9E70EF0CCF821
:1098A0000EF0D8F84FF48031224B214A1967136F1C
:1098B000013C23F4704343EA0433136713F0A0FF21
:1098C0000446FFF71BF9C0F1020120460EF0BCF878
:1098D00000F04AF8BDE81040FFF73CBDD3F8FC208B
:1098E00022F08072C3F8FC20D1F8802022F03002F0
:1098F0002243C1F88020D3F8FC2042F08072C3F8E4
:10990000FC20B5E70A4A4C1ED2F8903023F0F853F9
:1099100043EA0463C2F89030AAE7054A4C1E136F6D
:1099200023F4806343EA84231367A1E700ED00E09A
:10993000008000500090005008B50121022000F086
:1099400041F94FF42070FFF78FFB054B18700EF0B4
:1099500073F80EF07FF84FF48032024B1A6708BD9F
:10996000EB3B00200090005008B54FF4C070FFF7AB
:10997000EBFBBDE808400449884294BF0121022165
:109980004FF42070FFF766BF80F0FA0238B5044646
:1099900013F036FF0546FFF7B1F8C0F10201284683
:1099A0000EF052F80121002000F04CF92CB1FFF725
:1099B000DBFFBDE83840FFF7CDBC034B4FF4207010
:1099C0001978FFF747FFF4E7EB3B00204FF4C02284
:1099D00070B50546FFF72AFA314B04465A6603F57F
:1099E00098335A68012A04D12E494A605A6892076E
:1099F000FCD48020FFF7BEFC052807D10EF01CF830
:109A00000EF028F84FF48032254B1A67264B24F0CD
:109A100040749D4230D0254B9D4230D013F0CAFE99
:109A20008542064603D90121284600F00BF9204B58
:109A3000DA6812F0060FFBD199689C609A68624060
:109A400012F4F81F1ED12846FDF766F88020FFF7B4
:109A500091FC05280DD113F0D3FE0446FFF74EF814
:109A6000C0F1020120460DF0EFFFFFF77DFFFFF789
:109A700071FCAE420CD270BD44F00074CEE744F0ED
:109A80008074CBE780209960FFF774FC052805D02F
:109A9000BDE870400121002000F0D4B83546DAE777
:109AA0000090005000E0015040420F0080841E00F2
:109AB00000000150304B314A984251D020D8A3F5D4
:109AC000B703A3F55863984246D00DD82C4B984263
:109AD00031D02C4B984239D02B4B4FF40021984277
:109AE0001DD00023516622E0284B4FF400219842FC
:109AF000F7D1274BD3F8BC30516623F0407316E002
:109B0000244B984230D0244B984231D0234B4FF411
:109B100000219842E5D11E4BD3F8C830ECE71C4B2E
:109B2000D3F8A030516623F0407343F000734FF038
:109B3000B442936070474FF40021154BD3F8A03026
:109B4000516623F0407343F08073F0E7104BD3F875
:109B5000A0304FF40021CFE70D4BD3F8B830F8E731
:109B60000B4BD3F8C030F4E7094BD3F8CC30F0E717
:109B7000074BD3F8D030ECE7C0EA21010090005049
:109B800080841E0000093D0040420F000024F400C4
:109B90000080E00F0048E801005A620280BA8C01A0
:109BA000024A536B0342FCD1704700BF004009508A
:109BB000034A0179D36E23F030030B43D366704719
:109BC00000400050F8B504461C4BD3F88420D10661
:109BD000FBD4D3F88430C3F381139C422CD013F010
:109BE000EFFD012C064602D121460DF02DFF14F0A9
:109BF000CAFE4FF00072124B07465A6620460DF01F
:109C00002EFF4FF480630D4D621E93402B676B6EE9
:109C10009A0103D4D5F884309B060AD5384614F04F
:109C2000ADFE022C08D13046BDE8F84000210DF011
:109C30000BBFD5F88430EAE7F8BD00BF0040005004
:109C40000060005010B50C4608B913F0B9FD074B81
:109C500021461B783BB1064B984204D80120BDE851
:109C60001040FFF7AFBF0220F9E700BFEC3B002038
:109C7000005A62024FF0004238B5244B244C5A6619
:109C80004AF6CD33656C014605F00105236428BB17
:109C90000120FFF785FF6368DB0715D51D4B586072
:109CA00008461D4B226BD2070CD4984208D10724DA
:109CB00015B1174B194A1A6412F0B7FC204638BD8B
:109CC0000130EFE79842F2D00024F1E70132236B34
:109CD00013F0080305D08A42F8D1E8E700220E49C4
:109CE000F5E78A42E3D020210A4A91620121A2F5D8
:109CF000805251600649084A886A800603D493421C
:109D0000D5D00133F8E79342DDE700BF0090005063
:109D1000004009500060095040420F003254FFFFDC
:109D20004FF0004238B5164B01465A664AF6CD331D
:109D3000144C154A656C236443780B205B0043F098
:109D40000103D363FFF72CFF63688A7823F4F87369
:109D500043EA02136360CA784B7943EA0223A360A3
:109D60000A798B7943EA022323610878FFF782FF9F
:109D7000EB0744BF054B236412F057FC012038BDAC
:109D80000090005000400950004000503254FFFF46
:109D90004FF00042124B70B55D6E03F580535A666A
:109DA0004AF6CD3304460F4980204E6C0B64FFF712
:109DB000F7FE0B6A23F00F030F2C94BF234343F0ED
:109DC0000F030B62F30744BF074B0B64002DA2BFC8
:109DD0004FF00042054B5A6612F027FC70BD00BFE1
:109DE00000800050004009503254FFFF00A0005096
:109DF0004FF00042104B70B55D6E03F580535A660C
:109E00004AF6CD3304460D4980204E6C0B64FFF7B3
:109E1000C7FE0B6A23F4F85343EA04230B62F307EB
:109E200044BF074B0B64002DA2BF4FF00042054B0F
:109E30005A6612F0FAFB70BD0080005000400950D5
:109E40003254FFFF00A0005010B50DF00DFE0423AA
:109E500000F5805100F500520B6113610B61136135
:109E60000B6113610B611361202341F20201036155
:109E70000023C360836041614FF4A0218361836547
:109E800041620549C36103628362C3624363036540
:109E9000D164036310BD00BFFF3F0D0370B50546DD
:109EA0001446084641B9354B9D4218D0344B9D426B
:109EB00008BF5720FFF748F9AB6813F0010F6B6834
:109EC00030D0B0FBF4F4D80704F1FF344FEA046457
:109ED00007D42B6923F07F4323432B6170BD5620A9
:109EE000E8E7282128460DF0BBFDAB6C990715D19A
:109EF000AB6CDA0714D4AB6C13F0020F14BF062658
:109F0000002628460DF0B0FD2B69314623F07F4333
:109F100023432B61BDE870400DF0DDBD0526F0E761
:109F20000926EEE7AB6DDB07AB6848BF640003F0C2
:109F3000E003402B1BD004D8DBB1202BCED108236B
:109F400004E0602B17D0802BC8D10123634341016B
:109F5000B1FBF3F20B4B203A284603EAC20201217F
:109F60000DF07EFD2A63BDE870400DF079BD06233B
:109F7000ECE71023EAE70423E8E700BF0000015BF9
:109F800000000A50F8FF7F00F8B5436804460E460B
:109F90000D691BB140F6FF710DF062FD2046FFF721
:109FA00053FF2269737BB17B22F087020B4313437B
:109FB00043F0800323611DBBA368F27B23F00303FE
:109FC000134343F00103A3606369327B23F00F0363
:109FD00013436361D6E901122046FFF75FFF0521B5
:109FE00020460DF05BFD28210DF03AFD3378A36388
:109FF0000DF036FDA36CDB4313F4405FFAD1F8BDDE
:10A000002369297F23F0F80343EAC1132978EA7B07
:10A010000B43297943EA4113697A43EA011343EA7E
:10A0200082132361E068D5E9053720F0F0403B4317
:10A0300020F470200343287B697B43EA802343EAB2
:10A04000C133E360A368F07B23F00303034343F0D1
:10A050000103A3606B88A06803F4C0430343A360BB
:10A06000A368687943EA8023A360AB79EF79606ADB
:10A070001B013F0203F0700307F4E06720F4772030
:10A0800020F4EE603B430343287A000300F4E040F1
:10A090000343687F000400F4702003436362636934
:10A0A000307B23F00F03034363616B89A36111B31A
:10A0B000164B9C420CD1AB7B154903F00F034B6749
:10A0C000002A87D02B7C124A03F00F03136781E725
:10A0D000104B9C427FF47EAFAB7B0D4903F00F0326
:10A0E000C1F88030002A3FF475AF2B7C084A03F09A
:10A0F0000F03D3676EE7002A3FF46CAF034B9C421B
:10A10000E0D0044B9C42F0D064E700BF0000015B4C
:10A110000090035000000A502DE9F04105460F461B
:10A120001E4690464AB101233022194C8B4002FB57
:10A13000004436B304F5825423600F21072F05EB4A
:10A14000450388BFA7F108044FEA0313114895BFE0
:10A15000BC00A40004330C3308FA04F2A1401844F4
:10A160000DF0C8FCB8F1000F09D101233021084AD5
:10A17000BB4001FB05223EB102F582521360BDE8EF
:10A18000F08104F50154D7E702F50152F6E700BF6C
:10A1900000C0035030C0035010B5152000F066FE1B
:10A1A0000024FF22064B21465C6520209A625C60F9
:10A1B000FEF7B0FF2146BDE810402120FEF7AABF00
:10A1C00000000450044A054B002908BF1346012231
:10A1D00082401A60704700BF401004504020045075
:10A1E00010B5012104462020FEF794FF0121212013
:10A1F000FEF790FF0122114B15205A6022781206BB
:10A200009A606178A27842EA01429A61FF229A62DA
:10A2100000229A631A644FF000425A654FF0FF32F1
:10A2200003F500531A6500F04FFE1520E1780DF09C
:10A230007AFDBDE81040152000F02ABE0000045051
:10A24000F8B50125C3B2D1F800E091F80AC00F7B40
:10A250000C469D40CB7A1D491D4E0D65810001F1D4
:10A26000A04101F58821C1F804E04FF0300E0EFB4B
:10A2700000601B05617B43EA0C4343EA475322F02D
:10A2800003020166C365026714F08AFB114B5D652A
:10A29000237A13B1336C2B433364637A13B1B36BFA
:10A2A0002B43B3632279A37943EA0243074A9361BC
:10A2B0006179E37943EA014306498B61044B5563B5
:10A2C0009D64BDE8F84014F066BB00BF0020045058
:10A2D000000004500010045010B50124C0B28440A6
:10A2E00014F05EFB044B5A6D22EA04025A659C622C
:10A2F000BDE8104014F04FBB0000045010B501241D
:10A30000C0B2844014F04CFB074BDA6A224208D1F9
:10A310005B6B9C430CBF0124002414F03CFB2046E3
:10A3200010BD0024F9E700BF0000045070B50546D9
:10A3300014F036FB3022084B5E6B02FB05335C6E7B
:10A3400014F029FB0123EDB2AB4033420ABFC4F342
:10A350000A100020013070BD000004504FF480321C
:10A36000054B9A6641F6713203F51C33DA6301221C
:10A3700003F50053DA6070470090005041F67132E7
:10A380000121064BDA6303F50052D1600022DA6343
:10A390004FF48032A3F518339A66704700000350DB
:10A3A000013831289ABF024B185C0020704700BF6B
:10A3B0008BED0108021E30B54FF000000CBF1025D8
:10A3C000042547F60774084952B9831D51F8233014
:10A3D000234023B101308542F6D14FF0FF3030BD2C
:10A3E00000F11603F2E700BF0080035038B5C2F356
:10A3F0000625044602F0070241B942EA052242F46A
:10A4000040220634074B43F8242038BD1146284625
:10A410000DF07FFB02462846FFF7C2FF163442EAE2
:10A420000022EFE700800350044B1868421C02BF73
:10A43000034AD2F894001860704700BF3C400020E7
:10A44000004000504FF48032064B5A6603F5E62375
:10A450009B69C3F38512827003F03F021B0B4270AD
:10A460000370704700900050014B986CD96C704796
:10A470000080E00F0120034B9B680A3303F01F03A9
:10A48000984070470080E00F70B5054616461C46A0
:10A4900021B94FF42070FEF757FE0146402C1BD027
:10A4A00003D8DCB1202C1BD070BD602CFCD1042360
:10A4B00003FB06F2530803EB4113B3FBF2F3094A23
:10A4C000203B02EAC303AA6822F06002AA60AA68DD
:10A4D0001443AC60EB61E7E70623E9E71023E7E705
:10A4E0000823E5E7F8FF7F00012100F5805310B550
:10A4F000596040F6AA6341F2050243610023094C0A
:10A500008360C365C26000F500520361C361C36428
:10A510009464054C8365A04204BF036543655160A4
:10A5200010BD00BFFFFF010000C0055070B50D4613
:10A53000FFF7DAFF012300F580567360AB7C044619
:10A540001BB1836843F080438360EB7C5BB1244B99
:10A550009C4202BF2A7DA3F51033C3F8C821E36DE6
:10A5600043F08003E3652A8A6B7B20461343EA8924
:10A570001343E3602B7BD5E90112FFF785FF6B7D69
:10A580001BB1A36843F48033A360AB7D1BB1A36808
:10A5900043F40043A360EB7D2A7E1B07120502F4FF
:10A5A000E00203F0E0431343A3656B7E9A1E012A89
:10A5B0004FF0020209D80B49032BC1F8202709D11B
:10A5C0000423F3652B78636170BD0749012BC1F843
:10A5D0002027F4E7042204F50053DA65F2E700BF10
:10A5E00000C0055000D0035000E003500122437822
:10A5F00001789A4030235943014B5A50704700BFAD
:10A6000040E00350034BD3F82424D3F82004104037
:10A61000704700BF00C003502DE9F8431F4B0546AB
:10A62000D3F810334B1E0E2B0E461746047890F8C5
:10A63000018026D951B34FF0000928461FB313F00B
:10A64000B5F90F21B8F1070F04EB440488BFA8F156
:10A6500008084FEA0414124895BF4FEA88084FEAE9
:10A66000880804340C3409FA08F201FA08F120448D
:10A670000DF08BFA86B9284657B1BDE8F84313F0C0
:10A6800095B98946D9E7FFF7B1FFDAE78946D8E7F8
:10A69000BDE8F843FFF7AABFBDE8F88300C0035048
:10A6A00030C00350054B9A689107FCD45A68920752
:10A6B000F9D4DA69002AF6D1704700BF00800A5049
:10A6C00008B513F07FF90222014B1A6108BD00BFE3
:10A6D00000800A5008B5FFF7E5FF0122024B03F5A1
:10A6E00080514A601A6108BD00800A5008B5044BC9
:10A6F0005968012903D1FFF7E3FF024B596008BDF8
:10A7000000800A5000A00A5010B5064CFFF7CAFF9F
:10A710006368012B03D1FFF7E9FFFFF7C3FF03785D
:10A72000E36010BD00800A50B8B94A680B7812B1D6
:10A73000127843EAC2034A7843EA42038A6812B1B4
:10A74000127843EA82138A7843EA8203CA6812B114
:10A75000127843EA4223014A9364704700800A500A
:10A7600070B5044611F096FF064630B90FCC044D83
:10A770000FC594E8030085E80300304670BD00BFB4
:10A780005C32002047F6FF739A42F0B56FD0022981
:10A790006FD8394B5B5C012B6BD8384DDF0005EB74
:10A7A000C30415F83330A178012B13D10025E078CC
:10A7B000401AA84202D80844C0B2F0BD431B6668E4
:10A7C000A0EB530336F913609642D4BF1D4603F144
:10A7D000FF30EEE760680028EFD0B0F90040944207
:10A7E00004DBB0F902409442B8BF144683883D446C
:10A7F000FF2B19BFC8224FF0280CB0F90620B0F982
:10A8000008C0A2EB04030CBF0126002693FBFCF357
:10A8100033446E781BB29E4201DD002B01DA731EB9
:10A820001BB24FF47A7C01339BB2071D5D1E2DB223
:10A830004FEAC50E00EBC505EA88AD689E4214FBE1
:10A84000025222EAE27202F15C02B2FBFCF204DD87
:10A8500037F8335001339542E8D200EB0E03988865
:10A86000904228BF1046884238BF0846A4E7FF2020
:10A87000A3E70020A1E700BFBDED01085C32002086
:10A880000229F0B555D82C4B585C012851D82B4CD7
:10A8900004EBC00114F830004B6801280FD1C878D0
:10A8A0008C78904294BFC4EB0001C4EB0201001B02
:10A8B000CAB28242C8BF002233F91200F0BD002B99
:10A8C00037D08878904202D3B3F90200F6E7CC780B
:10A8D000B3F900009442F1D94C789988013CA1F178
:10A8E000FF06714203F10405E4B2714103F10C0764
:10A8F000CEB2B44216D805EBC1014FF47A756A4363
:10A90000B1F902404968521A04EBD47102EB6102BA
:10A9100092FBF4F29042D1DBB3F902009042CDDC1D
:10A9200010B2CBE737F831C04E1C9445E3D3314623
:10A93000DEE70348C2E700BFBDED01085C3200203E
:10A940000080FFFF08B50448FFF70AFFBDE8084094
:10A95000012011F0A3BE00BFC0ED01080048704700
:10A96000104100207FB50222084B0949CDE901239F
:10A970004FF04073CDE90313052301A94FF0FF30D9
:10A98000059311F0E7FE07B05DF804FB006A1800BC
:10A99000000304002DE9FF474FF000080E4617465C
:10A9A0000446CDF80080002859D022B90025284659
:10A9B00004B0BDE8F087002951D032F0030902F05D
:10A9C000030A1FD04FF0E063C0E900380123019172
:10A9D000C0F808800293C0F81C8049F0005301A918
:10A9E00003930DF030F94946204613F0DFFF20466F
:10A9F00013F03CF8054628B14A464146304612F06D
:10AA0000EEFBD4E7BAF1000FD0D04FF000084FF0C2
:10AA1000E063C4E900380123CDF804D00293114B60
:10AA2000204601A9C4F80880C4F81C8003930DF0E7
:10AA30000AF90421204613F0B9FF204613F016F856
:10AA4000054608B13A46D8E7009A4E44EB00013576
:10AA500022FA03F3AA4506F8013BF7D1A6E7212520
:10AA6000A5E700BF040000202DE9F04101290546BB
:10AA70000E4690461F4692B04AD8046824F0400320
:10AA8000802B02D0B4F5807F45D11C2200210BA879
:10AA900012F0A5FB234A244B0121012E08BF1346C7
:10AAA0000A932B1D0193E408204B44F000540291BB
:10AAB0000AA80394CDF81080059106930797089192
:10AAC00001A909930DF0B5F804A90AA80DF0B1F891
:10AAD00007A90AA80DF0B7F829680AA8C90813F051
:10AAE00065FF10210AA813F061FF12F0ADFFA8B9AD
:10AAF0000AA813F064FF4FF098435A6CD202FCD5B9
:10AB00005C6D12F0ABFF04F4702012B0BDE8F08170
:10AB10006FF02000F9E76FF07100F6E74FF0FF30BB
:10AB2000F3E700BF00010004000101041000002051
:10AB3000B8B1036813F4E07F03F03F00C3F382125F
:10AB40000AD0012A0DD1084B41B103F580530122EF
:10AB500082401A6000207047044BF5E703F500536C
:10AB6000F5E70E20704700BF6880005064800050F9
:10AB700070B58A488AB00DF0CAF80646002840F041
:10AB8000E0806C46864D0FCD0FC42B682360FF23F9
:10AB90008DF80130834BD3F84C21500300F1F18044
:10ABA000D3F850318DF801609DF801306C46FF2BD1
:10ABB00008BF2C2368467C4D8DF80130FEF7C0FDA0
:10ABC0003220FEF7FBFD0FCD0FC40FCD0FC495E86B
:10ABD000030084E80300734BD3F84C21110340F1C8
:10ABE000B380A3F5FE431C88B4F5807F28BF5F24A3
:10ABF0008DF81940FEF79EFD044484F308046B4869
:10AC00008DF81840FBF78EFF6846FEF7D3FC322024
:10AC1000FEF7DAFD6648FEF7D9FE6648FEF74AFF02
:10AC2000654C01213620FEF775FA0020FEF7D2FDB3
:10AC3000FEF782FE236F002023F0070343F0030397
:10AC40002367FEF7A3FE236F23F4744323675B4B54
:10AC5000D3F8FC20D2017BD4D4F8803023F0030356
:10AC600043F00103C4F88030D4F88030C4F8803059
:10AC7000514CD4F8203123F0070343F00203C4F809
:10AC80002031D4F8283123F0070343F00203C4F83D
:10AC90002831D4F8803123F0030343F00103C4F8D2
:10ACA0008031D4F8403123F0030343F00203C4F8A9
:10ACB0004031D4F8603123F0030343F00203C4F8B9
:10ACC0006031D4F8403223F0030343F00203C4F8A8
:10ACD0004032D4F8003223F0070343F00203C4F8F3
:10ACE0000032D4F8083223F0070343F00203C4F81B
:10ACF0000832D4F8703223F0030343F00103C4F8A0
:10AD00007032D4F8203223F0070343F00103C4F873
:10AD10002032FEF737FC4FF0E022136943F00403C2
:10AD20001361D4F8603223F0070343F00103C4F841
:10AD30006032D4F8943223F0070343F00103C4F8DF
:10AD4000943230460AB070BDD3F85041E4B24FE7B8
:10AD5000D3F8FC2022F08072C3F8FC20D4F88020C5
:10AD600022F0030242F00102C4F88020D4F88020CF
:10AD7000C4F88020D3F8FC2042F08072C3F8FC2095
:10AD800076E74FF07E6393F89C2093F99C30002B7C
:10AD9000FFF60AAF8DF8012006E700BF58F401085E
:10ADA00014F401080080E00F28F40108C0175302D2
:10ADB00000B4C404C0EA21010080005000ED00E0AE
:10ADC00007B5094B18689A889B7900906846ADF8DA
:10ADD00004208DF80630FEF7A3FF0920FEF7D8FF08
:10ADE000002003B05DF804FB50F4010813B5002403
:10ADF000064A6846536F43F00103536700948DF889
:10AE00000440FEF7D5FE204602B010BD00400050C1
:10AE10000028ACBF00F16040064B4FEA0111C9B2F7
:10AE2000ABBF00F5614000F00F0080F8001319542B
:10AE3000704700BF14ED00E008B513F0B1FD0A4BF8
:10AE40001A786AB901221A7013F0A5FD6FF0040296
:10AE5000104605210132FFF7DBFF4C2AF8D108BD6F
:10AE6000BDE8084013F097BDED3B002000280CDB47
:10AE700001220649430900F01F008240203341F8B7
:10AE80002320BFF34F8FBFF36F8F704700E100E0C7
:10AE9000002807DB01234109034A00F01F0083401B
:10AEA00042F82130704700BF00E100E0054B42113D
:10AEB00053F8223000F01F0023FA00F0C04300F0E6
:10AEC0000100704700E100E0002808DB012243098F
:10AED000034900F01F008240603341F8232070478F
:10AEE00000E100E010B5044613F04DFD024B1C607C
:10AEF00013F044FD002010BD7832002010B513F08F
:10AF000042FD034B1C6813F039FD204610BD00BF05
:10AF1000783200203021037A02464B4303F1A043EC
:10AF200003F58023D86E07491B6F884208D113F0C0
:10AF3000020006D05069536B1B1A584258417047A3
:10AF400000207047EE3B002010222DE9F04188B030
:10AF5000044600210DEB020012F041F94FF4447356
:10AF6000ADF81230344B207ACDE90533FCF7D4FA32
:10AF70002046FFF7CFFF0546207A25B1FCF7ECFA13
:10AF800008B0BDE8F0810DF10B0112F0CBFC9DF88B
:10AF90000B70002F48D120460CF0F6FE03A90646A0
:10AFA000207A12F0E1FC039B3946013B9DB204F18B
:10AFB0000C03102218461F46D4F8048012F00FF933
:10AFC000E2681E4BC5F30A05134030222D0145F0FF
:10AFD00040751D43237AC4E90358534303F1A0434A
:10AFE000666103F580231A6F217E520862F34101E6
:10AFF0002176196F227E27F0030761F30002227683
:10B000001B6FA2699B0863F39F0247F00207A261CE
:10B01000079723680A4904AA0B600094094B207A19
:10B02000FCF754FA207AA9E79DF81C3065F3410338
:10B030008DF81C30EDE700BFEE3B00200F80FFFCD9
:10B040007C320020C17D0108F0B50C46154606464D
:10B0500087B05022002120461F4612F0C0F895E824
:10B060000300EB682A69E362C4E90C232A7D84E8C3
:10B07000030084F84420AA7DA364012384F84C30A3
:10B0800084F84D300C9B84F84520E3630D9BA76347
:10B0900023642B7A84F84E30234B34607360234B47
:10B0A000B360234B3361234B7361234BF360FCF795
:10B0B000D9F930B1214B984203D01027384607B058
:10B0C000F0BD002104F10800FCF754F90028F4D188
:10B0D000CDE903000290236B019301230093636881
:10B0E000E26A2168207A0BF0B1FF07460028E4D11C
:10B0F0003022237A4FF48011534342F2640203F169
:10B10000A04303F58023995095F90800FFF7DCFE72
:10B1100095F90800FFF7BCFE3046FFF7E3FE204636
:10B12000FFF712FFCAE700BF0F7E0108C77E0108C4
:10B130007D7D0108837D0108C57D0108038000F045
:10B140002DE9FF411C46574B0127019300230A9D1F
:10B1500000939046CDE902770A46534B2946FFF704
:10B1600073FF0646002840F09480236839462B651B
:10B1700063683A206B65637A85F85930237A85F8DD
:10B180005830E37A85F85B30A37A85F85A30637BD0
:10B1900085F85D30237B85F85C30E37B85F85F3094
:10B1A000A37B85F85E30FDF7B5FF3B460422617A4C
:10B1B000207AFEF7B1FF3B460222E17AA07AFEF741
:10B1C000ABFF39466068FDF7A5FF88F8006041468F
:10B1D0002068FFF7ABF91420617C344B01F1390290
:10B1E00052019850607A227A03EB411342EA0042FE
:10B1F000C3F83827E17AA27A42EA0142C3F830273D
:10B2000085F8606098F81930032B48D8DFE803F020
:10B210003945021C022385F8603000230422E17BBB
:10B22000A07BFEF779FF0220617C204B01F1B9027F
:10B230005201985003EB411341F22C71E07BA27B49
:10B2400042EA00425A501CE0012785F86030022291
:10B250000023617B207BFEF75FFF617B227B637CA9
:10B2600042EA014241F228715B0103F1A04303F578
:10B2700070335A500422236803F58053DA65002F97
:10B28000CBD120680A4A00F5005305219A640CF0DE
:10B2900068FC304604B0BDE8F0810027D5E72326DE
:10B2A000F7E700BFAB8001081B81010800C0035015
:10B2B000FFFF010000F00CB800F00AB800F008B879
:10B2C00000F006B800F004B800F002B800F000B8D2
:10B2D00072B61EF0080F09D01EF0040F0DD0DFF873
:10B2E00050E0AEE8FF1F6FF002000CE0DFF840E036
:10B2F000AEE8FF1F6FF00E0005E0DFF834E0AEE8C7
:10B30000FF1F6FF006006946EFF309828EE8070021
:10B3100086460848084C854501D3A54501D384F3EA
:10B32000088801F0C5FF84F308880DF006FB0000D3
:10B33000803D0020480000200810002073B5002444
:10B34000684600F0FBFA0C4B00981C600B4B0C4D50
:10B350001C600C4E0C4B306018602C600CF0B9FF78
:10B360002046019B3268013BDB0853802B68013388
:10B370002B6002B070BD00BF903200208C320020E4
:10B38000943200209C320020983200202DE9F04FAA
:10B390000E460027984689B0054606A8144605972C
:10B3A00000F0CCFA731C14BFB3464FF0080BB8F191
:10B3B000000F00F0BC80C8F80070002D00F0B980CC
:10B3C000079BAB4240F2B58013F0EAFA073505ABB4
:10B3D00025F007053146009381463B462246284624
:10B3E00000F0B6FA059E074606B130B9484613F09C
:10B3F000D2FA192009B0BDE8F08FDFF84CA17388AC
:10B40000DAF80010DA00C0EBC3030139272BCAF8C1
:10B41000001074D9002C50D1854205F1080347D0A3
:10B420005946304602930CF07FFE0446029B05907D
:10B43000059A02EB030B58460CF04BFF059905F1FA
:10B440000F034A88C3F3CF03D21AABF80220CA888D
:10B45000ABF8043072B3D31A9BB201EBC202ABF863
:10B46000063093808B88ED08A380BBF8043000225F
:10B47000314658466580E38000F0E2FA237843F0D5
:10B4800001032370DAF800300133CAF800302C4A87
:10B490004846136808343B4413602A4A11688B42BB
:10B4A00088BF136013F077FA0020C8F80040A1E7C6
:10B4B0003446BDE7ABF80620D4E7F41820460293E3
:10B4C00003920CF006FF029BF91DC90805986180E4
:10B4D000D91DC908A180C18879B1C900039ACD1DC1
:10B4E000AA1A3A44C2F3CF020144E2808A80013BA7
:10B4F000DB084380A388C380C0E7E180F7E7012C25
:10B5000019D106F10803B3FBFBF20BFB1233A3B115
:10B51000594630460CF008FE04462378012243F0D9
:10B52000010331462046237000F08AFAAFE722205B
:10B5300060E721205EE78542EAD13446EDE700BFAF
:10B54000903200208C320020943200202DE9F34705
:10B550000446684600F0F2F9002C00F0AB8013F0CE
:10B560001FFA14F8086CF30704D534F806ECBEF1A2
:10B57000000F05D113F00FFA012002B0BDE8F087EB
:10B580004D494E4D0A68D5F80080A2EBCE020A6004
:10B5900034F8041C0EF1010308F10102A4F1080CB7
:10B5A0009BB22A60B9B3ACEBC10292F800A0B2F82A
:10B5B00006901AF0010F578806F002061FD1FEB957
:10B5C000A9EB0701012926D80EF102031F44BBB2E3
:10B5D000C5F8008034F8026CFEB9013B9BB214F848
:10B5E000081C6FF3000104F8081C002124F8061C55
:10B5F00053801378D18061F30003137031E056B1AA
:10B6000019448BB214F8081C6FF3410104F8081CAC
:10B6100000219180DEE76246DCE70CEBC608DDE93D
:10B6200000710F44B845D8D21CF83670414617F067
:10B6300001072AD0013B9BB214F8085C6FF30005A8
:10B6400004F8085C002524F8065C5380137865F341
:10B6500000031370C2F107030B44C3F3CF03D3807D
:10B660008B8017490B681BB1934201D85B8803B9E3
:10B670000A6014490B681BB1934201D35B8803B97C
:10B680000A6013F088F9002077E7A6EB0E06012E7A
:10B69000D0D8B8F80260A8F802703344B8F8067041
:10B6A0002E689BB2013E1FB108EBC7012E60C3E7B5
:10B6B0002E6094E7222060E7903200209432002030
:10B6C0009C320020983200202DE9F74F9146044625
:10B6D00068460D4600F032F9B9F1000F00F0248100
:10B6E0000023C9F80030019BAB4240F21F8154B9DE
:10B6F000002D00F01B814A462146284603B0BDE8D4
:10B70000F04F0CF051BD2DB9204603B0BDE8F04F0D
:10B71000FFF71CBF13F044F934F8063C07354FEA35
:10B72000C30825F00705A8450746A4F1080080F0E6
:10B73000888034F8022C002A66D000EBC20A10F888
:10B740003220D20760D4BAF80210A8EB050616EB37
:10B75000C10659D41F2E3DDDC5F3CF0304EB050B05
:10B7600024F8063C013324F8023C58460CF0B1FDA5
:10B7700034F8023CC6F3CF06ABF80430BAF8063012
:10B78000ABF8026013B3BAF802209A1A1644B6B2A4
:10B790000AEBC303ABF806609E8000225146584670
:10B7A00000F04EF950460CF094FD614AC9F8004093
:10B7B00013682B44A3EB080313605E4A11688B42A5
:10B7C0003DD8384613F0E7F8002527E00023ABF812
:10B7D0000630E2E7584E0B4432689BB2013A3260C1
:10B7E0005A1C24F8062CBAF806204AB102339BB240
:10B7F0000AEBC20224F8023C938001225146CFE7B3
:10B80000002324F8023CF8E728464A4600210CF0C1
:10B81000CBFC054630B1384613F0BDF8284603B0DE
:10B82000BDE8F08F42462146D9F8000011F0E2FC55
:10B830002046FFF78BFE05460028C2D0EBE71360D9
:10B84000BFE76ED934F8023CA8EB0506002B3AD0CE
:10B8500000EBC30A10F83330DB0735D4C5F3CF0350
:10B8600004EB050B24F8063C013324F8023C58464F
:10B870000CF02FFDBAF8023034F8022C03EBD6039B
:10B88000ABF80420BAF806209BB2ABF80230BAB18C
:10B8900001339BB20AEBC202ABF8063093805846E4
:10B8A0000022514600F0CCF850460CF012FD204B1F
:10B8B000C9F800401A681544A5EB08051D6080E72B
:10B8C000ABF80620EBE79A46272EF0D9C5F3CF0355
:10B8D00004EB050B24F8063C013324F8023C5846DF
:10B8E0000CF0F7FC013E34F8023CC6F3CF06ABF88F
:10B8F0000260ABF80430BAF1000F0FD00136B6B2D7
:10B90000ABF80660AAF804600B4A58461368013386
:10B9100013600022114600F093F8C8E7ABF806A0C8
:10B92000F2E7C9F800404CE7222577E7212575E7C3
:10B93000903200208C320020943200200249034AC9
:10B940000160521A42607047384100200000042014
:10B95000F0B506460020059F4C1C08BF0821386042
:10B96000BAB91F480568002D38D0B5F802E0DB00F1
:10B9700003EBCE0EC1F1000C2878C0070BD52ABB13
:10B98000E888B0B105EBC005B5F802E003EBCE0ED8
:10B99000F2E71448E6E7B645F1D35AB905F10804D1
:10B9A000B4FBF1F001FB1044A0190CB17045E7D8CD
:10B9B0003D60F0BD08290FD06C88013405EBC4044C
:10B9C000A01B00EA0C00201A8645F1D2A8880028A6
:10B9D000EFD0A5EBC005D7E73046E9E72846E8E712
:10B9E0009C32002098320020134B13B51B6804468C
:10B9F0000846FBB121B96846FFF7A0FF6CB9009873
:10BA00000378D90707D55CB9C3889BB100EBC300A5
:10BA10000378DA07F8D402B010BD084B1868EFE7D6
:10BA2000012C07D183882BB1A0EBC3000378DB077F
:10BA3000F8D4F0E70020EEE794320020983200209E
:10BA4000F8B5154F05460C463B68144EB2B1994205
:10BA500009D041B13368994204D129460120FFF74A
:10BA6000C3FF3060F8BD29460020FFF7BDFF3368F3
:10BA70003860A342F1D0002CEFD0F3E7994205D112
:10BA80003D603368A34204D13560EBE79842F7D3B9
:10BA9000F7E7AB42F8D3E5E79C320020983200206C
:10BAA000BFF35F8F074B5A6A22F480325A62D3F891
:10BAB000942022F00102C3F89420BFF34F8FBFF30C
:10BAC0006F8F704700ED00E038B5FFF7E9FF284AB7
:10BAD0002848D2F8C030284D23F0FF0343F0A003DC
