:020000040800F2
:10600000001000200D670008619A0008659A0008DA
:10601000F17E0108699A0008719A00080977010861
:10602000097701080977010809770108097701084C
:10603000759A000828DA010809770108097701082C
:106040001D6C000809770108097701080977010824
:10605000097701080977010809770108097701081C
:10606000097701080977010809770108097701080C
:1060700009770108097701080977010809770108FC
:1060800009770108097701080977010809770108EC
:106090000977010885710008097701080977010867
:1060A00009770108A97200088572000809770108BC
:1060B000097701084D580108E56201088DD10108F2
:1060C00089D101088D5A010899D1010891D101089F
:1060D000BD62010895D1010825630108916301089B
:1060E000097701080977010809770108097701088C
:1060F000097701080977010809770108097701087C
:10610000097701080977010809770108097701086B
:10611000097701080977010809770108097701085B
:10612000097701080977010809770108097701084B
:10613000097701080977010809770108097701083B
:106140000977010809770108097701087D7F0108AF
:10615000F53E01080977010879CE01087FCE0108D4
:10616000097701080977010809770108097701080B
:10617000013800D0FCE77047554BF7B51C6814F0A8
:10618000010440F09F80534E534B544DC6E90034F8
:1061900041F60B2310227F215148B4602C60AB8064
:1061A00017F0F4F87F224F4B214630461A7008F062
:1061B00081FF044600B9FEE74B4909F019FB00B125
:1061C000FEE70221204616F0C7FA00B1FEE720469E
:1061D000464909F023FD00B1FEE70121204616F0F3
:1061E00069FC00B1FEE70121204616F071FC07466C
:1061F00000B1FEE701463C223D4817F0C7F8802376
:106200003A46204606F1100116F06BFB802800D0BC
:10621000FEE7384E012008F0A1FF2BA3D3E90023AD
:1062200034602046CDE900234FF0FF324FF0FF33BA
:1062300016F0CDFA014600B1FEE7284604F0E0FA78
:106240000121084604F03AFB0121306816F026FAD5
:1062500000B1FEE700244FF40C620021264817F03D
:1062600095F8264B264A9C801C60264B6FF06300F5
:106270001A609C80244A254B1A60254A9C805A61EA
:1062800006F0E2F92B790B2B00D9FEE76B790A2B8C
:10629000FBD9204B1D6003F0BDF9204604F000FB44
:1062A00008223068114616F094FA044600B1FEE761
:1062B00005F098FB184B19481C7003B0BDE8F0407E
:1062C00012F076BA03B0F0BD0BE020FF220200000E
:1062D0000C3800202038002085AA0008183800203B
:1062E000B4480020B34800200700110084DC0108F6
:1062F000D037002010380020B43800205815002076
:106300004D49002030150020CE48002008150020FF
:10631000F814002014380020CF49002076DC010852
:106320000348044B834202D0034B03B11847704724
:10633000941400209414002000000000064B07492C
:10634000C91A891048BF0131491003D0044B0BB161
:1063500001481847704700BF94140020941400208F
:106360000000000010B5064C237843B9FFF7D8FFB2
:10637000044B13B10448AFF300800123237010BD18
:106380009248002000000000BC3A020808B5054B06
:106390001BB105490548AFF30080BDE80840FFF791
:1063A000CDBF00BF00000000202C0020BC3A020836
:1063B000A3F5803A704700BF174B002B08BF134B63
:1063C0009D46FFF7F5FF00218B460F461348144A00
:1063D000121A16F0DBFF0E4B002B00D098470D4B26
:1063E000002B00D098470020002104000D000D482C
:1063F000002802D00C48AFF3008010F041FC2000D0
:10640000290011F0C4F810F073FA00BF0000080072
:106410000000000000000000001000209414002084
:10642000FC4A0020000000000000000008B512F047
:106430006FF9054B186028B93F21044B044A054801
:1064400010F038FA08BD00BF382C0020E0D9010850
:10645000F3D90108EAD90108014B186806F0A4B87D
:10646000382C002010B5044C206812F0A7F92068E1
:10647000BDE8104005F0C4BB382C002010B5274CF7
:1064800002F0E8F802F076FA236F23F0070343F0F6
:106490000303236711F017FB214B00209B6ADB01EC
:1064A0005EBF4FF480321F4B9A62D4F8203123F044
:1064B000070343F00203C4F82031D4F8283123F055
:1064C000070343F00203C4F82831D4F8403123F025
:1064D000030343F00203C4F84031D4F8603123F0E1
:1064E000030343F00203C4F86031D4F8403223F0D0
:1064F000030343F00203C4F84032D4F8003223F01F
:10650000070343F00203C4F80032D4F8083223F042
:10651000070343F00203C4F8083210BD00800050A6
:106520000040005A0060005A18B1034B1860002068
:1065300070472520704700BF3C2C002010B5054C4B
:106540000549206801F0FEF92068BDE81040FFF71A
:10655000EBBF00BFC01100209C100020014B186849
:10656000704700BF3C2C002013B5082011F03FF904
:10657000FFF7F4FF0123124C8DF8003090F836300D
:106580002060DBB9006811F07FFB236820F07F40BA
:1065900093F8353040EA83700190684611F078F83E
:1065A00002238DF80030074B6846019311F070F814
:1065B000082002B0BDE8104011F024B90020E4E743
:1065C000A02C0020006A18102DE9F043434D89B03B
:1065D00001AC0FCD0FC495E80700012584E8070042
:1065E00001213A2001F0F4FD3D4F0121292001F065
:1065F000EFFD3C4B384601A903938DF8125002F091
:106600002BFE2B4629460422022002F0CDFB02215C
:106610002A460846002302F0C7FB2B46042203212A
:10662000022002F0C1FB04222B461146002002F09A
:10663000BBFB2D4C2D4B1026C4F834374FF0021302
:10664000C4F83037A3F58033C4F838371C2304F579
:106650000059C4F820374FF4487003F007FE04F5E2
:1066600080581420C9F8406003F000FE2320C8F8C9
:10667000406003F0FBFDB9213846C9F8406011F0D5
:1066800033FB002329461A460220C8F8406002F076
:106690008BFB002302211A46084602F085FB2B469D
:1066A00000220321022002F07FFB00222B4610462D
:1066B000042102F079FB384602F04CFD002129202C
:1066C000C4F83417C4F83017C4F83817C4F82017C2
:1066D00001F07EFD09B0BDE8F08300BF0CDA0108CF
:1066E00000C0055000127A0000C0035002000300F1
:1066F0000348044A0449121A921011F006B800BF68
:10670000C83E0208C83E0208FC4A002008B500F056
:106710002FF8FFF7EDFF124B12498B4212D30020E6
:10672000114B12498B4218D3FFF746FE186850F8F8
:106730002240586840F82240013298688242F5D3DE
:106740000C33EAE70022F8E71C6844F82200013223
:106750005C68A242F8D30833E4E70022F8E700BF00
:10676000C43A0208D03A0208D03A0208D03A0208E5
:106770004FF480414FF0FF30114B124A10B59A6030
:10678000D3F8882042F47002C3F888200E4A91663C
:106790000E4901F5005210660D4850660220C3F8FC
:1067A000D000BFF34F8FBFF36F8F01244FF44033FE
:1067B0000848C0F88041D36004600B6110BD00BF81
:1067C00000ED00E0006000080090005000800044F0
:1067D000F7FF370000E100E0014B1868704700BF89
:1067E000C8110020084B1B6F03F00703022B04D0D5
:1067F000032B05D0012B05D0FEE7044B186870472A
:10680000034BFBE70348704700800050C81100208D
:10681000D0110020002D310108B5FFF7E3FF054B33
:106820001B6FC3F303330133B0FBF3F0024B18606B
:1068300008BD00BF00800050C41100200048704710
:1068400000B4C404014B1868704700BFD011002089
:10685000054B1860054B1B6F03F00703032B01D199
:10686000FFF7DABF704700BFD01100200080005052
:1068700000487047002D31014FF0B4439868C0F3D1
:1068800004400C280AD8DFE800F00B0909090909BF
:10689000072119091B1D1F000F4870470020704772
:1068A0009B6803F04073B3F1807F11D0B3F1007F98
:1068B00010D00A4A002B08BF10467047084870479E
:1068C00008487047084870470848704708487047AC
:1068D0000848704708487047405DC60000093D0001
:1068E000C0EA210180BA8C010048E801005A620226
:1068F0000024F40080841E0040420F00014B186801
:10690000704700BFCC110020BFF34F8F0549064BE5
:10691000CA6802F4E0621343CB60BFF34F8F00BF3D
:10692000FDE700BF00ED00E00400FA054FF0006352
:106930009B6A03F17842B2F5C04F03D21968064A48
:10694000914203D0002303708360704701220270DC
:106950009A689B694260F7E707B0CD5E08B54FF0D3
:106960000053024A1A60FFF7CFFF00BF02020FF088
:1069700073B54F4B04461A781AB102221A7002B04E
:1069800070BDCDE900220028F9D001261E7011F05B
:10699000BAF8484D484B18600CF082F92B785BB977
:1069A00000F094FC40B945480823454A4549006831
:1069B00008F084F900B92E70434B5A6E62619B6EE9
:1069C000424AA3614FF480439366414B5968E161A9
:1069D00040499960196E2160596E6160D3F8701159
:1069E000A160196CE160596C21613B49086C186425
:1069F000496C5964012151661B6E9C0441D5374A8C
:106A0000D368D807FCD4364B1A68531C3ED04FF4D9
:106A100080139340334A13664FF400730426314CBD
:106A20002666236610F0A0FE01300DD010F09CFE0B
:106A300040F20113984207D04FF4005323664FF4FD
:106A400080432366C4F870610823264C6846236699
:106A50004FF4805323664FF0006323664FF4002306
:106A600001A9636610F064FE009B2366019B6366C8
:106A70002B78002B83D0124B1A6822665B68636602
:106A80007DE7194AD368D907FCD4BCE7174B1B78BC
:106A9000002BC1D14FF400720C4B5A6603F5A623AC
:106AA0005B68002BB8D14FF480120E4B1A66B3E727
:106AB0009448002095480020C42C0020FC110020A0
:106AC000C82C002000710800008000500090005089
:106AD0000080004455CEAC0000C0005400000440CB
:106AE000D41100200090004400000450934800207E
:106AF00070B5224D04462E78012E02D001232B7052
:106B000070BD0028FCD010F02FFE01300BD010F02B
:106B10002BFE40F20113984205D0194B194A5E66CC
:106B2000D368DE07FCD42268174B1A6662685A667F
:106B3000A268C3F87021E2681A6422695A64E269A3
:106B4000D00744BF00229A60104B1A68013207D167
:106B50000F4A127822B90F494968C90748BF1A601D
:106B600062690D4B5A66A2699A660CF0A1F80B4B4C
:106B7000186810F0CEFF0023C1E700BF9448002042
:106B8000009000400000044000800044D411002028
:106B90009348002000C0055000800050C42C002005
:106BA00070B54FF00064A36A03F17842B2F5C04FAC
:106BB00024D21A68134B9A4220D1134E337813F023
:106BC000FD0F02D00024204670BD1048FFF7D0FE14
:106BD00001254FF480330E4A0E49C2F88051CB6034
:106BE00015600D4A1361A36ADB699847044607489C
:106BF000FFF77EFF002CE6D13570E3E74FF4817498
:106C0000E1E700BF07B0CD5E93480020A42C002030
:106C100000E100E000A000440090004413B5204BC8
:106C20001B7803B9FEE700231E4CCDE900336A460A
:106C300008231D49206808F041F8F0B91B4AD2F832
:106C40004031D2F840211F2B4FF0010310D9203AD8
:106C50009340019A1A43019208236A461249206818
:106C600007F0E2FF4FF00053114A1A60FFF74CFEA5
:106C70009340009A1A430092EEE70E4B9842F1D1EE
:106C80000A4AD2F84031D2F840211F2B4FF00103BD
:106C900085BF203A93409340019398BF0093DBE770
:106CA00094480020FC11002000710800008000447E
:106CB0000B020FF00BE000F00346054A054910688F
:106CC00003448B428CBF4FF0FF301360704700BF0E
:106CD000D81100200000042008B501213A2001F05D
:106CE00077FA012304220321002002F05DF800203E
:106CF00010F067FF0122354B3549C3F844244FF4A7
:106D00000022A3F550335A66324BD3F8FC20D2014F
:106D100046D4D1F8803023F0030343F00203C1F8D6
:106D200080304FF4607001F06DFA2A4B00F5D520E9
:106D3000D3F8F02000F2FC4042F00102C3F8F0204A
:106D4000D3F8FC2042F08072C3F8FC20224AA3F55D
:106D50005D431A60214B0222B0FBF3F0204B013857
:106D60001861C3F8F0204FF48072C3F804234FF089
:106D700060431C4A0020C3F8B02F1B4AC3F8802E82
:106D8000D3F8002E42F48072C3F8002EFF2283F85D
:106D90002020D3F8002E22F48072C3F8002E08BD04
:106DA000D3F8FC2022F08072C3F8FC20D1F88020B8
:106DB00022F0030242F00202C1F88020D3F8FC2046
:106DC00042F08072C3F8FC20ABE700BF00D0035054
:106DD0000080005000ED00E0FF030040F8590D0076
:106DE000000004E055CEACC5090001004FF060433F
:106DF000D3F8802E30B5D20715D501240B4D844031
:106E0000D5F8FC2042F08072C5F8FC20D3F8002EA3
:106E10002243C3F8002E53F82020002AF0D003F8B4
:106E20002010002030BD1120FCE700BF00ED00E085
:106E30002DE9F04F9A46564B85B01B7806460F4613
:106E40001546DDF83C909DF844B0DDF85080002BED
:106E500000F09780072A00F296800E9B002B00F02E
:106E60009280B9F1000F00F08E80129BB3F5006F95
:106E700000F38980012803D1109B002B00F0838050
:106E8000444B03EB05131B7B002B7ED0424C10229E
:106E90000021684616F07AFA04EB45141022A7BBCD
:106EA0003946204616F072FA43F210036380BBF1B4
:106EB000000F03D1E37843F00303E370364A0E9BDF
:106EC00002EB451CCCE90193129B6901581E9DF809
:106ED0004C30C0F30A0003F003039B0643EA001E94
:106EE00053582E48012E00EA03004EEA0003CDF865
:106EF00000A0535017D0B8F1000F2ED19CF80230EB
:106F000068F304138CF8023027E00021204616F0C5
:106F10003DFA4FF444736380BBF1000FCED1E378A8
:106F200043F03003C9E713230CF1100ECCF80C30FA
:106F30009CE80F008EE80F006FF00301DCF81C20C6
:106F4000109B61F39F02012FCCF81C20CCF8143069
:106F500003D1CCF81890CCF8043000270D4A290151
:106F600002EB051342F80180159A28465A606946DB
:106F700022469F605E7301F097FF384605B0BDE87A
:106F8000F08F0748FAE70748F8E70748F6E700BF39
:106F900096480020D02D0020D02C00200F80FFF339
:106FA000028000F0018000F0078000F038B5124B3D
:106FB00005461B78DBB1E0B110F0A5FD0F4A0023B8
:106FC0001146147B54B92B6001251A0101EB031300
:106FD0001D738C5010F09DFD204638BD0133082BE9
:106FE00002F11002EDD110F094FD0548F5E70548D7
:106FF000F3E70548F1E700BF96480020D02D0020B8
:10700000048000F0028000F0018000F0154B13B501
:107010001868002301908DF8043010F074FD124BB5
:107020001C7824B110F075FD104802B010BD01228B
:107030001A7010F06EFD0E4B01A81C731C7783F8BC
:107040002C4083F83C4083F84C4083F85C4083F844
:107050006C4083F87C4008238DF8073001F0F2FE85
:107060002046E2E778DA010896480020038000F025
:10707000D02D00200A4A08B512785AB107280BD83B
:10708000084A02EB00131B7B43B1002101F0CCFE48
:10709000002008BD0448FCE70448FAE70448F8E784
:1070A00096480020D02D0020028000F0018000F0E2
:1070B000078000F00A4A08B512785AB107280BD8A1
:1070C000084A02EB00131B7B43B1012101F0ACFE27
:1070D000002008BD0448FCE70448FAE70448F8E744
:1070E00096480020D02D0020028000F0018000F0A2
:1070F000078000F00C4B1B787BB107280FD871B1CB
:107100000A4B03EB00131B7B5BB1094BDB6AC340EB
:1071100003F0010300200B707047064870470648D3
:1071200070470648704700BF96480020D02D0020C9
:1071300000000450028000F0018000F0078000F0A1
:107140000B4A10B512780C4662B107280CD859B119
:10715000084A02EB00131B7B43B101F0F1FE2060F3
:10716000002010BD0448FCE70448FAE70448F8E7AB
:1071700096480020D02D0020028000F0018000F011
:10718000078000F0184B2DE9F0411F6D5B6D1F402B
:1071900000D5FEE701260025144CDFF85880374261
:1071A00018D02368C8F85060A3B1A16828460131FF
:1071B0006268A1609847637B012B0BD150B90C4BDF
:1071C00003EB45131A7B60F341021A731A7F60F3D5
:1071D00041021A770135082D4FEA460604F11004E2
:1071E000DDD1BDE8F08100BF00000450D02D0020AB
:1071F000D02C00200020045070B5044601250B4E11
:1072000004B970BD94FAA4F0B0FA80F005FA00F366
:1072100006EB001224EA03045368002BF0D0117B24
:1072200011B191689847EBE79847E9E7502E0020A5
:1072300008B5192001F0D2FB28B14FF00072074BBE
:10724000C3F880211A601A2001F0C8FB28B14FF062
:107250008062024BC3F880211A6008BD00E100E0A3
:1072600038B505460C4610F04EFC0022044B03EBEB
:1072700005135C601A73BDE8384010F04ABC00BFCB
:10728000502E0020074BD3F82404D3F8202403F514
:107290000053104000F0553020F05020C3F8200477
:1072A000FFF7AABF00C00350074BD3F82404D3F85C
:1072B000202403F50053104000F0AA3020F0A02055
:1072C000C3F82004FFF798BF00C00350024B1968B1
:1072D000024B186807F0CEBBDC110020FC11002027
:1072E00070B59400224605460E4616F055FB431C29
:1072F0000AD058B922463146284616F01DF8002813
:10730000034808BF002070BD0248FCE70248FAE7C6
:1073100010E000F021E000F024E000F010B5044699
:1073200016F03EFB431C10D088B901F0ABFE23469B
:1073300020F003002044984201D1002010BD53F8F2
:10734000042B0132F7D00348F8E70348F6E7034877
:10735000F4E700BF0EE000F021E000F024E000F0D0
:1073600008B510F0C5FB014B186008BD4037002080
:10737000014B186810F0C0BB4037002038B141B154
:10738000013AB2F5006F044838BF00207047034847
:1073900070470148704700BF037000F0027000F0B2
:1073A000104930B50A78104B2AB9C3E90022C3E965
:1073B000022201220A700C4900220C4654F8045B98
:1073C000854208D00132042AF8D1002251F8044B3A
:1073D0001CB943F82200002030BD0132042AF5D147
:1073E0000248F9E79748002044370020027000F077
:1073F00038B504460D4610F086FBA3889BB223B92E
:107400002B6010F086FB064838BD142263889BB2BF
:1074100002FB034408342C6010F07BFB0020F3E7F0
:107420000B7000F010B50446FFF7F0FD002104F1E9
:107430000800FFF7BBFD014608B1044810BD04F188
:107440000C00FFF7B3FD0028F8D0F6E70E7000F04F
:10745000F8B5044616460F4610F055FBA388E2889F
:107460009BB29A42054605D80023336010F051FBC9
:107470001748F8BD1422238807F1100C9BB202FBB9
:1074800003433A460833174603CF674518605960EF
:107490003A4603F10803F6D11422386818602388AD
:1074A00028469BB202FB0343083333602388E288FB
:1074B0009BB20133B3FBF2F102FB11339BB2238089
:1074C000A38801339BB2A38010F023FB0020D0E7F8
:1074D0000A7000F07FB5012380F8303090F8363024
:1074E0009BB903682433826B013282630C4A049097
:1074F0000392002202924A680192012200920A68D5
:107500004169C06810F0A4F907E0022B02D10368BA
:107510003C33E8E7002380F8303007B05DF804FB27
:10752000757B00087FB5012380F8313090F8363044
:107530009BB902683C32836B013383630C4B04902C
:107540000393002302934B680193012300930B687C
:107550000169806810F062F907E0022B02D102682D
:107560004432E8E7002380F8313007B05DF804FBCF
:10757000E576000890F83530022B0DD11422302327
:10758000417F13FB0123054A9B5890F8212023FAE1
:1075900002F000F0010070470020704730C0035037
:1075A000002313B51D4A52F8044B94F82110814270
:1075B0000ED00133042BF6D102B010BD0028FBD150
:1075C0009DF80730002BF7D0A068FFF753FDF3E7D5
:1075D00094F83530022BEFD12046FFF7CBFF637EC6
:1075E0002076022BE8D194F8323003F0FF02002B12
:1075F000E2D1A0680DF107018DF80720FFF77AFDB1
:10760000237E1BB194F83330002BD7D00023A06821
:1076100084F83330FFF74EFDCEE700BF443700203B
:1076200090F8363053B9042103790A4A03F239132A
:107630005B01D150022203685A617047022B07D1C7
:107640000068816C11F0020118BF062110F0A0BA89
:10765000704700BF00C0035090F8363063B9012274
:1076600003685A619A69D207FCD504210379084A54
:10767000B9335B01D1507047022B07D10068836C8E
:107680009B074CBF0521092110F082BA704700BF4B
:1076900000C0035010B590F83630044663B9042298
:1076A00003685A619A699207FCD523790C4AB93369
:1076B0005B011021995010BD022BFCD10068836C36
:1076C000DB074CBF0521062110F062FA237941F255
:1076D00094425B0103F1A04303F57033E9E700BF77
:1076E00000C003502DE9F3411446D06A01A9FFF709
:1076F0007FFEA36BA36B013BA363164B984222D082
:107700000027019D2F61AF6010F0FDF9D5F80C80C6
:107710000646B8F1000F04D0D5E9002339462046CB
:10772000C047E06A01A910F051F9E06A83889BB272
:107730006BB101A9FFF75CFE20460199FFF7F2FE4D
:10774000304610F0E6F9012002B0BDE8F08184F87F
:107750003130F5E70B7000F02DE9F0410446174693
:10776000FFF70CFE88460646E8B9152001F044F9FB
:107770000546E26A93889BB213B194F83230ABB1FC
:1077800094F83630BBB923689D6915F0020527D0FF
:10779000012384F834304744B845206844D18369D4
:1077A0009B06FCD545B33046BDE8F081002DE1D005
:1077B000FFF7E8FCDDE7022B12D123689D6C15F082
:1077C00002050DD0012384F8343047444745206832
:1077D00031D142F22002836C32EA0303FBD1E1E7AC
:1077E0002046FFF757FF012394F8365084F83430D1
:1077F000002DD0D0022D1CD094F8363003B3022BCC
:10780000D1D12068816C11F0010118BF092110F05D
:10781000BFF942F29442102123795B0103F1A043A6
:1078200003F570339950BEE718F8011B10F066FAA3
:10783000B2E70025C9E718F8011B10F0AEF9C5E75B
:1078400010212379044A03F239135B01D150082235
:1078500023685A61A7E700BF00C0035010B5044673
:1078600080B190F832302BB9FFF784FE10B9A068D0
:10787000FFF700FC002094F832300133DBB284F8CB
:10788000323010BD0048FCE7027000F010B504462D
:10789000A0B190F832309BB190F83230012B05D175
:1078A000FFF768FE10B9A068FFF704FC002094F809
:1078B0003230013BDBB284F8323010BD0148FCE7C6
:1078C0000148FAE7027000F0057000F037B590F853
:1078D00035500446022D1DD1012290F82230457EFC
:1078E000817F9A403020164B3DB900FB013303F5F0
:1078F00001531A60002003B030BD012D04D100FBFC
:10790000013303F58253F4E7247E00FB0133002C9E
:10791000F7D1ECE7012DEDD1037E73B911238DF87A
:107920000730FFF79BFF2A4620460DF10701FFF7BE
:1079300013FF2046FFF7AAFFDCE71323EFE700BFA2
:1079400000C003502DE9F04305466D4F89B001AEEC
:107950000C460FCF0FC697E8070086E80700002DFA
:1079600000F0CB8024B9674E304609B0BDE8F08303
:1079700060220021284615F009FD2846FFF710FD7A
:1079800006460028F0D1237D85F83530236885F838
:1079900036002B60227B2A715B4A9342E3D1292374
:1079A0006B624FF4802359498046C5E90413D4E93A
:1079B0000723AA6210805080908085F83000EB6227
:1079C000188058809880636885F831000393E389B4
:1079D00085F83300ADF81430238A0121ADF8123058
:1079E000A37C3A208DF81030E37C494F8DF8163097
:1079F00005238DF8113000F0EBFB0121686A00F0DF
:107A0000E7FB206801A98DF8046001F0C5FB142193
:107A1000237B03F139025201B950267AA07A07EB91
:107A2000431346EA0042C3F83827617AE27A41EA12
:107A3000024CC3F830C7EE76E877297785F8202026
:107A4000637D01216B77A37D284685F82130E37D96
:107A5000AB77237E85F822300FF049FF06460028D9
:107A600082D110F050F8237D8146032B33D10221BF
:107A7000227B02F1B9035B01F950042107EB4217A5
:107A800041F22C72236803F58053D965217EE37D92
:107A900043EA0143BB50A27D637D43EA024341F2C6
:107AA0002872BB504FF0FF32206800F500539A64F3
:107AB000237D032B0CBF0521042110F006F94FF4A0
:107AC0004062236828465A61FFF7ACFC06464846E8
:107AD00010F01FF848E7022BE4D195F821000D497A
:107AE000FFF7BEFBFFF7A4FB4FF4007328462B8380
:107AF00085F81A80FFF7EAFED4E7074E34E700BFA7
:107B0000A0DA0108037000F000C005500200040074
:107B100000C00350A1750008027000F0F0B587B0F6
:107B200005461646FFF72AFC0446F0B90493104BAD
:107B3000CDE901166A46A86A01A903960593FFF7E5
:107B400087FC044688B995F8303073B92846FFF7AA
:107B500083FD28460099FFF7BDFC95F83530032BCF
:107B600003D028462C76FFF7B1FE204607B0F0BDC3
:107B7000017000F0F7B51446906A01A9FFF738FCD0
:107B8000A36BA36B013BA363384B984230D094F8AE
:107B90003610019D002939D123689A6C12F40072C5
:107BA00029D0334AA9602A614FF4007203F50053CB
:107BB0009A640FF0A8FFEF68064637B16A68AB68B1
:107BC0002046D31A29692A68B847A06A01A90FF08C
:107BD000FDFEA06A8588ADB2002D37D001A9FFF760
:107BE00007FC20460199FFF775FC30460FF091FF26
:107BF000012003B0F0BD996CC80523D51D49AA60CA
:107C000029614FF4807203F50053D1E7022919D19D
:107C10002368DA6C12F4007209D0154A03F5005398
:107C20002A610022AA604FF40072DA64C1E7D96CBD
:107C3000C90507D50F49AA6029614FF4807203F581
:107C40000053F2E700232B61AB60B2E7012320462B
:107C50002376FFF73BFE94F8353084F83050032B41
:107C6000C3D02046FFF7DCFCBFE700BF0B7000F07D
:107C70000D7000F00C7000F0F0B587B004461646A9
:107C8000FFF77CFB054658BB0493194BCDE9011661
:107C9000059394F8363003962BBB23689B6903F059
:107CA000020313B92046FFF7F5FC6A46E06A01A912
:107CB000FFF7CEFB054698B994F8313083B90FF041
:107CC00022FFE36A06469B889BB233B120460099A7
:107CD000FFF728FC012384F8343030460FF019FFF9
:107CE000284607B0F0BD022BDCD123689B6CD6E799
:107CF000017000F0044BD3F88420D206FBD4D3F8F3
:107D00008400C0F3811070470040005038B5104B1C
:107D10000546D3F880300C4603F00303022B0BD04A
:107D2000032B0DD0012B0FD1FEF75CFD0E2305B107
:107D3000286004B1236038BDFEF79EFD0723F6E7F7
:107D4000FEF74AFD0623F2E700231846EFE700BFDF
:107D50000080005038B5184B0546D3F820010C467A
:107D600000F00700062823D8DFE800F0040A0E160A
:107D7000121A1E00012305B1286004B1236038BD2A
:107D8000FEF72AFD0523F6E7FEF75CFD0323F2E785
:107D9000FEF772FD0723EEE7FEF76AFD0223EAE72E
:107DA000FEF71AFD0623E6E7FEF74CFD0423E2E7A3
:107DB00000231846DFE700BF0080005038B5174B9E
:107DC0000546D3F828310C4603F00703013B052B89
:107DD00020D8DFE803F003131B0F0B17FEF7FCFCA2
:107DE000052305B1286004B1236038BDFEF7F4FC1B
:107DF0000623F6E7FEF740FD0723F2E7FEF722FD34
:107E00000323EEE7FEF71EFD0423EAE7FEF730FD4D
:107E10000223E6E700231846E3E700BF0080005096
:107E200073B50D460021114B0191D3F880410646F0
:107E300004F00304022C13D0032C0CD0012C13D11A
:107E400001A8FFF787FF10240EB1019B336005B135
:107E50002C6002B070BDFEF70FFD07240190F3E720
:107E6000FEF706FD0190EFE70C46EDE700800050BD
:107E7000002337B50193164B0546D3F820320C4644
:107E800003F00703042B21D8DFE803F0030B1116DE
:107E90001B0001230DB1019A2A6004B1236003B0D5
:107EA00030BD002101A8FFF789FF1223F2E7FEF79A
:107EB000E3FC07230190EDE70FF034FC0A23019067
:107EC000E8E7FEF71BFD09230190E3E70023E1E764
:107ED0000080005038B5104B0546D3F840310C46B1
:107EE00003F00303022B0BD0032B0DD0012B0FD17A
:107EF0000FF018FC0A2305B1286004B1236038BDD7
:107F0000FEF7FCFC0923F6E70FF00FFC0C23F2E769
:107F100001230020EFE700BF00800050002337B5A9
:107F20000193164B0546D3F860320C4603F0070365
:107F3000013B032B1FD8DFE803F0020E19140021C8
:107F400001A8FFF707FF10230DB1019A2A6004B1C1
:107F5000236003B030BD002101A8FFF7BBFF112350
:107F6000F2E7FEF789FC07230190EDE7FEF780FCBE
:107F700002230190E8E70023E6E700BF00800050FD
:107F8000002337B50193164B0546D3F894320C46BF
:107F900003F00703013B032B1FD8DFE803F0020EB9
:107FA0001914002101A8FFF7D5FE10230DB1019A85
:107FB0002A6004B1236003B030BD002101A8FFF79F
:107FC00089FF1123F2E7FEF757FC07230190EDE745
:107FD000FEF74EFC02230190E8E70023E6E700BF2E
:107FE0000080005038B5144B0546D3F800020C460B
:107FF00000F0070004281BD8DFE800F003090D118A
:108000001500012305B1286004B1236038BD0FF0CD
:1080100089FB0A23F6E7FEF771FC0923F2E70FF06C
:1080200084FB0C23EEE7FEF7F7FB0F23800AE9E75A
:1080300000231846E6E700BF0080005038B5144B17
:108040000546D3F808020C4600F0070004281BD8A8
:10805000DFE800F003090D111500012305B12860C8
:1080600004B1236038BD0FF05DFB0A23F6E7FEF78D
:1080700045FC0923F2E70FF058FB0C23EEE7FEF76F
:10808000CBFB0F23800AE9E700231846E6E700BF91
:108090000080005038B5104B0546D3F840320C46EE
:1080A00003F00303022B0BD0032B0DD0012B0FD1B8
:1080B0000FF038FB0A2305B1286004B1236038BDF6
:1080C000FEF71CFC0923F6E70FF02FFB0C23F2E769
:1080D00001230020EFE700BF0080005038B5104BAF
:1080E0000546D3F860310C4603F00303022B0BD096
:1080F000032B0DD0012B0FD10FF014FB0A2305B178
:10810000286004B1236038BDFEF7F8FB0923F6E7C9
:108110000FF00BFB0C23F2E701230020EFE700BF79
:1081200000800050B0F5207F1FD009D8B0F5007F47
:1081300015D003D868B1B0F5C07F0AD000200CE09C
:10814000B0F5607FFAD10B4BD3F88000C0F301107B
:1081500003E0084B186FC0F3033001307047054B44
:10816000D3F89000C0F30460F7E7024B186FC0F338
:108170008020F2E70080005002464FF48030104B20
:1081800010B598660020FFF7CDFF504341F67132DD
:108190000C4BDC69DA635A6804F4803422F4401230
:1081A00059B90949884294BF0020012000050243C3
:1081B0005A600CB10022DA6310BD0449F2E700BF37
:1081C0000090005000000350005A6202002D31015F
:1081D000430905D0012B0CD0022B084B18BF0023FC
:1081E00000F01F0039B103F58053012282401A606C
:1081F0007047034BF4E703F50053F6E7688000503F
:10820000648000501FB5002180280446CDE900118C
:1082100000F0A58035D85E2846D85E2844D8DFE82F
:1082200000F0A24343434343434343434343434355
:10823000434343434343434343434343434343430E
:108240004343A2AAA2AABABABABABAAAC44DDA7168
:108250004DAAAAAA4343434343434343AAAAAA7944
:10826000E4AA43434343434343434343434343BA5F
:10827000A2A2A2DF4D4DE9885EBF43434343439929
:10828000A200B0F5B06F00F090802DD8B0F5207F3F
:1082900071D00CD8B0F5C07F65D0B0F5007F65D047
:1082A000B0F5807F00F08680009804B010BDB0F576
:1082B000607F6BD00DD8B0F5407FF5D1FEF7ACFAFA
:1082C00002464FF42070FFF72DFFB2FBF0F2520888
:1082D0005AE0B0F5806F5ED0B0F5A06FE4D1002118
:1082E0006846FFF7C5FDDFE7B0F5106F78D016D808
:1082F000B0F5E06F79D00AD8B0F5C06F6BD0B0F5AB
:10830000D06FD1D100216846FFF76CFECCE7B0F505
:10831000F06FC9D100216846FFF7E0FEC4E7B0F571
:10832000406F3DD013D8B0F5206F63D0B0F5286F03
:10833000BAD10021324B0391D3F8703203F003031A
:10834000012B02D103A8FFF7C5FD039B3CE0B0F56C
:10835000486FA9D100216846FFF712FEA4E7FEF797
:1083600041FA0090A0E7FEF757FAFAE7FEF73AFA6B
:108370000246204604E0FEF74FFA02464FF4207012
:10838000FFF7D0FEB2FBF0F200928DE701A8FFF7F5
:10839000BDFC019AEDE700216846FFF7DBFC83E7AF
:1083A00000216846FFF70AFD7EE700216846FFF7D7
:1083B00037FD79E74FF0E02302911B695B0705D594
:1083C000FEF72AFA0290029B00936DE703A902A828
:1083D000FFF780FDF7E700216846FFF77BFD63E7C5
:1083E00000216846FFF72AFE5EE700216846FFF796
:1083F00051FE59E700216846FFF790FD54E700BFA2
:108400000080005008B58020FFF7FCFE034B984227
:108410009EBF4FF48032024B1A6708BD005A6202B9
:1084200000A000501FB503460020B3F5807F0190E7
:1084300000F0C18064D85D2B55D84C2B07D82D2B6C
:1084400048D8232B2CD8019805B05DF804FB4D3B90
:10845000102BF8D801A252F823F000BFAD85000818
:1084600047840008478400084784000863850008A3
:108470004784000847840008318600088185000889
:1084800027850008278600084784000847840008DD
:108490004784000847840008478400083B8600089A
:1084A000243B092BCFD801A252F823F0AD85000858
:1084B000AD850008AD850008AD850008AD850008D4
:1084C00047840008A3850008478400084385000806
:1084D000E38500083D2B7FD03E2BB4D1002001A9BD
:1084E000FFF7D8FDAFE7802BADD1594B1B6F03F0E1
:1084F0000703013B032BA6D8DFE803F0514E858D1F
:10850000B3F5F06F68D021D8B3F5B06F49D00FD86C
:10851000B3F5607F00F0838095D3B3F5806F45D0CD
:10852000B3F5A06F8FD1002001A9FFF7A1FC8AE766
:10853000B3F5D06F55D0B3F5E06FCFD0B3F5C06FC2
:1085400081D1002001A9FFF7C5FC7CE7B3F5206FBE
:108550006ED00BD8B3F5086F48D0B3F5106F7FF429
:1085600072AF002001A9FFF769FD6CE7B3F5406F1A
:1085700059D0B3F5486F60D0B3F5286F7FF463AF7F
:10858000334BD3F8703203F00303012B5AD0022B84
:108590000CBF1523002300E00523019353E70223BA
:1085A000FBE7002001A9FFF73BFC4CE7002001A9F5
:1085B000FFF7D0FB47E74FF0E02302901B695B0712
:1085C00005D5FEF729F90D230393039BE5E703A9DE
:1085D00002A8FFF77FFCF8E7002001A9FFF77EFD66
:1085E00031E7002001A9FFF7FDFC2CE7184BD3F879
:1085F000003103F00303022B07D0032B09D0012B1A
:108600000BD1FEF71FF90323C7E7FEF777F909231C
:10861000C3E70FF085F80823BFE70123BDE701A9F1
:10862000FFF774FB0FE7002001A9FFF7C7FB0AE77C
:10863000002001A9FFF772FC05E7002001A9FFF760
:108640009FFC00E7002103A8FFF744FC1123A4E7E7
:10865000008000504FF48012034B5A664FF4803272
:10866000024B9A62704700BF009000500050005AC1
:1086700038B504468020FFF7D5FE032800F083803C
:108680004FF48012524B4FF0A0615A6645F60E022D
:10869000504BC3F88020504A91624FF4803102F56C
:1086A000805291629A6DD203FCD4996D11F0804191
:1086B000FBD1D4E90002120542EA0062E07B0243EA
:1086C000207B42EA0042607B42EA0032A07B42EA21
:1086D00080121A619869D4E90452120642EA85624E
:1086E00000F000400243A07EE57E0243207E42EA85
:1086F0000042607E42EA00229A611A6AE06922F032
:108700000F0242EA8502354D00283DD11A6294F8E5
:108710002420996A94F82000D200294042EA4012AD
:108720000A4394F8211042EA011242F480329A621C
:108730002B49284A936D31EA0303FBD14FF0807136
:10874000254881621369A56823F4700343EA055341
:1087500013614FF00043836194F822300BB9214B31
:10876000996294F823303BB94FF480321D4B9A62E2
:10877000184A936D5B00FCD494F825301BB1154B5F
:10878000194AC3F8802038BD024342F0080202288B
:108790001A6208D119614FF40852996113484FF4D5
:1087A0007F410FF06EF90B4994F822308A6A94F8F1
:1087B00020001B062A4043EA4013134394F8242068
:1087C00043EAC20394F8232043EA02438B62D3E7CF
:1087D000009000500040005A0050005AC7FFFEFEB3
:1087E000030001000060005AF1A7FFFF3440005A67
:1087F000014B93F900007047D6120020F0B5D0E984
:1088000001434FF400061A4A4178057856664FF442
:10881000D156022702F5B8325662164E4F297760BC
:108820004FF0010728BF4F2106F580567760166983
:10883000F603FCD441EA052151611B01417B43EA67
:1088400004230B43017B43EA41039360C37B817B99
:108850001B0143EA4113417C0B43017C43EA410382
:108860005360837C13B16FF4D1535362F0BD00BFEA
:108870000090005000100250014B1880704700BF5C
:10888000CA120020014B1880704700BFC812002098
:10889000B0F5207F10B50C465DD008D8B0F5007F4C
:1088A0004ED003D8C0B1B0F5C07F15D010BDB0F523
:1088B000607FFBD12C4B4C1ED3F8FC202B4912F0CF
:1088C000807F4FEA041427D1D1F8803023F03003A1
:1088D0002343C1F88030E9E70FF0E2F80FF0EEF83B
:1088E0004FF48031224B214A1967136F013C23F466
:1088F000704343EA04331367FDF78EFF0446FFF726
:10890000F9F9C0F1020120460FF0D2F800F042F868
:10891000BDE81040FFF776BDD3F8FC2022F080724E
:10892000C3F8FC20D1F8802022F030022243C1F8A5
:108930008020D3F8FC2042F08072C3F8FC20B5E719
:108940000A4A4C1ED2F8903023F0F85343EA0463ED
:10895000C2F89030AAE7054A4C1E136F23F48063D7
:1089600043EA84231367A1E700ED00E00080005094
:108970000090005008B50121022000F079F80FF0B6
:108980008FF80FF09BF84FF48032014B1A6708BD47
:108990000090005008B54FF4C070FFF733FCBDE8FD
:1089A00008400449884294BF012102214FF42070FD
:1089B000FFF76EBF80F0FA020028ABBF00F1604005
:1089C000054B00F5614000F00F00ACBF90F80003CC
:1089D000185C0009704700BF14ED00E0054B420928
:1089E00053F8223000F01F0023FA00F0C04300F0DB
:1089F0000100704700E100E0014608B5EFF3108385
:108A0000DB0702D50122104608BDFFF7E7FF02464B
:108A10000028F7D10846FFF7CFFF0146EFF3118397
:108A200013B1B0EB131FEDD2074B5B68C3F3080320
:108A3000002BE8D0103B58B2FFF7BEFF88428CBF36
:108A400000220122DFE700BF00ED00E0024A536B85
:108A50000342FCD1704700BF00400950034A01792E
:108A6000D36E23F030030B43D366704700400050B1
:108A7000F8B504461C4BD3F88420D106FBD4D3F8B8
:108A80008430C3F381139C422CD0FDF7ABFE012C44
:108A9000064602D121460FF00BF80FF029F84FF0EF
:108AA0000072124B07465A6620460FF035F84FF415
:108AB00080630D4D621E93402B676B6E9A0103D449
:108AC000D5F884309B060AD538460FF015F8022CED
:108AD00008D13046BDE8F84000210EF0E9BFD5F8D6
:108AE0008430EAE7F8BD00BF00400050006000504D
:108AF00010B50C4608B9FDF775FE074B21461B78EB
:108B00003BB1064B984204D80120BDE81040FFF766
:108B1000AFBF0220F9E700BF98480020005A620268
:108B20004FF0004238B5244B244C5A664AF6CD33F8
:108B3000656C014605F00105236428BB0120FFF7A1
:108B400085FF6368DB0715D51D4B586008461D4B34
:108B5000226BD2070CD4984208D1072415B1174BC9
:108B6000194A1A6413F055FE204638BD0130EFE76C
:108B70009842F2D00024F1E70132236B13F008038E
:108B800005D08A42F8D1E8E700220E49F5E78A428B
:108B9000E3D020210A4A91620121A2F5805251605E
:108BA0000649084A886A800603D49342D5D0013327
:108BB000F8E79342DDE700BF009000500040095005
:108BC0000060095040420F003254FFFF4FF0004256
:108BD00038B5164B01465A664AF6CD33144C154A41
:108BE000656C236443780B205B0043F00103D3637F
:108BF000FFF72CFF63688A7823F4F87343EA0213C3
:108C00006360CA784B7943EA0223A3600A798B79BF
:108C100043EA022323610878FFF782FFEB0744BF92
:108C2000054B236413F0F5FD012038BD0090005082
:108C300000400950004000503254FFFF4FF0004206
:108C4000124B70B55D6E03F580535A664AF6CD330C
:108C500004460F4980204E6C0B64FFF7F7FE0B6A49
:108C600023F00F030F2C94BF234343F00F030B6239
:108C7000F30744BF074B0B64002DA2BF4FF0004227
:108C8000054B5A6613F0C5FD70BD00BF0080005053
:108C9000004009503254FFFF00A000504FF0004246
:108CA000104B70B55D6E03F580535A664AF6CD33AE
:108CB00004460D4980204E6C0B64FFF7C7FE0B6A1B
:108CC00023F4F85343EA04230B62F30744BF074B32
:108CD0000B64002DA2BF4FF00042054B5A6613F003
:108CE00098FD70BD00800050004009503254FFFFD5
:108CF00000A00050072A2DE9F041154698464FF094
:108D0000030401F003072DD89600B44000FA06F2E0
:108D100021461C480EF046FF21461B4807FA06F282
:108D20000EF040FF194B1A499DF81800B8F1000FDA
:108D300018BF1946012303FA05F50D60154B1649B6
:108D4000002818BF0B461D60144B9DF81C00C3F88B
:108D50002054103103F22443002818BF0B461D6035
:108D6000BDE8F081A2F10806B600B44000FA06F2B0
:108D700021460B480EF016FF21460A4807FA06F274
:108D8000CEE700BF00C4035008C4035010D4035002
:108D900010E4035014E4035014D4035000E00350D3
:108DA00004C403500CC403502DE9F04105460F469E
:108DB0001E4690464AB101233022194C8B4002FBDB
:108DC000004436B304F5825423600F21072F05EBCE
:108DD000450388BFA7F108044FEA0313114895BF64
:108DE000BC00A40004330C3308FA04F2A140184478
:108DF0000EF0D8FEB8F1000F09D101233021084A46
:108E0000BB4001FB05223EB102F582521360BDE872
:108E1000F08104F50154D7E702F50152F6E700BFEF
:108E200000C0035030C00350044A054B002908BF5E
:108E30001346012282401A60704700BF4010045060
:108E40004020045010B5012104462020FFF7C0F94E
:108E500001212120FFF7BCF90122114B5A60227831
:108E600012069A606178A27842EA01429A61FF2272
:108E70009A6200229A631A644FF000425A654FF0DA
:108E8000FF324FF4001103F500531A65054AC2F88A
:108E90008011E3781B01DBB282F81533116010BD3D
:108EA0000000045000E100E0F8B50125C3B2D1F89C
:108EB00000E091F80AC00F7B0C469D40CB7A1D491B
:108EC0001D4E0D65810001F1A04101F58821C1F819
:108ED00004E04FF0300E0EFB00601B05617B43EA9F
:108EE0000C4343EA475322F003020166C36502675D
:108EF0000EF009FE736D2B437365237A13B1336C47
:108F00002B433364637A13B1B36B2B43B36322797E
:108F1000A37943EA0243074A93616179E37943EA1B
:108F2000014306498B61044B55639D64BDE8F840DD
:108F30000EF0EFBD0020045000000450001004505B
:108F4000F8B50125C3B204469D400EF0DCFD302289
:108F5000094B1E6D5F6B02FB04335C6E0EF0D9FD96
:108F60003D4206D1C4F30A1008B9354200D10130A0
:108F7000F8BD0020FCE700BF000004504FF4803231
:108F8000054B9A6641F6713203F51C33DA63012210
:108F900003F50053DA6070470090005041F67132DB
:108FA0000121064BDA6303F50052D1600022DA6337
:108FB0004FF48032A3F518339A66704700000350CF
:108FC000013831289ABF024B185C0020704700BF5F
:108FD000DCDA0108021E30B54FF000000CBF10258E
:108FE000042547F60774084952B9831D51F8233008
:108FF000234023B101308542F6D14FF0FF3030BD20
:1090000000F11603F2E700BF0080035038B5C2F349
:109010000625044602F0070241B942EA052242F45D
:1090200040220634074B43F8242038BD1146284619
:109030000EF0C8FD02462846FFF7C2FF163442EA8A
:109040000022EFE700800350014BD3F894007047F3
:10905000004000504FF48032064B5A6603F5E62379
:109060009B69C3F38512827003F03F021B0B4270B1
:109070000370704700900050014B986CD96C70479A
:109080000080E00F0120034B9B680A3303F01F03AD
:10909000984070470080E00F70B5054616461C46A4
:1090A00021B94FF42070FFF7ADF80146402C1BD0DA
:1090B00003D8DCB1202C1BD070BD602CFCD1042364
:1090C00003FB06F2530803EB4113B3FBF2F3094A27
:1090D000203B02EAC303AA6822F06002AA60AA68E1
:1090E0001443AC60EB61E7E70623E9E71023E7E709
:1090F0000823E5E7F8FF7F00F8B5154E1C46154636
:109100000E40FAB9202B05D0402B1ED0002B0CBFEF
:1091100010244024012306F580765E430023324666
:1091200019460DF037FA02FB05F100FB04F704FBCA
:109130000311A2FB04040023324621440DF02AFA55
:109140003844F8BD80240025E4E780240323E2E7C7
:10915000F8FF7F00012100F5805310B5596040F6FB
:10916000AA6341F2050243610023094C8360C36591
:10917000C26000F500520361C361C3649464054C8E
:109180008365A04204BF03654365516010BD00BF05
:10919000FFFF010000C0055070B50D46FFF7DAFF74
:1091A000012300F580567360AB7C04461BB18368D5
:1091B00043F080438360EB7C5BB1244B9C4202BF55
:1091C0002A7DA3F51033C3F8C821E36D43F0800373
:1091D000E3652A8A6B7B20461343EA891343E360E5
:1091E0002B7BD5E90112FFF757FF6B7D1BB1A368FD
:1091F00043F48033A360AB7D1BB1A36843F4004309
:10920000A360EB7D2A7E1B07120502F4E00203F047
:10921000E0431343A3656B7E9A1E012A4FF00202BE
:1092200009D80B49032BC1F8202709D10423F36582
:109230002B78636170BD0749012BC1F82027F4E743
:10924000042204F50053DA65F2E700BF00C00550C0
:1092500000D0035000E0035038B50D46FFF77AFF09
:10926000012200F580535A602B8AA97B826843F063
:10927000010343EA81231343836083682A7D044604
:1092800043EA42738360AB7C5BB1194B984202BFE7
:10929000EA7CA3F51033C3F8C821C36D43F0800303
:1092A000C3652B7B2046D5E9011243F48053E3606C
:1092B0000EF0FBFC6B7B0BB1102363616B7D1BB16C
:1092C000A36843F48033A360AB7D1BB1A36843F470
:1092D0000043A360EB7D2A7E1B07120503F0E043E9
:1092E00002F4E0021343A3652B78636138BD00BF2D
:1092F00000C00550034B5A68D20702D5DA69002A2C
:10930000F9D1704700800A50054B9A689107FCD448
:109310005A689207F9D4DA69002AF6D1704700BF7B
:1093200000800A5008B5FFF7E5FF0222014B1A61E1
:1093300008BD00BF00800A5008B5FFF7E5FF012215
:10934000024B03F580514A601A6108BD00800A5043
:1093500008B5044B5968012903D1FFF7E3FF024B1D
:10936000596008BD00800A5000A00A5010B5064C94
:10937000FFF7CAFF6368012B03D1FFF7E9FFFFF78F
:10938000C3FF0378E36010BD00800A50B8B94A6893
:109390000B7812B1127843EAC2034A7843EA4203D7
:1093A0008A6812B1127843EA82138A7843EA820308
:1093B000CA6812B1127843EA4223014A93647047A3
:1093C00000800A5008B9014B5964704700900A5058
:1093D00008B9014B5964704700A00A5008B9014B05
:1093E0001964704700A00A5010B9024B186C7047FE
:1093F0000020704700800A5048B911B1012903D0FC
:109400007047044BD86C7047024B186D70470020B2
:10941000704700BF00800A5040B911B1012903D044
:109420007047034BDA647047014B1A65704700BF01
:1094300000800A5038B50446054D13F0FFF90FCCF3
:109440000FC594E8030085E80300002038BD00BF85
:109450005437002047F6FF739A42F0B56FD00229C7
:109460006FD8394B5B5C012B6BD8384DDF0005EBB7
:10947000C30415F83330A178012B13D10025E0780F
:10948000401AA84202D80844C0B2F0BD431B666827
:10949000A0EB530336F913609642D4BF1D4603F187
:1094A000FF30EEE760680028EFD0B0F9004094424A
:1094B00004DBB0F902409442B8BF144683883D44AF
:1094C000FF2B19BFC8224FF0280CB0F90620B0F9C5
:1094D00008C0A2EB04030CBF0126002693FBFCF39B
:1094E00033446E781BB29E4201DD002B01DA731EFD
:1094F0001BB24FF47A7C01339BB2071D5D1E2DB267
:109500004FEAC50E00EBC505EA88AD689E4214FB24
:10951000025222EAE27202F15C02B2FBFCF204DDCA
:1095200037F8335001339542E8D200EB0E039888A8
:10953000904228BF1046884238BF0846A4E7FF2063
:10954000A3E70020A1E700BF0EDB0108543700208D
:109550000229F0B555D82C4B585C012851D82B4C1A
:1095600004EBC00114F830004B6801280FD1C87813
:109570008C78904294BFC4EB0001C4EB0201001B45
:10958000CAB28242C8BF002233F91200F0BD002BDC
:1095900037D08878904202D3B3F90200F6E7CC784E
:1095A000B3F900009442F1D94C789988013CA1F1BB
:1095B000FF06714203F10405E4B2714103F10C07A7
:1095C000CEB2B44216D805EBC1014FF47A756A43A6
:1095D000B1F902404968521A04EBD47102EB6102FE
:1095E00092FBF4F29042D1DBB3F902009042CDDC61
:1095F00010B2CBE737F831C04E1C9445E3D3314667
:10960000DEE70348C2E700BF0EDB01085437002045
:109610000080FFFF0148FFF70DBF00BF4CF50108B8
:109620007FB50222084B0949CDE901234FF0407371
:10963000CDE90313052301A94FF0FF30059313F083
:1096400064F907B05DF804FB006A18000003040029
:109650004FF48062014B00209A66704700900050E2
:109660004FF48062014B00209A66704700A00050C2
:1096700008B5B0B14FF480620B4B9A660EF0E7FA72
:109680004FF098435A6CD202FCD54FF48062586D6B
:10969000064B10F470209A6604D0BDE808400EF026
:1096A0003EBB212008BD00BF0090005000A000502C
:1096B0002DE9FF474FF000080E4617460446CDF847
:1096C0000080002859D022B90025284604B0BDE802
:1096D000F087002951D032F0030902F0030A1FD0AD
:1096E0004FF0E063C0E9003801230191C0F8088021
:1096F0000293C0F81C8049F0005301A903930EF0B7
:1097000093FA494620460EF099FA2046FFF7B0FF3B
:10971000054628B14A464146304613F037FED4E7A5
:10972000BAF1000FD0D04FF000084FF0E063C4E969
:1097300000380123CDF804D00293114B204601A933
:10974000C4F80880C4F81C8003930EF06DFA04215D
:1097500020460EF073FA2046FFF78AFF054608B14F
:109760003A46D8E7009A4E44EB00013522FA03F35B
:10977000AA4506F8013BF7D1A6E72125A5E700BFDA
:10978000040000202DE9F041012905460E469046CF
:109790001F4692B04AD8046824F04003802B02D0C0
:1097A000B4F5807F45D11C2200210BA813F0EEFDFB
:1097B000234A244B0121012E08BF13460A932B1D77
:1097C0000193E408204B44F0005402910AA803944A
:1097D000CDF81080059106930797089101A9099388
:1097E0000EF018FA04A90AA80EF014FA07A90AA89C
:1097F0000EF01AFA29680AA8C9080EF01FFA1021FB
:109800000AA80EF01BFAFFF723FFA8B90AA80EF06A
:109810001EFA4FF098435A6CD202FCD55C6DFFF7EC
:109820001FFF04F4702012B0BDE8F0816FF020003B
:10983000F9E76FF07100F6E74FF0FF30F3E700BF94
:1098400000010004000101041000002030B5154B98
:1098500087B00293144B0390049346F611030D4610
:10986000059300F023F81428044616D168460EF03C
:10987000FCFA4FF0A843032202A95A6319601D6144
:109880009A63DA6B9207FCD1142C02D168460EF071
:10989000FAFA00F03FF8044601E00028E9D020463B
:1098A00007B030BD6C3700200400002038B5164BDF
:1098B0005A6E42F004025A66D3F8802242F0010246
:1098C000C3F88022114B5B68C3F3080343B14FF028
:1098D000A842D36B13F0430FFBD11424204638BDAC
:1098E0004FF0A843DC6B14F04304FBD1084D2B6808
:1098F0001BB90421284602F0EDFD2B68013343F02B
:1099000000432B60EAE700BF0080005000ED00E05C
:109910006C370020014B00205B68704700ED00E0D1
:1099200007B5094B18689A889B7900906846ADF88E
:1099300004208DF80630FFF749F90620FFF77EF97D
:10994000002003B05DF804FB11DB010813B500240F
:10995000064A6846536F43F00103536700948DF83D
:109960000440FFF77BF8204602B010BD00400050D5
:1099700030B58BB06C461C4D0FCD0FC40FCD0FC44E
:1099800095E8030084E80300184BD3F84C21120338
:109990001CD54FF6FF72A3F5FE431B88934220D1DE
:1099A0008C248DF81940FEF723FF044484F3080447
:1099B0000F488DF81840FCF74BFF6846FEF758FE3D
:1099C0003220FEF75FFF00200BB030BDD3F85041CE
:1099D00014F0FF04E5D14FF6FF72064B1B8893424B
:1099E000DFD01C46DDE700BF18DB01080080E00F78
:1099F000C01753020001E00F30B5094D87B001AC2C
:109A00000FCD0FC42B6801A823603F238DF80530CC
:109A1000FEF7F4FE3220FEF72FFF002007B030BD26
:109A200040DB01086FF00403502110B50A480B4CCD
:109A300013F0800F03F1010207D123444C2A83F86D
:109A400000131346F4D1002010BD03F00F03043BB4
:109A5000034419761346EBE700ED00E000E100E077
:109A600000F00CB800F00AB800F008B800F006B832
:109A700000F004B800F002B800F000B872B61EF0B2
:109A8000080F09D01EF0040F0DD0DFF850E0AEE84B
:109A9000FF1F6FF002000CE0DFF840E0AEE8FF1FB0
:109AA0006FF00E0005E0DFF834E0AEE8FF1F6FF066
:109AB00006006946EFF309828EE8070086460848EB
:109AC000084C854501D3A54501D384F3088802F0ED
:109AD00009FC84F3088802F0E7FB00000010002076
:109AE0004000002000100020BFF35F8F074B5A6A30
:109AF00022F480325A62D3F8942022F00102C3F893
:109B00009420BFF34F8FBFF36F8F704700ED00E0DD
:109B100070B52948294CFFF7E7FF8442284D2949B1
:109B200019D1D5F8C03023F0FF0343F0A003C5F8E6
:109B3000C0304FF080430A68214D234EC5F898206D
:109B400043F0010301328442C5F89C60C5F8A0309F
:109B50000A601ED00DE0D5F8C02020F01F03203B86
:109B600022F0FF0242F0A002B3F1005FC5F8C0206E
:109B7000E1D2164B0A68124823F01F0343F0030397
:109B8000C0F89820C0F89C30114B0132C0F8A030CA
:109B90000A60BFF35F8F0522094BC3F894205A6A0D
:109BA00042F480325A62BFF34F8FBFF36F8FBFF31F
:109BB0004F8FBFF36F8F70BDE01200208C14002018
:109BC00000ED00E07037002003000020AB140020FF
:109BD000E1FFFF3FF8B51446FFF786FF1F2C27D99A
:109BE0000027C2062A4D1CBF20F01F0020302A6823
:109BF000CB06284B18BF21F01F01FCB2A2422BD884
:109C0000D3F8C04020F01F0024F47F4444F4807453
:109C100021F01F01C3F8C04040F00300C3F89820B2
:109C200041F003010132C3F89C00C3F8A0102A6080
:109C30000020BFF35F8F0522164BC3F894205A6AA9
:109C400042F480325A62BFF34F8FBFF36F8FBFF37E
:109C50004F8FBFF36F8FF8BDC3F89840D3F89C4087
:109C6000D3F8A06024F01F04A04226F01F0601D103
:109C7000B142DDD0B04201D8A14207D2D3F898401A
:109C8000013724F0FF04C3F89840B6E72820D0E756
:109C90007037002000ED00E030B50E4C41612368C4
:109CA0008BB9206083600DE0891A9A681D46416176
:109CB0006AB113465A698A42F6D935B1A860521A78
:109CC00083605A6130BD0025F4E72060F7E79860B3
:109CD0008260F7E77C37002038B500F069FA00258C
:109CE000084B094C1A682368C31A2AB123B1516979
:109CF000994203D3C91A5161206038BD55615B1A7E
:109D00009268F2E77C3700207837002038B5134D91
:109D10002B685B6993B1124A022014681C440EF050
:109D200013F9204600F04CFA00230E492A680B7004
:109D3000D088800709D501230B7038BD02200EF0B2
:109D400003F9022000F08AFAEEE79268002AF4D0C4
:109D500050690344012BEBD9EFE700BF7C370020AB
:109D6000783700209A48002070B516469DF81420D8
:109D7000C0E903360271049ABDF81830026000226F
:109D800004460D468260C380EEB900F011FA284403
:109D9000A0619DB12E460DF0ABFE0546FFF79CFF7E
:109DA00031462046FFF778FF104B1B68A34201D1D4
:109DB000FFF7ACFF28460DF09FFE02E0E368656107
:109DC0007BB9002070BD00F0F3F93044A061002D94
:109DD000E0D1E3686561002BDDD02046216898471B
:109DE000D9E7204621689847EBE700BF7C37002081
:109DF00000220C490B687BB183420AD183687AB197
:109E0000936083681BB15A6941690A445A61002012
:109E100070471A469B68EEE70028EFD00220704793
:109E20000B60EEE77C37002070B50DF06CFE144E31
:109E300005463478FCB9134B1C60134B1C60134B64
:109E40001C8000F083F901200EF07EF80EF0B0F8CF
:109E50000F4B0246186020B928460DF05AFE232009
:109E600070BD234640F2E7310A480CF093FB0A4BE1
:109E700018600123337028460DF04BFE0020EFE7F9
:109E80009B4800207C370020783700209447002032
:109E90008037002018FCFFFF7437002070B504469F
:109EA00040B30DF025FE144E0546FFF715FF306850
:109EB000A04209D02046FFF79BFF0446B0B12846D8
:109EC0000DF01AFE204670BDFFF792FF04460028F1
:109ED000F5D133683BB9022000F0AAF928460DF00D
:109EE0000BFE0024EEE7FFF711FFF7E73368002BC6
:109EF000F4D1F0E72224E5E77C37002038B50C46A2
:109F00000546A8B1A1B100230B700DF0FCFD0121A5
:109F1000084B1B6833B90DF0FCFD002038BD9D4295
:109F200004D121702278002AF9D0F4E79B68F1E788
:109F30002220F3E77C37002070B50DF0E4FD0646E3
:109F400000F036F9084B04461D880120ADB20EF032
:109F500004F818B100F02CF90446013530460DF034
:109F6000D8FD2046294670BD94470020F8B50C4B1B
:109F700005461B680E4683420FD3002440F2E730AB
:109F80002146084B4FF47A721F680023E5FB070156
:109F90000CF000FB30602046F8BD2120FCE700BF3C
:109FA0007437002080370020014B1868704700BFCD
:109FB0007437002038B5154B14468342144B8B413F
:109FC00021D3144B1A68F2B14FF47A75A0FB050344
:109FD00005FB0131531E134211D1B2FA82F2C2F1D4
:109FE0001F05531CD24301FA03F3E84021FA02F2A1
:109FF00018431043E940C4E90001002038BD0023A4
:10A000000CF0C8FAF7E72120F8E700BFEFA7C64B2E
:10A010003789410080370020C2072DE9F047044608
:10A020000BD5474A138801339BB21380FFF754FEC8
:10A03000444B1B680BB1FFF769FEA3077ED50DF0FB
:10A0400062FD4FF0000905464E46FFF745FEC84643
:10A050003C4F3C680CB163698BB100223A4B012E36
:10A060001A7003D119F0020F18BF1E70002C61D0B6
:10A07000FFF74CFE2846BDE8F0470DF04ABD2346E9
:10A080005A693AB91A792179914288BF1C469B686E
:10A09000002BF5D128460DF03CFD2569DDB100F01F
:10A0A00087F8A269A0EB02094FEAE9734D4578EB06
:10A0B000030311DA23691344A361E368B4F806903B
:10A0C000013613B12046216898470DF01CFD054666
:10A0D000FFF702FEBDE7A9460DF015FD82462046BA
:10A0E000FFF786FE50460DF014FD2369002BE4D0E7
:10A0F000A38BB5EB090533B1E28B13449BB2B3F5E7
:10A100007A7F0FD2E3830DF0FEFC8146294620467C
:10A11000FFF7C2FDA369226948461344A3610DF00D
:10A12000F8FCCAE7A3F57A73E383A369013D013B19
:10A13000A361E8E7022000F07BF89BE7BDE8F08729
:10A14000944700207C3700209948002010B5012159
:10A15000002486B03E20ADF80810CDE903448DF808
:10A1600004408DF80A400594FEF732F801A8FFF785
:10A17000FDF8204602A98DF80840FFF707F92046B0
:10A180000F21FFF725F90F212046FFF727F9FFF7E9
:10A19000D3F8FFF7AFF80822034B9C61034BC3F8D9
:10A1A00088219A6006B010BD00800A5000E100E0EE
:10A1B00008B5FFF79FF8014B986908BD00800A5069
:10A1C000F8B504460DF094FC0746FFF793F8164BDC
:10A1D0009D690DF0B5FE06460020FFF705F98307DF
:10A1E00004D4731B032B01D8AE420FD10021631B93
:10A1F000022B98BFEC1C0846B4F1FF3F2CBF22464F
:10A20000621EFFF709F902200DF09EFE38460DF0A0
:10A2100073FC064A137833B103498B6C43F0010396
:10A220008B6400231370F8BD00800A50D712002001
:10A23000830700F0010109D50122064B41F002011C
:10A240001A70054A936C23F0010393640020FFF712
:10A25000BFB800BFD712002000800A50830742BF5A
:10A260000222014B1A64704700900A5010B5044650
:10A27000FCF7D2FA0C4BA0F57A729A4212D84FF43E
:10A280007A73B0FBF3F05C43084BB3FBF0F3B4FB21
:10A29000F3F0022806D9BDE810400323B0FBF3F029
:10A2A000FBF766BF10BD00BFFFC99A3B40420F00DD
:10A2B00013B5144622B902B0BDE810400EF0DEB866
:10A2C000538812889A420ED20023012200934FF045
:10A2D000FF310A4B12F0F9F900B1FEE72388013390
:10A2E000238002B010BD002BFBD00022044B1A705B
:10A2F00002B0BDE8104012F0F6B900BFB1A20008EC
:10A300009C48002030B585B00446084603A9154690
:10A31000FFF72CFE40B90123044ACDE9000303995D
:10A320002B4620460DF0E8FD05B030BD31A30008F6
:10A3300038B505460C4619B9BDE838400EF09EB850
:10A340004B880A889A420CD2FFF72EFE224601461D
:10A350002846FFF7D7FF00B1FEE7238801332380AB
:10A3600038BD002BFCD00022024B1A70BDE83840EB
:10A37000FFF794BD9D48002020220021014813F0E2
:10A3800005B800BFA43700202DE9F04115460C4662
:10A390002C4400251F48FFF781FD1F4BC3E90045F2
:10A3A0000DF021FE01221D4B241A66EB0606944295
:10A3B0001A7076F1000303DABDE8F0410EF05EB8E2
:10A3C000FFF7F2FDA04275EB06031ADAFFF7ECFD8A
:10A3D0008046FFF7E9FD2B460246314620460CF049
:10A3E00089F80F4F424678802B46204631463D8003
:10A3F0000CF080F8074811463A46FFF783FF38B162
:10A40000FEE72A4621460348FFF77CFF00B1FEE73E
:10A41000BDE8F081A4370020F01400209D48002002
:10A420009647002008B50348FFF738FD0022024B8D
:10A430001A7008BDA43700209D48002070B50DF0AB
:10A4400057FB054612F076FA044608490B68086087
:10A450008342074B284682BF1A6801321A601E6881
:10A460000DF04AFB2046314670BD00BF8837002002
:10A470008437002037B515460C462C44002510487B
:10A4800012F031F90F4BC3E9004512F053FA0122E3
:10A490000D4B211A1A7063EB0303914273F1000311
:10A4A00004DA03B0BDE830400DF0E8BF074B0448C4
:10A4B000009512F00AF900B1FEE703B030BD00BF0D
:10A4C0008C370020E81400209C480020B1A200082E
:10A4D00008B5034812F007F90022024B1A7008BDB4
:10A4E0008C3700209C4800202DE9F04104460DF0F7
:10A4F0000AFB284B05461B78DFF8A48033B998F88F
:10A50000003013BBBDE8F0410DF003BB224BD3E993
:10A5100000760DF068FD3F1A66F10006012F76F116
:10A52000000604DB98F800307BB92846EAE72046AD
:10A53000FFF778FF98F8006046B928460DF0E9FA71
:10A540002046BDE8F04102F045BA0026134BD3E99E
:10A55000008712F0EFF9B8EB000867F10007B8F1D7
:10A56000010F77F100070EDA2046FFF7B1FF28460A
:10A570000DF0CFFA16B1204602F02CFA2046BDE8C5
:10A58000F04102F04BBA28460DF0C3FA002ED7D1A5
:10A59000BDE8F0819D480020F0140020E814002060
:10A5A0009C48002008B5FEF74FFD034B1860BDE83E
:10A5B00008400DF029BB00BFC4370020BFF34F8F08
:10A5C0000549064BCA6802F4E0621343CB60BFF34F
:10A5D0004F8F00BFFDE700BF00ED00E00400FA056B
:10A5E0000E4B1B68D9070FD45A060FD413F0180F5F
:10A5F0000ED199070ED49A060ED440F284721342FB
:10A6000014BF0620072070470020704702207047C3
:10A61000082070470120704703207047C43700208E
:10A6200010B501F01FFE044601F022FE214602464D
:10A63000104802F021F901F00FFE044601F026FE59
:10A64000214602460C4802F017F901F00BFE0123E7
:10A6500040F2A172834013420AD0002001F00AFDAB
:10A66000002001F01DFCBDE81040002001F0CCBB33
:10A6700010BD00BF54DB01086ADB0108054B1868F8
:10A6800010F002001FBF044B1B681878C0F3401085
:10A69000704700BF0C38002008150020064B1868D2
:10A6A00010F0020007D0054B1B68188800F0070067
:10A6B000C31E5842584170470C380020081500202E
:10A6C0000E4B10B51C68A0235C4308B90DF099FC33
:10A6D0000B4B1B68B3FBF4F204FB1233B0FBF4F238
:10A6E00004FB12002344181AB0FBF4F304FB13001C
:10A6F000A023B0FBF3F080B210BD00BFCC37002028
:10A70000C83700202DE9F04104460D460DF0D9FF71
:10A71000002857D020460DF0D9FF002852D094F8D9
:10A72000237017F010074DD1FF2D00D1FEE7204612
:10A730000DF0A2FFA8B120460DF0D9FF0646002873
:10A7400044D03C22224B02FB05335B785A1E9042D8
:10A750000DD083420AD00133984235D00820BDE89D
:10A76000F0813C221A4B02FB05335E7801274FF043
:10A770003C080C2318FB053303EB0713144F3B4431
:10A78000236194F82330DB0716D420460DF074FFC4
:10A7900028B108FB05F3FA18FE545368936031465C
:10A7A00020460DF0B1FF3C2303FB05777968204676
:10A7B0004B1C7B600DF0AAFF0649204601EBC5014A
:10A7C0000DF0B1FD0020CAE70227D0E70120C6E75F
:10A7D000D0370020C448002010B5084C206811F084
:10A7E0006EFF012804D001220021206811F069FFCA
:10A7F0002068BDE8104004F0A9BC00BF103800205C
:10A8000073B50646244B254D18689B880090ADF81B
:10A81000043033680C462868BBB1972112F016F952
:10A82000024600B1FEE73168286804F055FF33792D
:10A83000834200D0FEE701220E23114628688DF8DE
:10A84000003012F035F920B1FEE705F015FA00B13D
:10A85000FEE703222868114612F01AF97F2C18D05F
:10A86000286811F0D8FFFF2808D104EB84046400A5
:10A870006946286811F0D1FF28B1FEE7286804F086
:10A8800041FF0446F4E72146286811F0DBFF00B1E0
:10A89000FEE702B070BD00BFB0DC01081038002038
:10A8A00008B5054B00EB80004100186811F0CAFFA5
:10A8B00000B1FEE708BD00BF1038002038B50D46D6
:10A8C00004460DF020F9064B1A682DB114431C60A4
:10A8D000BDE838400DF01DB922EA0404F7E700BFD7
:10A8E0000C38002010B50DF00EF9084B084A1B7803
:10A8F00012789A4211BF0024064B1C7884F00104A0
:10A900000DF007F904F0010010BD00BFAF480020B2
:10A91000AE480020B048002008B5FFF7AFFE00B9F0
:10A92000FEE70D4B1B681B0700D4FEE701214FF427
:10A930008060FFF7C3FF00210220FFF7BFFF002167
:10A940000820FFF7BBFF054B186804F0FFFB00224F
:10A95000034B1A7008BD00BF0C38002010380020CF
:10A96000B14800202DE9F043164601220D461C4B4C
:10A97000DFF880801B4F1C4C18700021D8F80000B5
:10A9800085B03A7011F09DFE2279EBB29A4225D83B
:10A9900062799A4222D3DFF86090D9F80030A3425E
:10A9A00005D07F212046FFF72BFFC9F80040FF2389
:10A9B0008DF804300D4B3246CDE902362946D8F8E1
:10A9C000000001AB04F036FC28B17F22084B0120C7
:10A9D0001A7002233B7005B0BDE8F0830720FAE748
:10A9E000CD490020CF4900201838002020A10700C1
:10A9F000CE49002010380020143800200E4A08B537
:10AA00001268920717D5B0F5007F4FF001010FD102
:10AA1000FFF754FF00211020FFF750FF0A2000210C
:10AA2000FFF74CFF054B1868BDE8084004F08EBBEB
:10AA30004FF48050F0E708BD0C380020103800209B
:10AA400007B50D4B0DF10601186811F08BFE0B4B8D
:10AA5000BDF8061093F90020094B7F2A0B4413F927
:10AA60000B0C05D17F2808BF002003B05DF804FB64
:10AA70009042A8BF1046F8E710380020B3480020E5
:10AA8000B44800202DE9F04F0546900214461F46B9
:10AA9000E5B040F1CD80354B0BA9186811F029FFC6
:10AAA000BDF82E30022B40F2C380272B0AD9272372
:10AAB000BDF83020ADF82E30262A82BFADF83030F8
:10AAC00000230E930BA924A80DF09FFC9DF82E6087
:10AAD000002E00F0AD800DF191031093731EADF8C0
:10AAE00044300DF168090DF2111310A8C9F80030B7
:10AAF0000DF0DBFDDFF88480002800F0718108A9EB
:10AB000010A80DF0C1FD98F800605EB19DF82860B6
:10AB100046B1022E23D1002008A900F0EDFFC64364
:10AB2000C6F3C036124A134992F90020097807ABE0
:10AB300008A801F08FFDDFF848A0804610B3DAF8CE
:10AB4000000010B10C4801F0DBFD834642460A4884
:10AB500007A901F0EDFD58445FFA80F819E0BDF84F
:10AB60002010002000F052FFD9E700BF103800206D
:10AB7000CC480020CD4800209E480020CC49002031
:10AB8000CC370020DAF800301BB1BC4801F0B8FD2A
:10AB9000804643463146B94ACDF8009010A801F0EE
:10ABA00095FD002844D1DAF80030A3B10DF029FA60
:10ABB000BDF84430BDF82E205B0103F5F073A3EB24
:10ABC00042131844BAF80080FFF77AFD4146024666
:10ABD00048460DF074FD48460DF073FD20B100218C
:10ABE0004846FFF78FFD18BB0BA80DF000FCF8B925
:10ABF000DDE90D83BDF830204846002A08BF98469D
:10AC00000DF05FFD28B198F8003043F0040388F898
:10AC100000302EB198F8003063F07F0388F80030E0
:10AC200099F80420284644A98DF8102111F063FFFB
:10AC300014F0807FDFF85C8204F0807200F04181C4
:10AC4000D8F8003099070DD510200021FFF736FE07
:10AC5000FFF714FD0646002800F027810121082097
:10AC6000FFF72CFED8F8002004F40053920640F1C0
:10AC7000398123B101214FF40040FFF71FFE14F486
:10AC8000404F0AD000212020FFF718FE00214FF48A
:10AC90000040FFF713FEFFF79FFD260740F18F816D
:10ACA000284611F02DFE764EDFF8ECA1014624AACD
:10ACB0003068DAF800B011F018FE8146002800F084
:10ACC000DC819DF890303068072B40F0D6814946F2
:10ACD00044AA11F011FE002840F0CF81BDF8923057
:10ACE000039301339BB20493269B049A1B789342EF
:10ACF00040F0C381039B033B7B2B00F2BE8124A861
:10AD00000DF075FB002840F0B881BDF89430002BA1
:10AD100040F0F580279B1B7802939DF81D31002B96
:10AD200040F0EF80574B1B78002B40F0A681DFF8F6
:10AD30006CB19BF80020D3B20F2A059300F29D81DD
:10AD40008C200C22504910FB0320DFF854A1097815
:10AD50005044002900F08D8124A90DF056FB49468E
:10AD6000306811F0CFFD9DF81611002900F08581A3
:10AD7000039930680231ADF8141144A911F0BEFDF9
:10AD8000002840F07A819BF80010404B013101F01F
:10AD90000F018BF800109BF800101B78394A591AE4
:10ADA0004B424B4113708C23059A03FB02FB049B1F
:10ADB0000AEB0B010AF80B30BDF8243108714B7017
:10ADC000BDF81E315BBA4B80449B8B60029B13F035
:10ADD000200900F0578101210420FFF76FFDEEE00C
:10ADE000012E98F8003018D103B3284644A911F079
:10ADF0007FFE034600283BD19DF81831032B2CD051
:10AE00009DF81831022B7FF413AF0020BDF810110C
:10AE100000F0FCFD002825DA0AE7002BE5D19DF8BB
:10AE2000913003F00703012B3FF402AF284611F0E5
:10AE30005DFE002836D10BA80DF0D9FA00287FF46A
:10AE4000F7AEDDE90D32BDF83010002908BF13461A
:10AE50001A7862F07F021A70EAE644A900F04CFE0C
:10AE60000028CDDB284611F041FE03460028E2D041
:10AE7000022B19D106480DF098FCD9E69E48002017
:10AE800010380020B0480020B2480020AE48002012
:10AE90008ADB01080C38002030150020AF48002064
:10AEA000B43800200228E5D0FEE7A84B186804F06B
:10AEB0004DF901214FF48070FFF700FD314602206B
:10AEC000CEE607F002031A4304D04FF40070FFF7F8
:10AED00095FDC7E604F0A8421A433FF4C3AE4FF411
:10AEE0008050F4E7002B7FF4D8AE07F02002134324
:10AEF0003FF4D3AE4FF40060FFF780FDCDE6269B14
:10AF000009E7029B03F00703022B40F0B680584686
:10AF100024A90DF07AFA049B49463068AAF8043057
:10AF200011F0F0FCFFF7AAFB002842D0884B9BF8F9
:10AF300002201B689B789A423BD19DF816313068FD
:10AF4000002B00F09A80039B44A90233ADF8143122
:10AF500011F0D4FC002840F09080FFF76FFA002336
:10AF6000449A9DF81DC1824228BF01F1FF319DF92D
:10AF70001EE19DF81F019A18BCF1000F5FD0CAE9CD
:10AF800004218AF81DE08AF81E008AF808300121A1
:10AF90004FF48070FFF792FC0A200021FFF78EFC2F
:10AFA000FFF77CFB28B1029BD80642BF0122694B08
:10AFB0001A70FFF773FB10B9306804F0C7F8A201EC
:10AFC0004FF000090CD5634E49460420FFF776FC8C
:10AFD00033782BB15D4B186804F0B8F886F8009010
:10AFE00014F0084F03D000210420FFF767FCA300F2
:10AFF00003D500210420FFF761FCA60705D5D8F88A
:10B000000030180701D5FFF787FC79060DD5D8F871
:10B0100000301A0701D5FFF77FFCD8F800305B0736
:10B0200003D500210420FFF749FCFE0561D5284621
:10B0300011F031FB0528D8F800302FD1FEE7464B40
:10B04000DFF82491C3E90421DA7F83F81DE022F0C0
:10B050000302DA77414A89F800E01178DFF80CE161
:10B06000926898778EF8000083F808C019779A6183
:10B070008DE7049B042B7FF46FAE4946306811F0D6
:10B0800041FC9CE7DFF8CCA09AF80030002B96D06A
:10B09000306804F05BF88AF8009090E7442818D0F4
:10B0A00000F0EF02242A14D0032803F002030AD090
:10B0B00002280DD094281CD17F22294B1A7002221D
:10B0C000284B1A7015E023B9264B1B78012BF2E7A9
:10B0D0007BB1D8F80030580703D500210420FFF7D2
:10B0E000EDFBD8F80030990703D54FF40070FFF757
:10B0F00085FCBA0506D500222846114604F018FB47
:10B1000000B1FEE7E30713D5284611F001FC044621
:10B11000284604F01BF814F5007F11D0002CB8BFAE
:10B12000033444F3870402220D4B1C700D4B1A703C
:10B1300017F0C00F06D165B0BDE8F04F0DF09EB915
:10B140007F24F0E765B0BDE8F08F00BF1038002025
:10B1500008150020B148002058150020D0370020E5
:10B16000CE490020CF490020CC480020CD48002007
:10B1700030B50C46154A85B01068516802AB002CFA
:10B1800003C304F1FF350DD1FDF776FF2B46CDE962
:10B19000000102AA073412F8011D03F8011FA3429F
:10B1A000F9D110E02A460A4B0A4913F801098B42EB
:10B1B00002F8010FF9D1082220460DEB020112F02E
:10B1C000BBF80028E0D005B030BD00BFA9DB010806
:10B1D0000900E00F0100E00F002310B50C461A46ED
:10B1E00007480DF0E5FA2146002000F003FC054B6E
:10B1F00000222146186811F02BFC00B1FEE710BDBB
:10B20000B2DB01081038002030B5134B87B001F1D4
:10B21000080414F8012D8C4203F8012BF9D1002504
:10B220006379A279E179059520780490607803909C
:10B23000A0780290E07801902079009007480DF006
:10B24000B7FA074B2A462146186811F00DFC00B1E9
:10B25000FEE707B030BD00BFC4480020CBDB0108CB
:10B260001038002010B50C46002206480DF0A0FA58
:10B27000054B00222146186811F0F0FB00B1FEE7F3
:10B2800010BD00BFEDDB010810380020024B18682C
:10B2900000F00100704700BF0C38002008B5044BD7
:10B2A0001B68DB0702D403480DF082FA002008BDBA
:10B2B0000C38002003DC010808B5044B1B68DB07D1
:10B2C00002D503480DF074FA002008BD0C380020A8
:10B2D0001EDC0108094B10B51C6814F006040AD1E5
:10B2E00007480DF065FA20202146FFF7E7FAFFF73F
:10B2F00073FA204610BD0520FCE700BF0C38002083
:10B3000003DC010870B50F4C0D462379834217D832
:10B310006379834214D30C4E3368A3420CD00B4B99
:10B3200001221868002111F0CCF929462046FFF7C8
:10B3300067FA3460002070BD0846FFF7B1FAF9E7FC
:10B340000720F8E7183800201438002010380020B3
:10B3500030B5194B0D461B6885B09B0729D4174B98
:10B360001B78012B25D0FFF76BFB01462846FFF722
:10B37000C9FF044670B9FF23CDE901008DF8043000
:10B380000F4B03902946186801AA03F039FF0446C1
:10B3900018B10124204605B030BD0A480DF008FA66
:10B3A00021462020FFF78AFA074B9D71074B9D71BC
:10B3B000F0E70D24EEE700BF0C380020CF49002055
:10B3C000103800203CDC0108581500203015002002
:10B3D000F0B589B00D4617461E46FFF731FB014612
:10B3E0002846FFF78FFF044600BBFF23CDE901008D
:10B3F0008DF8043040F2011303908DF814008DF89D
:10B400001E000D48ADF81C302946006801AB04AAA7
:10B410000497069603F002FF044650B9012120204C
:10B42000FFF74CFA054B9D71054B9D71204609B005
:10B43000F0BD0124FAE700BF1038002058150020A5
:10B440003015002070B52C4E88B033689B0700D4AF
:10B45000FEE72A4C236803B9FEE79B88284D8DF848
:10B460000B30012332680DF10B011A46286811F0E8
:10B4700036FA9DF80B202168023A0023096892B23F
:10B48000286811F02CFA1F4A05AB07CA246883E824
:10B4900007002268E0691278A179C2F34012D8B996
:10B4A00036682868F50689B213D5174D94F8204000
:10B4B000AC70164C2478EC7000932B4603F082FE9F
:10B4C00028B14FF48050FFF799FA0CF0D7FF08B07D
:10B4D00070BD03F069FEF3E7A46901932044A0382E
:10B4E000039000200A4BADF810000093286803ABCE
:10B4F00003F076FEE4E700BF0C380020B0380020EF
:10B5000010380020B8DC01080C120020D8120020EE
:10B51000001200202DE9F8430C460746FFF790FA89
:10B520000146A079FFF7EEFE054600285AD1DFF864
:10B53000C880D8F80030990700D5FEE72B4B9C4215
:10B5400000D0FEE701462A4E4FF4F850FFF7B6F957
:10B5500094F823103460274C1020C1F38001FFF7CA
:10B56000ADF9236863B1D6F80090D9F81C303BB927
:10B5700011F0E0F940F6B8323368C9F81800DA6122
:10B58000D4F80090B9F1000F10D0346894F823304B
:10B59000DA070BD4D4E906031844A030FFF790F87B
:10B5A0001FFA89F1024620460DF089F83068017AC9
:10B5B000FFF7A8F80CF0A7FA044600212020FFF7B7
:10B5C0007DF901210220FFF779F9FFF73BFF2046C3
:10B5D0000CF09FFAD8F80030DB0403D53846034955
:10B5E0000EF03DFB2846BDE8F88300BF081500209B
:10B5F000B0380020CC3700200C38002000487047BD
:10B600000815002038B5154B9979154B1B689B0719
:10B6100001D57F2038BD134C237803F0FF00002BA9
:10B62000F7D11022FFF79EF90028F2D111F082F92C
:10B6300005462378012B05D111F07CF9431BB3F5A6
:10B64000967FF6D32378022B0ABF074B7F2018780A
:10B650004FF0000308BF40B22370DBE7581500200D
:10B660000C380020CF490020CE490020014B18782B
:10B67000704700BFB248002008B5044B1970044B56
:10B68000186811F0F7F900B1FEE708BDB2480020D4
:10B6900010380020014B1970704700BFCC490020C2
:10B6A00010B50C4649B1064B186804F02BF80A2374
:10B6B00090FBF3F02070002010BD0720FCE700BFD6
:10B6C0001038002008B5074B1970FFF7B9F9064B81
:10B6D00000EB8000410009B2186811F0B3F800B126
:10B6E000FEE708BDB34800201038002008B5A1F1DE
:10B6F0000B030F2B09D8064B0B4403F80B2CFFF759
:10B700009FF9FFF7CDF8002008BD0720FCE700BF38
:10B71000B448002021B1034B00201B780B70704708
:10B7200007207047D8120020014B00201970704785
:10B73000D8120020054B1B782BB94FF47A730120E7
:10B740005A43FFF70FB90520704700BFCF490020CB
:10B75000F0B5DDE905540BB105B104B9FEE71349B5
:10B7600003F110074A7001F10C0216461868596877
:10B77000083303C6BB423246F7D12B460C4D03F1CA
:10B7800010062A4618685968083303C2B3421546A2
:10B79000F7D12346074C03F1100522461868596873
:10B7A000083303C2AB421446F7D1F0BDD0370020B6
:10B7B000EC370020FC37002010B50C460CF0A3F944
:10B7C000024B5C60BDE810400CF0A3B9D0370020FC
:10B7D00010B50C460CF097F9044B5A68A24238BFDA
:10B7E0005C60BDE810400CF094B900BFD037002079
:10B7F000014B002019607047CC370020014B1960C5
:10B80000704700BFC83700202DE9F74F0746DFF823
:10B81000D081654EFFF766F800283AD0634A136876
:10B8200013F4F85F1ED0106810F4807000F0978059
:10B830005F4B00211B684FF480701B785D4D13F047
:10B84000200F08BF00250024FFF738F85A4B2A467E
:10B85000196800233846C1E9063323460EF006FA7C
:10B860000CF00CFE554B1B78012B40F09980544B8B
:10B870001A78022A40F0948000221A70514B384600
:10B88000197849B20EF0FEF903B0BDE8F04F0CF0A4
:10B89000F5BDFFF727F800285FD198F800508C23FA
:10B8A0000C2213FB0522B15C9019C1F3800B4FEA07
:10B8B000D11A01F07B01B15403FB05F17218424C1F
:10B8C00092F801C0715C84F806C092F8049001926D
:10B8D000A1802060FEF7B2FD8C23019A03FB056571
:10B8E000926895F903308242384828BF01F1FF3150
:10B8F0000370A8780025AA18C4E904213C22A07787
:10B90000334863770370E37F84F8089002FB09F9FA
:10B910004AEA4B0A23F003034AEA030A2D4B2A4959
:10B9200003EB090213F809303846237793682A4657
:10B93000A36184F81FA00EF08BF90CF0E4F898F8DE
:10B940000030013303F00F0388F80030224B1D70E4
:10B950000CF0DFF80CF092FD5CE710259FE7116812
:10B9600011F400710BD001464FF40070FEF7A6FFF2
:10B970000F24214619480CF01EFF002566E71368C6
:10B9800013F4806305D04FF48060FEF797FF0E2418
:10B99000EFE719464FF48050FEF790FF0B24E8E7DD
:10B9A00003B0BDE8F08F00BFB43800200C38002091
:10B9B0000815002030150020B0380020CD490020A7
:10B9C000CF490020CE49002058150020CC48002047
:10B9D000CD480020D0370020B048002059DC0108B5
:10B9E000AE480020024B0146186811F08CB800BF29
:10B9F00010380020034B0A461980034800210CF040
:10BA0000D7BE00BFEA470020C4DC010800200A4B73
:10BA10001B881944094B89B21A888A4201D19A7845
:10BA20003AB901300A2803F10403F5D14FF0FF3091
:10BA3000704700B2704700BFEA470020C2470020AD
:10BA400038B50D460024114B13F82420CAB1013437
:10BA50000A2CF9D14FF0FF342B46224600210C4826
:10BA60000CF0A9FEA3B2092B0DD80A4A00201288B7
:10BA7000094B1544012223F8245003EB84039A70E8
:10BA800038BD24B2E8E70320FAE700BFC44700202E
:10BA9000E2DC0108EA470020C247002038B5002058
:10BAA0000D46FFF7B3FF044602462B460848002127
:10BAB0000CF081FEA3B2092B9BBF0020054B0A208E
:10BAC00003EB84029CBF907023F8240038BD00BFB4
:10BAD0000FDD0108C247002008B5002104480CF022
