:020000040800F2
:1060000008100020F56E0008CDDB0008D1DB000889
:1060100085470308D5DB0008DDDB0008854703085A
:106020008547030885470308854703088547030814
:10603000E1DB0008700F0408854703088547030863
:10604000D972000885470308854703088547030878
:1060500085470308854703088547030885470308E4
:1060600085470308496E00085B4503088547030818
:1060700085470308854703088547030885470308C4
:1060800085470308854703088547030885470308B4
:1060900085470308257A00088547030885470308D4
:1060A000854703086576000845760008854703089C
:1060B00085470308ED9101088D9C01085997030855
:1060C000559703081D9401086F9703085D9703080F
:1060D0005D9C010861970308CD9C0108399D01086A
:1060E0008547030885470308854703088547030854
:1060F0001960030885470308854703088547030897
:106100008547030885470308854703088547030833
:106110008547030885470308854703088547030823
:106120008547030885470308854703088547030813
:106130008547030885470308854703088547030803
:106140008547030885470308854703088F0C040823
:10615000597E010885470308F9960308FF9603084E
:1061600085470308854703088547030885470308D3
:10617000F0B5114A114C124E00F00105E3695F07BA
:1061800013D40DB9334213D103EA00078F4207D16C
:106190000B4A1A40002A0CBF00206FF00100F0BD2E
:1061A000013AEBD16FF00200F9E74FF0FF30F6E76C
:1061B0006FF00100F3E700BF8096980000000350E5
:1061C000020001000B4B70B5D96911F480310DD17B
:1061D00001244FF48072084E084DF46020462C6470
:1061E0001A61FFF7C5FF3464EC6070BD6FF0010009
:1061F000FBE700BF000003500010035000200350D5
:106200004FF4803238B50E4B0E4C9A66E56941F674
:10621000713315400122E3630B4B0021DA60022346
:10622000606121202361FFF7A3FF10B92120FFF750
:106230009FFF0122054BDA600DB10023E36338BDF7
:106240000090005000000350001003500020035045
:1062500070B5134C6061E3695B071ED40E4656F8B7
:10626000043B8D18A361AE420BD1042300212120F1
:106270002361FFF77DFF58B9BDE870402120FFF78B
:1062800077BF08210846FFF773FF10B1042323618D
:1062900070BD56F8043BA361E5E74FF0FF30F7E728
:1062A000000003502DE9F84315464FF48032184B97
:1062B00089469A6603F51C33DF690646174041F6A6
:1062C0007132DA63012203F58053DFF84C80DA6023
:1062D00055B9284601220F4BDA601FB10022A3F501
:1062E0000053DA63BDE8F88306F5005404EA0804B5
:1062F000A41BAC4228BF2C46494622463046FFF735
:10630000A7FF0028E6D12644A1442D1BE0E700BFEB
:0C631000009000500020035000E0FFFF50
:106320002DE9F04F93B0CDE90A32DDE91C530E930D
:1063300053EC102BCDE90801104619468DED060BE4
:106340001E9E2DF06DFE80B1DDE906014FF0FF329B
:10635000C54B2DF08DFE40B9DDE906014FF0FF324F
:106360006FF480132DF066FE70B1DDE908019DED3C
:10637000060B0E9B1E96CDE91C53DDE90A3213B0C5
:10638000BDE8F04F00F088B90022DDE906010023E6
:106390002DF050FE002800F03381DDE906A303F163
:1063A000004BCBF30A5016F48063A0F2FF3008BF15
:1063B00006250F932DF062FB9BA3D3E900232DF05C
:1063C000C7FB9BA3D3E900232DF00CFACBF31304F6
:1063D000894644F07F5180460022A44B504641F448
:1063E00040112DF0FDF994A3D3E900232DF0B0FB6B
:1063F00002460B46404649462DF0F4F92DF042FE88
:1064000004462DF03BFB8EA3D3E90023804689464A
:106410002DF09EFB0022964B2DF0E4F92DF032FE7C
:1064200089A3D3E900230746494640462DF090FB57
:106430008046384689462DF021FB85A3D3E9002309
:106440002DF086FB02460B46404649462DF0C8F922
:1064500002460B46CDE90C232DF07AFBDDE90C2337
:1064600080468946104619462DF0BCF90022CDE938
:106470001001804B404649462DF094FC00227E4B93
:106480002DF0B0F902460B46404649462DF08AFCF5
:1064900000227A4B2DF0A6F902460B4640464946AB
:1064A0002DF080FCDDE90C238046894600204FF06A
:1064B00080412DF095F902460B46404649462DF0A5
:1064C00091F902460B46DDE910012DF06BFC07F255
:1064D000FF3700226A4B2DF085F900223B052DF095
:1064E00037FB52465B46804689462DF0C1FD0028A9
:1064F00040F08980CDE90C8904F16303C72B34BFD8
:106500000427052731051BD553A3D3E900235046A3
:1065100059462DF0A3FD00287FD051A3D3E90023D5
:10652000504659462DF086FD002876D00027A5421A
:10653000C6BF2C1B04F1FF3500253C4646F480669F
:106540000E9B9F422CBF4FF00008A3EB070816F0EC
:10655000020903D0002F18BF4FF000083CB1DDE95D
:106560000C23504659462DF01DFC82468B46DDE932
:106570000601002200232DF05DFD10B10BF1004358
:106580009B46DDE9080126F40063CDE90183DDE9DE
:106590000A324BEC10AB009500F07EF802465FB378
:1065A000DDE9091316F0200F00F10105089E0CBF6C
:1065B00065204520B047DDE9080105230022059349
:1065C0000A23002CCDE9023207F1FF374FEAD473DA
:1065D000B8BF64422A46019304970A9B009432F0A4
:1065E000C1FB0246B9F1000F06D00B9BC41A0B9BEE
:1065F0001A190E9BA34245D8104613B0BDE8F08F80
:10660000DDE906ABCDE60022404649461A4B2DF0A7
:10661000C9FB013CCDE90C016EE7002D90D00F9B2A
:10662000002B8DD0013D8BE7FB799F501344D33F66
:10663000B3C8608B288AC63F61436F63A787D23F88
:1066400071A379094F930A401655B5BBB16B02404F
:10665000EF39FAFE422EE63F2D431CEBE2361A3F9D
:106660000000000080842E41FFFFEF7F0000F83F14
:106670000000E03F00002C400000244000001840D3
:106680000000F03F2020DDE90913089DA8470134F0
:10669000ADE700BF000000002DE9F04F5BEC10AB50
:1066A00097B0CDE90501DDE92057CDE90723504634
:1066B00052465B465946229E2DF0B2FC70B9032328
:1066C000CDE902760193B04B0093DDE90501DDE9E8
:1066D000072332F067FA17B0BDE8F08F4FF0FF32B2
:1066E0006FF48013504659462DF0A4FC28B10423C2
:1066F000CDE902760193A54BE6E74FF0FF32504615
:106700005946A34B2DF0B4FC68B1A24A06F004032D
:10671000002B08BF0322A04B1CBF13460422CDE967
:1067200002760192D0E7504693A3D3E9002359465D
:106730002DF09EFC38B992A3D3E900235046594668
:106740002DF078FC68B1DDE90723DDE905014BECAC
:1067500010ABCDE92176209517B0BDE8F04FFFF7DB
:10676000DFBD00220023504659462DF063FC00286F
:1067700000F09A805B465246002000212DF030F850
:10678000012382468B46099316F4806400F08E80C4
:10679000092D40F28E80002430210EABA5F10902B4
:1067A0000134202C03F8011BA5EB040901D094420D
:1067B000F6D1594650462DF065FC784B054603EB63
:1067C000C90393ED007B8DED0A7B2DF057F902464E
:1067D0000B46504659462DF003F8DDE90A232DF00B
:1067E000B7F902460B46CDE90C232DF073FC804629
:1067F0002DF034F902460B46DDE90C012CF0F0FFD8
:1068000002460B46CDE90C230022654B2DF030FCEF
:10681000002851D008F1010840462DF01FF902462A
:106820000B46DDE90A012DF00FFC10B14FF0000816
:106830000135B9F1000F50D128462DF01FF902465D
:106840000B46504659462CF0CBFF0022544B804655
:1068500089462DF0EFFB30B1002240464946504BAF
:106860002DF006FC10B1E80700D501350A210EAB6A
:106870001A19202C0AD095FBF1F001FB1055303588
:1068800002F8015B013405460028F2D106F003024C
:10689000012A57D1002F55D0099A12B916F00C0FC2
:1068A00000D0013F302245E009906DE74FF0060926
:1068B0007FE7A94600247CE70022DDE90C01384B84
:1068C0002DF0B8FB0028B4D1B8F1000F02D018F0B9
:1068D000010FAED008F10108ABE70A210EAB23444B
:1068E000202C0ED0B8FBF1F001FB1082B8F1090F9B
:1068F00002F1300209F1FF3904F1010403F8012B20
:1069000011D83021A1440EAA202CAFD0A14504F10A
:1069100001030AD11C4609F158030DEB03092E238C
:1069200009F8203CA2E78046DAE7A1541C46EBE7D1
:106930001A550134A74205D9202CF9D1CDE90276A8
:106940000194C1E6202CF9D0099A3AB12D2104F125
:1069500058026A4402F8201C0134EFE7710704D59D
:1069600004F158022B216A44F4E73207E6D504F11A
:10697000580220216A44EDE70000000065CDCD41BA
:106980000000000065CDCDC10F24040813240408C5
:10699000FFFFEF7F062404080B24040818240408D2
:1069A0000000E03F0000000070B58EB02C220021F6
:1069B00003A837F00CFE64234FF002320893CDE9B0
:1069C00005230B2301218DF83430534B8DF8101023
:1069D0001B88D80700F19880084638F0BDFF0A22CE
:1069E0004E4B4F491A704FF428734E48ADF8123091
:1069F00013F060FA4C4C206020B94FF416714B48EC
:106A000037F09AFF0521206832F060FF20B14FF483
:106A10001A71464837F090FF206800F027FA444B7F
:106A20002068196832F0A7FA0C2539F0C9FB6843D1
:106A3000099039F0C5FB68430DEB0501079020680C
:106A40000DF026F920B140F27D21384837F074FF6F
:106A5000256819F0F3FD00220146284632F0F9FAC4
:106A600020B140F27F21314837F066FF40F20353F6
:106A7000304D314E2B80052396F90000AB707F28F6
:106A800001D117F097FA3378EB7039F099FB00EBEE
:106A900080008000A88039F093FB0023C0004FF0F5
:106AA000FF31E880AB604FF0FF3019A3D3E900233A
:106AB00039F0A4F82149206832F08AFA206802A946
:106AC00032F0B8FF20B14FF42E71184837F034FF80
:106AD000042220680DEB020132F021FA042804D0D0
:106AE00040F2BB21114837F027FF01A9012030F007
:106AF000E6FF07F0AFF8012017F01CFF2EF0A0FC16
:106B000017F050FF17F0EEF90EB070BDAFF3008034
:106B10000A0020FF42030000DA3A00204C3E002029
:106B200081F9030864460020D4300020DC650408A5
:106B30009C440020C8300020F4490020F5F90308E7
:106B40000348044B834202D0034B03B118477047FC
:106B5000C8550020C855002000000000064B07491A
:106B6000C91A891048BF0131491003D0044B0BB139
:106B700001481847704700BFC8550020C85500207D
:106B80000000000010B5064C237843B9FFF7D8FF8A
:106B9000044B13B10448AFF300800123237010BDF0
:106BA000DA3B002000000000E06E040808B5054B49
:106BB0001BB105490548AFF30080BDE80840FFF769
:106BC000CDBF00BF00000000C0150020E06E04082B
:106BD000A3F5803A704700BF174B002B08BF134B3B
:106BE0009D46FFF7F5FF00218B460F461348144AD8
:106BF000121A37F0ECFC0E4B002B00D098470D4BCF
:106C0000002B00D098470020002104000D000D4803
:106C1000002802D00C48AFF300802DF025FC2000A6
:106C200029002DF048FC2DF005FC00BF00000800F5
:106C300000000000000000000810002008100020E4
:106C4000D83E0020000000000000000007B501A8A9
:106C500003F0F2FF9DF80530012B14D19DF80430AC
:106C60008BB94FF48012164B1649586E03F58053BA
:106C70005A664B6B23F0E05343F040634B63C3020F
:106C80005CBF114B5A6605F0ADFE00F00BF92FF01A
:106C9000BFF905F065FD2FF0B4F92FF0BBF932F024
:106CA0001CF907F061FD00F0F3F800F0D7FA06F0E8
:106CB00089FB02F037FB03B05DF804EB07F0EABF95
:106CC000008000500040005A00A000500021062221
:106CD00030B50C4C54F8040B037A022B07D843B19F
:106CE000022A06D0084A006810601A4601E0032B09
:106CF00003D001310329EDD130BD551E012DF1D84E
:106D0000F7E700BF0C440020D815002030B5234D14
:106D100095B00DAC0FCD0FC495E80700032384E8B0
:106D200007008DF84D3029231D4A0021CDE90223AB
:106D30000523CDE904118DF8113006230E220DF143
:106D4000260006918DF8133037F041FC4FF4802176
:106D5000144B0DAACDE9071309238DF824300A231B
:106D60008DF82530104B07A90A9320230B9301239C
:106D70008DF831300D4B0E48009302AB06F0A0F8B1
:106D800004469DF832304FF4E130002B0CBF032154
:106D900000212DF0E8FC204615B030BD540F04084A
:106DA00000C0055024C00550DB3B0020DC1500204E
:106DB00048160020831E012B10B50C4619D8012956
:106DC0000DD8184B04221B6C05210020C3F340137F
:106DD00003F0B8FD24B1144B18680368F3B910BD73
:106DE000114B18680368002BF9D0BDE8104006F07D
:106DF00025B88B1E012B0CD80128F0D8BDE8104017
:106E00000022084B05211B6C1046C3F3401303F00E
:106E100099BD0029E4D00129DDD0E0E7BDE81040AC
:106E20002FF07EBB00C003502844002008B5044961
:106E3000044807F011FFBDE80840FFF767BF00BF37
:106E40002C4400206C16002001482FF0E3BB00BF4B
:106E500048160020014B1A6A18681047481600208F
:106E6000014B1878704700BFFB3B002038B5054642
:106E70002EF0F8FA044628B928460CF037FF034BE9
:106E80001C7038BD04240220F9E700BFFB3B002042
:106E900008B503482FF0B7F8BDE808402DF013BB44
:106EA0006810040801482FF0AEB800BF681004084D
:106EB00007B508202DF0C8FC02238DF80030054BE3
:106EC000684601932DF013FC082003B05DF804EB35
:106ED0002DF0C5BC006A18100348044A0449121A70
:106EE00092102DF050BC00BF706100081C630008B8
:106EF000783F002008B500F02FF8FFF7EDFF124BA8
:106F000012498B4212D30020114B12498B4218D3E5
:106F1000FFF762FE186850F82240586840F8224097
:106F2000013298688242F5D30C33EAE70022F8E791
:106F30001C6844F8220001325C68A242F8D308338E
:106F4000E4E70022F8E700BFE86E0408F46E0408E6
:106F5000F46E0408F46E04084FF48041124B134A97
:106F600070B59A60D3F88820114D42F47002C3F8CE
:106F70008820104A05F5005491664FF0FF322266D2
:106F80000D4A62660222C3F8D020BFF34F8FBFF3D1
:106F90006F8F4FF44036002005F06CFD0020E66056
:106FA00005F04CFD2E6170BD00ED00E000600008B2
:106FB0000080004400900050F7FF3700014B18603C
:106FC000704700BF38440020054B1860054B1B6F0D
:106FD00003F00703032B01D137F044BB704700BF18
:106FE00040440020008000504FF000639B6A03F192
:106FF0007842B2F5C04F03D21968064A914203D0D5
:107000000023037083607047012202709A689B69B5
:107010004260F7E707B0CD5E024B034A1A602EF0DC
:10702000FDBF00BF0000002002020FF073B54F4B00
:1070300004461A781AB102221A7002B070BDCDE966
:1070400000220028F9D001261E7039F0ECFC484DD2
:10705000484B18600FF0A2FD2B785BB902F062F983
:1070600040B945480823454A4549006801F040FFBA
:1070700000B92E70434B5A6E62619B6E424AA36107
:107080004FF480439366414B5968E16140499960F0
:10709000196E2160596E6160D3F87011A160196C8E
:1070A000E160596C21613B49086C1864496C596472
:1070B000012151661B6E9C0441D5374AD368D8071D
:1070C000FCD4364B1A68531C3ED04FF480139340C7
:1070D000334A13664FF400730426314C2666236648
:1070E0002DF07AFB01300DD02DF076FB40F201132C
:1070F000984207D04FF4005323664FF48043236631
:10710000C4F870610823264C684623664FF4805308
:1071100023664FF0006323664FF4002301A96366E2
:107120002DF03EFB009B2366019B63662B78002BB2
:1071300083D0124B1A6822665B6863667DE7194A42
:10714000D368D907FCD4BCE7174B1B78002BC1D1FF
:107150004FF400720C4B5A6603F5A6235B68002BB4
:10716000B8D14FF480120E4B1A66B3E7FD3B0020F6
:10717000FE3B002094160020684400209816002052
:107180000071080000800050009000500080004412
:1071900055CEAC0000C00054000004404444002020
:1071A0000090004400000450FC3B002070B5224DCC
:1071B00004462E78012E02D001232B7070BD0028CA
:1071C000FCD02DF009FB01300BD02DF005FB40F277
:1071D0000113984205D0194B194A5E66D368DE0741
:1071E000FCD42268174B1A6662685A66A268C3F814
:1071F0007021E2681A6422695A64E269D00744BFC8
:1072000000229A60104B1A68013207D10F4A127897
:1072100022B90F494968C90748BF1A6062690D4B16
:107220005A66A2699A660FF0C1FC0B4B186839F0D8
:10723000F5FB0023C1E700BFFD3B002000900040AC
:10724000000004400080004444440020FC3B002037
:1072500000C005500080005094160020F8B54FF093
:107260000066B36A03F17842B2F5C04F26D21A68BD
:10727000144B9A4222D1144D2C7814F0FD0402D004
:1072800000242046F8BD4FF480371048FFF7CEFEAB
:10729000204605F0EFFB0E4B2046DF6005F0CEFBED
:1072A0000C4B1F61B36ADB69984704460748FFF738
:1072B0007DFF002CE5D101232B70E1E74FF48174B1
:1072C000DFE700BF07B0CD5EFC3B00207416002056
:1072D00000A000440090004413B5204B1B7803B974
:1072E000FEE700231E4CCDE900336A4608231D4902
:1072F000206801F0FDFDF8B91B4AD2F84031D2F800
:1073000040211F2B4FF0010311D9203A9340019ADD
:107310001A43019208236A461249206801F0A4FD2D
:10732000124B134A1A602EF079FE02B010BD934042
:10733000009A1A430092EDE72D28F1D10A4AD2F8BB
:107340004031D2F840211F2B4FF0010385BF203A76
:1073500093409340019398BF0093DBE7FD3B0020EF
:1073600068440020007108000080004400000020F4
:107370000B020FF0BFF34F8F0549064BCA6802F4AA
:10738000E0621343CB60BFF34F8F00BFFDE700BF48
:1073900000ED00E00400FA05002307B52948019339
:1073A0002EF031FE4FF44073012204216846ADF8FF
:1073B000003000F0C3F80122234B0520C3F8442419
:1073C00001A939F05CFB002839D1204BD3F8F0201B
:1073D00042F00102C3F8F020D3F8FC2042F08072A2
:1073E000C3F8FC201A4AA3F55D431A60019B194AB1
:1073F00003F5D52303F2FC43B3FBF2F3164A013B3A
:1074000013610223C2F8F0304FF48073C2F80433E2
:107410004FF06043114AC3F8B02F114AC3F8802ED1
:10742000D3F8002E42F48072C3F8002EFF2283F8B6
:107430002020D3F8002E22F48072C3F8002E03B06F
:107440005DF804FB6810040800D0035000ED00E074
:10745000FF030040F8590D00000004E055CEACC514
:10746000090001004FF06043D3F8802E30B5D207F9
:1074700015D501240B4D8440D5F8FC2042F08072D4
:10748000C5F8FC20D3F8002E2243C3F8002E53F891
:107490002020002AF0D003F82010002030BD112059
:1074A000FCE700BF00ED00E02DE9F04104460C25AB
:1074B0004FF00108124E0CB314F001000BD0002065
:1074C00024F0010405FB00625768002FF3D0916897
:1074D000C0B2B847EFE72246013020284FEA5202F7
:1074E00001D0D307F8D508FA00F20F2824EA0204E5
:1074F000E8D9103805FB0062B432E5E7BDE8F08159
:10750000A016002008B50C482EF07DFD192005F0CE
:10751000A3FA28B1192005F0ADFA192005F08EFA6A
:107520001A2005F099FA28B11A2005F0A3FA1A20BA
:1075300005F084FA002008BD681004082DE9F04128
:107540000E461746054610B30F2922D80378DBB143
:10755000013BDBB2022B1CD8104AD35C6A78D340C3
:10756000DB0716D50E4BD3F81043A4B939F05BFAFC
:1075700080463A462846314603F042FC404639F000
:107580004DFA2046BDE8F08140F2FF13E6E72224E1
:10759000F7E72124F5E70224F3E700BFC00F040852
:1075A00000C0035010B50446E0B10378BBB1013B05
:1075B000DBB2022B18D80D4AD35C6278D340DB07CC
:1075C00012D539F030FA0122637821789A403023BD
:1075D0005943074B5A5039F021FA002010BD40F2B0
:1075E000FF13EAE72220F9E72120F7E7C00F04089C
:1075F00040D0035010B50446E0B10378BBB1013B65
:10760000DBB2022B18D80D4AD35C6278D340DB077B
:1076100012D539F008FA0122637821789A40302394
:107620005943074B5A5039F0F9F9002010BD40F288
:10763000FF13EAE72220F9E72120F7E7C00F04084B
:1076400040E0035008B503F0D1FB054B00F0553086
:1076500020F05020C3F82004BDE80840FFF724BF05
:1076600000E0035008B503F0C1FB054B00F0AA3061
:1076700020F0A020C3F82004BDE80840FFF714BFA5
:1076800000E003502DE9F04F9A46564B85B01B7829
:1076900006460F461546DDF83C909DF844B0DDF8EF
:1076A0005080002B00F09780072A00F296800E9BF6
:1076B000002B00F09280B9F1000F00F08E80129B39
:1076C000B3F5006F00F38980012803D1109B002BD4
:1076D00000F08380444B03EB05131B7B002B7ED013
:1076E000424C10220021684636F071FF04EB45142D
:1076F0001022A7BB3946204636F069FF43F210033B
:107700006380BBF1000F03D1E37843F00303E37020
:10771000364A0E9B02EB451CCCE90193129B690192
:10772000581E9DF84C30C0F30A0003F003039B067B
:1077300043EA001E53582E48012E00EA03004EEA89
:107740000003CDF800A0535017D0B8F1000F2ED190
:107750009CF8023068F304138CF8023027E0002113
:10776000204636F034FF4FF444736380BBF1000FC2
:10777000CED1E37843F03003C9E713230CF1100EA8
:10778000CCF80C309CE80F008EE80F006FF003017E
:10779000DCF81C20109B61F39F02012FCCF81C2009
:1077A000CCF8143003D1CCF81890CCF80430002772
:1077B0000D4A290102EB051342F80180159A28466B
:1077C0005A60694622469F605E7303F04FF938465F
:1077D00005B0BDE8F08F0748FAE70748F8E7074823
:1077E000F6E700BFFF3B0020081900200818002022
:1077F0000F80FFF3028000F0018000F0078000F0AE
:1078000038B5124B05461B78DBB1E0B139F00BF906
:107810000F4A00231146147B54B92B6001251A012D
:1078200001EB03131D738C5039F0F8F8204638BD76
:107830000133082B02F11002EDD139F0EFF80548C1
:10784000F5E70548F3E70548F1E700BFFF3B0020F7
:1078500008190020048000F0028000F0018000F090
:1078600038B539F0E0F8002305460B4A147B6CB9B3
:107870000133082B02F11002F8D103F0A3F8074BF3
:1078800028461C7039F0CAF8204603E0284639F033
:10789000C5F8034838BD00BF08190020FF3B002091
:1078A000058000F00D4B10B51B78044693B10728F6
:1078B00012D839F0B8F80A4B03EB04131A7B2AB13B
:1078C00000241C7339F0AAF8204610BD39F0A6F840
:1078D0000448FAE70448F8E70448F6E7FF3B0020CD
:1078E00008190020068000F0028000F0018000F0FE
:1078F000154B13B51868002301908DF8043039F04A
:1079000092F8124B1C7824B139F088F8104802B074
:1079100010BD01221A7039F081F80E4B01A81C73BA
:107920001C7783F82C4083F83C4083F84C4083F864
:107930005C4083F86C4083F87C4008238DF8073066
:1079400003F064F82046E2E7C30F0408FF3B002081
:10795000038000F008190020F8B50D4D2D7885B191
:10796000072810DC0B4D060105EB0014277B67B1DF
:10797000AB510025069BA560636003F077F82846AD
:10798000F8BD0548FCE70548FAE70548F8E700BFF9
:10799000FF3B002008190020028000F0018000F069
:1079A000078000F00A4A08B512785AB107280BD8A8
:1079B000084A02EB00131B7B43B1002103F018F8C7
:1079C000002008BD0448FCE70448FAE70448F8E74B
:1079D000FF3B002008190020028000F0018000F029
:1079E000078000F00A4A08B512785AB107280BD868
:1079F000084A02EB00131B7B43B1012102F0F8FFA0
:107A0000002008BD0448FCE70448FAE70448F8E70A
:107A1000FF3B002008190020028000F0018000F0E8
:107A2000078000F0184B2DE9F0411F6D5B6D1F4082
:107A300000D5FEE701260025144CDFF858803742B8
:107A400018D02368C8F85060A3B1A1682846013156
:107A50006268A1609847637B012B0BD150B90C4B36
:107A600003EB45131A7B60F341021A731A7F60F32C
:107A700041021A770135082D4FEA460604F1100439
:107A8000DDD1BDE8F08100BF0000045008190020DE
:107A900008180020002004502DE9F04F1446064637
:107AA0000D469B46C36B87B001225B6902A96068E3
:107AB0009847F36B01225B6903A92846984702A8FF
:107AC0002DF0E4FA074648B10023A37563754FF023
:107AD000FF33A360002007B0BDE8F08F03A82DF0AE
:107AE000E2FA0123A375237E04EBC303DD611F8447
:107AF0006368AB420ED1206003A82DF0F6FA4FF078
:107B0000FF332075A360237D043B022B26D800237E
:107B1000A375DFE723681A1A53425341A37503A8DC
:107B20002DF0E3FA237D834218BFA77503A82DF03B
:107B3000BEFA074602A82DF0BAFA874218BF002302
:107B400003A818BFA3752DF0BAFA074602A82DF0B6
:107B5000B6FA87421CBF0023A375D4E703A82DF013
:107B6000A6FA80B1F36B022228465B6904A9984704
:107B700004A82DF0ABFA0346207D032839D8DFE8AE
:107B800000F03838040903A8F3E7CC22237E04EB85
:107B9000C3031A8401F03EFC109B187003A8277ED3
:107BA0002DF079FA04EBC70787F82200237E03A89B
:107BB00004EBC303B3F8209093F822702DF077FA0A
:107BC000804603A82DF07BFA8246B8F1000F15D04D
:107BD000F36B022228465B6904A9984704A82DF09C
:107BE0003AFA6075637D6BB90023A3754FF0000806
:107BF00038E0227E04EBC2021384CBE703A82DF009
:107C000015FAEEE794F81680B8F1000FEED0B9F14E
:107C1000000F09D1DFB10123627EE375002A44D150
:107C20009F4218D1677614E0736C05EB0A02594243
:107C300085EA020008421CBF0021A175591E0A40B6
:107C40009B1A9945D0D8A37D002BE3D1CEE7E37DE5
:107C500043B94FF000084B465246294630462CF0B7
:107C600057FFA060A27D12B123694B4423611449E0
:107C7000237E097899421ED901332376BBF1000F88
:107C80001BD0D2B1E37DC3B1B8F1000F15D1032FE2
:107C900013D0A1684B1C10D0109B22460093304695
:107CA0000123FFF7F9FEA07507E0012FDAD0032FBB
:107CB00008BFA376CDE70023A375A07D0BE700BF27
:107CC000E80F04082DE9F04F0E46984600238BB0CC
:107CD00004464FF0FF31104617468DF8133001F07F
:107CE00083FBB6F5801F3BD3B21C53D1E56A6B1CF6
:107CF00057D12046616A2CF051FE0546B31C18BFCF
:107D00000123DFF810910193636A626C0293236888
:107D100005A902FB053AE36B05225B6950469847CB
:107D200005A82DF04EFA2DF071FA50462DF079FA93
:107D30004FF0000B824601464B1C05D0636C81EA74
:107D40000A025B42134232D0294620462CF026FE1E
:107D5000029BAB424DD0BBF1000F4DD10546D3E79E
:107D6000314605AA04F108002DF0E2F80146481C4E
:107D700010D0384601F038FB0122394620460DF17B
:107D800013032CF017FF28B19DF8133088F800304A
:107D9000002003E0237C002BA8D12D200BB0BDE8F0
:107DA000F08F2368ED1A636CB5FBF3F5A6E7484640
:107DB00001F01AFB0DF1130349462046019A2CF0FD
:107DC000F9FE034690B1B21C03D0D9F80020B242AC
:107DD0000CD19DF8132003930D4B88F800204946E1
:107DE0001A68384636F0FBFB039B9B46D9F808100F
:107DF000A2E7BBF1000FD0D0B6F5801FC8D2314644
:107E000098F800307A6804F1080001F01BFABFE727
:107E1000E40F0408FC1F00202DE9F3410446174637
:107E200098460E46194D816AE36A8B422AD04B1C54
:107E300018E0284601F0D8FA0122294620460DF123
:107E400007032CF0B7FE30B14346294620469DF883
:107E50000720B847B0B1A9684A1C05D0012E0AD046
:107E6000E36A9942E5D10DE0696820462CF023FED3
:107E7000012E0146D8D16B6881EA0302636C5B4234
:107E80001A42D1D002B0BDE8F08100BFD01F00205F
:107E90002DE9F041036B9046826B07689A4288BFD8
:107EA0008363426C436A90B002FB0377C36B0E4658
:107EB000052201A95B6904463846984701A82DF0C0
:107EC00080F901280146307057D0656CE26B236859
:107ED000606AD2F814C005FB0030052206A9E0470D
:107EE00006A82DF06EF901284FF0000523D0D4E943
:107EF0000A3201219342CDE90B458DF834800E956D
:107F00008DF83C102AD1194620462CF0D4FD236B65
:107F1000626C14339B1AE06223630C9B53B99DF887
:107F20003C303BB1626A616C2368E06B01FB02315B
:107F30002DF0FFF80C9DE36B05225B6901A9384623
:107F4000984701A82DF03DF930702846236BA26BAD
:107F50009A4288BFA36310B0BDE8F081237C33B997
:107F60001C490BAA04F1080001F0BAF9D5E7204634
:107F7000194A0BABFFF750FFCFE7237C23BB224608
:107F8000164904F1080001F0ABF9616A20462CF0B3
:107F900026FD616A421C20462CF0EFFC054620B904
:107FA000236B626C1344143B23632046A16A2CF0BC
:107FB00082FD2368A062C01A636CB0FBF3F06062BC
:107FC00020462CF0BBFDB6E700232046044AFFF70D
:107FD00023FFDAE775890008F18800083D4C0308A3
:107FE000D94B030873B50D46D11E4A421C461B7E71
:107FF0004A419A4226D129682368994222D363686C
:1080000099421FD8114E0DF107033246FFF75AFE71
:10801000C0B972686B689A4214D19DF80730DA1EB5
:1080200053425341227E93420CD163690133636111
:10803000D4E90323934205D22968A26842F82310A9
:1080400001332361012002B070BD00BF2820002051
:108050002DE9F04F9A468BB09DF85030DFF850B1C3
:108060000293DBF81030804653450D461646C0F0AB
:108070009980D146DBF804300193B9F1000F00F08C
:108080008D80D8F83C3001225B6907A90198984798
:1080900007A82DF008F8DBF80030984240F0858002
:1080A00007A82DF00CF80428074614D107A82DF0D6
:1080B0000DF8019B029A04463B44002A3FD18642B8
:1080C00012D91446361A404601992CF0F4FCA9EB5B
:1080D00004090190D1E7D8F83C3002225B6901988D
:1080E00008A9984708A8E2E7841B544528BF5446CE
:1080F000032C03EB0607AAEB040A4FEA94021CD9EF
:10810000D8F83C30294638465B69984724F0030389
:1081100004F003061F441D44002ED4D0D8F83C3090
:1081200001225B6908A9384698473246284608A9C3
:10813000354436F054FA0026C5E72646ECE70746F4
:1081400000F00302039203442A1804920593049B4F
:10815000DD1B059BD81B039B9F420FD1002FB2D084
:10816000D8F83C30012208A95B6998473A4628466E
:1081700008A936F002FA78B93D44A4E7D8F83C30B3
:10818000012208A95B6998470422284608A936F00D
:10819000F4F908B9043FDAE74FF0360948460BB066
:1081A000BDE8F08F4FF06309F8E74FF06F09F5E78E
:1081B000542000202DE9F0410F461646984604460B
:1081C00088B060B390F83450FDB101212CF0ABFBC6
:1081D00000210E9BCDE90511CDE902379DF83C3019
:1081E000CDF804808DF81C30237C04968BB90D49A2
:1081F00001AA04F1080001F073F8DDE90553E06B12
:10820000002E08BF1D462CF027FD284608B0BDE80B
:10821000F0812046044A01ABFFF7FEFDEDE705467D
:10822000F3E700BF074C0308E57F00087FB590F82F
:108230004260044601920DF10B030A463046124992
:108240002CF012FD012E0546E36B19D132465B6915
:1082500003A998479DF80B10039B019A59B19BB253
:1082600043EA0243012228460393E36B03A99B6977
:10827000984704B070BD1B0C1B0492B21343F1E786
:1082800001229B6901A9F3E7542000202DE9F04F5A
:1082900099B00F4609920A69416C0E931439D31DA7
:1082A000B3FBF1F3013302EBC302036B04469342C9
:1082B000C0F00D820023DFF820940D93E36A484656
:1082C0001946079301F090F8D7E9033604930E9B03
:1082D000022B4ED1CC2E40F08A81099B002B42D03C
:1082E000394620462CF016FD656C079A6B1E13402C
:1082F0001490ED1AE36B01225B6916A97868984720
:1083000016A82CF0D4FE00280CBF04230823782ED6
:1083100006933DD9012300254FF0080A05933B68D9
:1083200005990E98C9F80030C9F810602CF0E1FEEC
:108330004FEA9A0310930023DDF81CB089F814006B
:108340000B930F9308930C93616C4A1E0BEA020285
:108350008B1A002E38D05544AB4240D8236B5B1AA1
:1083600013442363ABE0049B1B6814930823069318
:10837000D0E7656C079A6B1E1340782EA5EB0305BA
:1083800016D8FB7D7BB9099B002BB3D10423069340
:10839000331DAB4210D9A6B1082DBBD8042500234C
:1083A000AA460593BBE7099B002BA3D10823EEE760
:1083B000099B002B9ED1D9E7002505954FF0040AB3
:1083C000ADE704250596F9E75345C7D3B0460BEB57
:1083D0000A030393089B002B18BF032313E0A3EBAE
:1083E0000A039E42B0460BEB0A0228BF98469E4203
:1083F0000392EFD90123D9F8102089F8173096425B
:1084000071D1C9F804B0089399F81730002B6CD0DB
:1084100099F818200899D31C09EBC3030132C3F85B
:1084200004B0A3F80880997289F81820B8F1000FF9
:1084300014D00E9B022B5BD10B9B7BB90F9B43444B
:10844000032B0BD9E36B01229B69039814A998476E
:108450000546002840F03D8101230B93089B16A898
:108460000193059B009399F814204346396800F066
:1084700071FFE36B58469B69109A16A99847051E31
:108480000D9B18BF5B4652460D9359464346204606
:108490002CF03EFB236B08F10302A3EB0A0322F04E
:1084A00003029B1AC9F808002363002D40F01181D4
:1084B0000F9BDDF80CB04344A6EB08060F9359461A
:1084C00020462CF0F8FA00258346002E7FF43CAFBE
:1084D000814A3968936804F10800E36252680E9B90
:1084E00000F0B0FEDEE002238DE7C9F804B09DE79E
:1084F000099B002B30D1049BB8F1030F43440A932E
:1085000027D9DDE90301E36B4FEA98029B6998479D
:108510000546002865D118F003025FD0049B28F0BF
:1085200003052B440493039B1D444FF0FF33049930
:1085300015A8159336F053F8E36B28469B69012282
:1085400015A9984705460A9B0493002D86D0039BE6
:1085500099E74246039DE8E7039B0A9307F120034E
:108560001193FB7D78689BB100233D7E0C9AD9B2B4
:108570008D4211D9119903F1010C31F83310914258
:1085800026D9069907EBC303D8690A44104403E0CF
:108590000C9B069A13441844E36B01225B6915A9EE
:1085A0009847159B012213930C9B0A9804330C9354
:1085B000E36B13A99B699847039B0A9A43449B1A50
:1085C000042B054607D978B9134604330A93C8E744
:1085D0006346521ACBE70A9B0393B6E70A9B0493C0
:1085E0003CE70A9B0493B2E70A9B0393AFE770262C
:1085F00004F1080303932368079A606CA2EB030A53
:10860000BAFBF0FA00FB0A302CF00BFEE16A804660
:1086100020462CF050FAA26A82424AD0626CD9F805
:108620000830511E0B40216B2568891A0B442363C7
:108630000D9BE0625D1BB5FBF2F5AA4536D1079BA9
:10864000B3EB080A12D0E36B4FEA9A0241469B69EA
:1086500098478346E36A079A5344E362236B03987F
:108660009B1A434423632CF034FCDA462368616C84
:10867000E06B01FB05312CF049FD20462CF05EF942
:1086800020462CF05BFA2063BAF1000F11D03A6952
:10869000616CD31D1439B3FBF1F3013302EBC30258
:1086A0009042A8D2304619B0BDE8F08F4FF0000AD2
:1086B000DCE73A69616CD31D1439B3FBF1F3013384
:1086C00002EBC302236B9342BFF4F8ADEAE71C262A
:1086D000E8E72E468CE700BFFC1F00202DE9F3479A
:1086E0001E4643690446B342884617469DF82890C3
:1086F0003DD300258DF8075020462CF0EBF8D4F838
:1087000030A082450AD2236AB5EB430F06D200227D
:1087100020460DF10701FFF7BBFB30B39DF8073092
:10872000012B05D1002220460DF10701FFF7B0FB18
:10873000B9F1030F06D0314620462CF0B6F8256B70
:10874000854218D30D4D4FF0FF31284600F04CFE06
:108750004B46002229462046C5E90376C5F800802D
:1087600002B0BDE8F047FFF791BD0135C4E76220D4
:1087700002B0BDE8F0871C20FAE700BF28200020E7
:108780002DE9F04790F8426086B0012E054603912E
:10879000A1EB020715D1B7F5807F28BF03264FF064
:1087A000640800244FF6FF79DFF840A195F84230C5
:1087B000012B14BF322364239C420AD35FFA88F44E
:1087C00015E0B7F5803F34BF012602264FF032088E
:1087D000E7E705AB2246514628462CF079FA95F892
:1087E0004230012B059B34D14B452DD1E4B295F895
:1087F0004230012B0CBF64223222121BB24217D32B
:10880000012E39D10022012B05978DF8132027D195
:10881000082205A90DF113002CF01FFD9DF813305F
:10882000059A42EA032221462846FFF7FFFC40B1A1
:1088300002232E4900932846CC23096803AAFFF798
:108840004DFF06B0BDE8F087DBB203B90234013456
:10885000ACE7591CCAD09BB2002BF8D10134F6E723
:10886000102205A90DF113002CF0F7FC9DF8133030
:10887000059A42EA0342D6E7039A012B059223D1D7
:108880000823202205A90DF113008DF813302CF0D8
:10889000E4FC9DF81320120221462846FFF7C6FC8F
:1088A00095F84230611C012BC9B21AD10028BFD102
:1088B0002846BDF81420FFF7B9FC0028B8D10234CF
:1088C000BDF81620E1B2AFE71023202205A90DF173
:1088D00013008DF813302CF0C0FC9DF81320120407
:1088E000DAE70028A4D1059A9EE700BF54200020B3
:1088F000032A2DE9F34106460D4617461C4606D1CC
:10890000237A012B23D0012002B0BDE8F081DFF8EB
:108910006080096842460DF10703FFF7D3F96060F4
:108920000028EDD19DF80720237A032AE8D0D8F853
:1089300004106A689142E3D1012B2969D4F80CC074
:1089400007D172690CEB0103934202D92074207C99
:10895000DAE708316144E1603B46012229463046AE
:10896000FFF794FC60600028CAD00020CCE700BF6D
:10897000282000202DE9F341089C032A1746266889
:1089800006D1237A012B24D0012002B0BDE8F0816A
:10899000DFF89080304642460DF10703FFF792F969
:1089A00060600028EDD12568D8F80400A96AD5F8E0
:1089B00044C04840CCF100031840227AE1D1012A9A
:1089C00009D1E268D8F8103013447269934202D991
:1089D0002074207CD9E72868EB6A1B1A081AB3FBBD
:1089E000FCF3B0FBFCF083420BD1706CF36A421EC7
:1089F0001340326B121A1344284633632CF05BF891
:108A0000E862D8F81020E36808321344E3600122DA
:108A10003B4604492068FFF739FC60600028B0D06D
:108A20000020B2E7282000202DE9F04F4FF0FF335F
:108A30004FF6FF720025044600F10806C0E909233D
:108A40008BB0C3620562056330460F462CF041FAD5
:108A500020462BF073FF20BB204639462BF0EEFF5B
:108A600020462BF06BFF20BB5E200BB0BDE8F08FE3
:108A7000E26B2368606CD2F814C000FB053005225D
:108A800005A9E04705A82CF09CFB012828D1294620
:108A900020462BF0A4FF421C294620462BF06DFFF8
:108AA0000135E3699D42E3D320462BF047FF0028C0
:108AB000D2D000254FF0FF394FF6FF73CA46A846C3
:108AC000C4E90853E369984514D3A5EB0905012DC2
:108AD00036D84FF6FF72636A934246D16720C4E7E7
:108AE0002CF099FB0028DBD0294620462BF077FF9D
:108AF0000246D1E72368E26B606C576900FB0830DF
:108B0000052205A9B84705A82CF05BFB834605A8FC
:108B10002CF02EFB074658462CF078FB68B15745E1
:108B200038BFC4F82480B94528BFB946BD4238BF14
:108B30003D46BA46236A0133236208F10108C1E7C2
:108B40004FF6FF7300256362E3699D42C1D2676CF3
:108B50002068E36B052207FB05005B6905A99847C0
:108B600005A82CF005FB0135EEE7E26B676C206889
:108B7000694607FB030055690522A84768462CF0A3
:108B8000F7FA626A2368606C504D00FB02302CF0EB
:108B900048FB4FF0FF33A062E3622A466FF0010109
:108BA000204605ABFFF78EF800284FD1AD68294667
:108BB0002046E5622BF09EFE206320B92046E16A44
:108BC0002BF079FFE062294620462BF074FF054622
:108BD000A36A9D423CD16569626CE91C143AB1FB01
:108BE000F2F14FF0000805EBC1050335B5FBF2F5D6
:108BF000C1460235E36999453CD3A8455AD220467F
:108C0000616A2BF0CBFE0027064604F1400AB84506
:108C100012D8626C2368694602FB0639E36B0522B1
:108C20005B694846984768462CF0A2FA53460246CC
:108C30004946E06B2CF0F7FA314620462BF0AEFEA9
:108C40000137AF420646E2D364200EE7A56AAEE7DD
:108C5000294620462BF04EFE236B29460344074647
:108C6000236320462BF027FF0546002FB0D1C4E92F
:108C70000B07ADE7636C2768052203FB0977E36BFD
:108C800005A95B693846984705A82CF09AFA2CF09C
:108C9000BDFA60B138462CF0C4FA014620462BF0EC
:108CA00029FE636C143B984208BF08F1010809F1E2
:108CB00001099FE730462CF00CF9002320461946A5
:108CC000034AFFF7A9F80020CFE600BF28200020C4
:108CD000A34B03080023624A2DE9F04117680E46B2
:108CE0000446136018B921252846BDE8F08190F8A4
:108CF00034500DB309680268914240F0A980716850
:108D00004268914240F0A480B1688268914240F08C
:108D10009F80F168C268914240F09A80316942694F
:108D2000914240F09580B169C26B914240F09080D1
:108D300072691D468261D7E750222946D0F83880F3
:108D400035F045FCD6E90212336804F108002360CF
:108D50007368C4F838806360336963617369A361C1
:108D60002CF0C9F8B36904F14000E3639B689847AD
:108D700094F8432020B1E561002AB4D05B25B3E725
:108D8000656C002DF7D06668B6FBF5F3E361002A49
:108D9000A9D0B542F2D82268B2FBF5F105FB112249
:108DA000002A57D105FB1363002B53D120462BF02B
:108DB00091FDA369043303449E424DD340F63472BF
:108DC0006369CC3B934249D8B5F5805FD6D3032184
:108DD00020462BF0A8FDD4E90001E36B1B689847FF
:108DE0000546E36B0220DB6898471DB1002384F839
:108DF00034301DE039462046FFF716FE642805464C
:108E000004D139462046FFF70FFE0546636C143B3C
:108E1000002DEBD1226A204602FB03F62BF05AFD0F
:108E2000A369043303449E4206D284F834505A2581
:108E3000E06B2BF011FF57E70123D4E90001094A49
:108E400084F834301368013313602CF0EEF8EFE748
:108E50005D2549E7592547E75A2545E75F2543E75B
:108E60008C190020881900202DE9FF410F469046FB
:108E70001E46054698B390F8343093B3B1F5801F81
:108E800031D21A4C02212BF04EFD2246394628469B
:108E90000DF10F03FEF716FF024678B1012342469B
:108EA0000093394633462846FFF718FC0446E86B22
:108EB0002BF0D2FE204604B0BDE8F0819DF80F30C3
:108EC000012BEBD12169B142E8D1009341463346F1
:108ED0002846FFF7BDF804460028DFD1E7E7212444
:108EE000E8E71124E6E72924E4E700BF5420002046
:108EF0002DE9FF410C4616461F46054680B390F803
:108F000034307BB3B1F5801F2ED2DFF860800121B1
:108F10002BF009FD2146424628460DF10F03FEF7CE
:108F2000D1FE044670B99DF80F30012B11D1D8F84D
:108F30001030BB4212D10246009031462846FFF75E
:108F400087F80446E86B2BF087FE204604B0BDE8A6
:108F5000F081022B14BF2D246024F3E76324F1E792
:108F60002124F2E71124F0E72924EEE75420002021
:108F70002DE9F04385B00C4617461E460546DDF840
:108F8000308098B390F8343093B3B1F5801F31D26C
:108F9000DFF8649001212BF0C6FC21464A462846A2
:108FA0000DF10F03FEF78EFE044688B99DF80F30D1
:108FB000012B14D1D9F8102006EB08039A4213D3E1
:108FC00000904346324639462846FFF741F80446AA
:108FD000E86B2BF041FE204605B0BDE8F083022B84
:108FE00014BF2D246024F3E76324F1E72124F2E782
:108FF0001124F0E72924EEE75420002070B586B054
:109000000E4605460392A0B390F834309BB3B1F5F9
:10901000801F32D202212BF086FC31462846184AA6
:109020000DF11703FEF74EFE044618B99DF81730F0
:10903000032B0ED10223314600932846CC2303AAEA
:10904000FFF74CFB0446E86B2BF006FE204606B00B
:1090500070BD022B0BD10A4928462BF05BFE039909
:1090600002468142EFD02846FFF78AFBEAE76124F7
:10907000E9E72124EAE71124E8E72924E6E700BF2D
:109080005420002073B50C461646054630B390F8C0
:1090900034302BB3B1F5801F24D201212BF043FCD7
:1090A00021462846104A0DF10703FEF70BFE044641
:1090B00080B99DF80730032B0CD0022B0CD1284629
:1090C00009492BF027FE3060E86B2BF0C5FD2046E8
:1090D00002B070BD2D24F7E76124F5E72124F6E7FF
:1090E0001124F4E72924F2E754200020F7B50C46B8
:1090F0001646054668B390F8343063B3B1F5801F67
:109100002BD202212BF00FFC21462846144A0DF1E8
:109110000703FEF7D7FDC0B99DF80730032B14D025
:10912000022B14D10E4928462BF0F4FD471C0246B1
:1091300039462846FFF724FB044606B13760E86B42
:109140002BF08AFD204603B0F0BD2D24F7E7612403
:10915000F5E72124F6E71124F4E72924F2E700BF1C
:10916000542000202DE9F3411F4600230C461646EB
:1091700005463B6050B390F834304BB3B1F5801FD7
:1091800028D2DFF8548001212BF0CDFB2146424646
:1091900028460DF10703FEF795FD0446A0B99DF89A
:1091A0000730032B10D0022B0AD101233360042394
:1091B0003B60E86B2BF050FD204602B0BDE8F0812B
:1091C000D8F810303060F3E72D24F2E72124F3E7DC
:1091D0001124F1E72924EFE75420002030B50C4694
:1091E000054685B028B390F8343023B3B1F5801F1D
:1091F00023D202212BF097FB0DF10F0321462846C5
:109200000F4AFEF75FFD034688B99DF80F20032A39
:109210000DD003222146009202462846FFF75EFA4F
:109220000446E86B2BF018FD204605B030BD2D2418
:10923000F7E72124F8E71124F6E72924F4E700BF33
:10924000542000202DE9F043466886B3056898460F
:109250004FF0000CA946AE4655F83C400CF1010C0D
:10926000C4F31307013401D0B94217D066450EF19B
:10927000080EF1D12F46002403E0A64207F10807AB
:1092800012D055F8343001340133F6D1C1F3130153
:1092900041EA0851C7E90012BDE8F08341EA0851EC
:1092A000CEE90012BDE8F083B8F1030F03D101232A
:1092B0000372BDE8F083002303E09E4209F1080930
:1092C000F5D055F833400133C4F30754032CF4D1DF
:1092D000C1F3130343EA0853C9E90032BDE8F08340
:1092E0002DE9F0410646406882B0C0B10F46904675
:1092F0000024336853F8345003EBC403C5F307521A
:10930000C5F31301013504F1010406D05B68304652
:10931000CDF80080B84710B170688442E9D302B03C
:10932000BDE8F081024B1968024B1868FFF7D2BC08
:10933000484400206844002008B537F067FB014B23
:10934000186008BD80200020014B186837F059BB19
:109350008020002073B504462248012A00EAC1118A
:109360009DF8185023F07C4007D9961E012E28D96D
:10937000073303F07F03194308E09DF81C300A43CC
:10938000DB0603F0C053134343F060410023C4E9FC
:1093900000108DF80730B5B1202221460DF10700ED
:1093A0002BF05BFF1A220DF10700211D2BF055FF5A
:1093B000082063689DF8072043EA8263636002B077
:1093C00070BD1143E2E71B220DF1070021462BF08F
:1093D00044FF23689DF80720042043EAC26323600A
:1093E000EDE700BF80FFFF0738B5094B0D461A684F
:1093F0000021044635F0EBF800234FF0FF322383C1
:10940000C4E900252361A260E382A37638BD00BFD2
:10941000E40F04080138C0B205289ABF014B185C5C
:1094200001207047E90F04082DE9F0410746154671
:1094300000240E46596888B0490A012922464FEA9D
:10944000510104F10104F8D8DC78997824031B88D1
:10945000C90201F4006104F480540C43C3F30A030D
:109460005203234492B24FF000089C18274B6FEA36
:109470000444039325F07843ED4302A90DF107005E
:109480001B2202938DF807802BF0E7FE9DF8072042
:10949000029B02A943EAC2630DF107001B2225F0DB
:1094A0007845049302958DF807802BF0D6FE9DF841
:1094B0000720029B6FEA144443EAC26305934FF00E
:1094C000FF330794069307A9BB69012206F1100038
:1094D0009847BB6905A90446012206F10800984790
:1094E000BB69404518BF044604A90122301D9847B6
:1094F0000122404518BF0446BB69304603A998477E
:10950000404508BF204608B0BDE8F08101009AB28E
:10951000044BD3F88420D206FBD4D3F88400C0F3E4
:10952000811070470040005038B5174B0546D3F8FE
:1095300028310C4603F00703013B052B20D8DFE858
:1095400003F003131B0F0B1735F066F8052305B165
:10955000286004B1236038BD35F05EF80623F6E7D5
:1095600035F0A4F80723F2E735F096F80323EEE789
:1095700035F092F80423EAE735F08AF80223E6E7AB
:1095800000231846E3E700BF00800050002337B5F2
:109590000193164B0546D3F820320C4603F007031F
:1095A000042B21D8DFE803F0030B11161B00012365
:1095B0000DB1019A2A6004B1236003B030BD0021CF
:1095C00001A8FFF7B1FF1223F2E735F06FF8072388
:1095D0000190EDE737F00FFA0A230190E8E735F044
:1095E000ADF809230190E3E70023E1E70080005094
:1095F00038B5104B0546D3F880300C4603F0030312
:10960000022B0BD0032B0DD0012B0FD135F00AF814
:109610000E2305B1286004B1236038BD35F046F84B
:109620000723F6E734F0F8FF0623F2E70023184695
:10963000EFE700BF0080005038B5104B0546D3F867
:1096400000310C4603F00303022B0BD0032B0DD08B
:10965000012B0FD135F020F8032305B1286004B1A8
:10966000236038BD35F06AF80923F6E735F01AF8BB
:109670000823F2E701230020EFE700BF008000503D
:1096800038B5184B0546D3F820010C4600F007000A
:10969000062823D8DFE800F0040A0E16121A1E006E
:1096A000012305B1286004B1236038BD34F0B4FF54
:1096B0000523F6E734F0F0FF0323F2E734F0F6FF7A
:1096C0000723EEE734F0E4FF0223EAE734F0A4FFD7
:1096D0000623E6E734F0E0FF0423E2E70023184620
:1096E000DFE700BF0080005038B5104B0546D3F8C7
:1096F00040310C4603F00303022B0BD0032B0DD09B
:10970000012B0FD137F077F90A2305B1286004B196
:10971000236038BD35F012F80923F6E737F06EF90B
:109720000C23F2E701230020EFE700BF0080005088
:10973000002337B50193164B0546D3F860320C462B
:1097400003F00703013B032B1FD8DFE803F0020EF1
:109750001914002101A8FFF793FF10230DB1019AFE
:109760002A6004B1236003B030BD002101A8FFF7D7
:10977000BBFF1123F2E734F099FF07230190EDE7D7
:1097800034F086FF02230190E8E70023E6E700BFFC
:1097900000800050002337B50193164B0546D3F8DF
:1097A00094320C4603F00703013B032B1FD8DFE87C
:1097B00003F0020E1914002101A8FFF761FF102326
:1097C0000DB1019A2A6004B1236003B030BD0021BD
:1097D00001A8FFF789FF1123F2E734F067FF0723A1
:1097E0000190EDE734F054FF02230190E8E70023F5
:1097F000E6E700BF0080005038B5104B0546D3F8AF
:1098000060310C4603F00303022B0BD0032B0DD069
:10981000012B0FD137F0EFF80A2305B1286004B10E
:10982000236038BD34F08AFF0923F6E737F0E6F805
:109830000C23F2E701230020EFE700BF0080005077
:109840002E4B98424AD022D82D4B984240D014D863
:109850002C4B984239D00AD82B4B984232D02B4B04
:1098600098422FD02A4B98422CD000207047294B89
:109870009842FAD1284B186F7047284B98422AD04B
:10988000274B9842F1D1244BD3F880007047254BE9
:1098900098422BD009D8244B984223D0234B98428E
:1098A000E3D11D4BD3F88C007047214B984221D057
:1098B00003F5740303F510539842D6D1164BD3F831
:1098C00098007047144B986D7047134B586E704753
:1098D000114B586F7047104B986F70470E4BD3F871
:1098E000840070470C4BD3F8880070470A4BD3F8BC
:1098F00090007047084BD3F8940070470048E80187
:109900000024F400C0CF6A0080841E0000093D00DE
:1099100040420F00405DC6000080E00FC0EA210118
:1099200080BA8C01007E560380D54302006CDC02B5
:109930000090D00373B50D460021114B0191D3F86F
:109940008041064604F00304022C13D0032C0CD0F3
:10995000012C13D101A8FFF793FE10240EB1019B37
:10996000336005B12C6002B070BD34F09FFE072457
:109970000190F3E734F08CFE0190EFE70C46EDE741
:109980000080005038B5104B0546D3F840320C46E5
:1099900003F00303022B0BD0032B0DD0012B0FD1AF
:1099A00037F029F80A2305B1286004B1236038BDD7
:1099B00034F0C4FE0923F6E737F020F80C23F2E771
:1099C00001230020EFE700BF0080005038B5144BA2
:1099D0000546D3F800020C4600F0070004281BD807
:1099E000DFE800F003090D111500012305B128601F
:1099F00004B1236038BD36F0FEFF0A23F6E734F0E9
:109A00009DFE0923F2E736F0F9FF0C23EEE734F070
:109A100029FE0F23800AE9E700231846E6E700BF86
:109A20000080005038B5144B0546D3F808020C46A8
:109A300000F0070004281BD8DFE800F003090D112F
:109A40001500012305B1286004B1236038BD36F04C
:109A5000D2FF0A23F6E734F071FE0923F2E736F06D
:109A6000CDFF0C23EEE734F0FDFD0F23800AE9E77C
:109A700000231846E6E700BF00800050B0F5207FC5
:109A80001FD009D8B0F5007F15D003D868B1B0F564
:109A9000C07F0AD000200CE0B0F5607FFAD10B4BFC
:109AA000D3F88000C0F3011003E0084B186FC0F337
:109AB000033001307047054BD3F89000C0F30460C9
:109AC000F7E7024B186FC0F38020F2E700800050E8
:109AD00002464FF48030104B10B598660020FFF717
:109AE000CDFF504341F671320C4BDC69DA635A68A2
:109AF00004F4803422F4401259B90949884294BFD1
:109B000000200120000502435A600CB10022DA63F4
:109B100010BD0449F2E700BF009000500000035060
:109B2000005A6202002D3101430905D0012B0CD0EF
:109B3000022B084B18BF002300F01F0039B103F5BA
:109B40008053012282401A607047034BF4E703F50B
:109B50000053F6E768800050648000501FB5002174
:109B6000B0F5807F0446CDE9001100F02B8100F2B2
:109B700094805D2800F28C801F2805D8002840F0D2
:109B8000898034F06FFDF7E0A0F120043D2C00F255
:109B9000818001A353F824F0839B0008879D00086F
:109BA000839B0008879D0008A79D0008A79D0008CB
:109BB000A79D0008A79D0008A79D0008879D000895
:109BC000BB9D0008CB9C0008059D0008E79D000890
:109BD000CB9C0008879D0008879D0008879D000892
:109BE000959C0008959C0008959C0008959C000891
:109BF000959C0008959C0008959C0008959C000881
:109C0000879D0008879D0008879D00082B9D000800
:109C1000FB9D0008879D0008959C0008959C000806
:109C2000959C0008959C0008959C0008959C000850
:109C3000959C0008959C0008959C0008959C000840
:109C4000959C0008959C0008959C0008A79D00081D
:109C5000839B0008839B0008839B0008F19D0008FC
:109C6000CB9C0008CB9C0008059E0008499D00087D
:109C7000F59C0008B19D0008959C0008959C000883
:109C8000959C0008959C0008959C00086B9D000819
:109C900080286FD0009804B010BDB0F5D06F00F0F0
:109CA000A28034D8B0F5607F78D019D8B0F5007FA5
:109CB00064D004D8B0F5C07F3FF463AFEAE7B0F5F5
:109CC000207F60D0B0F5407FE4D134F0CBFC024679
:109CD0004FF42070FFF7D2FEB2FBF0F252085BE0C7
:109CE000B0F5B06F69D00AD8B0F5806F5BD0B0F531
:109CF000A06FCFD100216846FFF748FCCAE7B0F556
:109D0000C06FC7D100216846FFF7EEFCC2E7B0F58F
:109D1000106F6DD00ED8B0F5086F78D0BAD8B0F506
:109D2000E06F6AD0B0F5F06FB4D100216846FFF75C
:109D300063FDAFE7B0F5406F3AD013D8B0F5206FB0
:109D400060D0B0F5286FA5D10021334B0391D3F833
:109D5000703203F00303012B02D103A8FFF7C4FC08
:109D6000039B39E0B0F5486F94D100216846FFF7B6
:109D700011FD8FE734F056FC00908BE734F052FC75
:109D80000246204604E034F06DFC02464FF4207099
:109D9000FFF774FEB2FBF0F200927BE701A8FFF739
:109DA00027FC019AEDE700216846FFF769FC71E79F
:109DB00000216846FFF7B8FB6CE700216846FFF713
:109DC000B9FD67E74FF0E02302911B695B0705D5FA
:109DD00034F048FC0290029B00935BE703A902A8C1
:109DE000FFF782FCF7E700216846FFF7EFFD51E738
:109DF00000216846FFF716FE4CE700216846FFF792
:109E0000C1FD47E700216846FFF792FC42E768463C
:109E1000FFF712FC3EE700BF0080005008B580202D
:109E2000FFF79CFE034B98429EBF4FF48032024BDB
:109E30001A6708BD005A620200A000501FB5034611
:109E40000020B3F5807F019000F0C58065D85D2BC0
:109E500056D84C2B07D82D2B48D8232B2CD801981B
:109E600005B05DF804FB4D3B102BF8D801A252F869
:109E700023F000BFCD9F00085F9E00085F9E000892
:109E80005F9E00087B9F00085F9E00085F9E0008A1
:109E900027A00008999F00083F9F00081DA0000808
:109EA0005F9E00085F9E00085F9E00085F9E00089E
:109EB0005F9E000831A00008243B092BCFD801A2E7
:109EC00052F823F0CD9F0008CD9F0008CD9F0008D9
:109ED000CD9F0008CD9F00085F9E0008C39F00082B
:109EE0005F9E00085B9F000803A000083D2B00F068
:109EF00083803E2BB3D1002001A9FFF743FDAEE7DD
:109F0000802BACD1504B1B6F03F00703013B032B9D
:109F1000A5D8DFE803F0544D5052B3F5F06F6BD085
:109F200020D8B3F5B06F4CD00ED8B3F5607F71D0A8
:109F300095D3B3F5806F49D0B3F5A06F8FD10020D2
:109F400001A9FFF723FB8AE7B3F5D06F59D0B3F52A
:109F5000E06FD0D0B3F5C06F81D1002001A9FFF729
:109F6000C3FB7CE7B3F5206F5DD00BD8B3F5086F6A
:109F70004CD0B3F5106F7FF472AF002001A9FFF74A
:109F800051FD6CE7B3F5406F48D0B3F5486F4FD043
:109F9000B3F5286F7FF463AF2B4BD3F8703203F027
:109FA0000303012B49D0022B0CBF1523002300E033
:109FB0000523019353E70323FBE70823F9E7022373
:109FC000F7E7002001A9FFF7B5FC48E7002001A949
:109FD000FFF756FB43E74FF0E02302901B695B0756
:109FE00005D534F03FFB0D230393039BE1E703A961
:109FF00002A8FFF779FBF8E7002001A9FFF7FCFBB7
:10A000002DE7002001A9FFF7E1FC28E701A9FFF7F0
:10A0100013FB24E701A9FFF7EBFA20E7002001A9D1
:10A02000FFF782FA1BE7002001A9FFF781FB16E783
:10A03000002001A9FFF7AEFB11E7002103A8FFF7FD
:10A0400053FB1123B5E700BF008000504FF480326E
:10A05000074B0849586E03F580535A664B6A23F044
:10A0600001034B62C3035CBF034B5A66704700BFDA
:10A070000080005000C0075000A0005038B50446D2
:10A080008020FFF7DBFE032800F083804FF480126E
:10A09000524B4FF0A0615A6645F60E02504BC3F882
:10A0A0008020504A91624FF4803102F580529162D3
:10A0B0009A6DD203FCD4996D11F08041FBD1D4E9A3
:10A0C0000002120542EA0062E07B0243207B42EA82
:10A0D0000042607B42EA0032A07B42EA80121A61B1
:10A0E0009869D4E90452120642EA856200F0004001
:10A0F0000243A07EE57E0243207E42EA0042607E6B
:10A1000042EA00229A611A6AE06922F00F0242EAEA
:10A110008502354D00283DD11A6294F82420996AB1
:10A1200094F82000D200294042EA40120A4394F8F1
:10A13000211042EA011242F480329A622B49284AE5
:10A14000936D31EA0303FBD14FF0807125488162A2
:10A150001369A56823F4700343EA055313614FF0B4
:10A160000043836194F822300BB9214B996294F833
:10A1700023303BB94FF480321D4B9A62184A936DDD
:10A180005B00FCD494F825301BB1154B194AC3F879
:10A19000802038BD024342F0080202281A6208D12A
:10A1A00019614FF40852996113484FF47F412BF025
:10A1B00072F80B4994F822308A6A94F820001B0642
:10A1C0002A4043EA4013134394F8242043EAC2038D
:10A1D00094F8232043EA02438B62D3E700900050B7
:10A1E0000040005A0050005AC7FFFEFE0300010065
:10A1F0000060005AF1A7FFFF3440005A014B93F969
:10A2000000007047BA490020014B1880704700BF1A
:10A21000784900204FF4800208B5184B5A66022393
:10A22000174A5360936813F48033FBD1012822D17D
:10A2300034F032FA134B984215D003F5122303F58C
:10A24000F863984213D0104B00EB8002400AB3FB36
:10A25000F0F3520A0A49CA620B6301234B620022DF
:10A26000074B5A6008BD45F67A13084AF2E745F6EF
:10A270001A03074AEEE75362F1E700BF009000506F
:10A280000040025000F0490264666666D8B80500D6
:10A29000BBCF0500B0F5207F10B50C465DD008D8C7
:10A2A000B0F5007F4ED003D8C0B1B0F5C07F15D057
:10A2B00010BDB0F5607FFBD12C4B4C1ED3F8FC20B9
:10A2C0002B4912F0807F4FEA041427D1D1F8803057
:10A2D00023F030032343C1F88030E9E72AF0EAFF96
:10A2E0002AF0F6FF4FF48031224B214A1967136F91
:10A2F000013C23F4704343EA0433136734F0B2F9AA
:10A300000446FFF705F9C0F1020120462AF0DAFF02
:10A3100000F04AF8BDE81040FFF780BDD3F8FC20FC
:10A3200022F08072C3F8FC20D1F8802022F03002A5
:10A330002243C1F88020D3F8FC2042F08072C3F899
:10A34000FC20B5E70A4A4C1ED2F8903023F0F853AF
:10A3500043EA0463C2F89030AAE7054A4C1E136F23
:10A3600023F4806343EA84231367A1E700ED00E050
:10A37000008000500090005008B50121022000F03C
:10A3800095F94FF42070FFF779FB054B18702AF010
:10A3900091FF2AF09DFF4FF48032024B1A6708BDEF
:10A3A000003C00200090005008B54FF4C070FFF74B
:10A3B000D5FBBDE808400449884294BF0121022131
:10A3C0004FF42070FFF766BF80F0FA0238B50446FC
:10A3D00034F048F90546FFF79BF8C0F10201284622
:10A3E0002AF070FF0121002000F0A0F92CB1FFF746
:10A3F000DBFFBDE83840FFF711BD034B4FF4207081
:10A400001978FFF747FFF4E7003C00204FF4C02223
:10A4100070B50546FFF714FA314B04465A6603F54A
:10A4200098335A68012A04D12E494A605A68920723
:10A43000FCD48020FFF702FD052807D12AF03AFF5F
:10A440002AF046FF4FF48032254B1A67264B24F042
:10A4500040749D4230D0254B9D4230D034F0DCF822
:10A460008542064603D90121284600F05FF9204BBA
:10A47000DA6812F0060FFBD199689C609A68624016
:10A4800012F4F81F1ED12846FCF798FD8020FFF734
:10A49000D5FC05280DD134F0E5F80446FFF738F86F
:10A4A000C0F1020120462AF00DFFFFF77DFFFFF704
:10A4B000B5FCAE420CD270BD44F00074CEE744F05F
:10A4C0008074CBE780209960FFF7B8FC052805D0A1
:10A4D000BDE870400121002000F028B93546DAE7D8
:10A4E0000090005000E0015040420F0080841E00A8
:10A4F00000000150304B314A984251D020D8A3F58A
:10A50000B703A3F55863984246D00DD82C4B984218
:10A5100031D02C4B984239D02B4B4FF4002198422C
:10A520001DD00023516622E0284B4FF400219842B1
:10A53000F7D1274BD3F8BC30516623F0407316E0B7
:10A54000244B984230D0244B984231D0234B4FF4C7
:10A5500000219842E5D11E4BD3F8C830ECE71C4BE4
:10A56000D3F8A030516623F0407343F000734FF0EE
:10A57000B442936070474FF40021154BD3F8A030DC
:10A58000516623F0407343F08073F0E7104BD3F82B
:10A59000A0304FF40021CFE70D4BD3F8B830F8E7E7
:10A5A0000B4BD3F8C030F4E7094BD3F8CC30F0E7CD
:10A5B000074BD3F8D030ECE7C0EA210100900050FF
:10A5C00080841E0000093D0040420F000024F4007A
:10A5D0000080E00F0048E801005A620280BA8C0156
:10A5E000024A536B0342FCD1704700BF0040095040
:10A5F000044A4178536F23F4407343EA01235367BD
:10A60000704700BF004000500E4A10B51369044661
:10A6100043F00403136134F0BBFC2AF05EFE0A4BE6
:10A620005B6E5B0142BF094B094AC3F8202430BF6F
:10A630002AF054FE04F082FC1CB9BDE8104034F04E
:10A6400011B810BD00ED00E00080005000E00350A4
:10A650000000FF0F0C4A10B51369044643F00403D1
:10A6600013610A4B5B6E5B0142BF094B094AC3F899
:10A67000202434F08DFC30BF04F060FC1CB9BDE830
:10A68000104033F0EFBF10BD00ED00E0008000503F
:10A6900000E003500000FF0F034A0179D36E23F05E
:10A6A00030030B43D366704700400050F8B50446B2
:10A6B0001C4BD3F88420D106FBD4D3F88430C3F3E9
:10A6C00081139C422CD033F0ADFF012C064602D101
:10A6D00021462AF0F7FD36F099F94FF00072124B3F
:10A6E00007465A6620462AF0FCFD4FF480630D4D64
:10A6F000621E93402B676B6E9A0103D4D5F88430A9
:10A700009B060AD5384636F07CF9022C08D1304633
:10A71000BDE8F84000212AF0D5BDD5F88430EAE73D
:10A72000F8BD00BF004000500060005010B50C465E
:10A7300008B933F077FF074B21461B783BB1064B36
:10A74000984204D80120BDE81040FFF7AFBF0220B7
:10A75000F9E700BF013C0020005A62020278034B77
:10A76000012100201A70FFF7E1BF00BF013C00206B
:10A770004FF0004238B5244B244C5A664AF6CD338C
:10A78000656C014605F00105236428BB0120FFF735
:10A7900027FF6368DB0715D51D4B586008461D4B26
:10A7A000226BD2070CD4984208D1072415B1174B5D
:10A7B000194A1A642EF0AAFB204638BD0130EFE793
:10A7C0009842F2D00024F1E70132236B13F0080322
:10A7D00005D08A42F8D1E8E700220E49F5E78A421F
:10A7E000E3D020210A4A91620121A2F580525160F2
:10A7F0000649084A886A800603D49342D5D00133BB
:10A80000F8E79342DDE700BF009000500040095098
:10A810000060095040420F003254FFFF4FF00042E9
:10A8200038B5164B01465A664AF6CD33144C154AD4
:10A83000656C236443780B205B0043F00103D36312
:10A84000FFF7CEFE63688A7823F4F87343EA0213B5
:10A850006360CA784B7943EA0223A3600A798B7953
:10A8600043EA022323610878FFF782FFEB0744BF26
:10A87000054B23642EF04AFB012038BD00900050A8
:10A8800000400950004000503254FFFF4FF000429A
:10A89000124B70B55D6E03F580535A664AF6CD33A0
:10A8A00004460F4980204E6C0B64FFF799FE0B6A3B
:10A8B00023F00F030F2C94BF234343F00F030B62CD
:10A8C000F30744BF074B0B64002DA2BF4FF00042BB
:10A8D000054B5A662EF01AFB70BD00BF0080005079
:10A8E000004009503254FFFF00A000504FF00042DA
:10A8F000104B70B55D6E03F580535A664AF6CD3342
:10A9000004460D4980204E6C0B64FFF769FE0B6A0C
:10A9100023F4F85343EA04230B62F30744BF074BC5
:10A920000B64002DA2BF4FF00042054B5A662EF07B
:10A93000EDFA70BD00800050004009503254FFFF16
:10A9400000A000502DE9F04105460F461E469046F6
:10A950004AB101233022194C8B4002FB004436B32C
:10A9600004F5825423600F21072F05EB450388BFB0
:10A97000A7F108044FEA0313114895BFBC00A400D7
:10A9800004330C3308FA04F2A14018442AF0AAFC5C
:10A99000B8F1000F09D101233021084ABB4001FB67
:10A9A00005223EB102F582521360BDE8F08104F544
:10A9B0000154D7E702F50152F6E700BF00C003508B
:10A9C00030C0035010B5152002F026F80024FF22F5
:10A9D000064B21465C6520209A625C60FFF7A4F874
:10A9E0002146BDE810402120FFF79EB8000004502A
:10A9F000044A054B002908BF1346012282401A6011
:10AA0000704700BF401004504020045010B5012191
:10AA100004462020FFF788F801212120FFF784F861
:10AA20000122114B15205A60227812069A60617833
:10AA3000A27842EA01429A61FF229A6200229A6356
:10AA40001A644FF000425A654FF0FF3203F500538D
:10AA50001A6502F00FF81520E1782BF0E1FABDE855
:10AA60001040152001F0EABF00000450F8B50125A0
:10AA7000C3B2D1F800E091F80AC00F7B0C469D40AC
:10AA8000CB7A1D491D4E0D65810001F1A04101F5F4
:10AA90008821C1F804E04FF0300E0EFB00601B056A
:10AAA000617B43EA0C4343EA475322F00302016609
:10AAB000C365026735F0B7FF114B5D65237A13B1AB
:10AAC000336C2B433364637A13B1B36B2B43B3639F
:10AAD0002279A37943EA0243074A93616179E379D2
:10AAE00043EA014306498B61044B55639D64BDE80D
:10AAF000F84035F093BF00BF002004500000045020
:10AB00000010045010B50124C0B2844035F08BFF12
:10AB1000044B5A6D22EA04025A659C62BDE810405B
:10AB200035F07CBF0000045010B50124C0B2844051
:10AB300035F079FF074BDA6A224208D15B6B9C4300
:10AB40000CBF0124002435F069FF204610BD00240D
:10AB5000F9E700BF0000045070B5054635F063FF0B
:10AB60003022084B5E6B02FB05335C6E35F056FFFE
:10AB70000123EDB2AB4033420ABFC4F30A100020F8
:10AB8000013070BD000004504FF48032054B9A66CE
:10AB900041F6713203F51C33DA63012203F50053E9
:10ABA000DA6070470090005041F671320121064B87
:10ABB000DA6303F50052D1600022DA634FF4803289
:10ABC000A3F518339A667047000003500138312806
:10ABD0009ABF024B185C0020704700BFEF0F0408BB
:10ABE00038B5C2F30625044602F0070241B942EA2D
:10ABF000052242F440220634074B43F8242038BD96
:10AC0000114628462AF07DFB02462846FFF7DEFF64
:10AC1000163442EA0022EFE700800350044B186824
:10AC2000421C02BF034AD2F894001860704700BF6C
:10AC30006C440020004000504FF48032064B5A66AE
:10AC400003F5E6239B69C3F38512827003F03F028C
:10AC50001B0B427003707047009000500120034BA3
:10AC60009B680A3303F01F03984070470080E00F91
:10AC700070B5054616461C4621B94FF42070FEF704
:10AC80006DFF0146402C1BD003D8DCB1202C1BD01B
:10AC900070BD602CFCD1042303FB06F2530803EBC8
:10ACA0004113B3FBF2F3094A203B02EAC303AA684B
:10ACB00022F06002AA60AA681443AC60EB61E7E787
:10ACC0000623E9E71023E7E70823E5E7F8FF7F001D
:10ACD000012100F5805310B5596040F6AA6341F296
:10ACE000050243610023094C8360C365C26000F51F
:10ACF00000520361C361C3649464054C8365A04240
:10AD000004BF03654365516010BD00BFFFFF010034
:10AD100000C0055070B50D46FFF7DAFF012300F5BE
:10AD200080567360AB7C04461BB1836843F080435C
:10AD30008360EB7C5BB1244B9C4202BF2A7DA3F570
:10AD40001033C3F8C821E36D43F08003E3652A8A1A
:10AD50006B7B20461343EA891343E3602B7BD5E9E1
:10AD60000112FFF785FF6B7D1BB1A36843F48033AD
:10AD7000A360AB7D1BB1A36843F40043A360EB7DEC
:10AD80002A7E1B07120502F4E00203F0E04313439E
:10AD9000A3656B7E9A1E012A4FF0020209D80B4967
:10ADA000032BC1F8202709D10423F3652B786361B5
:10ADB00070BD0749012BC1F82027F4E7042204F5F0
:10ADC0000053DA65F2E700BF00C0055000D0035021
:10ADD00000E003500122437801789A403023594320
:10ADE000014B5A50704700BF40E00350034BD3F86B
:10ADF0002424D3F820041040704700BF00C0035043
:10AE00002DE9F8431F4B0546D3F810334B1E0E2B8C
:10AE10000E461746047890F8018026D951B34FF0BA
:10AE2000000928461FB333F0FDFC0F21B8F1070FCE
:10AE300004EB440488BFA8F108084FEA0414124840
:10AE400095BF4FEA88084FEA880804340C3409FAA1
:10AE500008F201FA08F120442AF0D9FA86B9284606
:10AE600057B1BDE8F84333F0DDBC8946D9E7FFF7B9
:10AE7000B1FFDAE78946D8E7BDE8F843FFF7AABF94
:10AE8000BDE8F88300C0035030C00350054B9A68FA
:10AE90009107FCD45A689207F9D4DA69002AF6D1EE
:10AEA000704700BF00800A5008B533F0C7FC02228B
:10AEB000014B1A6108BD00BF00800A5008B5FFF7BA
:10AEC000E5FF0122024B03F580514A601A6108BD7B
:10AED00000800A5008B5044B5968012903D1FFF7D7
:10AEE000E3FF024B596008BD00800A5000A00A50E1
:10AEF00010B5064CFFF7CAFF6368012B03D1FFF7BB
:10AF0000E9FFFFF7C3FF0378E36010BD00800A503C
:10AF1000B8B94A680B7812B1127843EAC2034A788A
:10AF200043EA42038A6812B1127843EA82138A78AC
:10AF300043EA8203CA6812B1127843EA4223014A03
:10AF40009364704700800A5070B504462EF024F8D0
:10AF5000064630B90FCC044D0FC594E8030085E8D0
:10AF60000300304670BD00BF8420002047F6FF7309
:10AF70009A42F0B56FD002296FD8394B5B5C012B38
:10AF80006BD8384DDF0005EBC30415F83330A178DA
:10AF9000012B13D10025E078401AA84202D80844BA
:10AFA000C0B2F0BD431B6668A0EB530336F91360D3
:10AFB0009642D4BF1D4603F1FF30EEE760680028DB
:10AFC000EFD0B0F90040944204DBB0F90240944263
:10AFD000B8BF144683883D44FF2B19BFC8224FF0E9
:10AFE000280CB0F90620B0F908C0A2EB04030CBF8E
:10AFF0000126002693FBFCF333446E781BB29E427D
:10B0000001DD002B01DA731E1BB24FF47A7C013391
:10B010009BB2071D5D1E2DB24FEAC50E00EBC505A4
:10B02000EA88AD689E4214FB025222EAE27202F103
:10B030005C02B2FBFCF204DD37F833500133954279
:10B04000E8D200EB0E039888904228BF1046884251
:10B0500038BF0846A4E7FF20A3E70020A1E700BF10
:10B0600021100408842000200229F0B555D82C4B6B
:10B07000585C012851D82B4C04EBC00114F8300067
:10B080004B6801280FD1C8788C78904294BFC4EBEC
:10B090000001C4EB0201001BCAB28242C8BF0022F9
:10B0A00033F91200F0BD002B37D08878904202D3DC
:10B0B000B3F90200F6E7CC78B3F900009442F1D975
:10B0C0004C789988013CA1F1FF06714203F1040517
:10B0D000E4B2714103F10C07CEB2B44216D805EBCD
:10B0E000C1014FF47A756A43B1F902404968521AB6
:10B0F00004EBD47102EB610292FBF4F29042D1DBDB
:10B10000B3F902009042CDDC10B2CBE737F831C082
:10B110004E1C9445E3D33146DEE70348C2E700BF47
:10B1200021100408842000200080FFFF08B5044897
:10B13000FFF70AFFBDE8084001202DF033BF00BF34
:10B14000842404087FB50222084B0949CDE9012374
:10B150004FF00073CDE90313052301A94FF0FF3031
:10B1600005932DF062FF07B05DF804FB006A18003C
:10B17000000204002DE9F0418CB08846DDE912762A
:10B180001D460446002847D0002945D0002F43D053
:10B19000002E41D013F00F033ED120482049A36078
:10B1A000002A08BF0146E361C4E90013404609A92B
:10B1B0002AF070FA68BB2046099935F03AFC294616
:10B1C000204635F036FC6946404600F0F7FA00BBF1
:10B1D000694620462AF017FC404603A92AF059FB8D
:10B1E000B8B9204603A92AF00EFC0697012720468D
:10B1F00045F0005506A9079708952AF004FC20465B
:10B2000009A909960A970B952AF007FC204633F006
:10B210005FFB0CB0BDE8F0812120FAE700010004DB
:10B22000000101042DE9F04F97B0894690461F4672
:10B230000546DDF880A0002800F0BB80002900F062
:10B24000B8803AB1229B002B00F0B380239B002BE7
:10B2500000F0AF80BAF1000F00F0AB80219B002B13
:10B2600000F0A78067B13C680026229B434402930C
:10B27000464507D307B13C60002017B0BDE8F08F0A
:10B280003C46F1E75CB1229B219A9B5D125D013443
:10B290005340239A04F00F0493550136E8E7A8EBD6
:10B2A000060BBBF10F0F58D9434B4846C5E9003494
:10B2B000AC60EC6113A92AF0EDF90028DDD1284635
:10B2C00013992BF00F0B35F0B4FB5946284635F097
:10B2D000B0FB484604A900F071FA0028CDD12846F9
:10B2E00004A92AF090FB484607A92AF0D2FA0028C0
:10B2F000C3D1284607A92AF086FB012322992F4AA9
:10B30000CDF828A00B930C928A190D9228464BF089
:10B3100000520AA90E9303920F922AF074FB28465A
:10B320000DA92AF070FB239B039A99190123109110
:10B3300011931292214A284610A9CDF84CA01493DB
:10B3400015922AF06AFB284613A92AF066FB2846C4
:10B3500033F0BEFA5E4400288FD1229B03EB060B2C
:10B36000239B1E44029B5B4501D1464680E7ACB956
:10B37000219B2246CDE900A3494610232846FFF72A
:10B38000F9FE00287FF479AF0AF1100212F8013DAE
:10B390000133DBB213700BB95245F7D1219A1BF878
:10B3A000013B125D0134534006F8013B04F00F04E9
:10B3B000D8E7212061E700BF03030004100000204C
:10B3C0002DE9F04F97B0894615469A460446209FCE
:10B3D000DDF88880DDF890B0269E002800F09D8082
:10B3E000002900F09A80002E40F08A80002B00F0A7
:10B3F0009480B8F1000F0AD0219B002B00F08D80C3
:10B40000002A40F09F80F10700F1878002E0002AC7
:10B4100040F08580FB1F062B7FD8524B0BEB0502BB
:10B420009A427AD80023504A4846C4E90023A360D0
:10B43000E36113A92AF02EF900285ED12046139962
:10B4400035F0F7FA204646EA074135F0F2FA414670
:10B45000204635F0EEFA2946204635F0EAFA48460D
:10B4600001A900F0ABF9002847D1204601A92AF034
:10B47000CAFA484604A92AF00CFA00283DD14FF038
:10B480000109204604A92AF0BEFA239B45F0005585
:10B490000793219BCDF82090204609950DA90A938A
:10B4A00047F0005748F00053CDF82C900C93CDF89E
:10B4B00034A0CDF838900F972AF0A5FA20460AA9B3
:10B4C0002AF0A1FA204607A92AF09DFA259B2046DA
:10B4D00010A946F00056CDF840B0CDF84490129532
:10B4E0001393CDF8509015962AF097FA204613A999
:10B4F0002AF093FA204633F0EBF917B0BDE8F08F4D
:10B50000259B53B1BAF1000F07D0B8F1000F01D05D
:10B51000219B13B1B5B9022E20D12120EDE7239B49
:10B52000002BFAD0BBF1000FF7D0C7F10F03DBB24D
:10B53000032B3FF668AF0122DB0002FA03F3AB42B4
:10B54000EBD9E8E7239B002BE7D0BBF1000FE4D059
:10B55000C7F10F03DBB2032BDDD8ECE7102E7FF62B
:10B5600052AFDAE700000420000005042DE9F04F97
:10B5700099B0884615469B460446229FDDF8989070
:10B58000289E60B159B1279B4BB1BBF1000F06D08B
:10B59000249B0BB1239B13B11DB9022E13D1212380
:10B5A0009AE0259B002BFAD0B9F1000FF7D0C7F134
:10B5B0000F03DBB2032BF0D80122DB0002FA03F306
:10B5C000AB42ECD9E9E7731E0F2BE8D816F0010A5D
:10B5D000E5D1FB1F062BE2D8414B09EB05029A424D
:10B5E000DDD8404B4046C4E9003AC4F808A0C4F88E
:10B5F0001CA015A92AF04EF8034600286CD120465D
:10B60000159935F016FA204646EA074135F011FA49
:10B610002046249935F00DFA2946204635F009FADE
:10B62000404603A900F0CAF80346002854D120463A
:10B6300003A92AF0E8F9404606A92AF02AF90346A8
:10B64000002849D14FF00108204606A92AF0DBF96D
:10B65000259B2046099345F00053CDF8288001939F
:10B660000B93239B0FA90C93249B47F0005743F0A7
:10B670000052CDF834800E92CDF83CB0CDF8408029
:10B6800011972AF0C0F920460CA92AF0BCF92046EF
:10B6900009A92AF0B8F9019B204612A9CDF84890D3
:10B6A000CDF84C8014932AF0B8F9279B204615A9B1
:10B6B00046F000561593CDF8588017962AF0A3F956
:10B6C000204633F005F9034630B101902A46514631
:10B6D000484632F07CFF019B184619B0BDE8F08F58
:10B6E00000000420000006042DE9FF474FF0000889
:10B6F0000E4617460446CDF80080002859D022B9DE
:10B700000025284604B0BDE8F087002951D032F06A
:10B71000030902F0030A1FD04FF0E063C0E90038CC
:10B7200001230191C0F808800293C0F81C8049F001
:10B73000005301A903932AF070F94946204635F0D9
:10B7400078F9204633F0C4F8054628B14A46414608
:10B75000304632F03CFFD4E7BAF1000FD0D04FF0C2
:10B7600000084FF0E063C4E900380123CDF804D0AD
:10B770000293114B204601A9C4F80880C4F81C802C
:10B7800003932AF04AF90421204635F052F9204665
:10B7900033F09EF8054608B13A46D8E7009A4E4481
:10B7A000EB00013522FA03F3AA4506F8013BF7D175
:10B7B000A6E72125A5E700BF0400002090B189B1CC
:10B7C00001234B60C368013B012B08D88269064BFB
:10B7D0001AB10A6000208B607047044AF9E74FF005
:10B7E0000053F7E7212070470800002024100408C8
:10B7F000012300F01F02A0F506200949A0F55060C2
:10B800004009934051F820201A4341F8202005496F
:10B8100051F8202022EA030241F82020704700BF9F
:10B82000BC2000209C2000200122A0F506230D4909
:10B83000A3F550635B0900F01F00824051F823001C
:10B84000024341F8232000231946074A52F8040B0B
:10B850000133082B0144F9D119B92022014832F0F3
:10B86000B6BE70479C200020BC2000202DE9F04F80
:10B87000A9B003921E4604460822339FCDE9040175
:10B88000414021FA02F34B40980702F1080218BF29
:10B890009B00202A1C44F4D1734BE4B21B7804F5BE
:10B8A000062404F55064002B3ED1FDF73BFD054610
:10B8B00020B16FF0910029B0BDE8F08F0146402221
:10B8C00008A832F084FE4022294618A832F07FFEF4
:10B8D000DFF8AC81DFF8AC91C3460BF10F0ACDF86D
:10B8E00000A05B461022D9F8000008A929F0DFFA71
:10B8F0000023024608F1100808AD9A423DD1CDF868
:10B9000000A05B461022D9F8000018A929F0D8FA47
:10B910004FF0000A834618ADD34538D1534B9845B4
:10B92000DAD10122504B1A704FF480780025DFF8ED
:10B9300058B1A4F50623A3F5506252095BF8221012
:10B9400004F01F00C140C90734D4494951F82220EE
:10B95000C240D20722D5A3F6FF43DBB2002D08BFB9
:10B96000254603F50624B8F1010804F55064E0D13A
:10B97000039BABB1A5B12C4618E055F8040BCDE9FB
:10B980000623FFF735FF079B069A0133B5E755F805
:10B99000040BFFF749FF0AF1010ABDE7039B13B946
:10B9A0006FF08B0087E7002D18BF2C46349B0020DA
:10B9B0001C6080E7329B13B10023329A13600FB1F1
:10B9C00000233B604FF0100ADFF8B890CDF800A0DC
:10B9D000002332462146D9F80000FDF7C9FA58BBCA
:10B9E00032993268234BC1B99A4206D02146D9F820
:10B9F0000000FDF7F3FB0028D2D1D6E90223DDE9F0
:10BA00000410834208BF8A4225D0A4F50624A4F678
:10BA1000FF44E4B204F50624A5E732999A42C1F83E
:10BA200000A0E3D1002FE8D03B462146D9F8000022
:10BA300018AAFDF797FB40B10F4B9842D6D0632868
:10BA4000D4D00E4B9842D8D033E7329A3B68126874
:10BA50009B1A3B60D1E7039B002BA7D07368012B97
:10BA6000A4D16FF0840026E7023C0020007108009A
:10BA70009C200020105D175EFFDF00F0FEDF00F06D
:10BA8000006D080068440020BC2000202DE9F04F24
:10BA900087B08246894698461646DDF840B02AB1FE
:10BAA000002B4FD040F26C739A424ED8BBF1010F7D
:10BAB0004ED8002406F110073946012005942AF0DB
:10BAC000D6FE0546002846D021463A4632F07FFD94
:10BAD00005ABCDE9014300942B460122504649466F
