:10000000081000209BA4000099A4000053AF00003A
:1000100099A4000099A4000099A4000099A40000EC
:1000200099A4000099A400004CC3000099A400000A
:1000300099A40000FCC2000099A4000099A400004B
:1000400099A4000099A4000099A4000099A40000BC
:1000500099A4000099A4000099A4000099A40000AC
:1000600099A4000099A4000099A4000099A400009C
:1000700099A4000099A4000099A4000099A400008C
:1000800099A4000099A4000099A4000099A400007C
:1000900099A4000099A4000099A4000099A400006C
:1000A00099A4000099A4000099A4000099A400005C
:1000B00099A40000C190000099A40000059B0000D5
:1000C000EDC00000E9C0000005930000F9C0000089
:1000D000F1C00000DD9A0000F5C00000459B000063
:1000E000257C0000757C0000B59B000099A40000F1
:1000F00099A4000099A4000099A4000099A400000C
:1001000099A4000099A4000099A4000099A40000FB
:1001100099A4000099A4000099A4000099A40000EB
:1001200099A4000099A4000099A4000099A40000DB
:1001300099A4000099A4000099A4000099A40000CB
:1001400070B506468AB032480BF0DAFB3148324BC4
:1001500000210360314B324C436004F0C3FB2AA3FF
:10016000D3E900232060CDE900234FF0FF334FF0A7
:10017000FF320BF03EFC02224FF0FF3120680BF003
:100180003AFC00239422CDE9073309933C23CDE9BF
:1001900003320593962303A92068069304F074FCA8
:1001A00001F02AF82546014620680BF039FC20684A
:1001B0000BF0A5FCB6F9001055F8080B0BF045FC48
:1001C0007668D6B928460BF020F9A37B66F30003C6
:1001D000A373202310222384124B83F8212383F856
:1001E000222383F8262383F8252383F8232383F807
:1001F000202383F824230AB070BD3068A060B28841
:10020000B379AA80AB71E4E7085500510000000003
:10021000690345EC981A0020FD3D0000A81A002053
:10022000B41A002000E100E00348044B834202D0EE
:10023000034B03B118477047781000207810002056
:1002400000000000064B0749C91A891048BF013158
:10025000491003D0044B0BB101481847704700BF49
:1002600078100020781000200000000010B5064C27
:10027000237843B9FFF7D8FF044B13B10448AFF319
:1002800000800123237010BD7A23002000000000AD
:100290008009010008B5054B1BB105490548AFF3BE
:1002A0000080BDE80840FFF7CDBF00BF00000000A0
:1002B0009812002080090100064B0748DA1C121A28
:1002C000C11E22F00302994288BF002203490AF0AE
:1002D000FCBF00BF78100020081000209409010026
:1002E000064B0748DA1C121AC11E22F0030299427B
:1002F00088BF002200210AF0E0BF00BFB423002025
:10030000781000200348044A0449121A92100AF097
:10031000D1B800BF040A0100040A0100B423002080
:100320004FF400414FF0FF30124B134A10B59A6062
:10033000D3F8882042F47002C3F888200F4A9166EF
:1003400001F1884101F5005210664FF6DF705066EA
:100350000220C3F8D000BFF34F8FBFF36F8F082484
:100360004FF440330648C0F88041D36004600B610D
:1003700010BD00BF00ED00E0000000000090005044
:1003800000E100E0014B1868704700BF0C1000202E
:10039000084B1B6F03F00703022B04D0032B05D07F
:1003A000012B05D0FEE7044B18687047034BFBE7B1
:1003B00003487047008000500C10002014100020EB
:1003C000002D310108B5FFF7E3FF054B1B6FC3F3A9
:1003D00003330133B0FBF3F0024B186008BD00BFDC
:1003E00000800050081000200048704700B4C4048A
:1003F000014B1868704700BF14100020054B1860AF
:10040000054B1B6F03F00703032B01D1FFF7DABF86
:10041000704700BF14100020008000500048704753
:10042000002D3101014B1868704700BF10100020EB
:10043000044BD3F88420D206FBD4D3F88400C0F355
:10044000811070470040005038B5104B0546D3F876
:1004500020310C4603F00303022B0BD0032B0DD0ED
:10046000012B0FD1FFF78EFF052305B1286004B1E2
:10047000236038BDFFF7BCFF0323F6E7FFF7CEFF8D
:100480000223F2E701230020EFE700BF00800050C5
:1004900073B50D4600210E4B0191D3F880410646FD
:1004A00004F00304012C09D0022C0CD00C460EB130
:1004B000019B336005B12C6002B070BD01A8FFF74D
:1004C000C3FF0F24F3E7FFF7A9FF0190EFE700BF99
:1004D0000080005038B5184B0546D3F824010C466F
:1004E00000F00700062823D8DFE800F0040A121AFB
:1004F0001E0E1600012305B1286004B1236038BD2B
:10050000FFF740FF0523F6E7FFF73CFF0623F2E77E
:10051000FFF76EFF0323EEE7FFF76AFF0423EAE726
:10052000FFF77CFF0223E6E709F0CFFF0723E2E7AE
:1005300000231846DFE700BF0080005038B5104B9D
:100540000546D3F840310C4603F00303022B0BD0D1
:10055000032B0DD0012B0FD109F0B9FF092305B1F1
:10056000286004B1236038BDFFF75CFF0823F6E77D
:1005700009F0B0FF0B23F2E701230020EFE700BFF3
:100580000080005038B5144B0546D3F800020C46E5
:1005900000F0070004281BD8DFE800F003090D1164
:1005A0001500012305B1286004B1236038BD09F0AE
:1005B0008EFF0923F6E7FFF735FF0823F2E709F07E
:1005C00089FF0B23EEE7FFF7FDFE0E23800AE9E724
:1005D00000231846E6E700BF0080005038B5104BF6
:1005E0000546D3F840320C4603F00303022B0BD030
:1005F000032B0DD0012B0FD109F069FF092305B1A1
:10060000286004B1236038BDFFF70CFF0823F6E72C
:1006100009F060FF0B23F2E700231846EFE700BF65
:100620000080005038B5104B0546D3F860310C46B9
:1006300003F00303022B0BD0032B0DD0012B0FD1A2
:1006400009F045FF092305B1286004B1236038BDD6
:10065000FFF7E8FE0823F6E709F03CFF0B23F2E77B
:1006600001230020EFE700BF0080005010B40D4CC4
:100670000B46D4F8204204F00304012C0AD0022CCB
:100680000CD008B1002101600BB100221A605DF8A6
:10069000044B70475DF8044BFFF7D6BE5DF8044B82
:1006A000FFF74CBF00800050B0F5207F1FD009D865
:1006B000B0F5007F15D003D868B1B0F5C07F0AD07F
:1006C00000200CE0B0F5607FFAD10B4BD3F880002E
:1006D000C0F3011003E0084B186FC0F30330013082
:1006E0007047054BD3F89000C0F30460F7E7024B66
:1006F000186FC0F38020F2E7008000504FF4003202
:100700000E4B014610B500209A66FFF7CDFF484317
:1007100041F671320A490B4B884294BF00200120F8
:10072000DC69DA639A6822F4401242EA00529A6065
:10073000E20344BF0022DA6310BD00BF0090005006
:10074000005A620200000350420910B50FD0012A7E
:100750000FD00A4B0A4C022A18BF234600F01F0094
:1007600049B103F58053012282401A6010BD13463F
:10077000F4E7044BF2E703F50053F4E76880005018
:10078000608200506480005008B5802009F0ADFE02
:10079000034B98429EBF4FF48032024B1A6708BD4C
:1007A000005A620200A000501FB50023B0F5807F00
:1007B000019377D028D8382800F094800BD82438BB
:1007C000092810D809280ED8DFE800F067676767A6
:1007D0000D0D620D377D52285FD008D83D283BD0E3
:1007E0003E2800F08480019805B05DF804FB802865
:1007F000F9D1414B1B6F03F00703013B032BF2D8E8
:10080000DFE803F044413F6CB0F5D06F5BD019D8FE
:10081000B0F5A06F66D00AD8B0F5806F3DD0B0F5C6
:10082000906FE0D1002001A9FFF754FEDBE7B0F59F
:10083000B06F2DD0B0F5C06FD5D1002001A9FFF762
:100840007DFED0E7B0F5006FECD00AD8B0F5E06FD0
:100850004DD0B0F5F06FC6D1002001A9FFF7E2FE40
:10086000C1E7B0F5086FBED1234BD3F8003103F0D8
:100870000303022B2CD0032B2ED0012B30D1FFF7FA
:10088000B7FD032300E005230193ACE70223FBE758
:10089000002001A9FFF7FCFDA5E7002001A9FFF753
:1008A000D3FDA0E702934FF0E0231B695B0705D55A
:1008B000FFF788FD0C230393039BE5E703A902A838
:1008C000FFF73CFEF8E7002001A9FFF75BFE8AE78F
:1008D000FFF7A8FD0823D7E709F0F7FD0723D3E7C3
:1008E0000123D1E7002001A9FFF7C0FE7BE700202C
:1008F00001A9FFF773FE76E7008000504FF4002255
:10090000034B5A66012203F580439A62704700BF89
:1009100000900050F8B504468020FFF745FF0328FB
:1009200000F087804FF40022424B02215A6645F6C0
:100930000E03414AC2F88030404B9962012103F511
:1009400080539962936DD903FCD4D4E900131B053D
:1009500043EA0163E17B94F820500B43217BE77E5F
:1009600043EA0143617B6D0143EA0133A17B43EA22
:10097000811313619169D4E904031B0643EA806380
:1009800001F000410B43A17E94F823000B43217E2C
:1009900043EA0143617E43EA01239361136AE669F6
:1009A00023F00D0394F8221043EA8703002E2DD183
:1009B0001362966A94F8213045EA031326F0330552
:1009C0002B4343F0010393621D4D1B4B9A6D35EA97
:1009D0000202FBD10222194DAA621A659A6D5200D9
:1009E000FCD41A69A56822F4700242EA05521A6121
:1009F0004FF00042114B9A6119B9022203F580535E
:100A00009A6278B901220F4B9A620BE0334343F0AC
:100A100008031362936A23F0330303432B4343EA2F
:100A20004103936294F824301BB1034B064AC3F888
:100A30008020F8BD0090005000C0005000D0005051
:100A40000300014000E00050F1A7FFFF014B93F9C4
:100A5000000070477B230020014B1880704700BFC7
:100A600058100020B0F5207F10B50C4642D008D8B1
:100A7000B0F5007F33D003D888B1B0F5C07F0ED079
:100A800010BDB0F5607FFBD11F4A4C1ED2F88030FC
:100A900023F0300343EA0413C2F88030F0E709F092
:100AA0001CFD09F0E6FD4FF48031184B164A19671A
:100AB000136F013C23F4704343EA04331367FFF7D9
:100AC00081FC0446FFF7B4FCC0F10201204609F0A6
:100AD000CAFD00F02DF8BDE81040FFF755BE0A4AE8
:100AE0004C1ED2F8903023F0F85343EA0463C2F866
:100AF0009030C5E7044A4C1E136F23F4806343EA29
:100B000084231367BCE700BF0080005000900050B2
:100B100008B50121022000F01DF809F0DEFC09F003
:100B2000A8FD4FF48032014B1A6708BD00900050B9
:100B300008B54FF4C07009F0D8FCBDE8084004497E
:100B4000884294BF012102214FF42070FFF78ABF31
:100B500080F0FA02F8B504461C4BD3F88420D10685
:100B6000FBD4D3F88430C3F381139C422CD0FFF71D
:100B70000FFC012C064602D1214609F074FD09F054
:100B800092FD4FF00072124B07465A66204609F05C
:100B90009AFD4FF480630D4D621E93402B676B6E80
:100BA0009A0103D4D5F884309B060AD5384609F05B
:100BB0007EFD022C08D13046BDE8F840002109F046
:100BC00052BDD5F88430EAE7F8BD00BF00400050C0
:100BD0000060005010B50C4608B9FFF7D9FB074B71
:100BE00021461B783BB1064B984204D80120BDE852
:100BF0001040FFF7AFBF0220F9E700BF7C230020C1
:100C0000005A62024FF0004238B5264B26495A6618
:100C100001224A604AF6CD3103F50B235D6C19645D
:100C2000154030BB9968C9070BD4002401221F4B23
:100C30005A6015B11E4B1F4A1A640AF0EFFE204697
:100C400038BD1A498A601C4AD96ACC0705D490423B
:100C500001D10724EAE70130F6E79042E5D1F8E751
:100C60000132DC6A14F0080406D08A42F8D1072465
:100C7000DFE700221049F4E78A42F8D020220B4B2C
:100C80000B495A620122A3F580539A6023460A4A0F
:100C9000486A800603D49342E9D00133F8E79342CF
:100CA000C7D1E4E70090005000500950006009509F
:100CB000004009503254FFFF40420F004FF0004205
:100CC00038B5174B174C5A66012203F50C235A60AE
:100CD0004AF6CD33656C2364437893401343124A3C
:100CE000D363C3788178A2689B0043EA011322F0A2
:100CF00074021343A3600279837943EA02232361D8
:100D00004279C37943EA022363610078FFF77AFFEF
:100D1000EB0744BF054B23640AF080FE012038BD79
:100D20000090005000400950004000503254FFFF36
:100D3000F0B5114A114C124E00F00105E3695F074E
:100D400013D40DB9334213D103EA00078F4207D100
:100D50000B4A1A40002A0CBF00206FF00100F0BDC2
:100D6000013AEBD16FF00200F9E74FF0FF30F6E700
:100D70006FF00100F3E700BF809698000000035079
:100D8000020001004FF4003238B50F4B0F4C9A6649
:100D900041F671330122E569E3630D4B0021DA600E
:100DA000022360612120236105F48035FFF7C0FF35
:100DB00010B92120FFF7BCFF0122064BDA600DB10C
:100DC0000023E36338BD00BF0090005000000350D3
:100DD00000100350002003502DE9F04F01274FF47D
:100DE000402530262C4CDFF8BCC0DFF8BCE0CCF846
:100DF000047044F8205000244FF4003506FB00E650
:100E0000F46534663467254CDFF8A090A56641F69A
:100E1000713504F51C34D4F81C80E563E568DFF80F
:100E200090A03D43E56007FA00F04BB9E26818F482
:100E3000803F22F00102E26029D10020BDE8F08F5E
:100E400001F5005505EA09056D1A9D4228BF1D46AA
:100E50006161D4F81CB0AF081BF0040F19D1013F39
:100E60003F0147F060577766B266C6F86CA0CCF8D1
:100E70002400DEF834703842FBD0094F29447863EF
:100E80000427CCF828002A4427615B1BCDE7E363E5
:100E9000D3E74FF0FF30D1E70040045000900050FE
:100EA00000200450001004500000045000E0FFFF38
:100EB00018000350F8B5C3690446042B68D809F03C
:100EC000F2FB344B344A596E4FF480333348536647
:100ED00002F5E622C2F80006C90300F50070C2F868
:100EE00004065CBFA2F5E42253662D4B2D4AE5694A
:100EF0001A6022685A602C4A04F1080303EB85014A
:100F0000121B8B4202EB03001FD1284600216368AD
:100F1000264CF3B9224A41EA056191601368516891
:100F200092684B405340002282422CD144F8223038
:100F3000BFF34F8F1E491F4BCA6802F4E062134390
:100F4000CB60BFF34F8F00BFFDE753F8046F06601F
:100F5000D7E70022D3F800E004EB80079E68BC4688
:100F6000C6F39906B24207F1040706D311441044B0
:100F70005A68012ACED05B68CBE75EF82260013266
:100F8000CCF80060EAE754F8221001324B40CBE77E
:100F9000F8BD00BF0080005000900050004C00A041
:100FA000004C00B0DEC0ECE5044C00B00C4C00B0CE
:100FB00000ED00E00400FA054FF480311A4B30B523
:100FC000586E03F58053596603F5E623D3F80436CB
:100FD00003F1C042A2F58042B2F5606F01D9002052
:100FE00030BDC20358BF114A03F1805358BF516648
:100FF00018680F4A19469042F1D11A69501DB0F590
:10100000007FECD203F11400940000EB8200002278
:10101000834205D10B195869831A58425841DFE7BA
:1010200053F8045B6A40F3E70080005000A00050D2
:10103000DEC0ECE538B5104B10495A6E4FF48033E2
:10104000D20358BF0E4A4B6601F5E621D1F804568B
:10105000044658BF536640B1FFF7AEFF40B10020D1
:1010600005F180556B68236038BD4FF4E020FBE745
:101070004FF47E00F8E700BF008000500090005061
:1010800000A000504FF48032064B5A6603F5E62369
:101090005B69C3F38512827003F03F021B0B427041
:1010A0000370704700900050014B986CD96C7047EA
:1010B0000080E00F024B1868C0F30740704700BF84
:1010C0000080E00F38B50446054D0AF0BAFC0FCC9D
:1010D0000FC594E8030085E80300002038BD00BF79
:1010E000B012002047F6FF739A42F0B56FD0022984
:1010F0006FD8394B5B5C012B6BD8384DDF0005EBAB
:10110000C30415F83330A178012B13D10025E07802
:10111000401AA84202D80844C0B2F0BD431B66681A
:10112000A0EB530336F913609642D4BF1D4603F17A
:10113000FF30EEE760680028EFD0B0F9004094423D
:1011400004DBB0F902409442B8BF144683883D44A2
:10115000FF2B19BFC8224FF0280CB0F90620B0F9B8
:1011600008C0A2EB04030CBF0126002693FBFCF38E
:1011700033446E781BB29E4201DD002B01DA731EF0
:101180001BB24FF47A7C01339BB2071D5D1E2DB25A
:101190004FEAC50E00EBC505EA88AD689E4214FB18
:1011A000025222EAE27202F15C02B2FBFCF204DDBE
:1011B00037F8335001339542E8D200EB0E0398889C
:1011C000904228BF1046884238BF0846A4E7FF2057
:1011D000A3E70020A1E700BF80C10000B0120020FB
:1011E00008B50448FFF76EFFBDE8084001200AF08B
:1011F0004CBC00BF10CB0000004870475A100020C4
:1012000060B5054619B10139B1F5806F0FD2094EAD
:10121000F06810F48030FBD143EA012312072B431E
:1012200002F08052134343F00043736060BD01201D
:10123000FCE700BF0020025C0122054B9A60DA68DF
:10124000D203FCD4D86820F00F000004000C7047D3
:101250000020025C014B1868704700BF0010025C60
:10126000044B1A6842F480721A601A6822F4807281
:101270001A6070470010025C024B186B00F00E0001
:10128000704700BF0010025C0322024B1860196116
:101290005A6370470000025C82B01FB507930A9B37
:1012A00004AC8B4228BF0B4604E907001048D1006C
:1012B000079948BF03330160099948BF23F003032E
:1012C00023F0704301F0E041194341F00051816087
:1012D000002102F0E042019C1A4342F00052C1603A
:1012E00004618261416304B0BDE8104002B0704700
:1012F0000000025C3F22034B1A631022DA610322D2
:101300009A6370470000025C024AD36B9B07FCD4CF
:10131000704700BF0000025C044B9B6A13F0240F6F
:1013200014BF012000208000704700BF0000025C55
:1013300008B5FFF7F1FF064BDB6B23F47F4323F087
:10134000EF0303431EBF0122024BC3F8FC2F08BD6D
:101350000000025C00F0FF3F4368182B0AD0202BEE
:101360001DD0102B2BD1174BD3F80434DB010AD43A
:1013700001207047134BD3F804349A01F8D50B6859
:1013800043F008030B6003680F4A934210D10B68C7
:1013900043F040030B600023436000207047094B7B
:1013A000D3F804345B01E3D50B6843F00403E9E7A9
:1013B000064A9342F1D10B6843F08003EAE7072025
:1013C000704700BF0000025C7E2300207D230020C8
:1013D0000B4607B50749D1F80414C90708D5002101
:1013E00000920246084600F033F803B05DF804FBB3
:1013F0000120FAE70000025C0B4607B50749D1F867
:101400000414C90708D5009201210246002000F00B
:101410001FF803B05DF804FB0120FAE70000025C4E
:101420001FB50A4CD4F8044464070CD5CDE900126A
:101430000021069C0222CDE902340346084600F052
:1014400031F804B010BD0120FBE700BF0000025CD2
:10145000F0B51C465B6815468DB01A07129E1AD16E
:10146000CBB17268934216D10C4B0D4A53F82170E0
:1014700009AB07CA83E807001A462946CDE90533B8
:10148000CDE90333CDE90163009447F4807009F09E
:101490002AFA0DB0F0BD0720FBE700BFB4C1000081
:1014A00084C100002DE9F0418CB0DDE9127C7C683C
:1014B0001E46DDE9143E200728D13CB3DCF80400C9
:1014C000844223D15868102820D1DEF80400102867
:1014D0001CD10F4809AC50F821500E4951F8228018
:1014E0000D4A07CA84E8070045EA0800224631464B
:1014F000CDE9054ECDE90344CDE901C4009740F0A4
:10150000300009F0F0F90CB0BDE8F0810720FAE7EF
:10151000B4C1000090C1000084C100000138C0B215
:1015200006289ABF014B185C0020704797C2000044
:101530000138C0B206289ABF014B185C00207047E2
:1015400090C200002DE9F04FBBB0804603A880E8B0
:101550000E001E467A4B1746D3F800248A46D4065E
:101560009DF8109103D401203BB0BDE8F08F08F145
:10157000FF32062A6DD8DFE802F004191F252B314F
:101580003700D3F80C34D807EDD501230793002397
:10159000B9F1010FCDE908332CD0B9F1020F5AD0BF
:1015A0004046FFF7C5FF6324054631E0D3F80C340D
:1015B0009907D8D50223E9E7D3F80C345A07D2D5D6
:1015C0000423E3E7D3F80C341B07CCD50823DDE76D
:1015D000D3F80C34DD06C6D51023D7E7D3F80C3486
:1015E0009C06C0D52023D1E7D3F80C345806BAD5D1
:1015F0004023CBE7524BD3F80C34D903B3D5079B28
:10160000404643F4C0630793FFF788FF0324054671
:1016100013230422009307A94FF0005312A809F0E6
:1016200020F95146009446F000533A4609F019F962
:101630004FF0000B04465E46DDF814A1469B9B4527
:101640002CD1B9F1030F42D14046FFF771FFB842E8
:1016500037D0072088E73A4BD3F80C24D20382D541
:10166000D3F80C349B037FF57EAF97B17C423946AB
:10167000374604F00304079B404643F4E0630793B6
:10168000FFF74CFF24023E4605460F4644F0A304F4
:10169000BEE704210DF1200A0C46ECE7DAF804203D
:1016A00016444AB1032300932046DAF80830DAF8EA
:1016B000001009F0D6F804460BF1010B0AF10C0AF0
:1016C000BCE7404609F02FFA01383042C1D17EBB59
:1016D000032332462046009308A9334609F0C1F897
:1016E00004260446103C204609F0D0F82046314636
:1016F00009F0D7F8489BAB4228BF2B461C46EBB1FC
:101700000023224600934799499B0AA809F0A9F8AB
:101710002A1B04D000231946009309F0A2F81038C0
:1017200009F0B4F812A80AA909F090F800201BE704
:1017300016F0030618BFC6F10406D3E70AA8E7E7C8
:101740000000025C08B5FFF78BFD0122014B1A7007
:1017500008BD00BF7F2300204FF40052034B002040
:101760009A660322C3F86022704700BF00900050C1
:1017700008B5FFF76FFDC30708D5FFF77DFD062805
:1017800004D00A28F5D1FFF7DDFFF2E74FF400524D
:10179000034B00209A660322C3F8602208BD00BFF5
:1017A00000A0005007B56B46054A1068516803C396
:1017B0006846FFF783FA002003B05DF804FB00BF22
:1017C0009EC2000030B58BB06C46174D0FCD0FC4D4
:1017D0000FCD0FC495E8030084E80300134BD3F842
:1017E0004C2112031CD5A3F5FE431C884FF6FF7352
:1017F0009C4208BF8C248DF81940FFF727F920443C
:1018000080F308008DF818000948FEF7F7FD6846D8
:10181000FFF780F83220FFF71FF900200BB030BD32
:10182000D3F85041E4B2E6E7A8C200000080E00F20
:1018300000F0490210B5154BADF5087D03AC0FCB98
:1018400084E80F002C22002107A809F036FDFF23B1
:101850004FF4947200213EA88DF81D3009F02DFD43
:10186000482200210DEB020009F027FD682200212B
:1018700024A809F022FD009424AB12AA3EA907A8CF
:1018800000F0E2F80DF5087D10BD00BFD0C20000E9
:101890000122044B1A700023034A1370034A137089
:1018A000704700BF82230020812300208023002076
:1018B000002238B5134B144C1A700122134B1A70C6
:1018C00023689A78EAB1DA78DAB11A78510707D53D
:1018D000986A09F01DFB18B14FF4C03000F0B4F95C
:1018E00023681A7892070CD55D6809F0F9FA8542E9
:1018F00007D923684FF4C030596ABDE8384000F07A
:101900007BB938BD82230020E01200208123002013
:1019100007B5024601200B460649087006490748EC
:101920000968009106490068096800F0C9FB03B026
:101930005DF804FB80230020DC120020D812002078
:10194000E0120020044A054905482023126809686E
:10195000006800F07BBB00BFD0120020D412002032
:10196000D8120020094B1A68D37892782AB1002B3C
:1019700041F20C0018BF0020704741F20C0240F207
:101980000570002B08BF1046704700BFE012002012
:1019900008B501F065F8FFF715FFFFF703FFFFF744
:1019A0001FFCBDE80840014809F09CBCC81200209B
:1019B00010B5234B234C18681B7992B08DF80C306E
:1019C00023880290ADF80D30A37868468DF80F306B
:1019D00009F096FC41F60833ADF810309DF806305A
:1019E000BDF80420C3F300038DF8183040F602233D
:1019F000ADF8283000230098ADF816208DF82A3075
:101A0000CDF8120001F010FA01F014FA204603217B
:101A100001F016FA01F01CFA01F000FA112102A8F7
:101A200009F082FC03210AA809F085FC012009F0D5
:101A300089FC002840F2017008BF002012B010BDE0
:101A4000E0C20000E6C2000070B5134C134E2060E7
:101A50001348144D016014490A60144A1360049A33
:101A6000134B1A6033780BB109F048FC2B78002B2C
:101A7000F8D0104B1B784BB123689A784AB1DB78C9
:101A800040F20570002B18BF002070BD40F20370BB
:101A9000FBE740F20570F8E7E01200208223002007
:101AA000D812002081230020D4120020D012002060
:101AB000DC12002080230020F0B5421ED11C03461A
:101AC00085B018D86E460D4C04F1100735462068D5
:101AD0006168083403C5BC422E46F7D104A90F3310
:101AE00011F8014D12F8010F844204D19A42F7D146
:101AF000012005B0F0BD0020FBE700BFEAC20000F6
:101B0000F0B50368044603F16043B3F5004F4FF0AE
:101B100000009FB029D8826A636816699E4224D863
:101B2000B3F5002F21D8656B06F14003AB425ED8B8
:101B3000B5F5002F5BD82846FFF7BEFF002856D02A
:101B4000284609F0B3F980B16B6973B1022B0ED14D
:101B5000AB69C4F1040119444FF0FF32204600F094
:101B6000F9FD244BC31A584258411FB0F0BD40F252
:101B7000046328460293FFF79FFF08B90020F4E7AB
:101B800000235F6B3846FFF797FF0028F6D0A6F1D9
:101B900050039F42F2D8284603A909F08EF9002885
:101BA000ECD0039DAE42E9D8AC42E7D8B5F5002FA2
:101BB000E4D804A800F08AFE21462A1B04A809F0F4
:101BC000EDFA04A809F0ECFA00F094FE044600F0E7
:101BD00095FE23460090294605F1200204A800F056
:101BE000FBFD02900298B0FA80F04009BDE70120A9
:101BF000BBE700BFE320BBDE30B54FF0FF3289B05A
:101C000005460C4600F0A6FD0D4B984215D140F25A
:101C1000022000F00DF91C22002101A809F04DFB63
:101C2000084B29466846009308F04EFD6846211F80
:101C300008F04AFD6846FFF73DF9002009B030BDC5
:101C4000E320BBDE0100064310B5044688B040F235
:101C5000022000F0EDF81C22002101A809F02DFB64
:101C6000054B21466846009308F02EFD6846FFF7B5
:101C700021F9002008B010BD0000034310B5FFF7A4
:101C800019FA01280DD1214B04205A6E4FF48023FC
:101C90001F494B6601F51041086250035CBF1D4AA5
:101CA00053661D4BD3F88420110606D44FF400620E
:101CB0001A67D3F88420D206FBD409F03CF900F06F
:101CC000A1F809F08AF809F08AF818B14FF4017008
:101CD00000F0BAF8FFF7AEFD044609F082F834B917
:101CE00040F2012000F0B0F84FF4017009E040F23A
:101CF00003739C42F4D0A4F20574012CF4D840F292
:101D0000032000F0A1F8002010BD00BF00800050AB
:101D10000090005000A0005000400050012337B553
:101D20008DF806308DF80730314BD3F894305A06D1
:101D30000FD500F09DF8A0F2022080B2072808D845
:101D4000C923C340DB0742BF00238DF806308DF85E
:101D500007304FF490335B68013308D14FF40270C1
:101D600000F066F800238DF806308DF807309DF8F6
:101D7000073063B14FF49030FFF7C2FE8DF80600D4
:101D80009DF806301BB94FF4027000F051F89DF831
:101D9000063053B34FF400424FF0FF31154B9A66B3
:101DA00003F1744319664FF6FF7159660021124B17
:101DB000C3F8D010BFF34F8FBFF36F8F08250F4CC0
:101DC000C4F88050BFF34F8FBFF36F8F4FF4403094
:101DD0000B490861C4F88051C8604FF4903001F19C
:101DE00040618A66986009F0AAF803B030BD00BF70
:101DF000004000500090005000ED00E000E100E0E5
:101E000000A000444CF23C32014B5A80704700BFA6
:101E1000000000204AF6C030044B5B8823F00F031B
:101E20009BB21B1A58425841704700BF0000002067
:101E3000044A08B51080FFF7EDFF10B94FF20F0309
:101E4000538008BD0000002008B5FFF7F1FFBFF385
:101E50004F8F0549054BCA6802F4E0621343CB601B
:101E6000BFF34F8F00BFFDE700ED00E00400FA056F
:101E70004FF20F01084B5A888A4201D118887047E7
:101E80003AB91B8840F20220012B18BF4FF40070B2
:101E900070474FF400707047000000204FF400328C
:101EA00008B5044B9A66FEF76DFFB0FA80F0400962
:101EB00008BD00BF00900050072BF8B506460F463E
:101EC00014461D4601D90020F8BD01212020FEF74F
:101ED0003BFC01212120FEF737FC8CB144EA0603CC
:101EE0009B07F0D14FF40032064B31469A662846E4
:101EF00023463A46FEF770FFB0FA80F04009E3E768
:101F00000120E1E70090005030B5024600230C2587
:101F1000054905FB03F460180C59944203D00133C2
:101F20000C2BF6D1002030BD94C30000F0B5002387
:101F3000082787B0CDE9013315463B46009704AA30
:101F4000044609F099F841F203039842064623D16A
:101F500094F8433053B13A46E06C04A909F01EF9F5
:101F600004AA3B461146A06C09F007F9059A049BA8
:101F70006A6094F843202B6052B9094A934207D013
:101F8000084A934204D00822E06C04A909F006F93B
:101F90006B68236500236365304607B0F0BD00BF62
:101FA000F70A0AF7FC0404FC2DE9F04799465B6840
:101FB00004460F469046002B3ED011F003033ED15D
:101FC0009B6A006E1B6981181D1DA9421BD31C331F
:101FD000984218D2A842024638BF2A46994294BF76
:101FE000C2EB010AC2EB030A101A3E18C5F16800E1
:101FF000104431465246204409F067F95246FF2109
:10200000304609F05AF9226E0E4B9A420BD80E490F
:1020100002EB0800884206D99B1AFA58C4F88020BF
:102020004FF0FF32FA50D9E9003542463946206E6A
:10203000A847236E434423660020BDE8F08741F2A1
:102040000200FAE704800100078001002DE9F04159
:1020500000254FF0FF3704468846164603F020035C
:1020600080F842301822FF21C0E91855A0F84050EE
:1020700080F84350A0F8445080F84650C0F888706B
:10208000683009F01AF988222946C4E91286C4F892
:102090008070C4F8847004F1900009F00EF9074BC9
:1020A000C4F82071C4E9463584F8245116B130468D
:1020B00000F00CFC0020BDE8F08100BF0001010130
:1020C0002DE9F04FA5B09946CDE911230023044630
:1020D0000E464FF001082E9D1393139978E094F863
:1020E00046300C2B70D8062B4BD908FA03F212F4A9
:1020F000286F40F00B8212F4885F40F0B7810A2B02
:1021000066D1DFF8B4A3636D072B00F228814FF08E
:10211000080B382316AA2046CDE90188CDF800B077
:1021200011A908F0A9FF41F203030A900A9A9A4202
:1021300000F03F810A9B5BE0A3F10E02052A00F24A
:102140008F82DFE812F000030600F500320232024F
:10215000FE020027636D0F2B00F28A80102314AA61
:10216000009320464023CDE9018711A908F084FFA0
:1021700041F203030890089A9A4200F0CB80089B32
:1021800036E0013B052B27D8DFE813F074006E0022
:102190000600C001DC0078010127636D072B00F207
:1021A000DE80082314AA009320464023CDE901775E
:1021B00011A908F061FF41F203030B900B9A9A42B8
:1021C00000F021810B9B13E0A3F10D02062AB3D985
:1021D000494584D3002065E014AA204611A9FFF7E1
:1021E000A5FE41F203020590059B934208D0059B92
:1021F000049341F20303049A9A423FF46EAF50E015
:10220000159A1499226500226265A94A914240F00C
:102210000581022284F84620EAE7082314AA0093E5
:1022200020464023CDE9018711A908F025FF41F29E
:1022300003030690069A9A4201D0069BD8E7149BA6
:1022400003F07F43B3F1407F05D0132384F8463079
:1022500041F20903CCE7159BD90706D594F8423023
:1022600043F0010384F842300027636D072BD4D973
:10227000012300E1204614AA11A9FFF757FE41F2FD
:1022800003030790079F9F420FD0079F41F203036C
:102290000497049A9A423FF420AF049B0BB10023A9
:1022A000F370049825B0BDE8F08F1498FFF72CFE6A
:1022B00028B9132341F2080784F84630E6E743794A
:1022C00094F824219A4205D9132341F20E0784F889
:1022D0004630DBE7026877498A4205D00289D20797
:1022E00048BF013384F8243194F84230D9070DD522
:1022F000028994F84330920706D53BB1132341F28B
:10230000010784F84630C1E7002BF7D0037984F841
:102310004630BBE7D4F848A000F0F4FA802302214D
:10232000CDE9000315AA0123504600F02BFA11E76E
:10233000226D0123A265002284F84330E26584F80F
:102340004630CAE600213C2215A81491012708F066
:10235000B4FFD4E91432934204D884F8467041F2B1
:10236000030345E7009314AA40232046CDE90177F3
:1023700011A908F081FE41F203030990099A9A42DB
:1023800001D0099B34E70DF1500C06F108030DF163
:10239000680E624603CA724518605960944603F19C
:1023A0000803F6D110681860337843F001033370E6
:1023B000CFE7337843F004033370179BB36273782D
:1023C0005F071CD50020236DCDF850A0C4F88430E1
:1023D00094F84530606643F0020384F84530EF68B6
:1023E0006FB104222B6814A9B847606E2B685A4657
:1023F000EF6816A90830B847636E103363660B2385
:1024000084F846307FE63378159A43F00203337040
:10241000149B7360236D083B73622AB1132384F805
:10242000463041F20103E3E6042384F8463094F891
:102430004530626643F0010384F84530ADE604237D
:1024400014AA009320464023CDE9017711A908F092
:1024500013FE41F203030C900C9A9A4201D00C9B9C
:10246000C6E6226D149B042A01D923660127636DF9
:10247000032BE4D9092384F8463070E70023636610
:1024800007235CE79F4251D89F4228BF1F46402345
:1024900014AA2046CDE90188009711A908F0ECFDA7
:1024A00041F203030D900D9A9A4210D00D9B9FE6C6
:1024B000EB17A603F90707F9EB17A65E402F28BF15
:1024C00040279F4228BF1F4627F00307DFE794F805
:1024D00046B0BBF1070F2FD0042FC7F1040A88BF05
:1024E0004FF0000A14AB5246FF21D81908F0E5FE60
:1024F000BBF1090FBA442DD12B465246204614A9F0
:10250000FFF752FD0D900D9B002BCFD1D4E9147332
:102510009F427FF6ADAEFF1ADDE912329B1A94F8A6
:102520004020032F1344ADD9032BC7D8204611A94F
:1025300008F081FD00235BE6D5F808A0BAF1000F92
:10254000CAD02B683A46606E14A9D047636E3B44EC
:102550006366DBE7BBF1040F1DD173789807D5D50F
:10256000EB68002BD2D0626E042A0BD80AEB020370
:10257000062B07D915AB9B1A1A68C4F884204FF0B4
:10258000FF321A60EF682B685246606E14A9B84794
:10259000636E5344DCE7BBF10B0FB7D17378590777
:1025A000B4D5EF68002FEED1B0E700218A6A496BFD
:1025B0001269503A91423FF634AF112B0FD194F883
:1025C0001831002B7FF454AE41F206030E930E9A9D
:1025D0009A4202D1132384F846300E9B08E694F801
:1025E0004430002B7FF444AECDE90133402314AADC
:1025F0000093204611A908F03FFD41F203030E901D
:102600000E9A9A42E9D1E06C08F0CAFD94F81831AC
:10261000A3B104F1B4030093E06C04F194031CAA89
:1026200014A900F0D9F80E900E9BA3B10023F3700B
:10263000132384F8463041F20603D9E5D4F84CA0C0
:1026400000F058F9074600F059F93B4600901CAAE3
:10265000504614A9E5E70123F37084F8443007E6F7
:1026600000234FF00408CDE9013314AA402320468B
:10267000CDF8008011A908F0FFFC41F203030F9090
:102680000F9A9A4202D00F9B04930AE6D4F888204E
:102690002E4B9A4205D0132384F8463041F20503AD
:1026A000F2E70123F37094F84530DA0707D5EF68B5
:1026B0002FB1424640462B6804F18401B84794F894
:1026C00045309B0707D5EF682FB104222B681046D1
:1026D00004F18401B847236E63B36F6857B34FF0BA
:1026E000FF3304F180080422414610A8109308F03B
:1026F000BAFD20B1042241462B681548B84704F1C1
:1027000068090422494610A808F0ADFD90B10023E5
:102710009B6A1422D3F8108004F16C0108F10800C0
:10272000D5E90037B847D5E900370422494608EB18
:102730000200B8470123B3700E2384F8463000230B
:10274000A2E70023F37041F20700ABE5E320BBDE14
:102750000480010030B50824094B00255C66012483
:1027600003F5FE235C6001449D601A61DC608842D1
:1027700001D1586A30BD10F8012B1A62F7E700BF8B
:1027800000900050F8B516464FF400521D46114B0C
:1027900004469A660222C3F860220F4608F03FFA08
:1027A000DDE90612204608F03EFA002384F838706E
:1027B00063623368C4F839307368C4F83D30B36875
:1027C000C4F841302B0C6DBA84F84530A4F846505B
:1027D000F8BD00BF009000502DE9F041B0B01446A4
:1027E0000D461A460646369B002867D0002965D05C
:1027F000002C63D0002A61D0002B5FD006214FF45B
:10280000005006912F4920AF88660320C1F860026E
:102810000021BE4609910C910F9105F12008F44664
:10282000286869680835ACE803004545E646F6D1F6
:102830000DF1A00C04F1200E654620686168083493
:1028400003C57445AC46F7D10DF1400C654602F165
:10285000200E2C4610685168083203C47245254684
:10286000F7D118AC03F120052246186859680833DF
:1028700003C2AB421446F7D14023CDE90A73089353
:1028800020230AAA0E9303AB07CACDF81CC00D96ED
:1028900083E8070007AB93E807008DE807000DAB5E
:1028A0000ECB094808F0F5F80690069B40F204604C
:1028B000002B08BF002030B0BDE8F08140F201607D
:1028C000F9E700BF00900050BCC100004FF4005277
:1028D000074B10B59A6602220446C3F8602208F03E
:1028E00062FC2046BDE81040002108F060BC00BF3B
:1028F00000900050004870474CE3070000487047C4
:102900006CE307000048704786E207002DE9F347B3
:102910001446DDE90A920D461F4600284DD14CB3FE
:1029200013683F2B2AD8516851B32549002F14BF93
:10293000B846884603F03F061B19136022BF536850
:1029400001335360FEB93F2C0ED9A3092A460093E8
:1029500041463B46002008F043FC24F03F031D4461
:1029600004F03F0434B100262246294609EB060054
:1029700008F0ABFC002002B0BDE8F087B846D9E70C
:10298000DFF83C80D6E7C6F1400A5445ECD329462F
:10299000524609EB060008F098FC012326440093F8
:1029A0004A463B4641460020A6F1400408F018FC88
:1029B0003F2C5544D6D9B846C7E70248DBE700BFED
:1029C00064C4000080AFFFFF2DE9F0411746146892
:1029D00086B01E46E3008DF80F3063098DF80E3087
:1029E000630B8DF80D30630D8DF80C305368054680
:1029F000DA0002EB54728DF80B2004F03F045A0900
:102A0000372C8DF80A204FEA53324FEA53538DF892
:102A10000920884694BFC4F13802C4F17802CDE998
:102A200000178DF808300D4903460020FFF76EFFB0
:102A300008222B460020CDE900870DEB0201FFF7AD
:102A400065FF284605F1200350F8042B984246F80C
:102A5000042BF9D1002006B0BDE8F08124C40000A9
:102A600010B5234CFDF74AFFFEF752F8236F23F011
:102A7000070343F00303236707F000FE1D4B00200C
:102A80009B6A9B075EBF01221B4B9A62D4F82031E0
:102A900023F0030343F00203C4F82031D4F82431B7
:102AA00023F0070343F00203C4F82431D4F8403183
:102AB00023F0030343F00203C4F84031D4F860313B
:102AC00023F0030343F00203C4F86031D4F840322A
:102AD00023F0030343F00203C4F84032D4F8003279
:102AE00023F0070343F00203C4F8003210BD00BF17
:102AF0000080005000C0005000E0005053B94AB9B7
:102B0000002908BF00281CBF4FF0FF314FF0FF30F5
:102B100000F082B9ADF1080C6DE904CE00F006F8C2
:102B2000DDF804E0DDE9022304B070472DE9F04F41
:102B3000099D0C46002B4DD18A420F46844696468D
:102B4000B2FA82F360D94BB102FA03FEC3F120025C
:102B50009F4000FA03FC20FA02F217434FEA1E4698
:102B60001FFA8EF44FEA1C42B7FBF6F106FB117711
:102B700001FB04F042EA0742904208D91EEB020230
:102B800001F1FF3702D2904200F231813946121A28
:102B90001FFA8CFCB2FBF6F006FB102200FB04F4DB
:102BA0004CEA024C644508D91EEB0C0C00F1FF32D4
:102BB00002D2644500F21E81104640EA0140ACEBAF
:102BC000040C002125B12CFA03F30022C5E90032E0
:102BD000BDE8F08F8B4205D90DB1C5E90001002198
:102BE0000846F5E7B3FA83F100294DD1A342C0F0BE
:102BF000F380904280F0F080064623460846002D80
:102C0000E6D0C5E90063E3E7002B40F0A3808A1A11
:102C10004FEA1E471FFA8EF60121B2FBF7F407FBBD
:102C200014204FEA1C4242EA004206FB04F09042A4
:102C30000FD91EEB020204F1FF382CBF4FF001093F
:102C40004FF00009904203D9B9F1000F00F0CC8099
:102C50004446121A1FFA8CFCB2FBF7F007FB102255
:102C600000FB06F64CEA024C664508D91EEB0C0C3C
:102C700000F1FF3202D2664500F2B3801046ACEBA1
:102C8000060C40EA04409DE7C1F120068B4004FA9F
:102C900001FE22FA06F720FA06FCF4408A401F43A0
:102CA0004EEA0C0300FA01FE4FEA17484FEA1349B7
:102CB0001FFA87FCB4FBF8F008FB104449EA04440F
:102CC00000FB0CF9A1450ED93C1900F1FF3A2CBFCD
:102CD0004FF0010B4FF0000BA14503D9BBF1000FE2
:102CE00000F08B805046A4EB09041FFA83F9B4FB73
:102CF000F8F308FB134403FB0CFC49EA0444A44525
:102D000006D93C1903F1FF3801D2A4457BD84346CC
:102D100043EA0040A4EB0C04A0FB02984445CC46D7
:102D2000434602D306D1CE4504D20138B9EB020C9A
:102D300068EB0703002D6CD0BEEB0C0264EB0304C0
:102D400022FA01F304FA06F6CC4000211E43C5E93D
:102D500000643DE702FA03FEC3F1200104FA03F226
:102D600000FA03FCCC404FEA1E4720FA01F11FFA9B
:102D70008EF6B4FBF7F00A4307FB1044110C41EA4E
:102D8000044100FB06F48C420ED91EEB010100F158
:102D9000FF382CBF4FF001094FF000098C4202D9D7
:102DA000B9F1000F2CD04046091B92B2B1FBF7F4E9
:102DB00007FB141142EA014204FB06F1914207D9D4
:102DC0001EEB020204F1FF3801D291421ED84446A4
:102DD000521A44EA004120E7861A64EB03030120FB
:102DE0000DE7F44402384AE7023C724431E7023905
:102DF0007244CCE6F4440238DFE602383C4472E721
:102E000002387144D0E7023B3C4481E7023C724403
:102E1000DEE72946DCE600BF704700BF014808F046
:102E2000C3BA00BFE4120020014808F092BA00BF04
:102E3000E4120020014800F053B800BFE412002063
:102E40000A460146014800F07BB800BFE4120020AA
:102E5000014800F0B5B800BFE41200201FB50A79A0
:102E6000064B02920A6808310192022200920CCBB2
:102E700008F07AFB05B05DF804FB00BF90C40000C9
:102E800030B50B7985B00333029301F1440301930C
:102E900002230C460546114A009314310CCA08F06F
:102EA00063FB238A04F12C010293E3682846019313
:102EB000237A009394E80C0008F056FB0546237A29
:102EC000A4F845002279216884F8443004F14700D1
:102ED00008F0FBF9284605B030BD00BF88C40000EB
:102EE00038B50546124B134C94E8030083E8030001
:102EF00019462846FFF7B2FFD4E9020110220E4B13
:102F000083E80300194628461A72FFF7B9FFD4E98F
:102F100004010222094B18341A7283E80300DC60B2
:102F2000194628461A82BDE8384008F01BBA00BF8F
:102F3000E8130020A4C400009013002064130020B4
:102F4000F8B504460D4B0E4D0F46D5E9070183E851
:102F50000300194620461646FFF780FFD5E9090110
:102F60000222084B1A7283E80300DF6019462046EC
:102F70001E82BDE8F840FFF783BF00BF4413002066
:102F8000A4C40000EC12002010B50C4630B907F0C4
:102F90002BFF034B186023600423A380002010BD87
:102FA0003816002010B50C4630B907F01BFF034B54
:102FB000186023600423A380002010BD3C1600206D
:102FC0002DE9F74306466D464FF00809404C414B4A
:102FD000414F94E8030083E8030019463046FFF7A9
:102FE0003DFFD4E9020187E8030028463B4987F802
:102FF000089008F0B2F995E8030007F10C0383E8A4
:10300000030039463046FFF73BFFD4E904010C23A7
:103010004FF00208324F87E80300284631493B72DF
:1030200008F09BF995E8030007F10C0383E803001F
:1030300039463046FFF724FFD4E906012A4B2B4AD4
:1030400083E803001946304683F80880DA60A3F865
:103050001090FFF715FFD4E90801254B254A264FAC
:10306000DA60012283E80300194630461A8283F8A9
:103070000880FFF705FFD4E90A0187E80300284626
:103080001E4987F8088008F068F995E8030007F101
:103090000C0383E803003946194F3046FFF7F0FE72
:1030A000D4E90C0187E803002846164987F8088010
:1030B00008F053F995E8030007F10C0383E80300D7
:1030C0003946304603B0BDE8F043FFF7D9BE00BF34
:1030D00058C5000018160020C0150020F1B30000EC
:1030E00068150020D9B30000101500204EC500005F
:1030F000B81400204DC5000060140020A52F00006A
:1031000008140020892F00007FB500230130CDE98D
:10311000043380B2054BCDE90101694604200093D8
:10312000039208F042FA07B05DF804FB8323002005
:103130001B22014B1A80704758230020F7B5034625
:10314000CDE9001207460E4615464FF48040094A65
:10315000094908F03CF90022012311460420074CDC
:10316000237067706680257103B0BDE8F040FFF7FB
:10317000CBBF00BF30C7000090C5000083230020F4
:10318000034610B5094A044609494FF4804008F047
:103190001EF90322074B02201A700022A3F80140F7
:1031A0001146BDE81040FFF7AFBF00BF19C70000D0
:1031B000C4C500008323002030B50C4685B004A9A7
:1031C00001E90C00054603460A4A4FF480400A49CB
:1031D000009408F0FCF805220320084B02991A70AD
:1031E0009DF80C205D705C8005B0BDE83040FFF7B5
:1031F0008BBF00BFFEC60000D0C5000083230020A7
:1032000037B5034605460C4600914FF48040094A05
:10321000094908F0DCF80722084B04201A70002244
:103220001146A3F80150A3F8034003B0BDE83040B5
:10323000FFF76ABFE3C60000F4C500008323002047
:1032400038B5094A05460C460B464FF480400749FD
:1032500008F0BDF80B22064B29461A7000202246C2
:10326000BDE83840FFF750BFD3C6000019C60000C4
:103270008323002008B54FF48040074A074908F02F
:10328000A6F81322064B1A700022BDE8084011462A
:103290001046FFF739BF00BFC2C6000028C60000B5
:1032A0008323002073B50346144605460E4600925C
:1032B0004FF48040084A094908F089F80922084B70
:1032C00031461A70A21C5A70032022465D8002B05B
:1032D000BDE87040FFF718BFACC600002EC6000066
:1032E000832300202DE9F3411C469046CDE90013CD
:1032F00007460E4603460A4A4FF48040094908F043
:1033000066F81123224641460520074D2B70231DE8
:103310006B706F80AE8002B0BDE8F041FFF7F4BE85
:1033200091C600004CC600008323002070B50D46F6
:1033300003780C4A04460C494FF4804008F047F8E3
:1033400000230A4E691E204689B2738000F040F8BF
:10335000024628B171882078BDE87040FFF7EEBEC4
:1033600070BD00BF89C6000076C60000582300204B
:10337000024610B5F8B1114B1968888890421AD3EB
:1033800098880024904281BF012009689880996044
:103390009868998820B904B198604FF6FF7203E0ED
:1033A0008A4203D10CB198609A8010BD013101248A
:1033B000006889B2EEE70020F7E700BF4016002062
:1033C0004FF6FF72014B18609A807047401600203C
:1033D0002DE9F04705780446122D0E4688B017D81F
:1033E000012D18D9AB1E102B15D8DFE813F01600ED
:1033F00014002F0014005A0014000D0114009F0047
:103400001400140014001400140050011400CC0027
:10341000522D00F0DE8006253FE0022940F0B48105
:10342000B0F80130B24A4FF48040B24907F0CFFF04
:10343000B4F80140B4F5007F28BF4FF40074204673
:10344000FFF79EFEAC4B1C80002526E0042924D10A
:10345000B0F80330A94A0093B0F80130A8494FF4FE
:10346000804007F0B4FFB4F8017006ACBEB221464C
:10347000304607F0F7FF054618B19F4B5F800A25DD
:103480000BE09DF81C303146022B18BF022094E857
:103490000C0008BF0120FFF78FFE284608B0BDE8EA
:1034A000F08702278E1FB6B20196B0F80330954A16
:1034B0000093B0F8013094494FF4804007F087FF43
:1034C00004F10508E31D019600938DF81470CDF802
:1034D00010804246059BB4F80310B4F8010007F0D1
:1034E000CEFF4FF6FF76B042054606D1A27863784C
:1034F00043EA0223804A5380C1E70023CDE9003329
:10350000CDF818808DF81C7008AB0130314613E9F6
:103510000C0080B207F0B3FF0146B0421CBF00F1BF
:10352000FF3189B22846FFF76BFE8DE7022940F094
:103530002B81B0F80130754A4FF48040744907F090
:1035400046FF3146B4F8010007F0EBFF6A4E05462E
:1035500028B16378A27843EA022373809DE7338819
:103560000146013BADF81030B4F8010004AB06AAE7
:1035700007F0E9FF05460028EBD1BDF810100698CA
:10358000FFF75EFE89E78E1EB6B20096B0F80130F6
:10359000604A4FF48040604907F019FF0821B4F8F1
:1035A000010007F0BEFF054630B1A278637843EA18
:1035B0000223514A538070E701463346B4F80100B4
:1035C000E21C07F095FF05460028EED1FFF752FEFA
:1035D0003AE78E1EB6B20096B0F801304F4A4FF46B
:1035E00080404D4907F0F3FE0421B4F8010007F0D4
:1035F00098FF014600287FF427AF3346B4F8010056
:10360000E21C07F075FF1FE70E1FB6B2022E02D0B4
:10361000102E40F0B9800025B4F803304FF48040FC
:103620000093B4F801303E4A354907F0D0FECDE9A9
:103630000055631D06938DF81C6008AB13E90C0060
:10364000B4F80310B4F8010007F019FF4FF6FF7348
:1036500098420646284F05D16378A27843EA0223B0
:103660007B800CE73B882946043BADF80E3004AA6A
:103670000DF10E0307F067FF054608B17E800CE7E9
:103680003046BDF80E200499FFF70CFE05E70E1F2B
:10369000B6B2022E01D0102E76D10025B4F8033038
:1036A0004FF480400093B4F801301E4A144907F0EB
:1036B0008EFECDE9005504F1050AF6B28DF81460CE
:1036C000CDF810A05246059BB4F80310B4F80100E1
:1036D00007F0D5FE4FF6FF7948450746DFF818801A
:1036E00022D16378A27843EA0223A8F80230C6E622
:1036F000FCC70000C4C5000058230020E9C7000033
:1037000041C70000D6C700005FC70000CEC7000059
:1037100088C70000C5C700002EC60000BCC7000057
:10372000AEC700009BC70000CDE90055CDF818A03A
:1037300006AD8DF81C60013095E80C00494680B25A
:1037400007F09DFE0446B8F800304845A3F1060393
:1037500018BF00F1FF342A46ADF80E304FF00001DB
:1037600038460DF10E0318BFA4B207F0ECFE054673
:1037700010B1A8F8027090E621463846BDF80E3028
:10378000069AFFF7AFFD88E6042586E60022014B86
:103790001A6070474C16002003291FB503460A46DD
:1037A0001CD90188081D824218D304D858880428DF
:1037B00005D0062807D0012005B05DF804FB181DD0
:1037C000FFF7B4FDF7E70023CDE90233044B694668
:1037D00000930223019307F0E8FEECE70020EBE7FB
:1037E0006810002037B500220DF10700114600F0E7
:1037F0005FF89DF807300C4C0BB100232360216863
:103800000A4DC1F5017292B229440DF1070000F092
:103810004FF82368C11828462160FFF7BDFF08B1A3
:103820000023236003B030BD4C160020501600204A
:1038300010B504464FF4807300210E4A0E4807F07D
:1038400047FF4FF4807300210C4A0D4807F040FFFA
:103850002046FCF775FC07F0FCFE00F02BFD08F09D
:103860002AF8830705D500F0EFFBBDE8104000F013
:1038700045BA10BD841900206C180020841800205F
:103880005418002008B513460A460146024807F0BE
:10389000DDFFC0B208BD00BF6C18002008B50348AA
:1038A00007F01FFF003818BF012008BD6C1800206A
:1038B000F8B50E461746044606F0F5FE21460546C5
:1038C0003B463246044807F0C1FF0446284606F04E
:1038D000EEFE2046F8BD00BF5418002008B503488E
:1038E00007F0FFFE003818BF012008BD5418002063
:1038F000F8B50E461746044606F0D5FE21460546A5
:103900003B463246044807F06CFF0446284606F062
:10391000CEFE2046F8BD00BF6C18002010B50C4646
:103920000146044807F0BCFFA04234BF002001203C
:1039300010BD00BF54180020F8B50F4611460646CA
:103940001546FFF7EBFF044628B12B463A463146B1
:10395000024807F046FF2046F8BD00BF541800207B
:1039600010B5034CA07900F0FFFD0023236010BDCB
:10397000841A00201FB50B4C0B4AA37A0B49039302
:10398000637A4FF480500293237A0193E379009392
:10399000A37907F01CFDA01D00F06AFD0023236041
:1039A00004B010BD841A00209BC900000BC80000A1
:1039B0001FB5104C104AB4F80D304FF480500293EC
:1039C000B4F809300D490193A3790093B4F8073096
:1039D00007F0FDFCB4F80710A07900F07BFDB4F807
:1039E0000D10B4F8090000F089FD0023236004B035
:1039F00010BD00BF841A00206DC9000034C800004B
:103A0000014B998018607047841A00200022014BF6
:103A10001A607047841A0020034A13681BB1928809
:103A2000824200D118477047841A0020014B187059
:103A3000184670478A230020162838B503464FF0F1
:103A4000020514BF034613230B4C0C4A4FF480505D
:103A50000B496370257007F0BAFC2946204600F038
:103A600065FD00F0E3FE074B074A05301A606278F7
:103A700098809A7138BD00BF8A230020E6C90000F3
:103A80006BC80000841A00206139000030B504467C
:103A90000378794A4FF48050784985B007F097FC55
:103AA00023780C2B0AD80C2B0BD8DFE803F05A3FF5
:103AB000790A0A0A0A0A890A0A0A1600142B00F06F
:103AC000A580204600F020F9002867D1072223783E
:103AD0006B4802210270437023E0A3884FF48050AA
:103AE00001936388674A00936378674907F06FFC26
:103AF0004FF0FF32624C0C23A2700222E2700022CF
:103B000023706271012340F2FF22637023715E49CA
:103B100000924FF480505D4A019307F058FC062153
:103B2000204605B0BDE8304000F000BDE388584AAB
:103B300058494FF4805007F04AFCE179A379564A7E
:103B400043EA012393801346544943F8061BD4F8F3
:103B50000110C2F80610B4F805209A80E2799A7133
:103B60001CE063894E4A4B494FF4805007F02FFC0C
:103B7000E27AA37A484943EA02238B800B46494AFA
:103B800043F8062BD4F80120C1F80620D4F805200C
:103B90005A60B4F809201A81E27A9A7205B030BDF1
:103BA0006378414A4FF48050404907F010FC00F020
:103BB0003DFE394B3E4A05301A6098806278CEE768
:103BC000D4F80530D4F801203A49CDE900234FF468
:103BD0008050394A07F0FBFB00F00AFAD4F80130B4
:103BE000274C63F0FF03184009252346002203F801
:103BF000015BC4F801002F495A60CDE900024FF47F
:103C000080502E4A07F0E3FB294689E7B4F80730D5
:103C10002B4A0293B4F805304FF480500193B4F866
:103C2000033028490093B4F8013007F0D0FBB4F812
:103C30000310B4F8010000F06FFC1523104C6FF076
:103C4000270223700723E2702371E271237200219F
:103C50006FF004004FF4FB62FB236070A170607191
:103C6000A1714FF48050CDE9013216490092164AF5
:103C700007F0ADFB092153E7DDC9000081C8000052
:103C80008A230020D2C9000092C80000C3C90000E6
:103C9000B5C90000C3C80000841A002075390000AF
:103CA00087C90000B139000060C900006BC800007E
:103CB00061390000D3C8000055C9000046C90000A2
:103CC0003CC90000ECC800002EC9000010B5084B2C
:103CD0004FF480509C79074A2346074907F077FB49
:103CE000204600F013FCBDE81040FFF78FBE00BF78
:103CF000841A002055CA0000F7C900000122014BB8
:103D00001A70704796230020244B73B51E78044622
:103D10002EB10378162B05D0182B28D0002630465C
:103D200002B070BD83781E49009343781D4A4FF45A
:103D3000805007F04CFB6378A278172003EA020456
:103D400004F00304022C18BF0124FFF76FFE0546A0
:103D50004470847023464FF48050134A10490094F5
:103D600007F035FB0221284607F070FCD7E7B0F8D2
:103D700003300E4A019383780D49009343784FF442
:103D8000805007F024FBB4F803100A48FFF738FE10
:103D9000D4F80120084BC3F80620C0E79623002082
:103DA00007CA000080CA000075CA000068CA000087
:103DB00027CA0000CD3C0000841A002013B50D4B2B
:103DC00001281B880C4CADF80030ADF8043002BF60
:103DD00002238DF8003004236946206808BF8DF85F
:103DE000043007F0EEFD206801A907F000FE02B0E4
:103DF00010BD00BFAFCA0000B41A002070B5334C2C
:103E000011464FF4867086B01E46154607F0E2FA5A
:103E1000236933B929464FF4837007F0DBFA06B003
:103E200070BDA5F10802324321D101AA0321206807
:103E300007F043FE636860615B7A04F11801237642
:103E40009DF804300220DA1F53425341627E63F32F
:103E50000002039B6276E361BDF806306383236949
:103E6000984701220021206807F02DFED7E705F1D1
:103E70007F42324305D10021012006B0BDE87040E9
:103E8000184715F4A04209D04FF480714FF48170A7
:103E900007F0A0FA002103202369EEE705F4A063F0
:103EA0001A4308D001214FF4817007F093FA0021E2
:103EB000FF202369E1E705F0A0421A4319BF012161
:103EC00040F2011029464FF48370EEE7B41A002047
:103ED0000A46014602484FF40073006807F0E9BD46
:103EE000B41A0020F0B50446154D164A6B68807A66
:103EF0005B7A85B0D75C0E46FFF760FF237A022B12
:103F00000DD1002339461A46286800F019FD98B1F2
:103F10000021FF20334605B0BDE8F04018470022DD
:103F200021680092039202918DF80C30394628687E
:103F300002AB00F013FDEAE72E6105B0F0BD00BF53
:103F4000B41A002087CA00002DE9FF4104461B4D2A
:103F50001B4A6B68807A5B7A0E46D75CFFF72EFFB0
:103F6000237A4FF00108022B08BF01238DF804309B
:103F7000636818BF226803F1640308BF002202933C
:103F8000637A0024394600928DF80C306A46234645
:103F900028688DF80D808DF80E4000F0EBFC074688
:103FA00042462146286807F08EFD2FB12146FF20AA
:103FB000B04704B0BDE8F0812E61FAE7B41A0020E2
:103FC00087CA000008B500214FF4857007F002FA97
:103FD0000022044B03211A6118680122BDE8084041
:103FE00007F080BCB41A002000487047BC1A0020BB
:103FF000014B188C704700BFB41A00207FB5022314
:104000008DF80630064B5A8B59690332ADF80420FF
:1040100018686A4607F055FD009807B05DF804FB84
:10402000B41A0020002313B5064C60600093437A55
:10403000D0E90021206807F082FD00F00DF802B001
:1040400010BD00BFB41A0020024A138C43F48073E1
:1040500013847047B41A002038B50D4C238CDB054F
:104060000CD563680B4D1B7A2A789A4206D0012B37
:1040700005D0022B07D063681B7A2B7038BD2068EF
:1040800000F098FEF7E7206800F09AFEF3E700BF23
:10409000B41A00209723002010B50024064B1C60A2
:1040A000064B1C7007F000FBB0FA80F3044A5B0972
:1040B0001370044B1C7010BDD81A00209A230020E6
:1040C000992300209823002010B5074B1C782CB9A9
:1040D000064B1B7833B107F0EFFA044600F066F8A0
:1040E000204610BD8124F9E79A230020992300205F
:1040F00038B50A460F4903460978C1B10E49087818
:1041000050B90E4C24783CB90D4C20681518B5F503
:10411000806F02D98220087038BD1946094B1844B7
:1041200007F0D3F82560BDE8384000F00DB88120D5
:10413000F2E700BF992300209A2300209823002053
:10414000D81A0020DC1A002038B5134B134D1A780A
:104150002968022A0ED0032901D8002038BD104A50
:104160001068104A904203D084200F4B1870F5E776
:1041700002221A700A48FDF7CBFB04462A68074959
:10418000074807F06EFA002CE7D041F207039C4283
:10419000E3D08520E9E700BF99230020D81A00204A
:1041A000DC1A0020EB17A6039A2300200022014B03
:1041B0001A707047992300201FB5124C637A20466D
:1041C0000133DBB2282B28BF25236372FFF72AFFB8
:1041D0000023CDE90233E368627C01930123617D12
:1041E000D207094801F102018DF80C3048BF8DF863
:1041F0000E30FFF76DFE054901A8FFF773FE04B00E
:1042000010BD00BFDC1E0020F01E00201142000087
:10421000022810B51BD002D8012805D0FEE70328DC
:1042200043D0FF2841D0F9E7214C637C990707D59B
:10423000FFF7C8FEFFF7C0FF637C6FF341036374B1
:10424000637CDA0730D4BDE81040FFF7B5BF4B7888
:10425000DB072AD54C68217801F00F03032B11D01E
:10426000052B22D1C90904F1080007F026FBD8B1BB
:10427000FFF7A8FEFFF7C2FE01462046BDE810404A
:1042800000F0DABAC90904F1080007F016FB58B1CA
:10429000074C94F83D1004F13C000231FFF718FE82
:1042A000637C43F00203637410BDFFF78BFECAE723
:1042B000DC1E002010B50A4C5A220021204606F0D0
:1042C000FCFF42F21072C4F80220064A44F80A2C9D
:1042D000054A44F8062C42F2015224F8022C10BD83
:1042E000E61E0020D6BE898E5555550038B50446C9
:1042F000FFF768FE002C3FD0204C257C627CB5FA8D
:1043000085F35B0963F300026274FFF76DFE837946
:1043100005F00F05C3F3000345EA8315237D23F061
:104320004F031D43637D25750BB906236375036831
:10433000C4F816308288124B9A80FFF755FE8379B5
:1043400094F83C20C3F300039B0143F0040322F0E4
:104350004F02134384F83C3094F83D3013B90623E0
:1043600084F83D300368C4F83E308288054B9A805B
:10437000BDE83840FFF720BF38BD00BFDC1E00207D
:10438000F21E00201A1F002020290A4608B509D86D
:10439000054B06315975014603F11C0006F095FFE7
:1043A000002008BD1220FCE7DC1E002020290A4660
:1043B00008B50AD8064B063183F83D10014603F1D3
:1043C000440006F082FF002008BD1220FCE700BF79
:1043D000DC1E00200A20D0B50B4CE38C584305F0BE
:1043E000BFFD0646A08C0F4605F0BAFD0022074B24
:1043F00005F020FE02460B463046394605F044FFE4
:1044000006F02AF82083D0BD402000200000F43FB1
:104410001FB5154C40F60100218906F0DBFFA37E95
:104420005A061FD423F0070343F001032089A37623
:10443000FFF7F2FAA37A04F10C00234493F82A3030
:104440006375FFF7EFFDD4E90032A3EB520103EBF4
:10445000520302934FF48033019101A8034903935F
:10446000FFF772FD04B010BD40200020F5450000AC
:104470000022134630B58BB0D910415C03F007041D
:104480002141CC0742BF02F12801694401F8283CD0
:1044900003F1010348BF0132252BEDD100230C4C61
:1044A000D910415C03F007052941C9075FBFB3FB81
:1044B000F2F102FB1131283169444CBFD9B211F835
:1044C000281C0133252B04F8011FE9D10BB030BDA6
:1044D0006920002010B540F2E244074A60431368A7
:1044E00000F5807004FB013303EB50031360536845
:1044F0000344536010BD00BF40200020024B98844D
:10450000D984FFF767BF00BF40200020014B18751A
:10451000704700BF40200020C908814228BF0146E3
:10452000014B1985704700BF40200020044B5A6D95
:1045300022B95865A3F85810012070470020704731
:104540004020002010B504460346054A4FF40060A1
:10455000044906F03CFF2046BDE81040FFF76CBA66
:10456000FDCA0000B1CA000010B504460346084A5F
:104570004FF40060074906F02AFF074A2046BDE8CD
:104580001040937E43F04003937607F05DB800BF80
:10459000EECA0000B1CA00004020002010B5144C43
:1045A000A37E5B0623D4FFF70DFD40F2E241A28C0F
:1045B000236801FB023394F84F102360A37A0B4465
:1045C0002521B3FBF1F001FB10330A21A3722389EB
:1045D00001332381636801FB02336360238B5A1E1E
:1045E000228323B9BDE810400820FFF7BDBF10BDEE
:1045F000402000200228F7B50E460BD003D8012832
:1046000000F00181FEE7032800F00381FF2800F09D
:104610000081F7E74D784F6815F00105814C64D1B2
:104620004FF0FF3140F6030006F0D4FE0025A37ED4
:104630007D4F13F0200F12D0616D6FF34513A376F9
:10464000002900F0C5803B7894F8582043F003031C
:10465000B81C3B707A7006F038FE00236365FFF7E4
:104660001DF9A37E60F34103C3F3C002A376C3F335
:1046700000139B0043EAC2033A7843EA001322F096
:104680001C0203F01C0313433B7040F60200398800
:1046900006F0A0FE797864480231C9B2FFF718FC31
:1046A000A37E7668D90709D56FF30003A3760023AC
:1046B0006360FFF7A3FC2060FFF78CFE002D00F085
:1046C000AF80337803F00303022B06D0032B00F0F6
:1046D0009380012B40F0A480002528467278B11CFD
:1046E00003B0BDE8F040FFF727B940F60300398872
:1046F00006F070FE3B78A27EC3F3001363F38202E0
:104700003B78A276D1B2C3F3C000C2F3001290424C
:1047100010D0A17EC3F38003C1F3C002934285D0C1
:1047200082F00102D20042F0200221F028010A4367
:10473000A2767BE703F00302022A1DD0032A03D0EE
:10474000012AE6D1002018E0C1F3C002C3F38003C0
:10475000934208D082F00102D20042F0200221F000
:1047600028010A43A276A37EC3F3001282F001025D
:1047700062F30413A3765AE72846797891B9A17EAB
:10478000C3F38003C1F3C002934201D10025EAE7DD
:1047900082F00102D20042F0200221F028010A43F7
:1047A000A276F3E7FFF7BAF8A27E3978C2F3C00326
:1047B000C1F38001994208D083F00103DB0043F08C
:1047C000200322F028021343A3760028CBD12DE743
:1047D00094F82820B91C0DF10700FFF753F848B1F1
:1047E0009DF807300133DBB23A78787063F3010249
:1047F0003A7034E70123F7E77178B01C03B0BDE8E5
:10480000F040FFF743B9074B9B7E9A0708D45B073C
:1048100006D4FFF7C3FE03B0BDE8F040FFF7F8BDD4
:1048200003B0F0BD40200020401F0020014B18893C
:10483000704700BF40200020F7B5274D04460E46C4
:104840005C220021284606F038FD2023AB760523A4
:104850002B83627E237E012743EA0223AB84627F9F
:10486000237F04F11E0043EA0223EB8494F82330F3
:10487000C3F3040385F84F3094F82330C3F3421395
:1048800085F850301B232B85FFF7F2FDD4F80E304E
:10489000E27CEB60A37C2E6043EA0223227D2F752D
:1048A00043EA02432B6195F84F30607DAB72E18A99
:1048B0003944FFF70FFEFFF7ABFDEB8C074A00937F
:1048C000AB8C07494FF4006006F081FD204606F0EE
:1048D000B9FE384603B0F0BD40200020E1CA000018
:1048E000C4CA0000F8B50D4610B900242046F8BD32
:1048F0000E4F3E68002EF8D100F056F8044600280E
:10490000F3D0386000F09CF8204607F000F838B18A
:1049100030463E6000F094F8204606F0F3FFE4E7EE
:10492000002DE3D02046A847E0E700BF9C200020F0
:10493000024B1868003818BF012070479C200020E7
:1049400010B507F0C2F9044618B9034B01215B68A2
:104950009847204610BD00BF2410002010B507F076
:10496000BDF920B9BDE81040014B1B68184710BDC8
:104970002410002010B507F040F820B9BDE8104021
:10498000014B1B68184710BD24100020431E033341
:1049900006D8044B984228BF1846642838BF6420C4
:1049A000704700BF40420F00F8B5054605F07BFE9A
:1049B00007460F4B1E6826B9384605F078FE344688
:1049C00011E0B4688CB194F810C01CF0010F0CD148
:1049D0004CF0010C95E80F0084F810C084E80F003B
:1049E000384605F064FE2046F8BD3668E3E700BFB0
:1049F0001C10002038B505460C4641B10B6833B198
:104A00001B68013303D0CB680BB18B684BB902F044
:104A100061F8BDE838404FF492724121002000F067
:104A2000B3B9084602F0B6F80023044A85F81031FD
:104A3000C5E93043C2E9003338BD00BF781000201B
:104A400010B5044618B9054B054A136010BD00F0B7
:104A500009FBD4F8CC30002BF6D1F4E7EDB8000018
:104A60001810002010B50C4600F03AFB054B002151
:104A700003205B6898471CB101F0DCFA0128FBD1E8
:104A800010BD00BF2410002008B502460868FFF7DB
:104A90007DFF08604868FFF779FF48608868FFF786
:104AA00075FF8860C868FFF771FF0B69C860581C04
:104AB00003D00B48834228BF03460B614B69581C47
:104AC00003D00748834228BF034688694B61FFF73C
:104AD0005DFFBDE808408861104601F0EBB800BFFB
:104AE00040420F002DE9F84FD0F8C43006460F467B
:104AF00013B1038B8B4244D0D6F8C0B0BBF1000F8A
:104B000042D0DBF80830002B3ED0DBF80C10002937
:104B10003AD0D6F8D4A0BAF1000F38D04FF000093F
:104B20004D46C84601E0DBF8083005EBC50203EB53
:104B30008204E3890135BB4214D8238ABB4211D3D6
:104B4000B4F91220B6F92430934250DD304696F87D
:104B50000411FCF7C7FA737D81468342A04606D94B
:104B6000DBF80C108D42DED3B8F1000F39D00023F2
:104B7000424630461946D0473783C6F8C48086F887
:104B80000D910020BDE8F88F0320BDE8F88FD146D5
:104B900047F6FF755446524604EBC40803EB8808F9
:104BA000B8F80E30BB4216D8B8F81030BB4212D35A
:104BB000B8F91220AA4202D14FF0FF09DCE73046D3
:104BC00096F80411FCF78EFA737D81468342D3D99F
:104BD0004246DBF80C100134A14204D9DBF808305E
:104BE000DAE70120CEE7002AFBD09046C4E7A046D2
:104BF000BDE700BF2DE9F04782B00446894616465E
:104C000001F0FCF9002847D13B4D2B68D4F8C0A037
:104C1000D4F8C4700BB153454FD04FF00008C5F81D
:104C2000089001F007FA01283AD12B68DAF8001051
:104C30003A6813B1186888424AD0204607F039F81C
:104C4000C5E900A7D4F8D4508DF80760002D46D0F0
:104C50000022204611460DF10703A847204600F028
:104C600025FD0546B8F1000F00D08EB1B5FA85F0EC
:104C700040F2DE323321400900F086F8314620460A
:104C800000F01CFF1D4B0546394620461B6898471F
:104C9000284602B0BDE8F0870023174D6B60B4E7EB
:104CA000012000F01DFA164B002103205B68984795
:104CB00001F0C0F90128FBD1B7E76B68002BACD03D
:104CC000BB42AAD1AB68994514D04FF00108A6E7C2
:104CD000696811B109689142B2D05968ADE7617D48
:104CE00094F80D313246994228BF1946204600F00B
:104CF00063FCB3E70025CBE77810002018100020F4
:104D000024100020F8B50E46054605F0CCFC3146CF
:104D100007462846FFF7E6FE044620B1384605F070
:104D2000C6FC2046F8BD01F049F922463146284626
:104D3000FFF760FF0446384605F0B9FC2046F8BD91
:104D40004FF4007307B50A490DF10602ADF80630BD
:104D500006F0B1FEBDF80630B3F5007F05D102289C
:104D600008BF002003B05DF804FB0120FAE700BF94
:104D7000A0200020024B1960024B1860FEE700BF24
:104D800020100020A022002008B550B90548064B8D
:104D900001601A60054B1A68054B1A601868FFF726
:104DA000E9FF08BD20100020A42200209C20002044
:104DB000A0220020014906F093BE00BF456200001A
:104DC000014906F08DBE00BF1962000037B50C46E0
:104DD000234D59B90A46072104F00AFF214BAC6460
:104DE0005C6003B0BDE8304004F020BF07221146EC
:104DF00004F0FEFE07221C4B0121DA60237901A892
:104E000085F848306379019307F078F9019BC2B2C5
:104E1000D34000F00F0040EA031085F84900A27962
:104E200085F84A20E27985F84B202068E8640193F0
:104E30009BB1012102888B4208D82379013B13449E
:104E40000A4A136204F0F2FE03B030BD30F811508C
:104E50000131AA4228BF2A46EDE71A46EDE700BF16
:104E6000003F00B0483F00B0006000B8004000B80C
:104E7000431C07D06FF0FF02034B10405A62A3F5AA
:104E800080535862704700BF00E000B810B504239B
:104E90004FF03A4101240A4AD1F81801C2F81831FA
:104EA000C2F814314C634FF400511163410742BF03
:104EB000C2F81431A2F58052C2F8183110BD00BFFB
:104EC000002000BA00F01803182B0AD003070AD4F8
:104ED00040F2011310F0100018BF1846034BD867BA
:104EE00070470020FAE70120F8E700BF003F00B05C
:104EF000344B2DE9F7431E6801F4007900F00103FB
:104F0000174653EA090205460C462ED04FF000081A
:104F100003B30023002201200021CDE9008803F023
:104F2000A7FC4146304602F0E9FD4146708301206E
:104F3000FFF798FD716B06F1D80002F059FE224987
:104F40000868FFF795FF4FF0FF330B60337C43F0A9
:104F500008033374B9F1000F07D00121304606F081
:104F600096FD24F4007405430C43D6E94A232A40F5
:104F7000234052EA030103D01449304609688847A8
:104F8000FB070FD51249134A086800211368116006
:104F90000121114A117003B19847104B00210220E2
:104FA0005B68984717F00E0F08D040F2EB123B21D8
:104FB000002003B0BDE8F043FFF7E6BE03B0BDE854
:104FC000F08300BF9C2000202C1000203010002017
:104FD000B4220020B82200209D23002024100020AD
:104FE000F7B504461046D4E94AC7DDE908268CEA3D
:104FF000020587EA06010540194085EA0C0579405B
:10500000C4E94A51002523F4004106EA010320F0D7
:10501000010043F40073024043F00203CDE9005560
:1050200003F026FC237C9A0717D5D4F82C319B0576
:1050300013D54FF48811204606F029FD237C65F333
:1050400041032374D4E94A2302400B4052EA03018E
:1050500003D00349204609688847002003B0F0BD0B
:105060003010002038B10368044A002B08BF1346F3
:10507000034A13607047014BFAE700BF65BB0000AD
:1050800030100020024B986E00F00F00704700BFF8
:10509000003F00B00F2938B505460C460ED800F089
:1050A000C9FF01280CD1074A2846936E23F00F034D
:1050B0002343936606F025FE002038BD0120FCE75F
:1050C0000220FAE7003F00B0014BD86E704700BFE6
:1050D000003F00B0014B0020D9667047003F00B090
:1050E00003282DE9F7434CD8274B13F80080274BB2
:1050F0001E5C274B13F8009005F0D5FA074603F025
:1051000085FD054640B100230022CDE90033012092
:105110000023002103F0ACFB03F080FD48B1002325
:105120000022CDE90033002000234FF4004103F0BA
:105130009FFB26B3174BDC6C04F00804164B31467A
:10514000DC64404603F078FF4A463146404603F0AF
:10515000FFFF124BDC6465B1114B1868416BD8300E
:1051600002F046FD0F490868FFF782FE4FF0FF335B
:105170000B60384603B0BDE8F04305F098BA3446FA
:10518000DCE703B0BDE8F083A8CB0000A4CB0000AF
:10519000A0CB0000004000B8006000B8005000B88C
:1051A0009C2000202C1000200F4A136C13F0A00F3D
:1051B00015D1506C10F0040013D10C4BD3F8EC3E19
:1051C00023F07F4323F0FF035BB1D368C3F3036293
:1051D000092A07D0B2F10C0018BF01207047002047
:1051E00070470120704700BF000002B8003000B0D7
:1051F00070B50D46064620B9194B1B68A3B10320B4
:1052000011E000F017FF012828D1164B93F9004058
:10521000C4F12704641BC4F11C03002BB8BF5B421C
:10522000232B0CDD012070BDA1F10B03002BB8BFB7
:105230005B42232BF6DC0B4B19700020F3E7B574AF
:1052400005F031FA084AE402136A04F4FF2423F457
:10525000FF231C43146205F02AFAEEE70220E2E77E
:105260009C2000209B23002000C000B8094B08466A
:105270005A6A91020BD4D3F80021D20708D4D3F88C
:10528000803013F4706F14BF01200020704701209C
:10529000704700BF004001B8F8B50D46436B02EA05
:1052A000010423EA0103234343633D4A01F00B0356
:1052B00023EA0401D1642340A2F580526F07064619
:1052C000D36410D50121FFF7D1FF60B103F056FE82
:1052D0004FF4007314F0040F14BF324A324A536281
:1052E0000422324B1A64E90606D514F0100F14BFDD
:1052F00000221B222E4B5A652A061DD5230616D5E1
:105300004FF40012274B1A62012203F58053C3F8B1
:10531000002105F0C8F90E210746032002F0B4FB76
:1053200040F20122224B3846DA6205F0C0F92146EC
:1053300006F1D80002F05CFCEF0503D5E00529D5A5
:1053400002F072FBA90503D5A20526D502F078FB71
:1053500015F0600F09D0D6F8C810304606F003FCEF
:105360008022144B9867144B1A612B0510D503F05B
:1053700005FE124A14F4006FD2F8EC3E14BF43F05D
:10538000006323F00063C2F8EC3E0422074B1A646A
:105390000020F8BD02F042FBD4E702F04BFBD7E758
:1053A000006000B8005001B8006001B8002002B8E9
:1053B000004000B8003F00B0000002B8003000B06C
:1053C000014B186A02F072BB004001B8014B186A29
:1053D00006F094BD004001B8437C5A1F012A01D950
:1053E000082B05D14B7C2BB1012B05D0022B05D00E
:1053F00006F0E1BB02487047024870470248704718
:1054000020A1070048E8010040420F0070B50E4699
:1054100005F049F9054600F031FE044620B1284662
:1054200005F045F9204670BD03F0A8FD104B327819
:10543000D3F8EC3E022A23F0F00315D0101F4242AD
:105440004241520043EA02137278022A0ED0111F21
:105450004A424A41520043EA8213054AC2F8EC3EEE
:105460000422044B1A64DAE70122EBE70122F2E797
:10547000003000B0002002B870B50E4605F013F9F8
:10548000054600F011FE044620B1284605F00FF94C
:10549000204670BD03F072FD104B3278D3F8EC3E1D
:1054A000022A23F00F0314D0101F4242424152003F
:1054B00013437278022A0ED0111F4A424A41520009
:1054C00043EA8203054AC2F8EC3E0422044B1A6404
:1054D000DBE70122ECE70122F2E700BF003000B079
:1054E000002002B82DE9F8430E780446042E0D463C
:1054F00090F804810BD100275FFA87F9484601F044
:10550000B3FB08B14E4602E00137042FF4D1304618
:1055100001F0AAFB002845D094F80431B34208D129
:10552000AA88A36C9A4204D16A88B4F806319A42D8
:1055300035D084F80461AB883046A4F808316B8814
:10554000A4F80631AB8804F58275A364FF23A37524
:1055500006F04BFC6075284601F046FB18BB284658
:1055600001F078FBF8B9D4F8C43053B194F80411C1
:10557000414506D02046B3F91220FBF7B3FD84F86D
:105580000D01204601F0B2FB0949A4F808010123EE
:10559000084AD1F8FC1004F1D80002F01DFF0020E9
:1055A000BDE8F88301200E2384F80431F8E700BF3A
:1055B000004F00B0A43F00B070B5054690F804015C
:1055C0000C460E281DD0FF291DD01AB14FF0FF3216
:1055D0000E4B1A6006F009FC064695F8040101F02E
:1055E00077FB844228BF0446E4B2B44238BF344655
:1055F000E0B2A87501F06EFCA0F1FF0358425841DB
:1056000070BD0220FCE70120FAE700BF3410002043
:1056100010B590F8043104460E2B3ED0D0F8C430BB
:105620004175BBB3D0F8D420DAB990F80D318B4274
:105630001DD300222046FFF7BFFF88B9184B1B7807
:1056400013F0FD0F0BD1204601F050FB154901234B
:10565000154AD1F8FC1004F1D80002F0BDFE00207C
:1056600010BDB0F92420B3F912309A42E1DD0022D6
:10567000204694F80D11FFF79FFF0028F0D1C4F8E1
:10568000C400204606F085F901462046BDE81040DA
:10569000FFF738BBFF238375E1E70220E0E700BF97
:1056A00062100020004F00B0A43F00B0C36B012B7C
:1056B00001D10020704770B505464D498EB006F007
:1056C000DEFBD5F8C46001462C8BC5F8C80026B1B6
:1056D000336813B15B68002B5CD104F0E4FF04F085
:1056E000E6FF0123D5F8C8108DF80E30B389D6E94E
:1056F0000120E31A9BB200FB03223E48ADF80C30B8
:1057000003680292994207D0284606F02CFA8022BC
:1057100039493A4B88671A61394C384E00F08AFC97
:105720000128FBD1236CDA07F8D4336CDB01F5D404
:10573000D5F8C81028460D919DF80E20029908ABA7
:1057400002F052FB18BB08A901A802F065FDF0B9F0
:105750002A8B2C4B5A642B7C60F341032B7406F08C
:1057600005FBD5F8C43002465B691968431EDBB2FD
:10577000FD2B049114D9CC1C12D9234B01311B6889
:1057800015D0D81C10D8284604A904930AE002209A
:105790000EB070BD1A68032A9FD99B6A5B0EA3E7FF
:1057A000284604A906F0CCFA00200EB070BDD91C22
:1057B00004D8284604A9049306F0C2FAD5F82C317F
:1057C0009B0504D42B7C43F002032B74ECE74FF4CD
:1057D0008031284606F05BF9D5E94A2302400B40A8
:1057E00052EA0301E0D00949284609688847DBE707
:1057F000FC4F00B0A8220020003F00B0000002B81B
:1058000000C002B8008001B8401000203010002015
:1058100038B590F8105104463DB304F044FF1F2200
:10582000124B013D5A621540114A12495562D4F893
:1058300014518D66D4F81851CD66D1F80011C907FE
:105840000FD54FF0FF31C3F80411216CC2F80411D9
:105850004FF0F041C3F81011E37CDB060B40C2F8B7
:105860001031BDE8384004F022BF38BD006001B8F7
:10587000005001B8004001B82DE9F74F0646154623
:10588000084619B9012003B0BDE8F08F002AF9D00D
:10589000032904D8002101F065F80028F2D0B0F9FE
:1058A0000010837800290488077990F805B0B0F8D3
:1058B00006C003F00702C0F2CE80A2F10708D8F1BB
:1058C000000141EB0801052A297394BF0021C3F3AD
:1058D0000011C3F3801069739909287401F0020163
:1058E000C3F3C0000143C3F340136974AB74EF7496
:1058F000736BA5F814C0D80600F19980063A012A06
:1059000000F29580554B4FF001095B6D4FF03A4323
:105910001A6DDB6C083C03F00703063309FA03F940
:10592000002309F1FF3942F0005804EA090418F88D
:1059300004A0013404EA0904AB60631D03EA09030F
:105940005A1C02EA090218F8037018F80220BAF18A
:10595000800F737C18BFAAF1320A47EA02270CBFF6
:105960006FF07F0A4FFA8AFA3FB2A3B30020D6F84D
:10597000D0300BB1514698470134E87385F80EA03A
:1059800004EA090418F80410013404EA090418F8B8
:105990000430013404EA090441EA032118F8043010
:1059A000013404EA090441EA034118F8043041EAE9
:1059B000036117F4804305D0294BDB6EB3FA83F300
:1059C0005B095B0030466A7C02F002FE0623286019
:1059D000AB71002057E7F90425D5D6F8C830ABB134
:1059E0001A68022A12D993F82400C7F30B03DB00CC
:1059F00008B1B3FBF0F39B45B8D8002BB6D0CBEB86
:105A00000B20B0FBF3F0C043C0B2B0E729463046EC
:105A1000FFF7E2FC0190304606F0BDF8019BB3FBB6
:105A2000F0F0C0B2E1E718F804004000ECE7002312
:105A30000020EB730B4BDA69C2F30723120448BF53
:105A400063F0FF035AB212F1800F1CBF323B5AB20F
:105A5000AA730346BBE7022015E700BF004000B869
:105A6000003F00B000C000B870B54FF03A434FF4AB
:105A700080640A4DD3F818610020C5F81841C5F8B4
:105A8000144103F041FB4FF400532B67730542BFF1
:105A9000034BC5F81441C3F8184170BD002000BA8B
:105AA000001000BA082310B1024A13647047024A7A
:105AB000FBE700BF001002B8002002B8F8B50446AA
:105AC0000E4619B990F91030002B47DB4FF6FF73E3
:105AD000A18BD4F8C870994204D0354B1B680BB128
