:020000040800F2
:1000000008100020D7B00008D5B000081FB20008C3
:10001000D5B00008D5B00008D5B00008D5B00008AC
:10002000D5B00008D5B0000804C30008D5B000085A
:10003000D5B000084CC30008D5B00008D5B0000802
:10004000D5B00008D5B00008D5B00008D5B000087C
:10005000D5B00008D5B00008D5B00008D5B000086C
:10006000D5B00008D5B00008D5B00008D5B000085C
:10007000D5B00008D5B00008D5B00008D5B000084C
:10008000D5B00008D5B00008D5B00008D5B000083C
:10009000D5B00008D5B00008D5B00008D5B000082C
:1000A000D5B00008D5B00008D5B00008D5B000081C
:1000B000D5B00008659A000845A4000809C20008E8
:1000C00005C200083D9C000815C200080DC20008CA
:1000D0001DA4000811C2000885A40008E9A40008B6
:1000E000D5B00008D5B00008D5B00008D5B00008DC
:1000F000D5B00008D5B00008D5B00008D5B00008CC
:10010000D5B00008D5B00008D5B00008D5B00008BB
:10011000D5B00008D5B00008D5B00008D5B00008AB
:10012000D5B00008D5B00008D5B00008D5B000089B
:10013000D5B00008D5B00008D5B00008D5B000088B
:10014000D5B00008D5B00008D5B00008D5B000087B
:10015000F5850008D5B00008AFBF0008B5BF00089E
:10016000D5B00008D5B00008D5B00008D5B000085B
:1001700070B506468AB032480BF03DFD3148324B2F
:1001800000210360314B324C436004F0BBFB2AA3D7
:10019000D3E90023CDE900234FF0FF334FF0FF32C6
:1001A00020600BF06DFD02224FF0FF3120680BF054
:1001B00069FD00239422CDE9073309933C23CDE95F
:1001C00003320593962303A92068069304F09EFC4E
:1001D00002F0ACFC2546014620680BF06AFD206861
:1001E0000BF0D5FDB6F9001055F8080B0BF076FDB5
:1001F0007668D6B9284602F09DFFA37B66F300031C
:10020000A373202310222384124B83F8202383F826
:10021000212383F8252383F8242383F8222383F8DA
:100220001F2383F823230AB070BD3068A060B28812
:10023000B379AA80AB71E4E70855005100000000D3
:10024000690345ECC41A0020593E0008B81A002082
:10025000941A002000E100E010B5054C237833B972
:10026000044B13B1044800E000BF0123237010BD0C
:1002700090120020000000009815010808B5034BFB
:100280001BB10349034800E000BF08BD00000000A7
:10029000941200209815010810B5274C02F03AF886
:1002A00002F074F9236F23F0070343F0030323677D
:1002B0000BF019F9214B00209B6ADB015EBF4FF464
:1002C00080321F4B9A62D4F8203123F0070343F0A9
:1002D0000203C4F82031D4F8283123F0070343F097
:1002E0000203C4F82831D4F8403123F0030343F06B
:1002F0000103C4F84031D4F8603123F0030343F024
:100300000103C4F86031D4F8403223F0030343F012
:100310000103C4F84032D4F8003223F0070343F05D
:100320000103C4F80032D4F8083223F0070343F085
:100330000103C4F8083210BD008000500040005A8C
:100340000060005A064B0748DA1C121AC11E22F040
:100350000302994288BF002203490BF081BF00BF0E
:100360007810002008100020AC150108064B074843
:10037000DA1C121AC11E22F00302994288BF002221
:1003800000210BF094BF00BFD02300207810002084
:100390004FF480414FF0FF30114B124A10B59A6074
:1003A000D3F8882042F47002C3F888200E4A916680
:1003B0000E4901F5005210660D4850660220C3F840
:1003C000D000BFF34F8FBFF36F8F01244FF4403342
:1003D0000848C0F88041D36004600B6110BD00BFC5
:1003E00000ED00E000000008009000500080004494
:1003F000F7FF370000E100E0014B1868704700BFCD
:100400000C100020084B1B6F03F00703022B04D0D5
:10041000032B05D0012B05D0FEE7044B186870476D
:10042000034BFBE703487047008000500C1000208E
:1004300010100020002D310108B5FFF7E3FF054B38
:100440001B6FC3F303330133B0FBF3F0024B1860AF
:1004500008BD00BF00800050081000200048704711
:1004600000B4C404014B1868704700BF101000208E
:10047000054B1860054B1B6F03F00703032B01D1DD
:10048000FFF7DABF704700BF101000200080005057
:1004900000487047002D31014FF0B4439868C0F315
:1004A00004400C2822D8DFE800F009212121212175
:1004B000071719211B1D1F000F4870479B6803F089
:1004C0004073B3F1807F13D0B3F1007F12D00B4A99
:1004D000002B08BF1046704709487047094870470D
:1004E000094870470948704709487047002070471D
:1004F0000848704708487047405DC60000093D0045
:100500000024F400C0EA210180BA8C010048E8010F
:10051000005A620280841E0040420F00014B18689E
:10052000704700BF1410002010B5144BADF5107DBE
:1005300003AC0FCB84E80F002C22002107A80BF09E
:10054000B6FEFF234FF49472002146A88DF81D30AB
:100550000BF0ADFE6822002112A80BF0A8FE682265
:1005600000212CA80BF0A3FE00942CAB12AA46A9E4
:1005700007A800F0E1F80DF5107D10BDD8C2000805
:100580000122044B1A700023034A1370034A1370AC
:10059000704700BF9F2300209E230020A02300203F
:1005A000002238B5124B134C1A700122124B1A70EC
:1005B00023689A78DAB1DA78CAB11A78510706D581
:1005C000986A0AF018FE10B10C4800F015FA23687A
:1005D0001A7892070BD55D680AF0FAFD854206D9B4
:1005E00023680648596ABDE8384000F0BBB938BDF9
:1005F0009F230020B41200209E23002000800108C9
:1006000007B5024601200B4606490870064907480F
:100610000968009106490068096800F08BFC03B086
:100620005DF804FBA0230020B8120020BC120020BB
:10063000B4120020044A05490548202312680968BD
:10064000006800F03DBC00BFAC120020B0120020DA
:10065000BC120020094B1A68D37892782AB1002B7B
:1006600041F20C0018BF0020704741F20C0240F22A
:100670000570002B08BF1046704700BFB412002061
:1006800008B5FFF709FE02F09FFB02F087FB02F0BE
:1006900047FABDE8084001480AF0AEBFC01200208A
:1006A00010B5234B234C18681B7992B08DF80C3091
:1006B00023880290ADF80D30A37868468DF80F308E
:1006C0000AF0A8FF41F60833ADF810309DF8063067
:1006D0000098C3F300038DF81230BDF80430CDF854
:1006E0001300ADF8173040F60223ADF82830002390
:1006F0008DF82A3002F0AEFB02F0B2FB2046032157
:1007000002F0B4FB02F0BAFB02F09EFB112102A83A
:100710000AF094FF03210AA80AF097FF01200AF0CB
:100720009BFF002840F2017008BF002012B010BDEE
:10073000E8C20008EEC2000870B5134C134E2060EA
:100740001348144D016014490A60144A1360049A56
:10075000134B1A6033780BB10AF05AFF2B78002B39
:10076000F8D0104B1B784BB123689A784AB1DB78EC
:1007700040F20570002B18BF002070BD40F20370DE
:10078000FBE740F20570F8E7B41200209F23002039
:10079000BC1200209E230020B0120020AC120020CA
:1007A000B8120020A02300201FB500F1006303F55C
:1007B000C0330393104B144698421BD8039A0F4B37
:1007C0009A4217D2039A9B1AA34213D358B94FF0F7
:1007D00000639B6A0A4A5869904204D918690191DA
:1007E00000F092FA01992246039804B0BDE8104047
:1007F0000AF09FBC04B010BDFF7FFEF700E01708B1
:10080000008001087FB56FF0006200F178419142ED
:1008100003461AD26D460E4A02F110062C461068A5
:100820005168083203C4B2422546F7D15A1E0DF171
:100830000F010F3311F8010912F8014F844204D15E
:100840009A42F7D1012004B070BD0020FBE700BF41
:10085000F2C200082DE9F0410368044603F1604349
:10086000B3F5802FA0B034D84FF000639B6A426884
:100870001E6996422DD8394B9A422AD8456B06F10B
:100880004002AA4268D89D4266D82846FFF7BAFFC0
:10089000002861D028460AF07FFC80B16B6973B1F3
:1008A000022B0FD1AB69C4F1040119444FF0FF32A0
:1008B000204600F077FE2A4BC31A5842584120B018
:1008C000BDE8F08140F2046328460493FFF79AFFE5
:1008D00008B90020F3E728460AF05EFC0028F8D0AB
:1008E0004FF00067D7F834804046FFF78BFF0028B1
:1008F000EFD0503EB045ECD8284605A90AF053FC8D
:100900000028E6D0BA6A059B12699A42E1D89C4257
:10091000DFD8124A9342DCD806A800F005FF059AFA
:100920002146121B06A80AF098FD06A80AF097FDBA
:10093000059C00F009FF039000F024FF2146009081
:10094000039B04F1200206A800F06EFE04900498B8
:10095000B0FA80F04009B2E70120B0E700001808C3
:10096000E320BBDE70B54FF0FF3290B005460C4679
:1009700000F018FE1C4B984232D14FF480621B4BA2
:1009800000219A6601A81C220BF091FC184B294605
:100990006846043C00930AF0E9FD214668460AF0E7
:1009A000E5FD68460AF0EBFD0AF0BAFB0646B8B969
:1009B00040F2022000F072F91C22314609A80BF027
:1009C00076FC0C4B294608A808930AF0CFFD08A82E
:1009D00021460AF0CBFD08A80AF0D1FD0AF0A0FBE1
:1009E000002010B070BD00BFE320BBDE00900050BF
:1009F00001000543010006434FF4806230B5044610
:100A0000154B91B09A6600211C2201A80BF04FFCF7
:100A1000124B2146684600930AF0A8FD68460AF08A
:100A2000AEFD0AF07DFB054698B940F2022000F0C9
:100A300035F91C22294609A80BF039FC084B08A8F7
:100A4000214608930AF092FD08A80AF098FD0AF0E2
:100A500067FB002011B030BD009000500000024341
:100A6000000003434FF4806210B50F4B8CB0044676
:100A70009A6600211C2205A80BF019FC0B4B01946F
:100A80000493012302930A4B01A904A803930AF0DB
:100A900063FD04A80AF073FD0AF042FBB0FA80F08F
:100AA00040090CB010BD00BF00900050000008438A
:100AB000040000200048704700800108044B1846DD
:100AC000016881F3088881F3098840688746FEE75A
:100AD0000020010813B501A801F08CFF9DF8053036
:100AE000012B14D19DF804308BB94FF48012224BA6
:100AF0002249586E03F580535A664B6BC00223F0AF
:100B0000E05343F040634B635CBF1D4B5A661D4B83
:100B1000D3F88420110606D44FF400621A67D3F884
:100B20008420D206FBD40AF076FB00F0A1F80AF08C
:100B3000E5FA0AF0E5FA18B14FF4017000F0BAF8DE
:100B4000FFF7F2FC04460AF0DDFA1CB140F2037331
:100B50009C4203D140F2012000F0ACF8A4F20574ED
:100B6000012C94BF40F203204FF4017000F0A2F872
:100B7000002002B010BD00BF008000500040005AAD
:100B800000A000500040005037B50124324B8DF8D2
:100B900006408DF80740D3F894305B0610D500F07E
:100BA0009DF8A0F2022080B2072809D804FA00F0CC
:100BB00010F0C90F1EBF00238DF806308DF80730E6
:100BC000264B5B68013308D14FF4027000F066F8E1
:100BD00000238DF806308DF807309DF807305BB1A3
:100BE0001E48FFF737FE8DF806009DF806301BB94A
:100BF0004FF4027000F052F89DF806304BB34FF4FA
:100C000080424FF0FF31164B9A6603F17443196628
:100C100001F5800159660021124BC3F8D010BFF3D3
:100C20004F8FBFF36F8F01250F4CC4F88050BFF377
:100C30004F8FBFF36F8F4FF440300C490861C4F8F9
:100C40008051C860054801F140618A669860FFF7ED
:100C500035FF03B030BD00BF004000500020010848
:100C60000090005000ED00E000E100E000A0004432
:100C70004CF23C32014B5A80704700BF000000200C
:100C80004AF6C030044B5B8823F00F039BB21B1A5B
:100C900058425841704700BF00000020044A08B580
:100CA0001080FFF7EDFF10B94FF20F03538008BD1E
:100CB0000000002008B5FFF7F1FFBFF34F8F054993
:100CC000054BCA6802F4E0621343CB60BFF34F8F59
:100CD00000BFFDE700ED00E00400FA054FF20F0150
:100CE000084B5A888A4201D1188870473AB91B8844
:100CF00040F20220012B18BF4FF4007070474FF4F0
:100D000000707047000000204FF4803208B5044B9B
:100D10009A6601F0B1FDB0FA80F0400908BD00BF4D
:100D200000900050072BF8B506460F4614461D46A6
:100D300001D90020F8BD0121202001F0B3F80121E4
:100D4000212001F0AFF88CB144EA06039B07F0D1F3
:100D50004FF48032064B31469A66284623463A467F
:100D600001F0B2FDB0FA80F04009E3E70120E1E7CD
:100D70000090005030B500220C24064B04FB02F119
:100D8000CD58854201D1581830BD01320C2AF5D119
:100D90000020F9E79CC300087FB50023CDE90033AC
:100DA000082315460DEB030204460AF0D0FA41F27F
:100DB00003039842064626D194F8433063B10822D3
:100DC000E06C0DEB02010AF048FB08230DEB030277
:100DD0001146A06C0AF030FB039A029B6A6094F8FB
:100DE00043202B605AB9094A934208D0084A9342DB
:100DF00005D00822E06C0DEB02010AF02EFB6B68B7
:100E0000236500236365304604B070BDF70A0AF716
:100E1000FC0404FC2DE9F743044658680E461746C7
:100E20009846002841D08B0742D14FF000639B6A5F
:100E3000206E1B6902EB000C1D1D65451CD81C3380
:100E4000984219D28542294638BF01469C4594BF35
:100E5000C1EB0C02C1EB0302081AC5F1680506EBF1
:100E6000000968182044494601920BF0F9F9FF2166
:100E70004846019A0BF01BFA226E0F4B9A420AD891
:100E80000E49B818884206D99B1AF258C4F8802037
:100E90004FF0FF32F2503A46D8E90035206E314625
:100EA000A8470020226E3A44226603B0BDE8F083D2
:100EB00041F20200F9E700BF048001080780010841
:100EC0002DE9F04100254FF0FF37044688461646CD
:100ED00003F0200380F842301822FF21C0E91855A2
:100EE000A0F8405080F84350A0F8445080F8465095
:100EF000C0F8887068300BF0DAF988222946C4E916
:100F00001286C4F88070C4F8847004F190000BF06D
:100F1000CEF9074BC4F82071C4E9463584F8245152
:100F200016B1304600F000FC0020BDE8F08100BFA3
:100F3000000101012DE9F04FA5B09846CDE911233C
:100F4000002304460E462E9D1393139A424501D367
:100F50000020D1E094F84630132BF7D8DFE813F0E7
:100F60006700B400AE00520039002D00C401390002
:100F7000BC01390073013900BC01AB021B03140032
:100F800012015102510219034FF00009636D0F2B3A
:100F900000F298800127102314AA2046CDF804906F
:100FA000009711A90AF0D3F941F203030890089AB7
:100FB0009A4200F0D980089B45E04FF00109D4E93E
:100FC0001432934200F2E88084F8469041F2030321
:100FD00039E04FF00109D4E91417B94272D9C91B9D
:100FE000DDE91272BF1A94F840200329174440F239
:100FF0008381032F00F28381204611A90AF086F92C
:10100000002320E00127636D072BDFD8082314AAF3
:101010002046CDE9007711A90AF099F941F20303BE
:101020000B900B9A9A4200F023810B9B0BE014AAC1
:10103000204611A9FFF7B0FE41F203020590059B7F
:10104000934208D0059B049341F20303049A9A4209
:101050003FF47BAF4FE0159A149922650022626538
:10106000A34A914240F01181022284F84620EAE727
:10107000012314AA009320460823019711A90AF01E
:1010800066F941F203030690069A9A4201D0069B44
:10109000D9E7149B03F07F43B3F1407F05D01323BE
:1010A00084F8463041F20903CDE7159BD90706D5F0
:1010B00094F8423043F0010384F842300027636D16
:1010C000072BD5D901230CE1204614AA11A9FFF75B
:1010D00063FE41F203030790079F9F420FD0079FD3
:1010E00041F203030497049A9A423FF42EAF049B03
:1010F0000BB10023F370049825B0BDE8F08F14986D
:10110000FFF738FE28B9132341F2080784F8463068
:10111000E6E7437994F824219A4205D9132341F252
:101120000E0784F84630DBE7026872498A4205D030
:101130000289D20748BF013384F8243194F8423041
:10114000D9070DD5028994F84330920706D53BB1F3
:10115000132341F2010784F84630C1E7002BF7D092
:10116000037984F84630BBE7D4F848A000F028FBA8
:1011700080230221CDE9000315AA3B46504600F02A
:1011800029FA03E7226D0123A265002284F8433087
:10119000E26584F84630D8E614AA2046CDE90099E5
:1011A00011A90AF0D4F841F203030990099A9A426E
:1011B00001D0099B47E714AF06F108030DF1680C55
:1011C0003A4603CA624518605960174603F108039E
:1011D000F6D110681860337843F001033370EEE6FF
:1011E000337843F004033370179BB36273785F075F
:1011F00026D5EB238DF8503017238DF85130A623D8
:101200008DF852305E2300208DF85330236D6066D8
:10121000C4F8843094F8453043F0020384F8453034
:10122000EF686FB104222B6814A9B8470822606EDA
:101230002B68EF6816A91044B847636E10336366D5
:101240000B2384F84630636D072B3FF6BFAE0123B6
:1012500016AACDE900332046082311A90AF077F831
:1012600041F203030A900A9A9A42B9D00A9BEAE62D
:10127000337843F002033370149B7360236D083B93
:101280007362159BB3F1006F05D0132384F84630C9
:1012900041F20103D7E6042384F8463094F8453040
:1012A00043F0010384F8453000236366ABE6042372
:1012B00014AA2046CDE9007711A90AF048F841F2B6
:1012C00003030C900C9A9A4201D00C9BBBE6236D51
:1012D000042B02D9149B23660127636D032BE6D9E7
:1012E000092384F8463071E600236366072350E73C
:1012F000EB17A603F90707F98F42FFF47DAE4029EB
:1013000028BF40218F4228BF0F46032F88BF27F0F8
:1013100003073B4614AA2046CDE9009911A90AF01B
:1013200016F841F203030D900D9A9A4201D00D9BDD
:1013300089E694F846A0BAF1070F04D1D5F808B0B1
:10134000BBF1000F1BD1042FC7F1040B88BF4FF076
:10135000000B14AB5A46FF21D8190AF0A8FFBAF1C6
:10136000090FBB4414D12B465A46204614A9FFF757
:1013700051FD0D900D9B002B3FF42DAED7E73A4663
:101380002B68606E14A9D847626E3A44626622E602
:10139000BAF1040F21D1737898077FF51CAEEB6882
:1013A000002B3FF418AE626E042A0BD80BEB02033D
:1013B000062B07D915AB9B1A1A68C4F884204FF086
:1013C000FF321A605A462B68606EEF6814A9B8475E
:1013D000626E0BEB02076766FDE5BAF10B0F7FF457
:1013E000FAAD737859077FF5F6ADD5F80CA0BAF1D0
:1013F000000F3FF4F0AD5A462B68606E14A9D04739
:10140000E6E74FF000618A6A496B1269503A9142EF
:101410003FF63EAF112B0FD194F81831002B7FF41B
:1014200051AE41F206030E930E9A9A4202D1132353
:1014300084F846300E9B06E694F84430002B7FF487
:1014400041AECDE9003314AA4023204611A909F08A
:101450007EFF41F203030E900E9A9A42EAD1E06CAD
:1014600009F0FDFF94F81831A3B104F1B403E06C66
:1014700000931CAA04F1940314A900F0D5F80E906F
:101480000E9B9BB10023F370132384F8463041F286
:101490000603D8E5E76C00F057F9039000F072F905
:1014A000039B00901CAA384614A9E6E70123F370B9
:1014B00084F8443006E6002314AACDE90033204620
:1014C000042311A909F043FF41F203030F900F9A7F
:1014D0009A4202D00F9B04930DE6D4F888202F4B3C
:1014E0009A4205D0132384F8463041F20503F2E70F
:1014F0000123F37094F84530DA0707D5EF682FB170
:1015000004222B68104604F18401B84794F8453052
:101510009B0707D5EF682FB104222B68104604F112
:101520008401B847236E6BB36F685FB34FF0FF332E
:1015300004F18001042210A8109303910AF080FEA8
:1015400020B104222B6803991548B84704F16809B3
:101550000422494610A80AF073FE98B14FF00063C8
:101560009B6A1422D3F8108004F16C0108F1080082
:10157000D5E90037B847D5E900370422494608EBDA
:101580000200B8470123B3700E2384F846300023CD
:10159000A1E70023F37041F20700ADE5E320BBDED5
:1015A0000480010830B50824094B00255C6601243D
:1015B00003F5FE235C6001449D601A61DC60884293
:1015C00001D1586A30BD10F8012B1A62F7E700BF4D
:1015D00000900050F7B516464FF480621D46114B3F
:1015E00004469A6620300F46019009F0E6FFDDE9D7
:1015F0000812019809F0E5FF002384F8587063642D
:101600003368C4F859307368C4F85D30B368C4F8FF
:1016100061302B0C6DBA84F86530A4F8665003B0C5
:10162000F0BD00BF009000502DE9F04315464FF487
:1016300080621C46364B99B0DDF880900E46074616
:101640009A66002861D000295FD0002D5DD0002C63
:1016500058D0304B304AB9F1000F14BF984690462D
:101660001C22002111A80AF022FE2C4B414610A892
:10167000109309F07BFF202110A809F077FF0122C9
:10168000274B019402920393CDF810900592069394
:1016900054B1B9F1000F07D001A910A809F052FF09
:1016A00004A910A809F04EFF079701271C4C07A9B1
:1016B00010A80897099409F045FF0AA910A80A96EE
:1016C0000B970C940D950E970F9409F03BFF0DA905
:1016D00010A809F037FF10A809F051FF114B009333
:1016E0004FF098435A6CD202FCD55B6D40F2046017
:1016F00003F470230093009B002B08BF002019B057
:10170000BDE8F083DFF81080AAE740F20160F6E759
:10171000009000501F2400801F24FC84000001065C
:1017200020000020785634124FF4806210B5044631
:10173000044B9A6609F096FE2046BDE81040002151
:1017400009F094BE009000504FF4806200B50B4B3E
:1017500091B09A666946002340224FF4807001F0F0
:1017600023F9B0F5A02F07D0B0F5302F044818BFEB
:10177000002011B05DF804FB0148FAE7009000502A
:101780004CE317084FF4806200B50B4B91B09A669A
:101790006946002340224FF4807001F005F9B0F54E
:1017A000A02F07D0B0F5302F044818BF002011B08B
:1017B0005DF804FB0148FAE7009000506CE317085D
:1017C0000048704786E217082DE9F34799460A9BBF
:1017D0000C46196805463F29164642D85A68002A21
:1017E00041D0224A002E14BFB046904601F03F0778
:1017F000091928BF5A68196024BF01325A60AFB175
:10180000C7F1400AA24521D82946524609EB0700F4
:101810000AF026FD0123414600934A463346002044
:1018200000F086F8B046403C55443C443F2C0CD96F
:10183000A3092A46009341463346002000F078F879
:1018400024F03F031D4404F03F0400272CB122463E
:10185000294609EB07000AF003FD002002B0BDE8AD
:10186000F0879046C2E7DFF80480BFE72CC4000889
:1018700030B40546084611461A46DDE9023425B95A
:1018800031B1029430BCFFF79FBF024830BC7047B3
:101890000846FBE780AFFFFF2DE9F04117461468CB
:1018A00086B01E46E3008DF80F30630952688DF84C
:1018B0000E30630B8DF80D30630D8DF80C30D300B6
:1018C00003EB54738DF80B3004F03F045309372CAD
:1018D0008DF80A304FEA52334FEA525205468DF8DE
:1018E0000820884694BFC4F13802C4F17802CDE9DB
:1018F00000178DF809300D4903460020FFF7B8FFA7
:10190000082143462A4600970DEB0100FFF75CFFD4
:10191000284605F1200350F8042B984246F8042B82
:10192000F9D1002006B0BDE8F08100BF4CC400082A
:10193000F0B517464FF480621D46254B93B00E4616
:101940009A660446202200210AA80AF0B0FC012071
:101950004FF0005201970290039204960590069270
:10196000079508900992002C2FD1189C194BA401BF
:1019700021460AA80A9309F0F9FD03990AA80C4325
:101980000394069B04A943F020030693099B43F0AC
:101990002003099309F0D6FD01A90AA809F0D2FD98
:1019A00007A90AA809F0D8FD0AA809F0E8FD4FF038
:1019B00098435A6CD202FCD55B6D13F4702F0CBFA8
:1019C00000206FF06F0013B0F0BD6FF07100FAE708
:1019D0000090005000040103044BD3F88420D20689
:1019E000FBD4D3F88400C0F381107047004000504E
:1019F00038B5104B0546D3F880300C4603F003038E
:101A0000022B0BD0032B0DD0012B0FD1FEF7FAFCCC
:101A10000E2305B1286004B1236038BDFEF73CFDFC
:101A20000723F6E7FEF7E8FC0623F2E70023184653
:101A3000EFE700BF0080005038B5174B0546D3F8DC
:101A400020310C4603F00703013B052B20D8DFE8CB
:101A500003F0030B130F171BFEF7CEFC052305B194
:101A6000286004B1236038BDFEF7FCFC0323F6E7D1
:101A7000FEF712FD0723F2E7FEF70AFD0223EEE769
:101A8000FEF7BAFC0623EAE7FEF7ECFC0423E6E7E0
:101A900000231846E3E700BF0080005038B5174B1D
:101AA0000546D3F828310C4603F00703013B052B0C
:101AB00020D8DFE803F003131B0F0B17FEF79CFC85
:101AC000052305B1286004B1236038BDFEF794FCFE
:101AD0000623F6E7FEF7E0FC0723F2E7FEF7C2FC79
:101AE0000323EEE7FEF7BEFC0423EAE7FEF7D0FC93
:101AF0000223E6E700231846E3E700BF008000501A
:101B000073B50D460021114B0191D3F88041064673
:101B100004F00304022C13D0032C0CD0012C13D19D
:101B200001A8FFF789FF10240EB1019B336005B1B6
:101B30002C6002B070BDFEF7AFFC07240190F3E704
:101B4000FEF7A6FC0190EFE70C46EDE700800050A1
:101B5000002337B50193154B0546D3F820320C46C8
:101B600003F00703013B032B1ED8DFE803F0020E4E
:101B70001318002101A8FFF791FF12230DB1019A5C
:101B80002A6004B1236003B030BDFEF785FC072353
:101B90000190F3E709F0ACFA0A230190EEE7FEF7B3
:101BA000BDFC09230190E9E70023E7E7008000502E
:101BB00038B5104B0546D3F840310C4603F003030B
:101BC000022B0BD0032B0DD0012B0FD109F090FA73
:101BD0000A2305B1286004B1236038BDFEF79EFCDE
:101BE0000923F6E709F087FA0C23F2E700231846E9
:101BF000EFE700BF00800050002337B50193164B7C
:101C00000546D3F860320C4603F00703013B032B73
:101C10001FD8DFE803F0020E1914002101A8FFF716
:101C20000BFF10230DB1019A2A6004B1236003B0A9
:101C300030BD002101A8FFF7BBFF1123F2E7FEF73B
:101C40002BFC07230190EDE7FEF722FC0223019015
:101C5000E8E70023E6E700BF00800050002337B527
:101C60000193164B0546D3F894320C4603F0070354
:101C7000013B032B1FD8DFE803F0020E19140021EB
:101C800001A8FFF7D9FE10230DB1019A2A6004B113
:101C9000236003B030BD002101A8FFF789FF1123A5
:101CA000F2E7FEF7F9FB07230190EDE7FEF7F0FB03
:101CB00002230190E8E70023E6E700BF0080005020
:101CC00038B5134B0546D3F800320C4603F0070332
:101CD000013B032B18D8DFE803F0020A0E1209F0CB
:101CE00007FA0A2305B1286004B1236038BDFEF766
:101CF00015FC0923F6E709F0FEF90C23F2E7FEF7DD
:101D00009BFB0F23800AEDE700231846EAE700BF9C
:101D10000080005038B5134B0546D3F808320C4606
:101D200003F00703013B032B18D8DFE803F0020A96
:101D30000E1209F0DDF90A2305B1286004B1236011
:101D400038BDFEF7EBFB0923F6E709F0D4F90C23C5
:101D5000F2E7FEF771FB0F23800AEDE70023184638
:101D6000EAE700BF0080005038B5104B0546D3F8B5
:101D700040320C4603F00303022B0BD0032B0DD093
:101D8000012B0FD109F0B4F90A2305B1286004B181
:101D9000236038BDFEF7C2FB0923F6E709F0ABF973
:101DA0000C23F2E700231846EFE700BF0080005045
:101DB00038B5104B0546D3F860310C4603F00303E9
:101DC000022B0BD0032B0DD0012B0FD109F090F972
:101DD0000A2305B1286004B1236038BDFEF79EFBDD
:101DE0000923F6E709F087F90C23F2E700231846E8
:101DF000EFE700BF00800050B0F5207F1FD009D86A
:101E0000B0F5007F15D003D868B1B0F5C07F0AD017
:101E100000200CE0B0F5607FFAD10B4BD3F88000C6
:101E2000C0F3011003E0084B186FC0F3033001301A
:101E30007047054BD3F89000C0F30460F7E7024BFE
:101E4000186FC0F38020F2E70080005002464FF484
:101E50008030104B10B598660020FFF7CDFF50433F
:101E600041F671320C4BDC69DA635A6804F4803451
:101E700022F4401259B9094988428CBF4FF48010AE
:101E80000020104358600CB10022DA6310BD0449F1
:101E9000F2E700BF0090005000000350005A6202B9
:101EA000002D3101430905D0012B0DD0022B094B28
:101EB00018BF002300F01F0041B103F58053012239
:101EC00002FA00F018607047034BF3E703F5005384
:101ED000F5E700BF68800050648000501FB5002106
:101EE00080280446CDE9001100F0998029D8002807
:101EF00000F09980A0F120043D2C35D83D2C33D83A
:101F0000DFE804F091999199A8A8A8A8A899B23CF3
:101F1000C8603C99999932323232323232329999D0
:101F20009968D299323232323232323232323232ED
:101F300032A8919191CD3C3CD7774DAD32323232BF
:101F40003288B0F5B06F00F08F802DD8B0F5207FCB
:101F500071D00CD8B0F5C07F65D0B0F5007F65D0EA
:101F6000B0F5807F00F08580009804B010BDB0F51A
:101F7000607F6AD00DD8B0F5407FF5D1FEF75CFAEE
:101F800002464FF42070FFF737FFB2FBF0F0400835
:101F900047E0B0F5806F5DD0B0F5A06FE4D10021CF
:101FA0006846FFF7D5FDDFE7B0F5106F77D016D89C
:101FB000B0F5E06F78D00AD8B0F5C06F6AD0B0F550
:101FC000D06FD1D100216846FFF77AFECCE7B0F59B
:101FD000F06FC9D100216846FFF7EAFEC4E7B0F50B
:101FE000406F3CD013D8B0F5206F62D0B0F5286FA9
:101FF000BAD10021314B0391D3F8703203F00303BF
:10200000012B02D103A8FFF7D3FD039B3BE0B0F502
:10201000486FA9D100216846FFF720FEA4E7FEF72C
:10202000F1F90090A0E7FEF707FAFAE7FEF7EAF900
:102030000246204604E0FEF7FFF902464FF4207006
:10204000FFF7DAFEB2FBF0F0EBE701A8FFF7D0FCF8
:10205000019AEEE700216846FFF7EEFC84E70021D5
:102060006846FFF71BFD7FE700216846FFF748FD44
:102070007AE74FF0E02302911B695B0705D5FEF775
:10208000DBF90290029B00936EE703A902A8FFF719
:102090008FFDF7E700216846FFF78AFD64E700211E
:1020A0006846FFF737FE5FE700216846FFF75CFEF2
:1020B0005AE700216846FFF79FFD55E70080005072
:1020C00008B58020FFF70AFF034B98429EBF4FF4EC
:1020D0008032024B1A6708BD005A620200A000500D
:1020E0001FB50023B0F5807F019300F0C38064D852
:1020F0005D2855D84C2807D82D2847D823282BD819
:10210000019805B05DF804FB4D381028F8D801A3FC
:1021100053F820F06B22000801210008012100087B
:10212000012100081D2200080121000801210008EA
:10213000F12200083B220008E1210008E722000804
:1021400001210008012100080121000801210008E7
:1021500001210008FB22000824380928D0D801A357
:1021600053F820F06B2200086B2200086B22000855
:102170006B2200086B220008012100086122000880
:1021800001210008FD210008A12200083D2800F0DF
:1021900082803E28B4D1002001A9FFF7E5FDAFE71A
:1021A0008028ADD15A4B1B6F03F00703013B032B73
:1021B000A6D8DFE803F05350878FB0F5F06F6AD0F0
:1021C00021D8B0F5B06F4BD00FD8B0F5607F00F0DC
:1021D000858095D3B0F5806F47D0B0F5A06F8FD1D3
:1021E000002001A9FFF7B4FC8AE7B0F5D06F57D003
:1021F000B0F5E06FCFD0B0F5C06F81D1002001A95C
:10220000FFF7D6FC7CE7B0F5206F71D00BD8B0F5A6
:10221000086F4AD0B0F5106F7FF472AF002001A9AB
:10222000FFF778FD6CE7B0F5406F5CD0B0F5486F14
:1022300063D0B0F5286F7FF463AF0021344B039176
:10224000D3F8703203F00303012B5BD0022B14BFD1
:102250000B46152300E00523019351E70223FBE71A
:10226000002001A9FFF74CFC4AE7002001A9FFF775
:10227000E3FB45E702934FF0E0231B695B0705D5BD
:10228000FEF7DAF80D230393039BE5E703A902A801
:10229000FFF78EFCF8E7002001A9FFF789FD2FE783
:1022A000002001A9FFF70CFD2AE7194BD3F80031F4
:1022B00003F00303022B07D0032B09D0012B0BD112
:1022C000FEF7D0F80323C7E7FEF728F90923C3E791
:1022D00008F00CFF0823BFE70123BDE7184601A95A
:1022E000FFF786FB0CE7002001A9FFF7D7FB07E704
:1022F000002001A9FFF780FC02E7002001A9FFF7F9
:10230000ADFCFDE603A8FFF753FC1123A4E700BFD3
:10231000008000504FF48012034B5A664FF4803215
:10232000024B9A62704700BF009000500050005A64
:1023300038B504468020FFF7D3FE032800F08380E1
:102340004FF48012504B4FF0A0615A6645F60E03D1
:102350004E4AC2F880304E4B99624FF4803103F5FB
:1023600080539962916D11F48031FBD1D4E900035F
:102370001B0543EA0063E07B0343207B43EA004301
:10238000607B43EA0033A07B43EA801313619069CA
:10239000D4E904531B0643EA856300F0004003437D
:1023A000A07EE57E0343207E43EA0043607E43EA4D
:1023B00000239361E069136A00280CBF0022082201
:1023C00023F00F0343EA000343EA850343EA0203D1
:1023D0002E4A304D136237D194F82430916A94F824
:1023E0002000DB000D4043EA401394F821102B43FA
:1023F00043EA011343F480339362274B916D33EA30
:102400000101FBD14FF08071214881621369A568F9
:1024100023F4700343EA055313614FF000438361D3
:1024200094F822300BB91D4B996294F823301BB9F4
:102430004FF48032194B9A6294F825301BB1134B3C
:10244000174AC3F8802038BD022808D11161154809
:1024500091614FF408524FF47F4109F020F80B4985
:1024600094F822308A6A94F820001B06154043EA4B
:10247000401394F824202B4343EAC20394F823200A
:1024800043EA02438B62D7E7009000500040005AB5
:102490000050005AC7FFFEFE030001000060005A12
:1024A000F1A7FFFF3440005A014B93F90000704739
:1024B00066100020B0F5207F10B50C4657D008D824
:1024C000B0F5007F48D003D830B3B0F5C07F23D03B
:1024D00010BDB0F5607FFBD129492A48D1F8FC2016
:1024E00012F080721EBFD1F8FC3023F08073C1F867
:1024F000FC30D0F88030611E23F0300444EA01142F
:10250000C0F88040002AE3D01D4AD2F8FC3043F0E6
:102510008073C2F8FC30DBE708F0D2FF08F0DEFF82
:102520004FF48031184B174A1967136F611E23F45B
:10253000704444EA01341467FDF77EFF0446FFF758
:102540004BFAC0F10201204608F0C2FF00F02EF85D
:10255000BDE81040FFF7B4BD0A4A0139D2F8903007
:1025600023F0F85444EA0164C2F89040B0E7054B08
:10257000013C196F21F4806141EA84241C67A7E7BC
:1025800000ED00E0008000500090005008B50121EF
:10259000022000F025F808F093FF08F09FFF4FF4A9
:1025A0008032014B1A6708BD0090005008B54FF407
:1025B000C070FFF793FCBDE80840044988428CBF17
:1025C000022101214FF42070FFF774BF80F0FA025E
:1025D000024A536B0342FCD1704700BF00400950D0
:1025E000F8B504461C4BD3F88420D106FBD4D3F8AD
:1025F0008430C3F381139C422CD0FDF703FF012CE0
:10260000064602D1214608F063FF08F081FF4FF033
:102610000072124B07465A66204608F089FF4FF4B5
:1026200080630D4D621E93402B676B6E9A0103D43D
:10263000D5F884309B060AD5384608F06DFF022C89
:1026400008D13046BDE8F840002108F041BFD5F878
:102650008430EAE7F8BD00BF004000500060005041
:1026600007B518B90191FDF7CDFE0199064B1B780E
:1026700043B1064B984205D8012003B05DF804EB46
:10268000FFF7AEBF0220F8E7A1230020005A620244
:102690004FF00042154B10B55A664AF6CD33144937
:1026A0004C6C0B6404F0010488B90120FFF790FF23
:1026B0004B68DB0704D50F4B58600B6BD807FCD574
:1026C00014B10B4B0C4A1A6409F0F1FA10BD0B6BF4
:1026D0001A07FCD42022074B9A620122A3F58053EB
:1026E0005A60034A936A9B06FCD5E9E700900050C4
:1026F00000400950006009503254FFFF4FF0004283
:1027000038B5164B01465A664AF6CD33144C154A75
:10271000656C236443780B205B0043F00103D363B3
:10272000FFF756FF63688A7823F4F87343EA0213CD
:102730006360CA784B7943EA0223A3600A798B79F4
:1027400043EA022323610878FFF7A2FFEB0744BFA7
:10275000054B236409F0ABFA012038BD009000500E
:1027600000400950004000503254FFFF4FF000423B
:10277000124B70B55D6E03F580535A664AF6CD3341
:1027800004460F4980204E6C0B64FFF721FF0B6A53
:1027900023F00F030F2C94BF234343F00F030B626E
:1027A000F30744BF074B0B64002DA2BF4FF000425C
:1027B000054B5A6609F07BFA70BD00BF00800050DF
:1027C000004009503254FFFF00A000504FF000427B
:1027D000104B70B55D6E03F580535A664AF6CD33E3
:1027E00004460D4980204E6C0B64FFF7F1FE0B6A26
:1027F00023F4F85343EA04230B62F30744BF074B67
:102800000B64002DA2BF4FF00042054B5A6609F041
:102810004EFA70BD00800050004009503254FFFF56
:1028200000A00050F0B5114A114C124E00F0010505
:10283000E3695F0713D40DB9334213D103EA0007EC
:102840008F4207D10B4A1A40002A14BF6FF00100D3
:102850000020F0BD013AEBD16FF00200F9E74FF034
:10286000FF30F6E76FF00100F3E700BF80969800B5
:1028700000000350020001004FF4803238B50E4BC7
:102880000E4C9A66E56941F6713315400122E36307
:102890000B4B0021DA600223606121202361FFF7E6
:1028A000C1FF10B92120FFF7BDFF0122054BDA60FF
:1028B0000DB10023E36338BD0090005000000350C9
:1028C00000100350002003502DE9F04F06464FF44E
:1028D00030250120B400DFF8C0C004F1A04404F5A5
:1028E0008824CCF804006560302500244FF480373C
:1028F000DFF8A8E0DFF8A89005FB06E5EC652C669C
:102900002C67234CDFF89CA0A76641F6713704F5CD
:102910001C34D4F81C80E763E76800FA06F6074326
:10292000E7604BB9E26818F4803F22F00102E260F0
:1029300000D0E363184628E001F5005000EA0900E2
:10294000401A984228BF18466161D4F81CB0870825
:102950001BF0040F17D1013F3F0147F060576F662E
:10296000AA66C5F86CA0CCF82460DEF834703E424C
:10297000FBD0084F01447E630427CCF82860024452
:1029800027611B1ACDE74FF0FF30BDE8F08F00BF85
:10299000009000500020045000100450000004502B
:1029A00000E0FFFF18000350F0B507460F4D104838
:1029B0008DB0002B08BF05460E46144600211C2290
:1029C00005A809F074FC012304A801A93D4344F0C3
:1029D0000054019604950293039408F0BDFD08F09D
:1029E000CEFD08F0A6FD0DB0F0BD00BF01000AFF4E
:1029F000010008FF4FF48032064B5A6603F5E623C8
:102A00009B69C3F38512827003F03F021B0B427077
:102A1000037070470090005038B50446054D09F02A
:102A200059F90FCC0FC594E8030085E80300002096
:102A300038BD00BFC812002047F6FF739A42F0B5B8
:102A400067D0012967D8354DCF0015F8313005EB37
:102A5000C100012B847813D10025C3781B1B9D4234
:102A600002D3E018C0B2F0BD591B4668A3EB510178
:102A700036F911609642D4BF0D4601F1FF33EEE7FF
:102A800040680028EFD0B0F90030934204DBB0F981
:102A900002309342B8BF134682883D44FF2A19BFD3
:102AA000C8214FF0280CB0F90610B0F908C0A1EB0E
:102AB00003020CBF0126002692FBFCF26D78324423
:102AC00012B2954201DD002A01DA6A1E12B24FF4F9
:102AD0007A7700EBC206F188B668013213FB016118
:102AE00012B221EAE17101F5FA719542B1FBF7F1F9
:102AF00004DD00EBC206B6888E42EAD200EBC202C9
:102B000032F8040C884228BF0846A04238BF20464D
:102B1000A8E7FF20A7E70020A5E700BFC812002014
:102B20000148FFF779BF00BFB8CB000800487047E5
:102B3000581000204FF48062014B00209A667047C5
:102B4000009000504FF48062014B00209A6670475D
:102B500000A000502DE9F04104681E4624F0400317
:102B6000802B05468846174692B002D0B4F5807F88
:102B700043D11C2200210BA809F099FB224A234BC8
:102B80000121B8F1010F18BF13460A932B1D0193C1
:102B9000E4081F4B44F0005402910AA803940497E0
:102BA000059106930796089101A9099308F0CAFCBC
:102BB00004A90AA808F0C6FC07A90AA808F0CCFCDA
:102BC00029680AA8C90808F0D1FC10210AA808F051
:102BD000CDFCFFF7AFFF98B90AA808F0D0FC4FF082
:102BE00098435A6CD202FCD55C6DFFF7ABFF04F43E
:102BF0007024204612B0BDE8F0816FF07100F9E753
:102C00004FF0FF30F6E700BF0001010400010004AF
:102C1000100000202DE9F04F9BB0074689469846EA
:102C20001646DDF894B072B115683B6823F0400297
:102C3000802A03D0B3F5807F40F0A6800BEB090318
:102C4000002400930DE01546EFE795B1249A1BF898
:102C50000430525D01355340269A05F00F05135597
:102C600001344C45F1D3002E00F0918000203560F6
:102C700067E0A9EB040ABAF10F0F57D91C222946C5
:102C800013A809F014FB434B3A6812933B1D0393BE
:102C90000123D20842F00052049305923E4A26993D
:102CA000CDF818802AF00F0A07930892CDF82480F7
:102CB0000A930B920BEB04020C9221444AF000524F
:102CC0000D9312A80E920F9103A91093119208F080
:102CD00039FC06A912A808F035FC0CA912A808F0C6
:102CE00031FC0FA912A808F037FC09A912A808F0B6
:102CF00033FC396812A8C90808F038FC514612A8FC
:102D000008F034FCFFF716FFC8B912A808F037FC2A
:102D10004FF098435A6CD202FCD55B6D544403F4D7
:102D200070230193FFF70EFF019B5BBB269B0BEB10
:102D3000040A1C44009B9A4506D14C4691E74FF08B
:102D4000FF301BB0BDE8F08F8DB9424601213846F7
:102D5000249BFFF7FFFE0028F3D108F1100212F8C0
:102D6000013D0133DBB213700BB99045F7D1249AC2
:102D70001AF8013B525D0135534004F8013B05F060
:102D80000F05D7E71846DCE76FF01F00D9E730469C
:102D9000D7E700BF030300041000002007B5094B6C
:102DA00018689A889B7900906846ADF804208DF8E1
:102DB0000630FFF7A3FC0320FFF7D8FC002003B088
:102DC0005DF804FB8CC4000830B58BB06C461A4D1E
:102DD0000FCD0FC40FCD0FC495E8030084E80300A6
:102DE000164BD3F84C2112031DD4D3F8504114F0E4
:102DF000FF0406D14FF6FF72114B1B88934215D08A
:102E00001C468DF81940FFF74FFB204480F3080063
:102E10008DF818000B48FDF72BFB6846FFF788FA82
:102E200000200BB030BD4FF0FF34E3E7631C14BF4C
:102E300000248C24E5E700BF94C400080080E00F64
:102E40000001E00FC0175302014808F037BC00BF73
:102E5000E0120020014808F006BC00BFE01200208C
:102E6000014800F053B800BFE01200200A460146B6
:102E7000014800F07BB800BFE0120020014800F0DC
:102E8000B5B800BFE01200201FB50A79064B0292C8
:102E90000A6808310192022200920CCB08F0DEFC95
:102EA00005B05DF804FB00BFCCC4000830B50B7959
:102EB00085B00333029301F14403019302230C46CE
:102EC0000546114A009314310CCA08F0C7FC238A46
:102ED00004F12C010293E36828460193237A0093BE
:102EE00094E80C0008F0BAFC0546237AA4F84500E3
:102EF0002279216884F8443004F1470009F0B0F9E0
:102F0000284605B030BD00BFC4C4000838B505462A
:102F1000124B134CD4E9020183E8030019462846FA
:102F2000FFF7B2FFD4E9040110220E4B83E803003F
:102F3000194628461A72FFF7B9FFD4E906010222A2
:102F4000094B20341A7283E80300DC6019462846D6
:102F50001A82BDE8384008F08FBB00BFE4130020A0
:102F6000E0C400084013002098130020F8B5044680
:102F70000D4B0E4D0F46D5E9090183E803001946B4
:102F800020461646FFF780FFD5E90B010222084BC9
:102F90001A7283E80300DF60194620461E82BDE8EE
:102FA000F840FFF783BF00BFC4130020E0C400084F
:102FB000E812002010B50C4630B908F0A6F8034B13
:102FC000186023600423A380002010BD0414002097
:102FD00010B50C4630B908F096F8034B1860236022
:102FE0000423A380002010BD081400202DE9F7431E
:102FF00006466D464FF00809404C414B414F94E85E
:10300000030083E8030019463046FFF73DFFD4E98B
:10301000020187E8030028463B4987F8089008F03A
:1030200026FB95E8030007F10C0383E8030039460B
:103030003046FFF73BFFD4E904010C234FF00208B0
:10304000324F87E80300284631493B7208F00FFBF6
:1030500095E8030007F10C0383E803003946304686
:10306000FFF724FFD4E906012A4B2B4A83E803002B
:103070001946304683F80880DA60A3F81090FFF70D
:1030800015FFD4E90801254B254A264FDA600122B5
:1030900083E80300194630461A8283F80880FFF758
:1030A00005FFD4E90A0187E8030028461E4987F88E
:1030B000088008F0DCFA95E8030007F10C0383E8C8
:1030C00003003946194F3046FFF7F0FED4E90C01F2
:1030D00087E803002846164987F8088008F0C7FAF1
:1030E00095E8030007F10C0383E8030039463046F6
:1030F00003B0BDE8F043FFF7D9BE00BF8CC50008A0
:103100001C1600201415002005B700086C150020BF
:10311000EDB6000864140020C4C50008C4150020E2
:10312000CCC50008BC140020D12F00080C140020CE
:10313000B52F0008074B9A6CDB6C110A0270120C59
:1031400082701A0AC2701A0C1B0E41700271437110
:10315000704700BF0080E00F7FB500230130CDE94C
:10316000043380B2054BCDE9010169460420009388
:10317000039208F094FB07B05DF804FBA223002043
:103180001B22014B1A8070477C230020F7B50346B1
:10319000CDE9001207460E4615464FF48040094A15
:1031A000094908F09EFA0022012311460420074C29
:1031B000237067706680257103B0BDE8F040FFF7AB
:1031C000CBBF00BF6DC70008CDC50008A2230020FB
:1031D000034610B5094A044609494FF4804008F0F7
:1031E00080FA0322074B02201A700022A3F8014044
:1031F0001146BDE81040FFF7AFBF00BF56C700083B
:1032000001C60008A223002030B50C4685B004A9F1
:1032100001E90C00054603460A4A4FF480400A497A
:10322000009408F05EFA05220320084B02991A70F8
:103230009DF80C205D705C8005B0BDE83040FFF764
:103240008BBF00BF3BC700080DC60008A2230020AB
:1032500037B5034605460C4600914FF48040094AB5
:10326000094908F03EFA0722084B04201A70002290
:103270001146A3F80150A3F8034003B0BDE8304065
:10328000FFF76ABF20C7000831C60008A22300204C
:1032900038B5094A05460C460B464FF480400749AD
:1032A00008F01FFA0B22064B29461A70002022460E
:1032B000BDE83840FFF750BF10C7000856C60008E9
:1032C000A223002008B54FF48040074A074908F0C0
:1032D00008FA1322064B1A700022BDE80840114676
:1032E0001046FFF739BF00BFFFC6000865C60008DB
:1032F000A223002073B50346144605460E460092ED
:103300004FF48040084A094908F0EBF90922084BBC
:1033100031461A70A21C5A70032022465D8002B00A
:10332000BDE87040FFF718BFE9C600086BC600088B
:10333000A22300202DE9F3411C469046CDE900135D
:1033400007460E4603460A4A4FF48040094908F0F2
:10335000C8F91123224641460520074D2B70231D35
:103360006B706F80AE8002B0BDE8F041FFF7F4BE35
:10337000CEC6000889C60008A223002070B50D46FD
:1033800003780C4A04460C494FF4804008F0A9F930
:1033900000230A4E691E204689B2738000F040F86F
:1033A000024628B171882078BDE87040FFF7EEBE74
:1033B00070BD00BFC6C60008B3C600087C2300204D
:1033C000024610B500B3114B1968888890421BD390
:1033D00098880024904281BF0120096898809960F4
:1033E0009868998828B904B198604FF6FF729A805E
:1033F00009E08A4204D001310124006889B2F1E772
:103400000CB19A80986010BD0020FCE73C160020AB
:103410004FF6FF72014B18609A8070473C160020EF
:103420002DE9F04704780546122C0E4688B017D8CF
:10343000012C18D9A31E102B15D8DFE813F01600A5
:1034400014002F0014005A0014000E0114009F00F5
:103450001400140014001400140051011400CC00D6
:10346000522C00F0DE8006243FE0022940F0B681B5
:10347000B0F80130B34A4FF48040B34908F031F955
:10348000B5F80140B4F5007F28BF4FF40074204622
:10349000FFF79EFEAD4B1C80002426E0042924D1BA
:1034A000B0F80330AA4A0093B0F80130A9494FF4AC
:1034B000804008F016F9B5F8017006ADBEB2294695
:1034C000304608F049F9044618B1A04B5F800A2441
:1034D0000BE09DF81C303146022B08BF012095E817
:1034E0000C0018BF0220FFF78FFE204608B0BDE891
:1034F000F08702278E1FB6B20196B0F80330964AC5
:103500000093B0F8013095494FF4804008F0E9F895
:1035100005F10508EB1D019600938DF81470CDF8A8
:1035200010804246059BB5F80310B5F8010008F07D
:1035300020F94FF6FF76B042044606D1AA786B78A0
:1035400043EA0223814A5380C1E70023CDE90033D7
:10355000CDF818808DF81C7008AB0130314613E9A6
:103560000C0080B208F005F90146B0421CBF00F122
:10357000FF3189B22046FFF76BFE8DE7022940F04C
:103580002D81B0F80130764A4FF48040754908F03B
:10359000A8F83146B5F8010008F03DF96B4E044635
:1035A00028B16B78AA7843EA022373809DE73388B9
:1035B0000146013BADF81030B5F8010004AB06AA96
:1035C00008F03BF904460028EBD1BDF8101006982E
:1035D000FFF75EFE89E78E1EB6B20096B0F80130A6
:1035E000614A4FF48040614908F07BF80821B5F842
:1035F000010008F010F9044630B1AA786B7843EA6C
:103600000223524A538070E701463346B5F8010061
:10361000EA1C08F0E7F804460028EED1FFF752FE56
:1036200063E78E1EB6B20096B0F80130504A4FF4F0
:1036300080404E4908F055F80421B5F8010008F023
:10364000EAF8044600287FF427AF01463346B5F870
:103650000100EA1C08F0C6F847E70E1FB6B2022EBA
:1036600002D0102E40F0BA800024B5F803304FF499
:1036700080400093B5F801303E4A364908F031F8F1
:10368000CDE900446B1D06938DF81C6008AB13E96F
:103690000C00B5F80310B5F8010008F06AF84FF611
:1036A000FF7398420646294F05D16B78AA7843EA02
:1036B00002237B800BE73B882146043BADF80E30AC
:1036C00004AA0DF10E0308F0B8F8044608B17E8094
:1036D0000BE73046BDF80E200499FFF70BFE04E718
:1036E0000E1FB6B2022E01D0102E77D10024B5F8ED
:1036F00003304FF480400093B5F801301E4A15495D
:1037000007F0EFFFCDE9004405F1050AF6B28DF8A8
:103710001460CDF810A05246059BB5F80310B5F81B
:10372000010008F026F84FF6FF7948450746DFF814
:103730001C8023D16B78AA7843EA0223A8F80230D0
:10374000C5E600BF39C8000801C600087C23002078
:1037500026C800087EC7000813C800089CC70008D8
:103760000BC80008C5C7000802C800086BC60008DF
:10377000F9C70008EBC70008D8C70008CDE9004426
:10378000CDF818A006AC8DF81C60013094E80C0050
:10379000494680B207F0EDFF0546B8F800304845CD
:1037A000A3F1060318BF00F1FF352246ADF80E3035
:1037B0004FF0000138460DF10E0318BFADB208F00E
:1037C0003CF8044610B1A8F802708EE62946384647
:1037D000BDF80E30069AFFF7ADFD86E6042484E6B8
:1037E0000022014B1A6070474C18002003291FB5B6
:1037F0001CD90288131D994218D304D84388042B7E
:1038000003D0062B06D0012011E011460430FFF74B
:10381000B5FDF8E70022CDE90222064A694600928A
:1038200002221846019208F03AF8ECE7002005B0B1
:103830005DF804FB6710002037B500220DF107008A
:10384000114600F05FF89DF807300C4C0BB10023D7
:10385000236021680A4DC1F5017292B229440DF12D
:10386000070000F04FF82168014428462160FFF767
:10387000BDFF08B10023236003B030BD4C18002009
:103880004816002010B504464FF4807300210E4AFC
:103890000E4808F097F84FF4807300210C4A0D4849
:1038A00008F090F82046FCF763FC08F04CF800F0B4
:1038B00035FD08F07BF9830705D500F0F9FBBDE87D
:1038C000104000F049BA10BD80190020681900208E
:1038D000681800205018002008B513460A46014613
:1038E000024808F02EF9C0B208BD00BF68190020D8
:1038F00008B5034808F06FF8003818BF012008BD6C
:103900006819002073B50E460446019207F000FEC8
:10391000214605463246019B044808F012F9044648
:10392000284607F0F9FD204602B070BD501800206F
:1039300008B5034808F04FF8003818BF012008BD4B
:103940005018002073B50E460446019207F0E0FDC2
:10395000214605463246019B044808F0BDF804465E
:10396000284607F0D9FD204602B070BD6819002036
:1039700010B50C460146044808F00DF9A04234BFCA
:103980000020012010BD00BF5018002073B50E4666
:10399000114605460192FFF7EBFF044628B1324677
:1039A0002946019B024808F097F8204602B070BDF6
:1039B0005018002010B5034CA07900F007FE00233A
:1039C000236010BD801A00201FB50B4C0B4AA37A50
:1039D0000B490393637A4FF480500293237A019347
:1039E000E3790093A37907F07CFEA01D00F072FD3F
:1039F0000023236004B010BD801A0020FDC9000818
:103A000048C800081FB5104C104AB4F80D304FF4E8
:103A100080500293B4F809300D490193A3790093C3
:103A2000B4F8073007F05DFEB4F80710A07900F095
:103A300083FDB4F80D10B4F8090000F091FD0023E7
:103A4000236004B010BD00BF801A0020CFC9000859
:103A500071C80008014B998018607047801A0020D7
:103A60000022014B1A607047801A0020034A136835
:103A70001BB19288824200D118477047801A0020FB
:103A8000014B187018467047A9230020162838B536
:103A900003464FF0020514BF034613230B4C0C4A98
:103AA0004FF480500B496370257007F01AFE2946C9
:103AB000204600F06DFD00F0C9FE074B074A0530B7
:103AC0001A60627898809A7138BD00BFA9230020DF
:103AD00097C90008A8C80008801A0020B539000856
:103AE00030B5044603787B4A4FF480507A4985B05C
:103AF00007F0F7FD23780C2B0AD80C2B0BD8DFE846
:103B000003F05A3F790A0A0A0A0A890A0A0A1600C1
:103B1000142B00F0A880204600F024F9002867D17B
:103B2000072223786D4802210270437023E0A388A6
:103B30004FF4805001936388694A00936378694920
:103B400007F0CFFD4FF0FF32644C0C23A27002222D
:103B5000E270002223706271012340F2FF22637041
:103B60002371604900924FF480505F4A019307F03F
:103B7000B8FD0621204605B0BDE8304000F008BD84
:103B8000E3885A4A5A494FF4805007F0AAFDE17978
:103B9000A379584A43EA012393801346564943F8D0
:103BA000061BD4F80110C2F80610B4F805209A805C
:103BB000E2799A711CE06389504A4D494FF4805074
:103BC00007F08FFDE27AA37A4A4943EA02238B8009
:103BD0000B464B4A43F8062BD4F80120C1F80620C7
:103BE000D4F805205A60B4F809201A81E27A9A7252
:103BF00005B030BD6378434A4FF48050424907F026
:103C000070FD00F023FE3B4B404A05301A6098805F
:103C10006278CEE7D4F80530D4F801203C49CDE9EC
:103C200000234FF480503B4A07F05BFD00F014FA8C
:103C3000D4F80130294C034003F0FF0320F0FF00CB
:103C4000184309252346002203F8015BC4F801004C
:103C50002F495A60CDE900024FF480502E4A07F0F8
:103C600040FD294686E7B4F807302C4A0293B4F8A1
:103C700005304FF480500193B4F803302849009385
:103C8000B4F8013007F02DFDB4F80310B4F80100CA
:103C900000F074FC1523114C6FF0270223700723EA
:103CA000E2702371E271237200216FF004004FF47F
:103CB000FB62FB236070A1706071A1714FF48050B2
:103CC000CDE9013216490092164A07F00AFD092192
:103CD00050E700BF8EC90008BEC80008A923002015
:103CE00083C90008CFC8000825CA000817CA000801
:103CF00000C90008801A0020C9390008E9C9000875
:103D0000053A0008C2C90008A8C80008B53900086B
:103D100010C90008B7C90008A8C9000879C9000877
:103D200029C900086BC9000810B5084B4FF4805032
:103D30009C79074A2346074907F0D3FC204600F048
:103D400017FCBDE81040FFF78BBE00BF801A0020B3
:103D500092CA000834CA00080122014B1A70704749
:103D6000B5230020244B73B51E7804462EB103788A
:103D7000162B05D0182B27D00026304602B070BD78
:103D800083781E4A009343781D494FF4805007F012
:103D9000A8FC6378A47817201C4004F00304022CCC
:103DA00018BF0124FFF76CFE05464470847023465B
:103DB0004FF48050134A1249009407F092FC0221FC
:103DC000284607F0BDFDD8E7B0F803300E4A01934E
:103DD00083780E49009343784FF4805007F081FCBC
:103DE000B4F803100A48FFF735FED4F80120094B58
:103DF000C3F80620C1E700BFB5230020BDCA0008F4
:103E000044CA0008B2CA0008A5CA000864CA00086B
:103E1000293D0008801A002013B50D4B01281B888E
:103E20000C4CADF80030ADF8043002BF02238DF821
:103E3000003004236946206808BF8DF8043007F07D
:103E400007FF206801A907F019FF02B010BD00BFED
:103E5000C4CA0008941A002070B5334C11464FF4C0
:103E6000867086B01E46154607F03EFC236933B9BE
:103E700029464FF4837007F037FC06B070BDA5F1FA
:103E80000802324321D101AA0321206807F05DFF17
:103E9000636860615B7A04F1180123769DF8043051
:103EA0000220DA1F53425341627E63F30002039BF8
:103EB0006276E361BDF80630638323699847012287
:103EC0000021206807F047FFD7E705F17F42324322
:103ED00005D10021012006B0BDE87040184715F457
:103EE000A04209D04FF480714FF4817007F0FCFBC1
:103EF000002103202369EEE705F4A0631A4308D0EC
:103F000001214FF4817007F0EFFB0021FF202369AE
:103F1000E1E705F0A042134319BF012140F201106F
:103F200029464FF48370EEE7941A00200A460146B2
:103F300002484FF40073006807F003BF941A002092
:103F4000F0B50446164D174A6B68807A5B7A85B0E7
:103F5000D75C0E46FFF760FF237AB9B2022B0CD173
:103F6000002328681A4600F0FBFCA8B10021FF20BE
:103F7000334605B0BDE8F0401847002220688DF8B0
:103F80000C3002900092286802ABADF80D208DF83D
:103F90000F2000F0F3FCE8E72E6105B0F0BD00BF94
:103FA000941A0020C6CA00082DE9F04104461D4DB0
:103FB0001D4A6B680E465B7A86B0D15C807A0191AF
:103FC000FFF72AFF237A4FF00108022B02BF0023DC
:103FD000029301238DF80C30636818BF226803F147
:103FE00064030493637A4FF0000418BF02920199AE
:103FF0008DF8143002AA234628688DF815808DF8B4
:10400000164000F0E1FC074642462146286807F0CA
:10401000A2FE2FB12146FF20B04706B0BDE8F081D7
:104020002E61FAE7941A0020C6CA000808B50021DC
:104030004FF4857007F058FB0022044B03211A61EE
:1040400018680122BDE8084007F0C7BD941A002097
:10405000004870479C1A0020014B188C704700BF25
:10406000941A00207FB502238DF80630064B5A8B38
:1040700059690332ADF8042018686A4607F069FEF2
:10408000009807B05DF804FB941A0020002313B5D4
:10409000064C0093437AD0E900216060206807F065
:1040A00097FE00F00DF802B010BD00BF941A00207A
:1040B000024A138C43F4807313847047941A0020CF
:1040C00038B50D4C238CDB050CD563680B4D1B7A82
:1040D0002A789A4206D0012B05D0022B07D06368BC
:1040E0001B7A2B7038BD206800F054FFF7E720687A
:1040F00000F056FFF3E700BF941A0020B62300201B
:1041000010B50024064B1C60064B1C7007F046FCE3
:10411000B0FA80F3044A5B091370044B1C7010BDA5
:10412000D41E0020B8230020B9230020B72300208C
:1041300010B5074B1C782CB9064B1B7833B107F030
:1041400035FC044600F066F8204610BD8124F9E7EE
:10415000B8230020B923002038B50A460F4903468A
:104160000978C1B10E49087850B90E4C24783CB991
:104170000D4C20681518B5F5806F02D982200870A3
:1041800038BD1946094B184408F06AF82560BDE8A7
:10419000384000F00DB88120F2E700BFB9230020BD
:1041A000B8230020B7230020D41E0020D41A0020FA
:1041B00038B5134B134D1A782968022A0ED00329FB
:1041C00001D8002038BD104A1068104A904203D030
:1041D00084200F4B1870F5E702221A700A48FCF78A
:1041E0000FFA04462A680749074807F0B4FB002C79
:1041F000E7D041F207039C42E3D08520E9E700BF06
:10420000B9230020D41E0020D41A0020EB17A603E7
:10421000B82300200022014B1A707047B9230020F8
:104220001FB5124C1148637A0133DBB2272B88BFCC
:1042300025236372FFF72AFF0023CDE90233E368E9
:10424000627C01930123617DD207094801F10201DB
:104250008DF80C3048BF8DF80E30FFF767FE05492A
:1042600001A8FFF76DFE04B010BD00BFD81E0020EE
:10427000EC1E002079420008022810B51BD002D89D
:10428000012805D0FEE7032843D0FF2841D0F9E7F5
:10429000214C637C990707D5FFF7C8FEFFF7C0FFE5
:1042A000637C6FF341036374637CDA0730D4BDE849
:1042B0001040FFF7B5BF4B78DB072AD54C68217853
:1042C00001F00F03032B11D0052B22D1C90904F1F2
:1042D000080007F06DFCD8B1FFF7A8FEFFF7C2FE9B
:1042E00001462046BDE8104000F0B6BAC90904F105
:1042F000080007F05DFC58B1074C94F83D1004F13C
:104300003C000231FFF712FE637C43F0020363744A
:1043100010BDFFF78BFECAE7D81E002010B5094C70
:1043200000215C2204F1080007F0C1FF42F2107383
:104330000549E360054BC4E9001342F201532381B0
:1043400010BD00BFD81E0020D6BE898E5555550021
:1043500038B50446FFF76AFE002C3FD0204C257C80
:10436000627CB5FA85F35B0963F300026274FFF7C0
:104370006FFE837905F00F05C3F3000345EA83154B
:10438000237D23F04F031D43637D25750BB9062361
:1043900063750368C4F816308288124B9A80FFF761
:1043A00057FE837994F83C20C3F300039B0143F04C
:1043B000040322F04F02134384F83C3094F83D305C
:1043C00013B9062384F83D300368C4F83E30828870
:1043D000054B9A80BDE83840FFF722BF38BD00BFCB
:1043E000D81E0020EE1E0020161F002020290A469D
:1043F00008B509D8054B06315975014603F11C0073
:1044000007F02EFF002008BD1220FCE7D81E002078
:1044100020290A4608B50AD8064B063183F83D1014
:10442000014603F1440007F01BFF002008BD1220E5
:10443000FCE700BFD81E00200A20D0B50B4CE38C4F
:10444000584306F01BFA0646A08C0F4606F016FAF3
:104450000022074B06F07CFA02460B4630463946EE
:1044600006F0A0FB06F086FC2083D0BD3C1F002098
:104470000000F43F1FB5154C40F60100218907F0FC
:1044800033F9A37E5A061FD423F0070343F0010338
:104490002089A376FFF7EAFAA37A04F10C002344FB
:1044A00093F82A306375FFF7F1FDD4E90032A3EBEE
:1044B000520103EB520302934FF48033019101A8A0
:1044C00003490393FFF770FD04B010BD3C1F0020AB
:1044D000594600080022134630B58BB0D910415C14
:1044E00003F007042141CC0742BF02F128016944CF
:1044F00001F8283C03F1010348BF0132252BEDD11F
:1045000000230C4CD910415C03F007052941C90771
:104510005FBFB3FBF2F102FB1131283169444CBF9C
:10452000D9B211F8281C0133252B04F8011BE9D15D
:104530000BB030BD661F002010B540F2E244074AC0
:104540006043136800F5807004FB0131536801EB90
:10455000500118441160506010BD00BF3C1F002086
:10456000024B9884D984FFF767BF00BF3C1F00202F
:10457000014B1875704700BF3C1F0020C9088842D6
:1045800028BF0846014B1885704700BF3C1F00201C
:10459000044B5A6D22B95865A3F858100120704792
:1045A000002070473C1F002010B504460346054A12
:1045B0004FF40060044907F094F82046BDE810402D
:1045C000FFF764BA3ACB0008EECA000810B50446FB
:1045D0000346084A4FF40060074907F082F8074A8B
:1045E0002046BDE81040937E43F04003937607F0E9
:1045F000A5B900BF2BCB0008EECA00083C1F002065
:1046000010B5144CA37E5B0623D4FFF70FFD40F2D8
:10461000E243A18C226803FB0122A37A226094F872
:104620004F2013442522B3FBF2F002FB1033228902
:10463000A372013222810A22636802FB01336360A4
:10464000238B5A1E228323B9BDE810400820FFF7B0
:10465000BDBF10BD3C1F002002282DE9F743804656
:104660000E460BD003D8012800F0DC80FEE70328BB
:1046700000F0DE80FF2800F0DB80F7E74F78714C18
:1046800017F0010763D14FF0FF3140F6030007F048
:104690002BF83D46A37E6C4F13F0200F12D0616DB6
:1046A0006FF34513A376002900F09E803B7894F8C1
:1046B000582043F003033B707A70B81C07F0D0FD1C
:1046C00000236365FFF714F9A37E60F34103C3F38E
:1046D0000012C3F3C001920042EAC102A37642EA8B
:1046E00000133A7803F01C0322F01C0213433B70C2
:1046F00040F60200398806F0F7FF79785248023117
:10470000C9B2FFF713FCA37E7668D90709D56FF30A
:104710000003A37600236360FFF7A4FC2060FFF78B
:104720008BFE002D00F08B80337803F00303022B07
:1047300005D0032B6FD0012B40F081800025284647
:104740007278B11C03B0BDE8F043FFF71FB9D1F890
:10475000049040F60300B9F8001006F0C5FF99F880
:104760000030A27EC3F3001363F3820299F8003095
:10477000A276C3F3C001C2F3001291422FD103F01D
:104780000303022B29D0032B08D0012B27D10020B3
:1047900099F8011031B3FFF7EBF807463D46A27ECA
:1047A00099F80010C2F3C003C1F38001994208D008
:1047B00083F00103DB0043F0200322F028021343BF
:1047C000A376002F3FF466AFA37EC3F3001282F0FE
:1047D000010262F30413A3765CE73846D8E70025AC
:1047E0002F46DCE70D46DAE794F82820B91C0DF1D6
:1047F0000700FFF771F858B19DF80730002B08BF8C
:104800004FF001083B78787068F301033B7059E77B
:104810004FF00108F6E77178B01C03B0BDE8F04333
:10482000FFF75EB9074B9B7E9A0708D45B0706D457
:10483000FFF7E6FE03B0BDE8F043FFF71BBE03B091
:10484000BDE8F0833C1F0020981F0020014B188911
:10485000704700BF3C1F0020F7B5274D04460E46A9
:104860005C220021284607F022FD2023AB76052399
:104870002B83627E237E012743EA0223AB84627F7F
:10488000237F04F11E0043EA0223EB8494F82330D3
:10489000C3F3040385F84F3094F82330C3F3421375
:1048A00085F850301B232B85FFF714FED4F80E300B
:1048B000E27CEB60A37C2E6043EA0223227D2F750D
:1048C00043EA02432B6195F84F30607DAB72E18A79
:1048D0003944FFF731FEFFF7CDFDEB8C074A08495D
:1048E00000934FF40060AB8C06F0FBFE204607F00F
:1048F00023F8384603B0F0BD3C1F00201ECB000853
:1049000001CB0008F8B50D4610B900242046F8BDCB
:104910000E4F3E68002EF8D100F088F804460028BB
:10492000F3D0386000F0CEF8204607F06BF938B1CC
:1049300030463E6000F0C6F8204607F05EF9E4E736
:10494000002DE3D02046A847E0E700BF98200020D4
:10495000024B1868003818BF0120704798200020CB
:1049600010B507F00BFB044618B9034B01215B6837
:104970009847204610BD00BF24100020F7B5114D08
:1049800004460F466E6801210020CDE90032B04791
:10499000DDE9003206463946204607F0F8FA0446BB
:1049A00018B901202B68984704463EB100F0FEFA82
:1049B00000B91CB100216B6808469847204603B037
:1049C000F0BD00BF24100020F7B5104D04460F467F
:1049D0006B68012100200192984739460646019AEA
:1049E000204607F051F9044618B901202B68984772
:1049F00004463EB100F0DAFA00B91CB100216B6840
:104A000008469847204603B0F0BD00BF24100020A0
:104A1000431E033306D8044B984228BF1846642827
:104A200038BF6420704700BF40420F00F8B505460C
:104A300006F06EFD07460E4B1E6826B9384606F096
:104A40006BFD344610E0B46884B1237C9C46DB07E0
:104A50000CD44CF0010C95E80F0084F810C084E8E9
:104A60000F00384606F058FD2046F8BD3668E4E7EA
:104A70001810002038B505460C46E1B10B6843B16B
:104A80001B68013317D0CB681BB18B68003B18BF84
:104A900001231846D722412100F066FA204602F091
:104AA000E7FC0023054A85F818311360044AC5E97C
:104AB0002F43136038BD0023EBE700BFA020002088
:104AC000A420002010B5044618B9054B054A136010
:104AD00010BD00F01BFCD4F8C830002BF6D1F4E771
:104AE000E3BB00081C10002010B50C4600F024FCAD
:104AF0001CB100F099FC0128FBD1BDE81040024B2D
:104B0000002103205B6818472410002008B50246E6
:104B10000868FFF77DFF08604868FFF779FF486085
:104B20008868FFF775FF8860C868FFF771FF0B6939
:104B3000C860581C03D00B48834228BF03460B6152
:104B40004B69581C03D00748834228BF0346886935
:104B50004B61FFF75DFFBDE808408861104601F03A
:104B600063BB00BF40420F002DE9F84FD0F8C030C2
:104B700080460E4613B1838B8B4274D0D8F8BCB0FC
:104B8000BBF1000F41D0DBF80830002B3DD0DBF843
:104B90000C20D2B3D8F8D0A0BAF1000F38D04FF023
:104BA00000094D464F4601E0DBF8083005EBC5042F
:104BB00003EB8404E3890135B34215D8238AB34259
:104BC00012D3B4F91220B8F92830934252DD40468E
:104BD00098F80C11FDF730FF98F8173081468342A2
:104BE000274604D9DBF80C209542DDD337B30023E8
:104BF0003A4640461946D0470020A8F81C60C8F83D
:104C0000C07088F81591BDE8F88F0320BDE8F88FD3
:104C1000D14647F6FF755446514604EBC40703EBF3
:104C20008707FB89B34218D83B8AB34215D3B7F93B
:104C30001220AA4204D14FF0FF09DDE70120E2E78C
:104C4000404698F80C11FDF7F7FE98F817308146AA
:104C50008342D1D93946DBF80C200134A24205D970
:104C6000DBF80830D9E70020BDE8F88F0029E5D04F
:104C70000F46C1E72746BAE72DE9F04182B09DF81B
:104C800020C0D0F8D08004460D4616461F468DF849
:104C900007C0B8F1000F2ED000220DF10703114616
:104CA000C047D4F8BC20194B20461A60184BD4F8E2
:104CB000C0201A60174B1D6000F070FE05461EB93B
:104CC000284602B0BDE8F081B0FA80F040F26532CB
:104CD0003321400900F048F93946204601F0B4F983
:104CE00005460D4B20461B68D4F8C010984728464F
:104CF00002B0BDE8F081C17D90F81531624699425D
:104D000028BF194600F0D0FDCBE700BFA02000204F
:104D1000A42000209C2000201C1000202DE9F0433E
:104D200085B005460F4614461E4601F0FFFA01F015
:104D30003DFC00283BD1DFF82481D8F800301BB1BE
:104D4000D5F8BC2093421FD000F06EFB012838D16B
:104D5000D8F800308BB31A687AB3D5F8BC1009685C
:104D60008A4246D0D5F8C0301A68284607F0FAF8CB
:104D700038B9012433462246394628460096FFF7C3
:104D80007BFF05B0BDE8F083304B1B68002BDBD008
:104D9000D5F8C0209342D7D12D4B1B689F4222D01B
:104DA00000F042FB0128E5D04FF001090BE00022A2
:104DB000264B1A6001F0F2FBBDE7D5F8BC3019684C
:104DC000D0E74FF00009012000F0B6FA00F02CFB0C
:104DD0000128FBD11F4B002103205B689847B9F1E4
:104DE000000FB5D0C6E706B174B9002005B0BDE824
:104DF000F083164A1268D2B11168D5F8C020126843
:104E00009142B6D05968B0E70122D5F8D0408DF86C
:104E10000F2084B10022284611460DF10F03A04750
:104E20000D4B28461B68D5F8C0109847DDE7D5F82C
:104E3000C0201268E6E7E97D95F8153128469942C9
:104E400028BF194600F030FDEAE700BFA42000208B
:104E50009C200020241000201C100020A0200020F6
:104E6000F8B50E46054606F053FB31460746284680
:104E7000FFF77AFE044600B3284607F095F830B1F4
:104E80006B7C13F0020307D1104A82F8F4303846E5
:104E900006F042FB2046F8BDAB6B13F48063F3D001
:104EA000B5F80631B34217BFB5F8083101239B1B93
:104EB000B3FA83F318BF5B09E6E7034602463146BF
:104EC0002846FFF72BFF0446D6E700BF003E00B0A0
:104ED000F8B5124B06461B680D4603B198472946A4
:104EE0003046FFF7C7FD00224FF6FF734FF0240C4A
:104EF000EF68D0B2874206D81C4621463046FFF7FD
:104F0000AFFF2046F8BDA9680CFB0011CC899C427C
:104F100002D2002CF1D023460132EAE7C42200205D
:104F20004FF4007307B50A490DF10602ADF80630DB
:104F300006F009FFBDF80630B3F5007F05D1022861
:104F400008BF002003B05DF804FB0120FAE700BFB2
:104F5000A8200020024B1960024B1860FEE700BF3A
:104F600020100020AC22002008B550B90548064B9F
:104F700001601A60054B1A68054B1A601868FFF744
:104F8000E9FF08BD20100020A82200209820002062
:104F9000AC220020014906F0EBBE00BF0D670008FF
:104FA000014906F0E5BE00BFE1660008014B187834
:104FB000704700BFBA230020024BD868C0F30360DB
:104FC000704700BF000002B8431C07D06FF0FF021B
:104FD000034B10405A62A3F580535862704700BFDC
:104FE00000E000B808B5094AFFF7E6FF0B2806D035
:104FF0000C2809D0092814BF0020022008BD506CDD
:1050000010F48030F0D1F9E70220F7E7000002B891
:1050100010B504234FF03A4101240A4AD1F818018F
:10502000C2F81831C2F814314C634FF400511163C7
:10503000410742BFC2F81431A2F58052C2F81831BC
:1050400010BD00BF002000BA73B50C46244D254E9C
:1050500051B90A46072105F065FA234B6C665C607E
:105060002023736602B070BD0722114605F05AFA7C
:105070000723F3602379012185F86430637901A85F
:10508000019307F0C9F8019BC2B2D34000F00F00B2
:1050900040EA031085F86500A27985F86620E27978
:1050A00085F867202268AA6601932BB102EB4301C1
:1050B00032F8023B8A420CD121794A1E13440B4A32
:1050C0001362C2F8CC102022094B5A6605F04AFA46
:1050D000C8E732F8020B834228BF0346EAE700BF65
:1050E000003F00B0006000B8643F00B0004000B86E
:1050F000005000B8D0F8C43013B11A68032A10D891
:10510000094BDB6BC3F3C20213F0380F03F0070047
:1051100018BF504313F4E07FC3F3821203D050430F
:105120007047986A400E7047008001B800F018037D
:10513000182B074B03D10022C3F88C2070470107BE
:1051400001D50122F8E7C206F5D540F20112F3E7D6
:10515000003F00B0414B2DE9F3411D6840F20223AE
:1051600017460B4000F00102134306460C4648D098
:10517000880709D53A4BD3F8083F03F0C003402B0A
:1051800002BF0221374B99604FF000087AB300222A
:10519000002301200021CDE9008803F0F5FF4FF046
:1051A000FF31284603F090F94146E8830120FFF7DC
:1051B0009BFCA96B05F1D40003F0F8F92A490868B3
:1051C000FFF702FF4FF0FF330B60284B1A68511CAA
:1051D00006D06FF07E402649C863A1F58051CA63AE
:1051E0004FF0FF321A602B7C43F008032B74A205AA
:1051F00007D50121284606F091FD24F400740643EA
:105200000C43D5E94C233240234052EA030103D03A
:105210001849284609688847FB070FD51649174AD9
:1052200008680021136811600121154A117003B14B
:105230009847144B002102205B68984717F00E0F27
:1052400008D04FF4F4723B21002002B0BDE8F041D9
:10525000FFF78ABE02B0BDE8F08100BF98200020B1
:10526000003000B0001002B83010002034100020D0
:1052700000E000B82C100020C0220020BC2200203A
:10528000BD23002024100020F7B5D0E94CC7044608
:10529000DDE908658CEA060087EA0501104019403F
:1052A00080EA0C007940C4E94C0123F4004105EA8E
:1052B0000103002522F0010043F4007306EA000216
:1052C00043F00203CDE9005503F05EFF237C9A070B
:1052D00017D5D4F834319B0513D54FF480312046CF
:1052E00006F01CFD237C65F341032374D4E94C23B1
:1052F00002400B4052EA030103D0034920460968EB
:105300008847002003B0F0BD2C10002038B103689E
:10531000044A002B08BF1346034A13607047014B31
:10532000FAE700BFF7BD00082C100020014B002059
:10533000D9677047003F00B003282DE9F7435BD8D9
:105340002F4B13F800802F4B1E5C2F4B13F800904F
:1053500006F0DEF8074604F009F9054640B10023DF
:105360000022CDE9003301200023002103F00CFFCF
:1053700004F004F948B100230022CDE900330020F5
:1053800000234FF4004103F0FFFE002E32D01F4BEC
:10539000DC6C04F008041E4B3146DC64404604F02B
:1053A0001DFB4A463146404604F098FB194BDC642D
:1053B000D5B1194B1868816BD43003F0F7F8174951
:1053C0000868FFF701FE4FF0FF330B60144B1A68BB
:1053D000511C06D06FF07E401249C863A1F5805180
:1053E000CA634FF0FF321A60384603B0BDE8F0439D
:1053F00006F092B83446CEE703B0BDE8F08300BFB4
:1054000078CC00087CCC000880CC0008004000B8B4
:10541000006000B8005000B8982000203010002034
:105420003410002000E000B808B5FFF7C5FD0138D2
:10543000C0B20B2802D8054B185C08BD044B5B6951
:1054400013F0060F0CBF01200420F6E784CC0008FF
:1054500000C001B831F00F0210B50BD1FFF7E4FF27
:10546000012809D1054CA36F23F00F00014310461A
:10547000A16710BD0120FCE70220FAE7003F00B061
:1054800008B50D4B5A6C12F0A00F13D19B6C5B0743
:1054900001D5012008BD094BD3F8083F23F07F4315
:1054A00023F0FF03002BF4D0FFF786FD092801D07D
:1054B0000C28EED10020EDE7000002B8003000B06B
:1054C000074A084B30B10221C2F864120422C3F823
:1054D000642270470421C2F864120222F7E700BF79
:1054E000006001B8005001B8024638B588B91C4BBD
:1054F0001B687BBB0125C1F11C04C4F12B03002BED
:10550000B8BF5B42232B29DCADB1164B19700020CC
:1055100038BDFFF789FF01281ED1124B93F90040D7
:10552000C4F11C03D2F8C4400CB194F926401C1BF2
:105530000025641AE1E7D17405F0EAFF0A4AE402A3
:10554000136A04F4FF2423F4FF231C43146205F0C0
:10555000E3FFDCE70320DBE70220D9E70120D7E700
:1055600098200020BC23002000C000B8094B08464A
:105570001A6D91020BD4D3F84021D20708D4D3F886
:10558000803013F4706F14BF012000207047012099
:10559000704700BF004001B8F8B515460C46826B55
:1055A000670782EA050303EA010383EA02038363D0
:1055B000354A01F00B0323EA0501D16403EA050330
:1055C000A2F580520646D36410D50121FFF7CEFF25
:1055D00060B104F0A3F94FF4007315F0040F14BF89
:1055E0002A4A2B4A136504222A4B5A64E00606D540
:1055F00015F0100F14BF00221B22274B5A652106FD
:1056000018D52A0611D54FF40012204BDA6405F0A4
:105610007FFF0E210746032002F01CFF40F201220B
:105620001D4B3846DA6205F077FF294606F1D400B3
:1056300002F0BCFFE30503D5EF051CD502F0DAFE4E
:10564000A00503D5A90519D502F0E0FE14F48C6479
:105650000FD06A0502D5737C9B0712D5D6F8C4100B
:10566000304606F0C9FB80220C4BC3F888000C4B77
:105670001A610020F8BD02F0B7FEE1E702F0C0FEBB
:10568000E4E70120F6E700BF006000B8005001B871
:10569000006001B8002002B8004000B8003F00B030
:1056A000000002B8014BD86C02F0E6BE004001B821
:1056B000014BD86C06F04DBD004001B8837C5A1FE9
:1056C000012A01D9082B05D14B7C2BB1012B05D028
:1056D000022B05D006F0C1BB024870470248704754
:1056E0000248704720A1070048E8010040420F002F
:1056F00070B50E4605F00CFF0546FFF773FC044637
:1057000020B1284605F008FF204670BD04F006F9D8
:10571000104B3278D3F8083F022A23F0F00315D05B
:10572000042A0CBF0222002243EA02137278022AE2
:105730000ED0042A0CBF0222002243EA8213054A3B
:10574000C2F8083F0422044B5A64DAE70122EBE76F
:105750000122F2E7003000B0002002B838B50D4653
:1057600005F0D6FE04461E4AFFF726FC062826D87A
:1057700004282BD8032829D004F0D0F8194B2A7814
:10578000D3F8083F022A23F00F0324D0042A0CBFC9
:105790000222002213436A78022A1ED0042A0CBF78
:1057A0000222002243EA82030E4A2046C2F8083F42
:1057B00004220D4B5A6405F0AFFE00200AE00728D2
:1057C000DAD1D2F86831002BCED1D5E7204605F0EA
:1057D000A3FE022038BD0122DCE70122E2E700BF80
:1057E000000002B8003000B0002002B8F8B50D7813
:1057F0000446022D0E4690F80C710AD1002001F0EB
:10580000E3FE002844D1012001F0DEFE002818BF8D
:105810000125284601F0D8FE00283BD084F80C5121
:10582000B3882846A4F810317388A4F80E31B388E1
:1058300004F58676A364FF23237606F0FFFBE0756C
:10584000304601F057FE054628BB304601F0B2FE57
:10585000054600BBD4F8C03053B194F80C11B942DE
:1058600006D02046B3F91220FDF7E6F884F81501BA
:10587000204601F01FFF0A49A4F810010123094A3C
:10588000D1F8FC1004F1D40003F04AFA2846F8BD20
:105890000025BEE70125032384F80C31F6E700BF9D
:1058A000004F00B0AC3F00B070B5054690F80C0159
:1058B0000C4603281DD0FF291DD01AB14FF0FF322E
:1058C0000E4B1A6006F0BAFB064695F80C0101F083
:1058D000E3FE844228BF0446E4B2B44238BF3446F3
:1058E000E0B2287601F0F6FFA0F1FF0358425841DC
:1058F00070BD0220FCE70120FAE700BF381000204D
:1059000038B590F80C310446032B3FD0D0F8C05086
:10591000C175C5B3D0F8D030DBB990F815318B42E2
:105920001DD300222046FFF7BFFF054678B9184B6C
:105930001B78012B0BD8204601F0BCFE1549012332
:10594000154AD1F8FC1004F1D40003F0E9F9284617
:1059500038BDB0F92820B5F912309A42E1DD0022B5
:10596000204694F81511FFF79FFF05460028EED159
:10597000C4F8C000204606F053F901462046BDE8B1
:105980003840FFF76DBAFF230376E0E70225DEE734
:1059900060100020004F00B0AC3F00B02DE9F04196
:1059A000036C0446012B8EB000F08E806C4906F02B
:1059B0008FFBD4F8C0700546A68BC4F8C4005FB155
:1059C0003B684BB15B683BB11A68032A04D99B6AF8
:1059D0004FEA5368424613E005F09AFDD4F8C050F0
:1059E0000146C4F8C0702046FFF784FB8046C4F827
:1059F000C050084605F090FDD4F8C4505FFA88F214
:105A0000BB898DF81E80F31A9BB2D7E90161ADF80E
:105A10001C3001FB0366534B06961B689D420BD05E
:105A200029462046019206F0E7F980214E4B019A63
:105A3000C3F888004D4B19613146204608AB0D95DF
:105A400002F036FF00284AD1494A4A49FFF7B4FA22
:105A5000431EDBB20B2B3DD8D35C012BF6D1434A5E
:105A60004549536CD801FCD40B6CDB07F9D408A969
:105A700005A803F073F8002831D1A28B3F4B5A647C
:105A8000237C60F34103237400F07CFFD4F8C03022
:105A90005A69431E1568DBB2FD2B039523D8536862
:105AA000012804933DD10546D91C2AD8024603A9F2
:105AB000204600F027FF3DB9D4F834319B0536D499
:105AC000237C43F00203237420460EB0BDE8F0416E
:105AD00000F0D4BE4B6913F0060FC0D0B6E7022029
