:020000040800F2
:1000000008100020F9AD0008F7AD000877AB000834
:10001000F7AD0008F7AD0008F7AD0008F7AD000830
:10002000F7AD0008F7AD000830BD0008F7AD0008D7
:10003000F7AD000878BD0008F7AD0008F7AD00087F
:10004000F7AD0008F7AD0008F7AD0008F7AD000800
:10005000F7AD0008F7AD0008F7AD0008F7AD0008F0
:10006000F7AD0008F7AD0008F7AD0008F7AD0008E0
:10007000F7AD0008F7AD0008F7AD0008F7AD0008D0
:10008000F7AD0008F7AD0008F7AD0008F7AD0008C0
:10009000F7AD0008F7AD0008F7AD0008F7AD0008B0
:1000A000F7AD0008F7AD0008F7AD0008F7AD0008A0
:1000B000F7AD0008D9960008E5A00008B3BC000819
:1000C000AFBC0008C1980008BFBC0008B7BC00085E
:1000D000BDA00008BBBC000825A1000889A100083C
:1000E000F7AD0008F7AD0008F7AD0008F7AD000860
:1000F000F7AD0008F7AD0008F7AD0008F7AD000850
:10010000F7AD0008F7AD0008F7AD0008F7AD00083F
:10011000F7AD0008F7AD0008F7AD0008F7AD00082F
:10012000F7AD0008F7AD0008F7AD0008F7AD00081F
:10013000F7AD0008F7AD0008F7AD0008F7AD00080F
:10014000F7AD0008F7AD0008F7AD0008F7AD0008FF
:10015000D9840008F7AD00080FBA000815BA0008E6
:10016000F7AD0008F7AD0008F7AD0008F7AD0008DF
:1001700070B506468AB032480BF050FA3148324B1F
:1001800000210360314B324C436004F057FD2AA339
:10019000D3E90023CDE900234FF0FF334FF0FF32C6
:1001A00020600BF086FA02224FF0FF3120680BF03E
:1001B00082FA00239422CDE9073309933C23CDE949
:1001C00003320593962303A92068069304F008FEE2
:1001D00002F07AFC2546014620680BF083FA20687D
:1001E0000BF0EDFAB6F9001055F8080B0BF08FFA8A
:1001F0007668D6B928460AF095FFA37B66F300031C
:10020000A373202310222384124B83F8202383F826
:10021000212383F8252383F8242383F8222383F8DA
:100220001F2383F823230AB070BD3068A060B28812
:10023000B379AA80AB71E4E70855005100000000D3
:10024000690345ECD41A002091410008C81A002027
:10025000A41A002000E100E010B5054C237833B962
:10026000044B13B1044800E000BF0123237010BD0C
:10027000A012002000000000FC11010808B5034B8B
:100280001BB10349034800E000BF08BD00000000A7
:10029000A4120020FC11010810B5144BADF5107D1F
:1002A00003AC0FCB84E80F002C22002107A80AF032
:1002B0009EFEFF234FF49472002146A88DF81D3056
:1002C0000AF095FE6822002112A80AF090FE68222A
:1002D00000212CA80AF08BFE00942CAB12AA46A990
:1002E00007A800F0E1F80DF5107D10BD04BD000871
:1002F0000122044B1A700023034A1370034A13703F
:10030000704700BFA5230020A4230020A6230020BF
:10031000002238B5124B134C1A700122124B1A707E
:1003200023689A78DAB1DA78CAB11A78510706D513
:10033000986A0AF00CFC10B10C4800F015FA23681A
:100340001A7892070BD55D680AF0EEFB854206D954
:1003500023680648596ABDE8384000F0BBB938BD8B
:10036000A5230020C4120020A4230020008001083F
:1003700007B5024601200B460649087006490748A2
:100380000968009106490068096800F067FC03B03D
:100390005DF804FBA6230020C8120020CC12002028
:1003A000C4120020044A0549054820231268096840
:1003B000006800F019BC00BFBC120020C012002071
:1003C000CC120020094B1A68D37892782AB1002BFE
:1003D00041F20C0018BF0020704741F20C0240F2BD
:1003E0000570002B08BF1046704700BFC4120020E4
:1003F00008B502F0F1FC02F0B5FC02F09DFC02F041
:100400005DFBBDE8084001480AF0F9BDD0120020AC
:1004100010B5234B234C18681B7992B08DF80C3023
:1004200023880290ADF80D30A37868468DF80F3020
:100430000AF0F3FD41F60833ADF810309DF80630B0
:10044000BDF80420C3F300038DF8183040F60223F2
:10045000ADF8283000230098ADF816208DF82A302A
:10046000CDF8120002F0A4FE02F0A8FE20460321FF
:1004700002F0AAFE02F0B0FE02F094FE112102A8E2
:100480000AF0DFFD03210AA80AF0E2FD01200AF0CC
:10049000E6FD002840F2017008BF002012B010BD38
:1004A00014BD00081ABD000870B5134C134E20602F
:1004B0001348144D016014490A60144A1360049AE9
:1004C000134B1A6033780BB10AF0A5FD2B78002B83
:1004D000F8D0104B1B784BB123689A784AB1DB787F
:1004E00040F20570002B18BF002070BD40F2037071
:1004F000FBE740F20570F8E7C4120020A5230020B6
:10050000CC120020A4230020C0120020BC12002026
:10051000C8120020A62300201FB500F1006303F5D8
:10052000C0330393104B144698421BD8039A0F4BC9
:100530009A4217D2039A9B1AA34213D358B94FF089
:1005400000639B6A0A4A5869904204D9186901916C
:1005500000F06EFA01992246039804B0BDE81040FD
:100560000AF093BA04B010BDFF7FFEF700E0170851
:10057000008001087FB56FF0006200F17841914280
:1005800003461AD26D460E4A02F110062C46106838
:100590005168083203C4B2422546F7D15A1E0DF104
:1005A0000F010F3311F8010912F8014F844204D1F1
:1005B0009A42F7D1012004B070BD0020FBE700BFD4
:1005C0001EBD00082DE9F0410368044603F16043B5
:1005D000B3F5802FA0B034D84FF000639B6A426817
:1005E0001E6996422DD8394B9A422AD8456B06F19E
:1005F0004002AA4268D89D4266D82846FFF7BAFF53
:10060000002861D028460AF073FA80B16B6973B193
:10061000022B0FD1AB69C4F1040119444FF0FF3232
:10062000204600F055FE2A4BC31A5842584120B0CC
:10063000BDE8F08140F2046328460493FFF79AFF77
:1006400008B90020F3E728460AF052FA0028F8D04B
:100650004FF00067D7F834804046FFF78BFF002843
:10066000EFD0503EB045ECD8284605A90AF047FA2D
:100670000028E6D0BA6A059B12699A42E1D89C42EA
:10068000DFD8124A9342DCD806A800F0E3FE059AB0
:100690002146121B06A80AF08CFB06A80AF08BFB69
:1006A000059C00F0E7FE039000F002FF2146009059
:1006B000039B04F1200206A800F04CFE049004986D
:1006C000B0FA80F04009B2E70120B0E70000180856
:1006D000E320BBDE70B54FF0FF3290B005460C460C
:1006E00000F0F6FD1C4B984232D14FF480621B4B58
:1006F00000219A6601A81C220AF079FC184B2946B1
:100700006846043C00930AF0F1FB214668460AF073
:10071000EDFB68460AF0F3FB0AF0AEF90646B8B9FD
:1007200040F2022000F04EF91C22314609A80AF0DE
:100730005EFC0C4B294608A808930AF0D7FB08A8D2
:1007400021460AF0D3FB08A80AF0D9FB0AF094F975
:10075000002010B070BD00BFE320BBDE0090005051
:1007600001000543010006434FF4806230B50446A2
:10077000154B91B09A6600211C2201A80AF037FCA3
:10078000124B2146684600930AF0B0FB68460AF017
:10079000B6FB0AF071F9054698B940F2022000F064
:1007A00011F91C22294609A80AF021FC084B08A8C7
:1007B000214608930AF09AFB08A80AF0A0FB0AF069
:1007C0005BF9002011B030BD0090005000000243E2
:1007D000000003434FF4806210B50F4B8CB0044609
:1007E0009A6600211C2205A80AF001FC0B4B01941B
:1007F0000493012302930A4B01A904A803930AF06E
:100800006BFB04A80AF07BFB0AF036F9B0FA80F023
:1008100040090CB010BD00BF00900050000008431C
:10082000040000200048704700800108044B18466F
:10083000016881F3088881F3098840688746FEE7EC
:1008400000200108194B10B5D3F88420110606D4F6
:100850004FF400621A67D3F88420D206FBD40AF062
:1008600086F900F099F80AF0F5F80AF0F5F818B1F1
:100870004FF4017000F0B2F8FFF70EFD04460AF0E5
:10088000EDF81CB140F203739C4203D140F2012009
:1008900000F0A4F8A4F20574012C94BF40F20320E8
:1008A0004FF4017000F09AF8002010BD0040005095
:1008B00037B50124324B8DF806408DF80740D3F848
:1008C00094305B0610D500F09DF8A0F2022080B2B3
:1008D000072809D804FA00F010F0C90F1EBF002342
:1008E0008DF806308DF80730264B5B68013308D150
:1008F0004FF4027000F066F800238DF806308DF892
:1009000007309DF807305BB11E48FFF75BFE8DF89E
:1009100006009DF806301BB94FF4027000F052F843
:100920009DF806304BB34FF480424FF0FF31164B29
:100930009A6603F17443196601F580015966002136
:10094000124BC3F8D010BFF34F8FBFF36F8F012549
:100950000F4CC4F88050BFF34F8FBFF36F8F4FF42D
:1009600040300C490861C4F88051C860054801F165
:1009700040618A669860FFF759FF03B030BD00BF41
:1009800000400050002001080090005000ED00E001
:1009900000E100E000A000444CF23C32014B5A80E0
:1009A000704700BF000000204AF6C030044B5B884F
:1009B00023F00F039BB21B1A58425841704700BFE7
:1009C00000000020044A08B51080FFF7EDFF10B9C1
:1009D0004FF20F03538008BD0000002008B5FFF759
:1009E000F1FFBFF34F8F0549054BCA6802F4E0627F
:1009F0001343CB60BFF34F8F00BFFDE700ED00E076
:100A00000400FA054FF20F01084B5A888A4201D1BF
:100A1000188870473AB91B8840F20220012B18BF92
:100A20004FF4007070474FF40070704700000020D2
:100A30004FF4803208B5044B9A6601F0E7FEB0FA35
:100A400080F0400908BD00BF00900050072BF8B5AA
:100A500006460F4614461D4601D90020F8BD012167
:100A6000202001F0AFF90121212001F0ABF98CB178
:100A700044EA06039B07F0D14FF48032064B31461F
:100A80009A66284623463A4601F0E8FEB0FA80F01E
:100A90004009E3E70120E1E70090005030B5002273
:100AA0000C24064B04FB02F1CD58854201D15818A5
:100AB00030BD01320C2AF5D10020F9E7C8BD00088D
:100AC0007FB50023CDE90033082315460DEB030263
:100AD00004460AF0E8F841F203039842064626D19C
:100AE00094F8433063B10822E06C0DEB02010AF088
:100AF00060F908230DEB03021146A06C0AF048F9D7
:100B0000039A029B6A6094F843202B605AB9094A01
:100B1000934208D0084A934205D00822E06C0DEBBE
:100B200002010AF046F96B682365002363653046CD
:100B300004B070BDF70A0AF7FC0404FC2DE9F74382
:100B4000044658680E4617469846002841D08B0741
:100B500042D14FF000639B6A206E1B6902EB000CD0
:100B60001D1D65451CD81C33984219D28542294663
:100B700038BF01469C4594BFC1EB0C02C1EB030298
:100B8000081AC5F1680506EB0009681820444946B3
:100B900001920AF005FAFF214846019A0AF027FA65
:100BA000226E0F4B9A420AD80E49B818884206D9CD
:100BB0009B1AF258C4F880204FF0FF32F2503A46A8
:100BC000D8E90035206E3146A8470020226E3A440D
:100BD000226603B0BDE8F08341F20200F9E700BFEE
:100BE00004800108078001082DE9F04100254FF03D
:100BF000FF3704468846164603F0200380F842304B
:100C00001822FF21C0E91855A0F8405080F8435041
:100C1000A0F8445080F84650C0F8887068300AF058
:100C2000E6F988222946C4E91286C4F88070C4F81F
:100C3000847004F190000AF0DAF9074BC4F82071CF
:100C4000C4E9463584F8245116B1304600F002FC60
:100C50000020BDE8F08100BF000101012DE9F04F47
:100C6000A5B09846CDE91123002304460E462E9DDB
:100C70001393139A424501D30020C5E094F84630FF
:100C8000132BF7D8DFE813F05C00A800A2004600A1
:100C90002D001001C6012D00BE012D0076012D0092
:100CA000BE01AD021D0314000601530253021B03D3
:100CB0004FF00009636D0F2B00F28C800127102389
:100CC00014AA2046CDF80490009711A909F0EBFF73
:100CD00041F203030890089A9A4200F0CD80089BE5
:100CE0003AE04FF00109D4E91417B94272D9C91B8F
:100CF000DDE91272BF1A94F840200329174440F22C
:100D00009181032F00F29181204611A909F0AAFFD9
:100D1000002321E00127636D072B00F2D180082317
:100D200014AA2046CDE9007711A909F0BCFF41F2D1
:100D300003030B900B9A9A4200F030810B9B0BE05F
:100D400014AA204611A9FFF7BBFE41F20302059049
:100D5000059B934207D0059B049341F20303049A39
:100D60009A4286D04FE0159A149922650022626556
:100D7000AA4A914240F01F81022284F84620EBE704
:100D8000012314AA009320460823019711A909F012
:100D90008AFF41F203030690069A9A4201D0069B0D
:100DA000DAE7149B03F07F43B3F1407F05D01323B0
:100DB00084F8463041F20903CEE7159BD90706D5E2
:100DC00094F8423043F0010384F842300027636D09
:100DD000072BD5D901231AE1204614AA11A9FFF740
:100DE0006FFE41F203030790079F9F420FD0079FBA
:100DF00041F203030497049A9A423FF43AAF049BEA
:100E00000BB10023F370049825B0BDE8F08F14985F
:100E1000FFF744FE28B9132341F2080784F846304F
:100E2000E6E7437994F824219A4205D9132341F245
:100E30000E0784F84630DBE7026879498A4205D01C
:100E40000289D20748BF013384F8243194F8423034
:100E5000D9070DD5028994F84330920706D53BB1E6
:100E6000132341F2010784F84630C1E7002BF7D085
:100E7000037984F84630BBE7D4F848A000F036FB8D
:100E800080230221CDE9000315AA3B46504600F01D
:100E900037FA0FE7226D0123A265002284F8433060
:100EA000E26584F84630E4E6236D1C2B40F0868032
:100EB0004FF00109D4E91432934204D884F84690E3
:100EC00041F2030348E714AA2046CDE9009911A98D
:100ED00009F0E9FE41F203030990099A9A4201D010
:100EE000099B39E714AF06F108030DF1680C3A4687
:100EF00003CA624518605960174603F10803F6D12A
:100F000010681860337843F001033370D2E7337808
:100F100043F004033370179BB36273785F0726D5E1
:100F2000EB238DF8503017238DF85130A6238DF820
:100F300052305E2300208DF85330236D6066C4F874
:100F4000843094F8453043F0020384F84530EF686C
:100F50006FB104222B6814A9B8470822606E2B6871
:100F6000EF6816A91044B847636E103363660B230D
:100F700084F84630636D072BA2D8012316AACDE969
:100F800000332046082311A909F08DFE41F2030326
:100F90000A900A9A9A42BAD00A9BDDE6337843F067
:100FA00002033370149B7360236D083B7362159BBF
:100FB000B3F1006F05D0132384F8463041F20103EA
:100FC000CAE6042384F8463094F8453043F0010320
:100FD00084F84530002363669DE6042314AA204666
:100FE000CDE9007711A909F05EFE41F203030C90F0
:100FF0000C9A9A4201D00C9BAEE6236D042B02D9C9
:10100000149B23660127636D032BE6D9092384F81B
:10101000463055E700236366072342E7EB17A60334
:10102000F90707F98F42FFF46FAE402928BF40212E
:101030008F4228BF0F46032F88BF27F003073B4688
:1010400014AA2046CDE9009911A909F02CFE41F21D
:1010500003030D900D9A9A4201D00D9B7CE694F803
:1010600046A0BAF1070F04D1D5F808B0BBF1000FC4
:101070001BD1042FC7F1040B88BF4FF0000B14AB3A
:101080005A46FF21D81909F0B2FFBAF1090FBB4443
:1010900014D12B465A46204614A9FFF74FFD0D9058
:1010A0000D9B002B3FF41FAED7E73A462B68606ECE
:1010B00014A9D847626E3A44626614E6BAF1040F86
:1010C00021D1737898077FF50EAEEB68002B3FF4C3
:1010D0000AAE626E042A0BD80BEB0203062B07D96B
:1010E00015AB9B1A1A68C4F884204FF0FF321A60BF
:1010F0005A462B68606EEF6814A9B847626E0BEB16
:1011000002076766EFE5BAF10B0F7FF4ECAD737879
:1011100059077FF5E8ADD5F80CA0BAF1000F3FF400
:10112000E2AD5A462B68606E14A9D047E6E74FF04F
:1011300000618A6A496B1269503A91423FF63EAFAC
:10114000112B0FD194F81831002B7FF443AE41F2EC
:1011500006030E930E9A9A4202D1132384F8463066
:101160000E9BF9E594F84430002B7FF433AECDE9C3
:10117000003314AA4023204611A909F094FD41F23E
:1011800003030E900E9A9A42EAD1E06C09F013FE26
:1011900094F81831A3B104F1B403E06C00931CAAD5
:1011A00004F1940314A900F0D5F80E900E9B9BB1A6
:1011B0000023F370132384F8463041F20603CBE595
:1011C000E76C00F057F9039000F072F9039B009070
:1011D0001CAA384614A9E6E70123F37084F84430CA
:1011E000F8E5002314AACDE900332046042311A911
:1011F00009F059FD41F203030F900F9A9A4202D071
:101200000F9B0493FFE5D4F888202F4B9A4205D01A
:10121000132384F8463041F20503F2E70123F3700B
:1012200094F84530DA0707D5EF682FB104222B6810
:10123000104604F18401B84794F845309B0707D560
:10124000EF682FB104222B68104604F18401B847DF
:10125000236E6BB36F685FB34FF0FF3304F180010F
:10126000042210A81093039109F08AFE20B10422F1
:101270002B6803991548B84704F1680904224946C8
:1012800010A809F07DFE98B14FF000639B6A14220C
:10129000D3F8108004F16C0108F10800D5E900379B
:1012A000B847D5E900370422494608EB0200B847A1
:1012B0000123B3700E2384F846300023A1E70023F6
:1012C000F37041F207009FE5E320BBDE04800108D4
:1012D00030B50824094B00255C66012403F5FE2384
:1012E0005C6001449D601A61DC60884201D1586AEB
:1012F00030BD10F8012B1A62F7E700BF00900050D4
:10130000F7B516464FF480621D46114B04469A66A7
:1013100020300F46019009F014FEDDE90812019813
:1013200009F013FE002384F8587063643368C4F82E
:1013300059307368C4F85D30B368C4F861302B0C61
:101340006DBA84F86530A4F8665003B0F0BD00BFF4
:10135000009000502DE9F04315464FF480621C4682
:10136000364B99B0DDF880900E4607469A66002805
:1013700061D000295FD0002D5DD0002C58D0304BBB
:10138000304AB9F1000F14BF984690461C22002144
:1013900011A809F02CFE2C4B414610A8109309F01F
:1013A000A5FD202110A809F0A1FD0122274B0194E1
:1013B00002920393CDF810900592069354B1B9F1BF
:1013C000000F07D001A910A809F07CFD04A910A8FE
:1013D00009F078FD079701271C4C07A910A808976A
:1013E000099409F06FFD0AA910A80A960B970C94AE
:1013F0000D950E970F9409F065FD0DA910A809F041
:1014000061FD10A809F07BFD114B00934FF098434C
:101410005A6CD202FCD55B6D40F2046003F4702379
:101420000093009B002B08BF002019B0BDE8F0839B
:10143000DFF81080AAE740F20160F6E70090005064
:101440001F2400801F24FC840000010620000020CF
:10145000785634124FF4806210B50446044B9A66F5
:1014600009F0ACFC2046BDE81040002109F0AABC00
:10147000009000504FF4806200B50B4B91B09A661B
:101480006946002340224FF4807001F057FAB0F50E
:10149000A02F07D0B0F5302F044818BF002011B09E
:1014A0005DF804FB0148FAE7009000504CE3170890
:1014B0004FF4806200B50B4B91B09A6669460023E9
:1014C00040224FF4807001F039FAB0F5A02F07D018
:1014D000B0F5302F044818BF002011B05DF804FBB0
:1014E0000148FAE7009000506CE317080048704785
:1014F00086E217082DE9F34799460A9B0C461968BE
:1015000005463F29164642D85A68002A41D0224A49
:10151000002E14BFB046904601F03F07091928BFBE
:101520005A68196024BF01325A60AFB1C7F1400A4E
:10153000A24521D82946524609EB070009F030FDA3
:101540000123414600934A463346002000F086F8C6
:10155000B046403C55443C443F2C0CD9A3092A4694
:10156000009341463346002000F078F824F03F0312
:101570001D4404F03F0400272CB12246294609EB04
:10158000070009F00DFD002002B0BDE8F08790468D
:10159000C2E7DFF80480BFE758BE000830B4054654
:1015A000084611461A46DDE9023425B931B10294E4
:1015B00030BCFFF79FBF024830BC70470846FBE7CE
:1015C00080AFFFFF2DE9F0411746146886B01E4634
:1015D000E3008DF80F30630952688DF80E30630B0D
:1015E0008DF80D30630D8DF80C30D30003EB547380
:1015F0008DF80B3004F03F045309372C8DF80A3076
:101600004FEA52334FEA525205468DF80820884679
:1016100094BFC4F13802C4F17802CDE900178DF807
:1016200009300D4903460020FFF7B8FF0821434663
:101630002A4600970DEB0100FFF75CFF284605F1F5
:10164000200350F8042B984246F8042BF9D10020CF
:1016500006B0BDE8F08100BF78BE0008F0B51746BF
:101660004FF480621D46254B93B00E469A660446A1
:10167000202200210AA809F0BAFC01204FF00052F4
:1016800001970290039204960590069207950890A0
:101690000992002C2FD1189C194BA40121460AA8AD
:1016A0000A9309F023FC03990AA80C430394069BB0
:1016B00004A943F020030693099B43F020030993F8
:1016C00009F000FC01A90AA809F0FCFB07A90AA877
:1016D00009F002FC0AA809F012FC4FF098435A6C7A
:1016E000D202FCD55B6D13F4702F0CBF00206FF09D
:1016F0006F0013B0F0BD6FF07100FAE7009000507A
:1017000000040103064B0748DA1C121AC11E22F01E
:101710000302994288BF0022034909F041BC00BF7F
:101720007C1000200810002010120108064B07480A
:10173000DA1C121AC11E22F00302994288BF00224D
:10174000002109F054BC00BFD42300207C100020ED
:101750004FF480414FF0FF30114B124A10B59A60A0
:10176000D3F8882042F47002C3F888200E4A9166AC
:101770000E4901F5005210660D4850660220C3F86C
:10178000D000BFF34F8FBFF36F8F01244FF440336E
:101790000848C0F88041D36004600B6110BD00BFF1
:1017A00000ED00E0000000080090005000800044C0
:1017B000F7FF370000E100E0014B1868704700BFF9
:1017C0000C100020084B1B6F03F00703022B04D002
:1017D000032B05D0012B05D0FEE7044B186870479A
:1017E000034BFBE703487047008000500C100020BB
:1017F00010100020002D310108B5FFF7E3FF054B65
:101800001B6FC3F303330133B0FBF3F0024B1860DB
:1018100008BD00BF0080005008100020004870473D
:1018200000B4C404014B1868704700BF10100020BA
:10183000054B1860054B1B6F03F00703032B01D109
:10184000FFF7DABF704700BF101000200080005083
:1018500000487047002D31014FF0B4439868C0F341
:1018600004400C2822D8DFE800F0092121212121A1
:10187000071719211B1D1F000F4870479B6803F0B5
:101880004073B3F1807F13D0B3F1007F12D00B4AC5
:10189000002B08BF10467047094870470948704739
:1018A0000948704709487047094870470020704749
:1018B0000848704708487047405DC60000093D0071
:1018C0000024F400C0EA210180BA8C010048E8013C
:1018D000005A620280841E0040420F00014B1868CB
:1018E000704700BF14100020044BD3F88420D206A8
:1018F000FBD4D3F88400C0F381107047004000503F
:1019000038B5104B0546D3F880300C4603F003037E
:10191000022B0BD0032B0DD0012B0FD1FFF752FF61
:101920000E2305B1286004B1236038BDFFF794FF92
:101930000723F6E7FFF740FF0623F2E700231846E8
:10194000EFE700BF0080005038B5184B0546D3F8CC
:1019500020010C4600F00700062805D8DFE800F05B
:10196000230B0F17131B1F000023184605B1286017
:1019700004B1236038BDFFF71FFF0523F6E7FFF72B
:1019800051FF0323F2E7FFF767FF0723EEE7FFF7B7
:101990005FFF0223EAE7FFF70FFF0623E6E7FFF703
:1019A00041FF0423E2E70123E0E700BF008000508D
:1019B00038B5174B0546D3F828310C4603F007031A
:1019C000013B052B20D8DFE803F003131B0F0B1797
:1019D000FFF7F2FE052305B1286004B1236038BD8E
:1019E000FFF7EAFE0623F6E7FFF736FF0723F2E7E5
:1019F000FFF718FF0323EEE7FFF714FF0423EAE7DE
:101A0000FFF726FF0223E6E700231846E3E700BFBF
:101A10000080005073B50D460021114B0191D3F8A1
:101A20008041064604F00304022C13D0032C0CD092
:101A3000012C13D101A8FFF787FF10240EB1019BE1
:101A4000336005B12C6002B070BDFFF705FF0724BD
:101A50000190F3E7FFF7FCFE0190EFE70C46EDE79E
:101A600000800050002337B50193164B0546D3F88C
:101A700020320C4603F00703042B04D8DFE803F000
:101A8000200B11161B0000230DB1019A2A6004B12E
:101A9000236003B030BD002101A8FFF789FF1223A6
:101AA000F2E7FFF7D9FE07230190EDE709F0B1F95E
:101AB0000A230190E8E7FFF711FF09230190E3E70C
:101AC0000123E1E70080005038B5104B0546D3F8FC
:101AD00040310C4603F00303022B0BD0032B0DD037
:101AE000012B0FD109F095F90A2305B1286004B143
:101AF000236038BDFFF7F2FE0923F6E709F08CF901
:101B00000C23F2E701230020EFE700BF0080005024
:101B1000002337B50193164B0546D3F860320C46C7
:101B200003F00703013B032B1FD8DFE803F0020E8D
:101B30001914002101A8FFF707FF10230DB1019A26
:101B40002A6004B1236003B030BD002101A8FFF773
:101B5000BBFF1123F2E7FFF77FFE07230190EDE7BC
:101B6000FFF776FE02230190E8E70023E6E700BFD7
:101B700000800050002337B50193164B0546D3F87B
:101B800094320C4603F00703013B032B1FD8DFE818
:101B900003F0020E1914002101A8FFF7D5FE10234F
:101BA0000DB1019A2A6004B1236003B030BD002159
:101BB00001A8FFF789FF1123F2E7FFF74DFE072386
:101BC0000190EDE7FFF744FE02230190E8E70023D0
:101BD000E6E700BF0080005038B5144B0546D3F847
:101BE00000020C4600F00700042804D8DFE800F0EB
:101BF0001B0A0E1216000023184605B1286004B116
:101C0000236038BD09F005F90A23F6E7FFF766FE01
:101C10000923F2E709F000F90C23EEE7FFF7ECFDEA
:101C20000F23800AE9E70123E7E700BF00800050A7
:101C300038B5144B0546D3F808020C4600F00700EF
:101C4000042804D8DFE800F01B0A0E121600002357
:101C5000184605B1286004B1236038BD09F0D9F8F1
:101C60000A23F6E7FFF73AFE0923F2E709F0D4F872
:101C70000C23EEE7FFF7C0FD0F23800AE9E70123FD
:101C8000E7E700BF0080005038B5104B0546D3F899
:101C900040320C4603F00303022B0BD0032B0DD074
:101CA000012B0FD109F0B5F80A2305B1286004B162
:101CB000236038BDFFF712FE0923F6E709F0ACF800
:101CC0000C23F2E701230020EFE700BF0080005063
:101CD00038B5104B0546D3F860310C4603F00303CA
:101CE000022B0BD0032B0DD0012B0FD109F091F853
:101CF0000A2305B1286004B1236038BDFFF7EEFD6B
:101D00000923F6E709F088F80C23F2E70123002005
:101D1000EFE700BF00800050B0F5207F1FD009D84A
:101D2000B0F5007F15D003D868B1B0F5C07F0AD0F8
:101D300000200CE0B0F5607FFAD10B4BD3F88000A7
:101D4000C0F3011003E0084B186FC0F303300130FB
:101D50007047054BD3F89000C0F30460F7E7024BDF
:101D6000186FC0F38020F2E70080005002464FF465
:101D70008030104B10B598660020FFF7CDFF504320
:101D800041F671320C4BDC69DA635A6804F4803432
:101D900022F4401259B9094988428CBF4FF480108F
:101DA0000020104358600CB10022DA6310BD0449D2
:101DB000F2E700BF0090005000000350005A62029A
:101DC000002D3101430905D0012B0DD0022B094B09
:101DD00018BF002300F01F0041B103F5805301221A
:101DE00002FA00F018607047034BF3E703F5005365
:101DF000F5E700BF68800050648000501FB50021E7
:101E000080280446CDE9001100F0A58035D85E2871
:101E100046D85E2844D8DFE800F0A243434343435A
:101E20004343434343434343434343434343434382
:101E300043434343434343434343A2AAA2AAB9B9FA
:101E4000B9B9B9AAC34DD9714DAAAAAA434343430C
:101E500043434343AAAAAA79E3AA434343434343E0
:101E600043434343434343B9A2A2A2DE4D4DE88816
:101E70005EBE434343434399A200B0F5B06F00F008
:101E80008F802DD8B0F5207F71D00CD8B0F5C07FF1
:101E900065D0B0F5007F65D0B0F5807F00F085801B
:101EA000009804B010BDB0F5607F6AD00DD8B0F5D1
:101EB000407FF5D1FFF7A0FC02464FF42070FFF7FA
:101EC0002BFFB2FBF0F0400847E0B0F5806F5DD02B
:101ED000B0F5A06FE4D100216846FFF7C3FDDFE74E
:101EE000B0F5106F77D016D8B0F5E06F78D00AD87B
:101EF000B0F5C06F6AD0B0F5D06FD1D1002168467F
:101F0000FFF76AFECCE7B0F5F06FC9D10021684653
:101F1000FFF7DEFEC4E7B0F5406F3CD013D8B0F554
:101F2000206F62D0B0F5286FBAD10021314B0391F8
:101F3000D3F8703203F00303012B02D103A8FFF79B
:101F4000C3FD039B3BE0B0F5486FA9D10021684673
:101F5000FFF710FEA4E7FFF735FC0090A0E7FFF7BE
:101F60004BFCFAE7FFF72EFC0246204604E0FFF7A1
:101F700043FC02464FF42070FFF7CEFEB2FBF0F0B8
:101F8000EBE701A8FFF7BCFC019AEEE700216846E9
:101F9000FFF7DAFC84E700216846FFF709FD7FE7D9
:101FA00000216846FFF736FD7AE74FF0E023029103
:101FB0001B695B0705D5FFF71FFC0290029B00938E
:101FC0006EE703A902A8FFF77FFDF7E70021684647
:101FD000FFF77AFD64E700216846FFF729FE5FE717
:101FE00000216846FFF750FE5AE700216846FFF7D8
:101FF0008FFD55E70080005008B58020FFF7FEFEFA
:10200000034B98429EBF4FF48032024B1A6708BDC3
:10201000005A620200A000501FB50023B0F5807F77
:10202000019300F0C38064D85D2855D84C2807D8A8
:102030002D2847D823282BD8019805B05DF804FB3C
:102040004D381028F8D801A353F820F0A321000838
:1020500039200008392000083920000855210008DF
:1020600039200008392000082922000873210008BF
:10207000192100081F220008392000083920000813
:1020800039200008392000083920000833220008D0
:1020900024380928D0D801A353F820F0A321000840
:1020A000A3210008A3210008A3210008A321000800
:1020B000392000089921000839200008352100083E
:1020C000D92100083D2800F082803E28B4D10020AC
:1020D00001A9FFF7D9FDAFE78028ADD15A4B1B6F9F
:1020E00003F00703013B032BA6D8DFE803F05350AE
:1020F000878FB0F5F06F6AD021D8B0F5B06F4BD0B4
:102100000FD8B0F5607F00F0858095D3B0F5806F73
:1021100047D0B0F5A06F8FD1002001A9FFF7A2FC36
:102120008AE7B0F5D06F57D0B0F5E06FCFD0B0F5FB
:10213000C06F81D1002001A9FFF7C6FC7CE7B0F594
:10214000206F71D00BD8B0F5086F4AD0B0F5106F82
:102150007FF472AF002001A9FFF76AFD6CE7B0F5CC
:10216000406F5CD0B0F5486F63D0B0F5286F7FF456
:1021700063AF0021344B0391D3F8703203F00303B3
:10218000012B5BD0022B14BF0B46152300E0052367
:10219000019351E70223FBE7002001A9FFF73AFC76
:1021A0004AE7002001A9FFF7CFFB45E702934FF074
:1021B000E0231B695B0705D5FFF71EFB0D23039387
:1021C000039BE5E703A902A8FFF77EFCF8E70020E0
:1021D00001A9FFF77DFD2FE7002001A9FFF7FCFC17
:1021E0002AE7194BD3F8003103F00303022B07D081
:1021F000032B09D0012B0BD1FFF714FB0323C7E7F7
:10220000FFF76CFB0923C3E708F001FE0823BFE7D3
:102210000123BDE7184601A9FFF772FB0CE7002078
:1022200001A9FFF7C5FB07E7002001A9FFF770FC34
:1022300002E7002001A9FFF79DFCFDE603A8FFF7D8
:1022400043FC1123A4E700BF008000504FF480122C
:10225000034B5A664FF48032024B9A62704700BFBC
:10226000009000500050005A38B504468020FFF717
:10227000D3FE032800F08A804FF48012544B4FF0B5
:10228000A0615A6645F60E03524AC2F88030524B9E
:1022900099624FF4803103F580539962936DD903AD
:1022A000FCD4916D11F08041FBD1D4E900031B05F2
:1022B00043EA0063E07B0343207B43EA0043607B07
:1022C00043EA0033A07B43EA801313619069D4E9A9
:1022D00004531B0643EA856300F000400343A07EDD
:1022E000E57E0343207E43EA0043607E43EA002309
:1022F0009361E069136A00280CBF0022082223F0D2
:102300000F0343EA000343EA850343EA0203314A29
:10231000324D13623BD194F82430916A94F8200036
:10232000DB000D4043EA401394F821102B4343EAAD
:10233000011343F480339362294B916D33EA010119
:10234000FBD14FF08071244881621369A56823F4A2
:10235000700343EA055313614FF00043836194F81F
:1023600022300BB91F4B996294F823303BB94FF4DC
:1023700080321C4B9A62174A936D5B00FCD494F830
:1023800025301BB1134B184AC3F8802038BD0228F2
:1023900008D11161154891614FF408524FF47F4103
:1023A00008F03DFD0B4994F822308A6A94F8200029
:1023B0001B06154043EA401394F824202B4343EABC
:1023C000C20394F8232043EA02438B62D7E700BF9D
:1023D000009000500040005A0050005AC7FFFEFE17
:1023E000030001000060005AF1A7FFFF3440005ACB
:1023F000014B93F9000070476C100020014B1880CE
:10240000704700BF5C100020B0F5207F10B50C466F
:1024100057D008D8B0F5007F48D003D830B3B0F516
:10242000C07F23D010BDB0F5607FFBD129492A4879
:10243000D1F8FC2012F080721EBFD1F8FC3023F0DE
:102440008073C1F8FC30D0F88030611E23F0300476
:1024500044EA0114C0F88040002AE3D01D4AD2F8B3
:10246000FC3043F08073C2F8FC30DBE708F0E8FC96
:1024700008F0F4FC4FF48031184B174A1967136FBA
:10248000611E23F4704444EA01341467FFF7B4F981
:102490000446FFF729FAC0F10201204608F0D8FCF3
:1024A00000F02EF8BDE81040FFF7A6BD0A4A01393A
:1024B000D2F8903023F0F85444EA0164C2F8904016
:1024C000B0E7054B013C196F21F4806141EA842497
:1024D0001C67A7E700ED00E000800050009000506E
:1024E00008B50121022000F025F808F0A9FC08F049
:1024F000B5FC4FF48032014B1A6708BD00900050C4
:1025000008B54FF4C070FFF779FCBDE808400449F6
:1025100088428CBF022101214FF42070FFF774BF65
:1025200080F0FA02024A536B0342FCD1704700BFAD
:1025300000400950F8B504461C4BD3F88420D1065E
:10254000FBD4D3F88430C3F381139C422CD0FFF723
:1025500039F9012C064602D1214608F079FC08F031
:1025600097FC4FF00072124B07465A66204608F05F
:102570009FFC4FF480630D4D621E93402B676B6E82
:102580009A0103D4D5F884309B060AD5384608F062
:1025900083FC022C08D13046BDE8F840002108F049
:1025A00057BCD5F88430EAE7F8BD00BF00400050C2
:1025B0000060005007B518B90191FFF703F90199C0
:1025C000064B1B7843B1064B984205D8012003B057
:1025D0005DF804EBFFF7AEBF0220F8E7A723002069
:1025E000005A62024FF0004238B5244B244C5A6620
:1025F0004AF6CD33656C014605F00105236430BB16
:102600000120FFF78FFF6368DB0708D4002415B1B2
:102610001B4B1C4A1A6409F063F8204638BD1A4B5C
:1026200058600846194B226BD20705D4984201D155
:102630000724ECE70130F6E79842E7D1F8E70132EA
:10264000236B13F0080305D08A42F8D1F0E700228B
:102650000E49F5E78A42EBD020210B4A9162012115
:10266000A2F5805251600649084A886A800603D460
:102670009342DDD00133F8E79342DEE7009000504B
:10268000004009503254FFFF0060095040420F00E3
:102690004FF0004238B5164B01465A664AF6CD3324
:1026A000144C154A656C236443780B205B0043F09F
:1026B0000103D363FFF736FF63688A7823F4F87366
:1026C00043EA02136360CA784B7943EA0223A360AA
:1026D0000A798B7943EA022323610878FFF782FFA6
:1026E000EB0744BF054B236408F0FAFF012038BD17
:1026F0000090005000400950004000503254FFFF4D
:102700004FF00042124B70B55D6E03F580535A6670
:102710004AF6CD3304460F4980204E6C0B64FFF718
:1027200001FF0B6A23F00F030F2C94BF234343F0E8
:102730000F030B62F30744BF074B0B64002DA2BFCE
:102740004FF00042054B5A6608F0CAFF70BD00BF4B
:1027500000800050004009503254FFFF00A000509C
:102760004FF00042104B70B55D6E03F580535A6612
:102770004AF6CD3304460D4980204E6C0B64FFF7BA
:10278000D1FE0B6A23F4F85343EA04230B62F307E8
:1027900044BF074B0B64002DA2BF4FF00042054B16
:1027A0005A6608F09DFF70BD00800050004009503F
:1027B0003254FFFF00A00050F0B5114A114C124EE8
:1027C00000F00105E3695F0713D40DB9334213D15B
:1027D00003EA00078F4207D10B4A1A40002A14BFB0
:1027E0006FF001000020F0BD013AEBD16FF0020064
:1027F000F9E74FF0FF30F6E76FF00100F3E700BFB5
:102800008096980000000350020001004FF48032CF
:1028100038B50E4B0E4C9A66E56941F6713315409A
:102820000122E3630B4B0021DA6002236061212067
:102830002361FFF7C1FF10B92120FFF7BDFF01227F
:10284000054BDA600DB10023E36338BD0090005002
:102850000000035000100350002003502DE9F04FFA
:1028600006464FF430250120B400DFF8C0C004F163
:10287000A04404F58824CCF80400656030250024C9
:102880004FF48037DFF8A8E0DFF8A89005FB06E5F5
:10289000EC652C662C67234CDFF89CA0A76641F6FC
:1028A000713704F51C34D4F81C80E763E76800FA3C
:1028B00006F60743E7604BB9E26818F4803F22F060
:1028C0000102E26000D0E363184628E001F5005001
:1028D00000EA0900401A984228BF18466161D4F8FE
:1028E0001CB087081BF0040F17D1013F3F0147F0D0
:1028F00060576F66AA66C5F86CA0CCF82460DEF855
:1029000034703E42FBD0084F01447E630427CCF86C
:102910002860024427611B1ACDE74FF0FF30BDE865
:10292000F08F00BF009000500020045000100450B1
:102930000000045000E0FFFF18000350F0B5074608
:102940000F4D10488DB0002B08BF05460E461446AB
:1029500000211C2205A808F04AFB012304A801A9B4
:102960003D4344F00054019604950293039408F00B
:10297000B3FA08F0C4FA08F09CFA0DB0F0BD00BF3D
:1029800001000AFF010008FF4FF48032064B5A662F
:1029900003F5E6239B69C3F38512827003F03F02BF
:1029A0001B0B42700370704700900050014B986CF5
:1029B000D96C70470080E00F38B50446054D08F02B
:1029C000A2FE0FCC0FC594E8030085E803000020A9
:1029D00038BD00BFD812002047F6FF739A42F0B509
:1029E00066D0012966D8344DCF0015F8313005EB9B
:1029F000C100012B847813D10025C3781B1B9D4295
:102A000002D3E018C0B2F0BD591B4668A3EB5101D8
:102A100036F911609642D4BF0D4601F1FF33EEE75F
:102A200040680028EFD0B0F90030934204DBB0F9E1
:102A300002309342B8BF134682883D44FF2A19BF33
:102A4000C8214FF0280CB0F90610B0F908C0A1EB6E
:102A500003020CBF0126002692FBFCF26D78324483
:102A600012B2954201DD002A01DA6A1E12B24FF459
:102A70007A7700EBC206F188B668013213FB016178
:102A800012B221EAE1715C319542B1FBF7F104DD4C
:102A900000EBC206B6888E42EBD200EBC20232F8DF
:102AA000040C884228BF0846A04238BF2046A9E748
:102AB000FF20A8E70020A6E7D81200200148FFF772
:102AC0007BBF00BFB8BE0008004870475E10002002
:102AD0004FF48062014B00209A66704700900050CE
:102AE0004FF48062014B00209A66704700A00050AE
:102AF0002DE9F04104681E4624F04003802B054672
:102B00008846174692B002D0B4F5807F43D11C228C
:102B100000210BA808F06BFA224A234B0121B8F1DF
:102B2000010F18BF13460A932B1D0193E4081F4B96
:102B300044F0005402910AA8039404970591069367
:102B40000796089101A9099308F0BCF904A90AA8FD
:102B500008F0B8F907A90AA808F0BEF929680AA878
:102B6000C90808F0C3F910210AA808F0BFF9FFF757
:102B7000AFFF98B90AA808F0C2F94FF098435A6C11
:102B8000D202FCD55C6DFFF7ABFF04F47024204645
:102B900012B0BDE8F0816FF07100F9E74FF0FF303F
:102BA000F6E700BF0001010400010004100000204E
:102BB0002DE9F04F9BB00746894698461646DDF84A
:102BC00094B072B115683B6823F04002802A03D0AC
:102BD000B3F5807F40F0A6800BEB0903002400933F
:102BE0000DE01546EFE795B1249A1BF80430525DCD
:102BF00001355340269A05F00F05135501344C4515
:102C0000F1D3002E00F091800020356067E0A9EB41
:102C1000040ABAF10F0F57D91C22294613A808F04D
:102C2000E6F9434B3A6812933B1D03930123D20804
:102C300042F00052049305923E4A2699CDF818803E
:102C40002AF00F0A07930892CDF824800A930B927A
:102C50000BEB04020C9221444AF000520D9312A88F
:102C60000E920F9103A91093119208F02BF906A967
:102C700012A808F027F90CA912A808F023F90FA947
:102C800012A808F029F909A912A808F025F939684D
:102C900012A8C90808F02AF9514612A808F026F926
:102CA000FFF716FFC8B912A808F029F94FF09843AA
:102CB0005A6CD202FCD55B6D544403F4702301932B
:102CC000FFF70EFF019B5BBB269B0BEB040A1C442A
:102CD000009B9A4506D14C4691E74FF0FF301BB060
:102CE000BDE8F08F8DB9424601213846249BFFF79D
:102CF000FFFE0028F3D108F1100212F8013D013364
:102D0000DBB213700BB99045F7D1249A1AF8013B46
:102D1000525D0135534004F8013B05F00F05D7E73C
:102D20001846DCE76FF01F00D9E73046D7E700BF51
:102D3000030300041000002007B5094B18689A88A7
:102D40009B7900906846ADF804208DF80630FFF7B7
:102D50009FFC0C20FFF7D4FC002003B05DF804FBBF
:102D6000A0CD000830B58BB06C46174D0FCD0FC409
:102D70000FCD0FC495E8030084E80300134BD3F88C
:102D80004C21120318D4D3F85041E4B28DF8194005
:102D9000FFF72EFB204480F308008DF818000C4844
:102DA000FEF746FD6846FFF75FFA4FF4FA70FFF74B
:102DB00025FB00200BB030BD064B1C884FF6FF737F
:102DC0009C4208BF6424E1E7A8CD00080080E00F22
:102DD000C01753020001E00F10B5274CFFF736FA79
:102DE000FFF77EFB236F23F0070343F00303236702
:102DF00008F039F8214B00209B6ADB015EBF4FF4DD
:102E000080321F4B9A62D4F8203123F0070343F03D
:102E10000203C4F82031D4F8283123F0070343F02B
:102E20000203C4F82831D4F8403123F0030343F0FF
:102E30000203C4F84031D4F8603123F0030343F0B7
:102E40000203C4F86031D4F8403223F0030343F0A6
:102E50000203C4F84032D4F8003223F0070343F0F1
:102E60000203C4F80032D4F8083223F0070343F019
:102E70000203C4F8083210BD008000500040005A20
:102E80000060005A53B94AB9002908BF00281CBF86
:102E90004FF0FF314FF0FF3000F082B9ADF1080C78
:102EA0006DE904CE00F006F8DDF804E0DDE9022368
:102EB00004B070472DE9F04F099D04460F46002BE2
:102EC00048D18A42944661D9B2FA82F343B1C3F140
:102ED00020019F4002FA03FC9C4020FA01F10F43BD
:102EE0004FEA1C411FFA8CFE220CB7FBF1F601FBE6
:102EF000167706FB0EF042EA0742904208D91CEB17
:102F0000020206F1FF3702D2904200F237813E46BC
:102F1000121AA4B2B2FBF1F001FB102200FB0EFE6C
:102F200044EA0244A64508D91CEB040400F1FF3230
:102F300002D2A64500F21C81104640EA0640A4EBEE
:102F40000E0400261DB1DC400023C5E900433146D4
:102F5000BDE8F08F8B4209D9002D00F0FD800026DE
:102F6000C5E9000130463146BDE8F08FB3FA83F67B
:102F7000002E4BD18B42C0F0F280824240F2EF80B3
:102F80003046002DE3D0C5E90047E0E702B9FFDE97
:102F9000B2FA82F3002B40F09D80891A4FEA124E5C
:102FA00097B20126200CB1FBFEF20EFB121140EA93
:102FB000014107FB02F088420FD91CEB010102F12D
:102FC000FF382CBF4FF001094FF00009884203D9A8
:102FD000B9F1000F00F0CF804246091AA4B2B1FB4C
:102FE000FEF00EFB101100FB07F744EA0144A74274
:102FF00008D91CEB040400F1FF3102D2A74200F211
:10300000B4800846E41B40EA02409BE7C6F1200773
:10301000B34001FA06F422FA07FCF940B2404CEA48
:10302000030C20FA07F34FEA1C491C431FFA8CFEDD
:1030300000FA06F3200CB1FBF9F809FB181140EA7D
:10304000014108FB0EF088420FD91CEB010108F189
:10305000FF3A2CBF4FF0010B4FF0000B884203D911
:10306000BBF1000F00F08D80D046091AA4B2B1FB6D
:10307000F9F009FB101100FB0EFE44EA01418E45F8
:1030800007D91CEB010100F1FF3401D28E457FD836
:10309000204640EA0840A1EB0E01A0FB0298414502
:1030A0004C46C64602D306D14B4504D20138B9EB93
:1030B000020468EB0C0E002D70D01A1B61EB0E01A0
:1030C00022FA06F301FA07F7F14000261F43C5E98B
:1030D00000713CE702FA03FCC3F1200001FA03F29D
:1030E00021FA00F64FEA1C4E24FA00F11FFA8CF781
:1030F0009C401143B6FBFEF00A0C0EFB106642EA40
:10310000064200FB07F696420ED91CEB020200F1C4
:10311000FF382CBF4FF001094FF00009964202D949
:10312000B9F1000F31D04046921B89B2B2FBFEF6D6
:103130000EFB162241EA024106FB07F28A4207D93A
:103140001CEB010106F1FF3801D28A4223D8464622
:10315000891A46EA004625E72E462846F7E6841AED
:1031600061EB030301201F460BE76444023849E783
:1031700064440238E1E6023A61442EE7023E6244CA
:10318000C6E6A8F1020861446FE702386244CBE763
:10319000023861447DE7023E6144D9E72E46D6E617
:1031A000704700BF014807F08CBF00BFF01200203D
:1031B000014807F05BBF00BFF0120020014800F09B
:1031C00053B800BFF01200200A460146014800F043
:1031D0007BB800BFF0120020014800F0B5B800BF76
:1031E000F01200201FB50A79064B02920A680831D6
:1031F0000192022200920CCB08F043F805B05DF872
:1032000004FB00BFE0CD000830B50B7985B0033377
:10321000029301F14403019302230C460546114A2F
:10322000009314310CCA08F02CF8238A04F12C0105
:103230000293E36828460193237A009394E80C00F4
:1032400008F01FF80546237AA4F845002279216882
:1032500084F8443004F1470007F0A2FE284605B088
:1032600030BD00BFD8CD000838B50546124B134C11
:10327000D4E9020183E8030019462846FFF7B2FFAC
:10328000D4E9040110220E4B83E8030019462846B6
:103290001A72FFF7B9FFD4E906010222094B203464
:1032A0001A7283E80300DC60194628461A82BDE8DA
:1032B000384007F0E4BE00BFF4130020F4CD00084E
:1032C00050130020A8130020F8B504460D4B0E4DF6
:1032D0000F46D5E9090183E8030019462046164642
:1032E000FFF780FFD5E90B010222084B1A7283E831
:1032F0000300DF60194620461E82BDE8F840FFF754
:1033000083BF00BFD4130020F4CD0008F8120020C2
:1033100010B50C4630B907F0A4FB034B18602360CE
:103320000423A380002010BD1414002010B50C4607
:1033300030B907F094FB034B186023600423A3808B
:10334000002010BD181400202DE9F74306466D46F5
:103350004FF00809404C414B414F94E8030083E88B
:10336000030019463046FFF73DFFD4E9020187E824
:10337000030028463B4987F8089007F07BFE95E854
:10338000030007F10C0383E8030039463046FFF7DA
:103390003BFFD4E904010C234FF00208324F87E8C9
:1033A0000300284631493B7207F064FE95E80300AC
:1033B00007F10C0383E8030039463046FFF724FF8A
:1033C000D4E906012A4B2B4A83E80300194630460C
:1033D00083F80880DA60A3F81090FFF715FFD4E9AE
:1033E0000801254B254A264FDA60012283E80300B5
:1033F000194630461A8283F80880FFF705FFD4E9A2
:103400000A0187E8030028461E4987F8088007F06C
:1034100031FE95E8030007F10C0383E80300394609
:10342000194F3046FFF7F0FED4E90C0187E803009E
:103430002846164987F8088007F01CFE95E8030027
:1034400007F10C0383E803003946304603B0BDE8BA
:10345000F043FFF7D9BE00BFA0CE00082C16002015
:10346000241500200BB100087C150020F3B00008E3
:1034700074140020D8CE0008D4150020E0CE000837
:10348000CC1400202D3300081C1400201133000838
:103490007FB500230130CDE9043380B2054BCDE97F
:1034A0000101694604200093039207F00BFF07B067
:1034B0005DF804FBA82300201B22014B1A807047F3
:1034C00084230020F7B50346CDE9001207460E46D7
:1034D00015464FF48040094A094907F005FE0022CD
:1034E000012311460420074C237067706680257104
:1034F00003B0BDE8F040FFF7CBBF00BF81D00008AC
:10350000E1CE0008A8230020034610B5094A04466E
:1035100009494FF4804007F0E7FD0322074B0220E2
:103520001A700022A3F801401146BDE81040FFF7D1
:10353000AFBF00BF6AD0000815CF0008A823002045
:1035400030B50C4685B004A901E90C0005460346D8
:103550000A4A4FF480400A49009407F0C5FD05224D
:103560000320084B02991A709DF80C205D705C8056
:1035700005B0BDE83040FFF78BBF00BF4FD000085B
:1035800021CF0008A823002037B5034605460C4686
:1035900000914FF48040094A094907F0A5FD072230
:1035A000084B04201A7000221146A3F80150A3F81A
:1035B000034003B0BDE83040FFF76ABF34D00008D5
:1035C00045CF0008A823002038B5094A05460C4617
:1035D0000B464FF48040074907F086FD0B22064B4F
:1035E00029461A7000202246BDE83840FFF750BF38
:1035F00024D000086ACF0008A823002008B54FF4A3
:103600008040074A074907F06FFD1322064B1A70E6
:103610000022BDE8084011461046FFF739BF00BF41
:1036200013D0000879CF0008A823002073B5034603
:10363000144605460E4600924FF48040084A094958
:1036400007F052FD0922084B31461A70A21C5A702D
:10365000032022465D8002B0BDE87040FFF718BF2E
:10366000FDCF00087FCF0008A82300202DE9F341FB
:103670001C469046CDE9001307460E4603460A4A0B
:103680004FF48040094907F02FFD1123224641469F
:103690000520074D2B70231D6B706F80AE8002B02C
:1036A000BDE8F041FFF7F4BEE2CF00089DCF00086F
:1036B000A823002070B50D4603780C4A04460C4937
:1036C0004FF4804007F010FD00230A4E691E20468B
:1036D00089B2738000F040F8024628B171882078E2
:1036E000BDE87040FFF7EEBE70BD00BFDACF000846
:1036F000C7CF000884230020024610B500B3114B49
:103700001968888890421BD398880024904281BF12
:1037100001200968988099609868998828B904B14F
:1037200098604FF6FF729A8009E08A4204D0013116
:103730000124006889B2F1E70CB19A80986010BD4D
:103740000020FCE74C1600204FF6FF72014B18607A
:103750009A8070474C1600202DE9F0470478054602
:10376000122C0E4688B017D8012C18D9A31E102B86
:1037700015D8DFE813F0160014002F0014005A00CB
:1037800014000E0114009F00140014001400140013
:10379000140051011400CC00522C00F0DE800624ED
:1037A0003FE0022940F0B681B0F80130B34A4FF44F
:1037B0008040B34907F098FCB5F80140B4F5007FAC
:1037C00028BF4FF400742046FFF79EFEAD4B1C80CF
:1037D000002426E0042924D1B0F80330AA4A00933B
:1037E000B0F80130A9494FF4804007F07DFCB5F8EE
:1037F000017006ADBEB22946304607F0C0FC044653
:1038000018B1A04B5F800A240BE09DF81C303146B4
:10381000022B08BF012095E80C0018BF0220FFF71B
:103820008FFE204608B0BDE8F08702278E1FB6B293
:103830000196B0F80330964A0093B0F801309549EC
:103840004FF4804007F050FC05F10508EB1D019690
:1038500000938DF81470CDF810804246059BB5F8A2
:103860000310B5F8010007F097FC4FF6FF76B04261
:10387000044606D1AA786B7843EA0223814A538032
:10388000C1E70023CDE90033CDF818808DF81C7016
:1038900008AB0130314613E90C0080B207F07CFC24
:1038A0000146B0421CBF00F1FF3189B22046FFF74C
:1038B0006BFE8DE7022940F02D81B0F80130764A89
:1038C0004FF48040754907F00FFC3146B5F8010010
:1038D00007F0B4FC6B4E044628B16B78AA7843EA33
:1038E000022373809DE733880146013BADF8103019
:1038F000B5F8010004AB06AA07F0B2FC04460028A4
:10390000EBD1BDF810100698FFF75EFE89E78E1E1A
:10391000B6B20096B0F80130614A4FF48040614978
:1039200007F0E2FB0821B5F8010007F087FC044628
:1039300030B1AA786B7843EA0223524A538070E789
:1039400001463346B5F80100EA1C07F05EFC044668
:103950000028EED1FFF752FE63E78E1EB6B2009646
:10396000B0F80130504A4FF480404E4907F0BCFB9C
:103970000421B5F8010007F061FC044600287FF43B
:1039800027AF01463346B5F80100EA1C07F03DFCBD
:1039900047E70E1FB6B2022E02D0102E40F0BA80BA
:1039A0000024B5F803304FF480400093B5F801309F
:1039B0003E4A364907F098FBCDE900446B1D06935B
:1039C0008DF81C6008AB13E90C00B5F80310B5F8CE
:1039D000010007F0E1FB4FF6FF7398420646294FBE
:1039E00005D16B78AA7843EA02237B800BE73B88FA
:1039F0002146043BADF80E3004AA0DF10E0307F08A
:103A00002FFC044608B17E800BE73046BDF80E203F
:103A10000499FFF70BFE04E70E1FB6B2022E01D089
:103A2000102E77D10024B5F803304FF48040009376
:103A3000B5F801301E4A154907F056FBCDE90044A0
:103A400005F1050AF6B28DF81460CDF810A05246C3
:103A5000059BB5F80310B5F8010007F09DFB4FF684
:103A6000FF7948450746DFF81C8023D16B78AA7898
:103A700043EA0223A8F80230C5E600BF4DD1000892
:103A800015CF0008842300203AD1000892D0000806
:103A900027D10008B0D000081FD10008D9D00008F5
:103AA00016D100087FCF00080DD10008FFD0000814
:103AB000ECD00008CDE90044CDF818A006AC8DF894
:103AC0001C60013094E80C00494680B207F064FBAA
:103AD0000546B8F800304845A3F1060318BF00F1C9
:103AE000FF352246ADF80E304FF0000138460DF19B
:103AF0000E0318BFADB207F0B3FB044610B1A8F82F
:103B000002708EE629463846BDF80E30069AFFF759
:103B1000ADFD86E6042484E60022014B1A6070475E
:103B20005C18002003291FB51CD90288131D994277
:103B300018D304D84388042B03D0062B06D00120C9
:103B400011E011460430FFF7B5FDF8E70022CDE99A
:103B50000222064A6946009202221846019207F0A4
:103B6000B1FBECE7002005B05DF804FB6D10002010
:103B700037B500220DF10700114600F05FF89DF8FF
:103B800007300C4C0BB10023236021680A4DC1F5AE
:103B9000017292B229440DF1070000F04FF821683C
:103BA000014428462160FFF7BDFF08B100232360D0
:103BB00003B030BD5C1800205816002010B5044634
:103BC0004FF4807300210E4A0E4807F00EFC4FF4AC
:103BD000807300210C4A0D4807F007FC2046FCF7D3
:103BE000C7FA07F0C3FB00F035FD07F0F2FC8307CE
:103BF00005D500F0F9FBBDE8104000F049BA10BD52
:103C000090190020781900207818002060180020F2
:103C100008B513460A460146024807F0A5FCC0B2A3
:103C200008BD00BF7819002008B5034807F0E6FB7F
:103C3000003818BF012008BD7819002073B50E4662
:103C40000446019207F024F9214605463246019BBD
:103C5000044807F089FC0446284607F01DF9204671
:103C600002B070BD6018002008B5034807F0C6FB1D
:103C7000003818BF012008BD6018002073B50E463B
:103C80000446019207F004F9214605463246019B9D
:103C9000044807F034FC0446284607F0FDF82046A7
:103CA00002B070BD7819002010B50C4601460448DA
:103CB00007F084FCA04234BF0020012010BD00BFEB
:103CC0006018002073B50E46114605460192FFF7B5
:103CD000EBFF044628B132462946019B024807F013
:103CE0000EFC204602B070BD6018002010B5034CD9
:103CF000A07900F007FE0023236010BD901A002079
:103D00001FB50B4C0B4AA37A0B490393637A4FF40C
:103D100080500293237A0193E3790093A37907F00B
:103D2000E3F9A01D00F072FD0023236004B010BD74
:103D3000901A002011D300085CD100081FB5104C68
:103D4000104AB4F80D304FF480500293B4F80930A3
:103D50000D490193A3790093B4F8073007F0C4F933
:103D6000B4F80710A07900F083FDB4F80D10B4F892
:103D7000090000F091FD0023236004B010BD00BFD6
:103D8000901A0020E3D2000885D10008014B9980E9
:103D900018607047901A00200022014B1A6070478B
:103DA000901A0020034A13681BB19288824200D106
:103DB00018477047901A0020014B1870184670473A
:103DC000AF230020162838B503464FF0020514BF74
:103DD000034613230B4C0C4A4FF480500B4963707D
:103DE000257007F081F92946204600F06DFD00F0AE
:103DF000C9FE074B074A05301A60627898809A71AD
:103E000038BD00BFAF230020ABD20008BCD10008F2
:103E1000901A0020ED3C000830B5044603787B4A38
:103E20004FF480507A4985B007F05EF923780C2B67
:103E30000AD80C2B0BD8DFE803F05A3F790A0A0A9C
:103E40000A0A890A0A0A1600142B00F0A8802046E4
:103E500000F024F9002867D1072223786D48022159
:103E60000270437023E0A3884FF48050019363886D
:103E7000694A00936378694907F036F94FF0FF32D9
:103E8000644C0C23A2700222E27000222370627143
:103E9000012340F2FF2263702371604900924FF4C6
:103EA00080505F4A019307F01FF90621204605B0B4
:103EB000BDE8304000F008BDE3885A4A5A494FF443
:103EC000805007F011F9E179A379584A43EA0123B8
:103ED00093801346564943F8061BD4F80110C2F8E4
:103EE0000610B4F805209A80E2799A711CE0638983
:103EF000504A4D494FF4805007F0F6F8E27AA37A21
:103F00004A4943EA02238B800B464B4A43F8062B6F
:103F1000D4F80120C1F80620D4F805205A60B4F87E
:103F200009201A81E27A9A7205B030BD6378434A5B
:103F30004FF48050424907F0D7F800F023FE3B4B86
:103F4000404A05301A6098806278CEE7D4F8053090
:103F5000D4F801203C49CDE900234FF480503B4A7E
:103F600007F0C2F800F014FAD4F80130294C0340ED
:103F700003F0FF0320F0FF00184309252346002229
:103F800003F8015BC4F801002F495A60CDE9000233
:103F90004FF480502E4A07F0A7F8294686E7B4F878
:103FA00007302C4A0293B4F805304FF48050019347
:103FB000B4F8033028490093B4F8013007F094F8BE
:103FC000B4F80310B4F8010000F074FC1523114C90
:103FD0006FF0270223700723E2702371E2712372CE
:103FE00000216FF004004FF4FB62FB236070A170AE
:103FF0006071A1714FF48050CDE9013216490092F1
:10400000164A07F071F8092150E700BFA2D2000854
:10401000D2D10008AF23002097D20008E3D10008D6
:1040200039D300082BD3000814D20008901A0020BE
:10403000013D0008FDD200083D3D0008D6D2000831
:10404000BCD10008ED3C000824D20008CBD2000807
:10405000BCD200088DD200083DD200087FD20008F3
:1040600010B5084B4FF480509C79074A2346074906
:1040700007F03AF8204600F017FCBDE81040FFF7C3
:104080008BBE00BF901A0020A6D3000848D30008BA
:104090000122014B1A707047BB230020244B73B5DB
:1040A0001E7804462EB10378162B05D0182B27D086
:1040B0000026304602B070BD83781E4A00934378D4
:1040C0001D494FF4805007F00FF86378A47817204B
:1040D0001C4004F00304022C18BF0124FFF76CFEFF
:1040E00005464470847023464FF48050134A1249A9
:1040F000009406F0F9FF0221284607F034F9D8E7CA
:10410000B0F803300E4A019383780E490093437848
:104110004FF4805006F0E8FFB4F803100A48FFF7A8
:1041200035FED4F80120094BC3F80620C1E700BFD3
:10413000BB230020D1D3000858D30008C6D3000801
:10414000B9D3000878D3000861400008901A002015
:1041500013B50D4B01281B880C4CADF80030ADF8A1
:10416000043002BF02238DF8003004236946206822
:1041700008BF8DF8043007F084FA206801A907F021
:1041800096FA02B010BD00BFD8D30008A41A0020D0
:1041900070B5334C11464FF4867086B01E461546F6
:1041A00006F0A5FF236933B929464FF4837006F062
:1041B0009EFF06B070BDA5F10802324321D101AACD
:1041C0000321206807F0D9FA636860615B7A04F123
:1041D000180123769DF804300220DA1F5342534120
:1041E000627E63F30002039B6276E361BDF80630F2
:1041F00063832369984701220021206807F0C3FAEE
:10420000D7E705F17F42324305D10021012006B0F6
:10421000BDE87040184715F4A04209D04FF48071F2
:104220004FF4817006F063FF002103202369EEE75D
:1042300005F4A0631A4308D001214FF4817006F001
:1042400056FF0021FF202369E1E705F0A042134358
:1042500019BF012140F2011029464FF48370EEE7A7
:10426000A41A00200A46014602484FF40073006871
:1042700007F07FBAA41A0020F0B50446164D174A7D
:104280006B68807A5B7A85B0D75C0E46FFF760FF7B
:10429000237AB9B2022B0CD1002328681A4600F009
:1042A000FBFCA8B10021FF20334605B0BDE8F0407B
:1042B0001847002220688DF80C3002900092286880
:1042C00002ABADF80D208DF80F2000F0F3FCE8E70D
:1042D0002E6105B0F0BD00BFA41A0020DAD300089B
:1042E0002DE9F04104461D4D1D4A6B680E465B7A70
:1042F00086B0D15C807A0191FFF72AFF237A4FF0D4
:104300000108022B02BF0023029301238DF80C3019
:10431000636818BF226803F164030493637A4FF063
:10432000000418BF029201998DF8143002AA2346A6
:1043300028688DF815808DF8164000F0C7FC0746F8
:1043400042462146286807F01EFA2FB12146FF2079
:10435000B04706B0BDE8F0812E61FAE7A41A00204C
:10436000DAD3000808B500214FF4857006F0BFFECF
:104370000022044B03211A6118680122BDE808409D
:1043800007F03EB9A41A002000487047AC1A00207C
:10439000014B188C704700BFA41A00207FB5022380
:1043A0008DF80630064B5A8B59690332ADF804205C
:1043B00018686A4607F0E5F9009807B05DF804FB55
:1043C000A41A0020002313B5064C0093437AD0E9C9
:1043D00000216060206807F013FA00F00DF802B0C9
:1043E00010BD00BFA41A0020024A138C43F480734E
:1043F00013847047A41A002038B50D4C238CDB05BC
:104400000CD563680B4D1B7A2A789A4206D0012B93
:1044100005D0022B07D063681B7A2B7038BD20684B
:1044200000F030FFF7E7206800F032FFF3E700BF4D
:10443000A41A0020BC23002010B50024064B1C60E9
:10444000064B1C7006F0BDFFB0FA80F3044A5B090E
:104450001370044B1C7010BDE41E0020BE2300200E
:10446000BF230020BD23002010B5074B1C782CB9BA
:10447000064B1B7833B106F0ACFF044600F066F83B
:10448000204610BD8124F9E7BE230020BF23002071
:1044900038B50A460F4903460978C1B10E49087874
:1044A00050B90E4C24783CB90D4C20681518B5F560
:1044B000806F02D98220087038BD1946094B184414
:1044C00006F06EFD2560BDE8384000F00DB8812093
:1044D000F2E700BFBF230020BE230020BD23002041
:1044E000E41E0020E41A002038B5134B134D1A784F
:1044F0002968022A0ED0032901D8002038BD104AAD
:104500001068104A904203D084200F4B1870F5E7D2
:1045100002221A700A48FBF72BFF04462A68074953
:10452000074806F02BFF002CE7D041F207039C421E
:10453000E3D08520E9E700BFBF230020E41E002070
:10454000E41A0020EB17A603BE2300200022014B33
:104550001A707047BF2300201FB5124C1148637AB0
:104560000133DBB2272B88BF25236372FFF72AFFB5
:104570000023CDE90233E368627C01930123617D6E
:10458000D207094801F102018DF80C3048BF8DF8BF
:104590000E30FFF767FE054901A8FFF76DFE04B076
:1045A00010BD00BFE81E0020FC1E0020B145000821
:1045B000022810B51BD002D8012805D0FEE7032839
:1045C00043D0FF2841D0F9E7214C637C990707D5F8
:1045D000FFF7C8FEFFF7C0FF637C6FF3410363740E
:1045E000637CDA0730D4BDE81040FFF7B5BF4B78E5
:1045F000DB072AD54C68217801F00F03032B11D07B
:10460000052B22D1C90904F1080006F0E4FFD8B156
:10461000FFF7A8FEFFF7C2FE01462046BDE81040A6
:1046200000F0B6BAC90904F1080006F0D4FF58B189
:10463000074C94F83D1004F13C000231FFF712FEE4
:10464000637C43F00203637410BDFFF78BFECAE77F
:10465000E81E002010B5094C00215C2204F108007E
:1046600006F0C5FC42F210730549E360054BC4E94E
:10467000001342F20153238110BD00BFE81E002049
:10468000D6BE898E5555550038B50446FFF76AFEEB
:10469000002C3FD0204C257C627CB5FA85F35B0969
:1046A00063F300026274FFF76FFE837905F00F0574
:1046B000C3F3000345EA8315237D23F04F031D4315
:1046C000637D25750BB9062363750368C4F816303E
:1046D0008288124B9A80FFF757FE837994F83C202A
:1046E000C3F300039B0143F0040322F04F02134382
:1046F00084F83C3094F83D3013B9062384F83D30FB
:104700000368C4F83E308288054B9A80BDE8384083
:10471000FFF722BF38BD00BFE81E0020FE1E0020AC
:10472000261F002020290A4608B509D8054B063166
:104730005975014603F11C0006F032FC002008BD4B
:104740001220FCE7E81E002020290A4608B50AD8F6
:10475000064B063183F83D10014603F1440006F094
:104760001FFC002008BD1220FCE700BFE81E00204F
:104770000A20D0B50B4CE38C584305F0CFFE06461B
:10478000A08C0F4605F0CAFE0022074B05F030FF53
:1047900002460B463046394606F054F806F03AF920
:1047A0002083D0BD4C1F00200000F43F1FB5154CE6
:1047B00040F60100218906F09AFCA37E5A061FD418
:1047C00023F0070343F001032089A376FFF7EAFAF9
:1047D000A37A04F10C00234493F82A306375FFF7A1
:1047E000F1FDD4E90032A3EB520103EB5203029333
:1047F0004FF48033019101A803490393FFF770FD43
:1048000004B010BD4C1F002091490008002213463F
:1048100030B58BB0D910415C03F007042141CC07BF
:1048200042BF02F12801694401F8283C03F1010369
:1048300048BF0132252BEDD100230C4CD910415C2F
:1048400003F007052941C9075FBFB3FBF2F102FB83
:104850001131283169444CBFD9B211F8281C0133F9
:10486000252B04F8011BE9D10BB030BD761F0020C9
:1048700010B540F2E244074A6043136800F58070C7
:1048800004FB0131536801EB500118441160506082
:1048900010BD00BF4C1F0020024B9884D984FFF745
:1048A00067BF00BF4C1F0020014B1875704700BF49
:1048B0004C1F0020C908884228BF0846014B1885B4
:1048C000704700BF4C1F0020044B5A6D22B9586539
:1048D000A3F8581001207047002070474C1F00209B
:1048E00010B504460346054A4FF40060044906F03B
:1048F000FBFB2046BDE81040FFF764BA4ED4000829
:1049000002D4000810B504460346084A4FF400607C
:10491000074906F0E9FB074A2046BDE81040937EB0
:1049200043F04003937606F01CBD00BF3FD400085F
:1049300002D400084C1F002010B5144CA37E5B0667
:1049400023D4FFF70FFD40F2E243A18C226803FB62
:104950000122A37A226094F84F2013442522B3FB4E
:10496000F2F002FB10332289A372013222810A2263
:10497000636802FB01336360238B5A1E228323B9D1
:10498000BDE810400820FFF7BDBF10BD4C1F002040
:1049900002282DE9F74380460E460BD003D80128A4
:1049A00000F0DC80FEE7032800F0DE80FF2800F046
:1049B000DB80F7E74F78714C17F0010763D14FF0B8
:1049C000FF3140F6030006F092FB3D46A37E6C4F9C
:1049D00013F0200F12D0616D6FF34513A3760029F9
:1049E00000F09E803B7894F8582043F003033B701E
:1049F0007A70B81C06F0D4FA00236365FFF714F947
:104A0000A37E60F34103C3F30012C3F3C00192001D
:104A100042EAC102A37642EA00133A7803F01C038B
:104A200022F01C0213433B7040F60200398806F066
:104A30005EFB797852480231C9B2FFF713FCA37EBE
:104A40007668D90709D56FF30003A3760023636066
:104A5000FFF7A4FC2060FFF78BFE002D00F08B8099
:104A6000337803F00303022B05D0032B6FD0012B07
:104A700040F08180002528467278B11C03B0BDE863
:104A8000F043FFF71FB9D1F8049040F60300B9F8DE
:104A9000001006F02CFB99F80030A27EC3F300133F
:104AA00063F3820299F80030A276C3F3C001C2F327
:104AB000001291422FD103F00303022B29D0032BC4
:104AC00008D0012B27D1002099F8011031B3FFF74E
:104AD000EBF807463D46A27E99F80010C2F3C003EA
:104AE000C1F38001994208D083F00103DB0043F059
:104AF000200322F028021343A376002F3FF466AF71
:104B0000A37EC3F3001282F0010262F30413A376C2
:104B10005CE73846D8E700252F46DCE70D46DAE7A4
:104B200094F82820B91C0DF10700FFF771F858B16F
:104B30009DF80730002B08BF4FF001083B787870D4
:104B400068F301033B7059E74FF00108F6E771780D
:104B5000B01C03B0BDE8F043FFF75EB9074B9B7E86
:104B60009A0708D45B0706D4FFF7E6FE03B0BDE85A
:104B7000F043FFF71BBE03B0BDE8F0834C1F0020DD
:104B8000A81F0020014B1889704700BF4C1F002050
:104B9000F7B5274D04460E465C220021284606F054
:104BA00026FA2023AB7605232B83627E237E012702
:104BB00043EA0223AB84627F237F04F11E0043EAB1
:104BC0000223EB8494F82330C3F3040385F84F30B9
:104BD00094F82330C3F3421385F850301B232B8500
:104BE000FFF714FED4F80E30E27CEB60A37C2E605D
:104BF00043EA0223227D2F7543EA02432B6195F895
:104C00004F30607DAB72E18A3944FFF731FEFFF728
:104C1000CDFDEB8C074A084900934FF40060AB8C44
:104C200006F062FA204606F09AFB384603B0F0BD63
:104C30004C1F002032D4000815D40008F8B50D46EA
:104C400010B900242046F8BD0E4F3E68002EF8D162
:104C500000F056F804460028F3D0386000F09CF8C5
:104C6000204606F0E8FC38B130463E6000F094F88B
:104C7000204606F0D5FCE4E7002DE3D02046A84707
:104C8000E0E700BFA8200020024B1868003818BFDA
:104C900001207047A820002010B506F07FFE0446D2
:104CA00018B9034B01215B689847204610BD00BF2F
:104CB0003410002010B506F07AFE20B9BDE810408F
:104CC000014B1B68184710BD3410002010B506F0CA
:104CD000F4FC20B9BDE81040014B1B68184710BD1B
:104CE00034100020431E033306D8044B984228BFDB
:104CF0001846642838BF6420704700BF40420F0048
:104D0000F8B5054606F0C4F807460E4B1E6826B9EE
:104D1000384606F0C1F8344610E0B46884B1237C0C
:104D20009C46DB070CD44CF0010C95E80F0084F88E
:104D300010C084E80F00384606F0AEF82046F8BDF3
:104D40003668E4E72810002038B505460C4641B126
:104D50000B6833B11B68013303D0CB680BB18B6890
:104D60004BB906F096FEBDE838404FF486724121FB
:104D7000002000F071BA084602F056FA0023044AF7
:104D800085F81C311360034AC5E93043136038BD10
:104D9000B0200020B420002010B5044618B9054BFF
:104DA000054A136010BD00F007FCD4F8CC30002B8E
:104DB000F6D1F4E709B600082C10002010B50C4617
:104DC00000F03AFC054B002103205B6898471CB1BA
:104DD00001F06EFC0128FBD110BD00BF3410002093
:104DE00008B502460868FFF77DFF08604868FFF7CE
:104DF00079FF48608868FFF775FF8860C868FFF72B
:104E000071FF0B69C860581C03D00B48834228BF50
:104E100003460B614B69581C03D00748834228BFE7
:104E2000034688694B61FFF75DFFBDE80840886174
:104E3000104601F04BBA00BF40420F002DE9F84F79
:104E4000D0F8C43080460E4613B1838B8B4274D0A9
:104E5000D8F8C0B0BBF1000F41D0DBF80830002B10
:104E60003DD0DBF80C20D2B3D8F8D4A0BAF1000FB3
:104E700038D04FF000094D464F4601E0DBF80830CE
:104E800005EBC50403EB8404E3890135B34215D86F
:104E9000238AB34212D3B4F91220B8F928309342CE
:104EA00052DD404698F81011FDF796FD98F817303E
:104EB00081468342274604D9DBF80C209542DDD396
:104EC00037B300233A4640461946D0470020A8F899
:104ED0001C60C8F8C47088F81991BDE8F88F0320E9
:104EE000BDE8F88FD14647F6FF755446514604EBAE
:104EF000C40703EB8707FB89B34218D83B8AB34248
:104F000015D3B7F91220AA4204D14FF0FF09DDE70B
:104F10000120E2E7404698F81011FDF75DFD98F892
:104F2000173081468342D1D93946DBF80C20013451
:104F3000A24205D9DBF80830D9E70020BDE8F88F98
:104F40000029E5D00F46C1E72746BAE72DE9F04131
:104F500082B09DF820C0D0F8D48004460D46164695
:104F60001F468DF807C0B8F1000F2ED000220DF1BA
:104F700007031146C047D4F8C020194B20461A60D9
:104F8000184BD4F8C4201A60174B1D6000F064FE63
:104F900005461EB9284602B0BDE8F081B0FA80F09F
:104FA0004FF473723321400900F056F93946204618
:104FB00001F084F805460D4B20461B68D4F8C41058
:104FC0009847284602B0BDE8F081C17D90F81931BC
:104FD0006246994228BF194600F0C4FDCBE700BFE6
:104FE000B0200020B4200020AC2000202C10002095
:104FF0002DE9F04385B005460E4614461F4601F0E4
:10500000FBFA01F029FB002847D101F015FB00282D
:105010003DD1DFF83481D8F800301BB1D5F8C0207D
:10502000934221D001F044FB012840D1D8F8003050
:10503000002B38D01A68002A35D0D5F8C01009687E
:105040008A424CD0D5F8C4301A68284606F09AFC3B
:1050500038B901243B462246314628460097FFF7DF
:1050600075FF05B0BDE8F083334B1B68002BD9D02A
:10507000D5F8C4209342D5D1304B1B689E4228D02E
:1050800001F016FB0128E5D04FF0010911E00022E4
:10509000294B1A6001F0C8FABBE7284B721C1A6052
:1050A00001F0D2FAB1E7D5F8C0301968CAE74FF07D
:1050B0000009012000F0C0FA214B002103205B68A9
:1050C000984701F0F5FA0128FBD1B9F1000FADD0F6
:1050D000C0E707B174B9002005B0BDE8F083164AF7
:1050E0001268D2B11168D5F8C42012689142B0D0CC
:1050F0005968AAE70122D5F8D4408DF80F2084B171
:105100000022284611460DF10F03A0470D4B2846FB
:105110001B68D5F8C4109847DDE7D5F8C42012689D
:10512000E6E7E97D95F819312846994228BF1946E6
:1051300000F018FDEAE700BFB4200020AC200020FA
:10514000341000202C100020B0200020F8B50E46AE
:10515000054605F09DFE314607462846FFF76EFEE0
:10516000044600B3284606F02FFC30B16B7C13F0E8
:10517000020307D1104A82F8D830384605F08CFE79
:105180002046F8BDAB6B13F48063F3D0B5F80A3159
:10519000B34217BFB5F80C3101239B1BB3FA83F35D
:1051A00018BF5B09E6E70346024631462846FFF78B
:1051B0001FFF0446D6E700BF003E00B0F8B5134B12
:1051C00006461B680D4603B1984729463046FFF74F
:1051D000BBFD00224FF6FF734FF0240CEF68D0B2F6
:1051E000874208D81C4621463046FFF7AFFF06F03D
:1051F00055FC2046F8BDA9680CFB0011CC899C42E7
:1052000002D2002CEFD023460132E8E7D42200205E
:105210004FF4007307B50A490DF10602ADF80630E8
:1052200006F0A9FABDF80630B3F5007F05D10228D3
:1052300008BF002003B05DF804FB0120FAE700BFBF
:10524000B8200020024B1960024B1860FEE700BF37
:1052500030100020BC22002008B550B90548064B8C
:1052600001601A60054B1A68054B1A601868FFF751
:10527000E9FF08BD30100020B8220020A82000203F
:10528000BC220020014906F08BBA00BF6D680008FF
:10529000014906F085BA00BF41680008431C07D0E9
:1052A0006FF0FF02034B10405A62A3F5805358621F
:1052B000704700BF00E000B810B504234FF03A413A
:1052C00001240A4AD1F81801C2F81831C2F8143181
:1052D0004C634FF400511163410742BFC2F81431CF
:1052E000A2F58052C2F8183110BD00BF002000BAEC
:1052F00037B50C46254D69B90A46072104F062FF0F
:10530000234BEC645C6004F07DFF2022214B5A6645
:1053100003B030BD0722114604F054FF07221D4B95
:105320000121DA60237901A885F84C306379019373
:1053300006F0C7FC019BC2B2D34000F00F0040EA68
:10534000031085F84D00A27985F84E20E27985F8A2
:105350004F2022682A6501932BB102EB430132F8FA
:10536000023B8A420CD121794A1E13440A4A136235
:10537000C2F8CC102022094B5A6604F043FFC7E75D
:1053800032F8020B834228BF0346EAE7003F00B031
:105390004C3F00B0006000B8004000B8005000B8BA
:1053A000D0F8C83013B11A68032A10D8094BDB6B48
:1053B000C3F3C20213F0380F03F0070018BF5043C5
:1053C00013F4E07FC3F3821203D050437047986A0E
:1053D000400E7047008001B800F01803182B074BEF
:1053E00002D10022DA677047010701D50122F9E7EF
:1053F000C206F6D540F20112F4E700BF003F00B04C
:10540000414B2DE9F3411D6840F2022317460B4042
:1054100000F00102134306460C4648D0880709D520
:105420003A4BD3F8EC3003F0C003402B02BF02210B
:10543000374B99604FF000087AB300220023012017
:105440000021CDE9008803F0EBFC4FF0FF31284646
:1054500002F0ACFF4146E8830120FFF7AFFCA96BE7
:1054600005F1D80003F014F82A490868FFF716FF81
:105470004FF0FF330B60284B1A68511C06D06FF0B9
:105480007E402649C863A1F58051CA634FF0FF32C0
:105490001A602B7C43F008032B74A20507D5012169
:1054A000284606F053F924F4007406430C43D5E96A
:1054B0004E233240234052EA030103D018492846C4
:1054C00009688847FB070FD51649174A0868002165
:1054D000136811600121154A117003B19847144BEC
:1054E000002102205B68984717F00E0F08D04FF498
:1054F000FC723B21002002B0BDE8F041FFF7ACBEDA
:1055000002B0BDE8F08100BFA8200020003E00B03E
:10551000001002B8401000204410002000E000B845
:105520003C100020D0220020CC220020C2230020EA
:1055300034100020F7B5D0E94EC70446DDE9086510
:105540008CEA060087EA05011040194080EA0C0049
:105550007940C4E94E0123F4004105EA0103002526
:1055600022F0010043F4007306EA000243F0020354
:10557000CDE9005503F054FC237C9A0717D5D4F8E5
:105580003C319B0513D54FF48031204606F0DEF800
:10559000237C65F341032374D4E94E2302400B407E
:1055A00052EA030103D003492046096888470020D6
:1055B00003B0F0BD3C10002038B10368044A002B52
:1055C00008BF1346034A13607047014BFAE700BF58
:1055D00027B800083C100020024B986E00F00F0026
:1055E000704700BF003F00B070B531F00F040646B1
:1055F0000D460ED101F05CF801280CD10749304668
:105600008B6E23F00F022A438A6606F0E0F92046EB
:1056100070BD0120FCE70220FAE700BF003F00B0A8
:10562000014BD86E704700BF003F00B0014B002017
:10563000D9667047003F00B003282DE9F7435BD8D7
:105640002F4B13F800802F4B1E5C2F4B13F800904C
:1056500005F01EFC074603F0D1FD054640B10023CE
:105660000022CDE9003301200023002103F0D8FB04
:1056700003F0CCFD48B100230022CDE90033002027
:1056800000234FF4004103F0CBFB002E32D01F4B20
:10569000DC6C04F008041E4B3146DC64404603F029
:1056A000D7FF4A463146404604F05EF8194BDC64A9
:1056B000D5B1194B1868816BD83002F0E9FE174953
:1056C0000868FFF7EBFD4FF0FF330B60144B1A68CF
:1056D000511C06D06FF07E401249C863A1F580517D
:1056E000CA634FF0FF321A60384603B0BDE8F0439A
:1056F00005F0D2BB3446CEE703B0BDE8F08300BF6F
:105700006CD4000870D4000874D40008004000B8BD
:10571000006000B8005000B8A82000204010002011
:105720004410002000E000B80F4A536C13F0A00FA3
:1057300015D1906C10F0040013D10C4BD3F8EC3061
:1057400023F07F4323F0FF035BB1D368C3F303630C
:10575000092B07D0B3F10C0018BF012070470020BF
:1057600070470120704700BF000002B8003E00B043
:10577000074A084B30B10221C2F864120422C3F870
:10578000642270470421C2F864120222F7E700BFC6
:10579000006001B8005001B8F8B50E46074688B958
:1057A0001C4B1B687BBB0125C1F11C04C4F12B03FE
:1057B000002BB8BF5B42232B29DCADB1164B1E700A
:1057C0000020F8BD00F074FF01281ED1124B93F9A0
:1057D0000040C4F11C03D7F8C8400CB194F926402E
:1057E0001C1B0025A41BE1E7FE7405F051FB0B4ACE
:1057F000E402136A04F4FF2423F4FF231C4314621D
:1058000005F04AFBDCE70320DBE70220D9E70120B3
:10581000D7E700BFA8200020C123002000C000B8A7
:10582000094B08461A6D91020BD4D3F84021D207D8
:1058300008D4D3F8803013F4706F14BF0120002017
:1058400070470120704700BF004001B8F8B5154609
:105850000C46826B670782EA050303EA010383EAC9
:10586000020383633F4A01F00B0323EA0501D1647D
:1058700003EA0503A2F580520646D36410D5012140
:10588000FFF7CEFF60B103F087FE4FF4007315F011
:10589000040F14BF344A354A13650422344B5A644A
:1058A000E00606D515F0100F14BF00221B22314B65
:1058B0005A65210618D52A0611D54FF400122A4B35
:1058C000DA6405F0E5FA0E210746032002F034FD04
:1058D00040F20122274B3846DA6205F0DDFA29460C
:1058E00006F1D80002F0D4FDE30503D5EF0530D56D
:1058F00002F0F2FCA00503D5A9052DD502F0F8FCB5
:1059000014F48C6F0ED06A0502D5737C9B0726D5E4
:10591000D6F8C810304605F087FF8022164B9867EE
:10592000164B1A6114F4006012D003F035FE144ACD
:1059300015F4006FD2F8EC304FF0000014BF43F0C4
:10594000006323F00063C2F8EC300422084B5A6471
:10595000F8BD02F0BBFCCDE702F0C4FCD0E70120AB
:10596000F6E700BF006000B8005001B8006001B861
:10597000002002B8004000B8003F00B0000002B8AC
:10598000003E00B0014BD86C02F0E8BC004001B80A
:10599000014BD86C06F0ECB8004001B8837C5A1F6C
:1059A000012A01D9082B05D14B7C2BB1012B05D045
:1059B000022B05D005F061BF0248704702487047CE
:1059C0000248704720A1070048E8010040420F004C
:1059D00070B50E4605F05CFA054600F083FE0446FD
:1059E00020B1284605F058FA204670BD03F0D4FDDA
:1059F000104B3278D3F8EC30022A23F0F00315D0A4
:105A0000042A0CBF0222002243EA02137278022AFF
:105A10000ED0042A0CBF0222002243EA8213054A58
:105A2000C2F8EC300422044B5A64DAE70122EBE7B7
:105A30000122F2E7003E00B0002002B870B50E4629
:105A400005F026FA054600F063FE044620B128461C
:105A500005F022FA204670BD03F09EFD104B32780F
:105A6000D3F8EC30022A23F00F0314D0042A0CBF21
:105A70000222002213437278022A0ED0042A0CBF9D
:105A80000222002243EA8203054AC2F8EC300422D3
:105A9000044B5A64DBE70122ECE70122F2E700BF86
:105AA000003E00B0002002B8F8B50D780446022D83
:105AB0000E4690F810710AD1002001F051FC002828
:105AC00044D1012001F04CFC002818BF01252846D4
:105AD00001F046FC00283BD084F81051B3882846DA
