:020000040800F2
:100000000810002051010008972A0008B5250008B3
:10001000972A0008972A0008972A0008972A0008BC
:10002000972A0008972A0008E4320008972A000857
:10003000972A000894320008972A0008972A000897
:10004000972A0008972A0008972A0008972A00088C
:10005000972A0008972A0008972A0008972A00087C
:10006000972A0008972A0008972A0008972A00086C
:10007000972A0008972A0008972A0008972A00085C
:10008000972A0008972A0008972A0008972A00084C
:10009000972A0008972A0008972A0008972A00083C
:1000A000972A0008972A0008972A0008972A00082C
:1000B000972A0008972A0008972A0008972A00081C
:1000C000972A0008972A0008972A0008972A00080C
:1000D000972A0008972A0008972A0008972A0008FC
:1000E000972A0008972A0008972A0008972A0008EC
:1000F000972A0008972A0008972A0008972A0008DC
:10010000972A0008972A0008972A0008972A0008CB
:10011000972A0008972A0008972A0008972A0008BB
:10012000972A0008972A0008972A0008972A0008AB
:10013000972A0008972A0008972A0008972A00089B
:10014000972A0008972A0008972A00080000000054
:1001500008B50D4B83F30A880C4B09A1D1E90001C6
:10016000C3E9000101F0D8FB00F0D2F901F0C6FBB1
:1001700001F09EFB01F0B0FB00F082F9AFF30080CC
:10018000A5EDF5FEA5EDF5FE080000200810002005
:100190000348044B834202D0034B03B11847704716
:1001A000181000201810002000000000064B07491E
:1001B000C91A891048BF0131491003D0044B0BB153
:1001C00001481847704700BF181000201810002081
:1001D0000000000010B5064C237843B9FFF7D8FFA4
:1001E000044B13B10448AFF300800123237010BD0A
:1001F0003810002000000000B835000808B5054B95
:100200001BB105490548AFF30080BDE80840FFF782
:10021000CDBF00BF0000000018100020B835000856
:1002200037B500F1006303F500430193104B0D4611
:10023000984214461AD8019A0E4B9A4216D2019A45
:100240009B1AA34212D348B94FF000639B6A0A4A33
:100250005969914202D9186900F020FA22462946CC
:10026000019803B0BDE8304002F032B903B030BDB0
:10027000FF7FFFF700E00B08008000087FB56FF0FC
:10028000006200F178419142034619D26D460D4A51
:1002900002F110062C4610685168083203C4B242BD
:1002A0002546F7D15A1E04A90F3311F8014D12F853
:1002B000010F844204D19A42F7D1012004B070BDED
:1002C0000020FBE780320008F0B50368044603F124
:1002D0006043B3F5803F9FB033D84FF000639B6A13
:1002E00042681E6996422CD8344B9A4229D8456BF5
:1002F00006F14002AA425ED89D425CD82846FFF72C
:10030000BDFF002857D0284602F015F980B16B696F
:1003100073B1022B0ED1AB69C4F1040119444FF043
:10032000FF32204600F034FE254BC31A5842584194
:100330001FB0F0BD40F2046328460293FFF79EFF12
:1003400008B90020F4E74FF000635F6B3846FFF711
:1003500095FF0028F5D0A6F150039F42F1D828461A
:1003600003A902F0EFF80028EBD0039DAE42E8D8D5
:10037000AC42E6D8114B9D42E3D804A800F0C4FE7D
:1003800021462A1B04A802F03AFA04A802F039FA1E
:1003900000F0CEFE044600F0CFFE23460090294632
:1003A00005F1200204A800F035FE02900298B0FA90
:1003B00080F04009BCE70120BAE700BF00000C084C
:1003C000E320BBDE30B54FF0FF3289B005460C4666
:1003D00000F0DEFD0D4B984215D140F2022000F0F6
:1003E00009F91C22002101A802F00FFF084B294641
:1003F0006846009302F05FFB6846211F02F05BFB3A
:10040000684601F0E1FB002009B030BDE320BBDE0F
:100410000100064310B5044688B040F2022000F007
:10042000E9F81C22002101A802F0EFFE054B21464D
:100430006846009302F03FFB684601F0C5FB0020D0
:1004400008B010BD0000034300487047008000085A
:1004500038B50C46054680B179B100230B60074BD7
:10046000036002F0F6FA01301EBF2B6843F44043EC
:100470002B60236843F40033236038BD142400400C
:100480004FF04023D3F8842013B5110606D44FF45F
:1004900000621A67D3F88420D206FBD402F07CF8FD
:1004A00000F09AF808B900F07FF802F040FA04462C
:1004B00058B900F091F808B100F086F840F2012038
:1004C00000F0C2F84FF4017018E000F085F808B9A8
:1004D00000F072F800F09AF8012802D900F064F8F0
:1004E000FEE700F09FF8094B0193019B002B0ADC0B
:1004F00040F205439C42E5D140F2032000F0A4F80D
:10050000002002B010BD019B013BEDE700350C005F
:10051000012307B58DF806308DF807304FF04023E2
:10052000D3F894305A060FD500F0A2F8A0F20220BA
:1005300080B2072808D8C923C340DB0742BF002385
:100540008DF806308DF80730154B5B68013308D104
:100550004FF4027000F04EF800238DF806308DF84D
:1005600007309DF807305BB10D48FFF7ADFE8DF801
:1005700006009DF806301BB94FF4027000F03AF8FF
:100580009DF806304BB100F027F808B100F01CF8D8
:100590000348044B986002F003F803B05DF804FBD5
:1005A0000060000800ED00E04CF23C32014B5A8044
:1005B000704700BF000000204AF6C032014B5A804D
:1005C000704700BF000000204FF20F02014B5A801D
:1005D000704700BF000000204AF6C030044B5B8823
:1005E00023F00F039BB21B1A58425841704700BFBB
:1005F00000000020044A08B51080FFF7EDFF10B995
:100600004FF20F03538008BD0000002008B5FFF72C
:10061000E3FF18B1024B588800F00F0008BD00BF7F
:100620000000002008B5FFF7D7FF48B1054A5388FE
:1006300003F00F010F2914BF013323F00F03538080
:1006400008BD00BF0000002008B5FFF7D3FFBFF3CF
:100650004F8F0549054BCA6802F4E0621343CB6033
:10066000BFF34F8F00BFFDE700ED00E00400FA0587
:100670004FF20F01084B5A888A4201D118887047FF
:100680003AB91B8840F20220012B18BF4FF40070CA
:1006900070474FF400707047000000204FF40032A4
:1006A00008B5044B9A6601F0B9F9B0FA80F0400938
:1006B00008BD00BF00900040072BF8B506460F4666
:1006C00014461D4601D90020F8BD0121202001F06B
:1006D00031F90121212001F02DF98CB144EA060302
:1006E0009B07F0D14FF40032064B31469A662846FC
:1006F00023463A4601F0F8F9B0FA80F04009E3E702
:100700000120E1E700900040134610B562B10343B9
:100710009B070BD14FF40034054B9C6601F0A8F900
:10072000B0FA80F0400910BD0120FCE70020FAE794
:100730000090004030B5024600230C25054905FB1A
:1007400003F460180C59944203D001330C2BF6D1FA
:10075000002030BD2C330008F0B50023082787B0F7
:10076000CDE9013315463B46009704AA044601F043
:10077000B4FF41F203039842064623D194F8433074
:1007800053B13A46E06C04A902F039F804AA3B469A
:100790001146A06C02F022F8059A049B6A6094F856
:1007A00043202B6052B9094A934207D0084A93422A
:1007B00004D00822E06C04A902F021F86B682365DC
:1007C00000236365304607B0F0BD00BFF70A0AF7A3
:1007D000FC0404FC2DE9F04799465B6804460F468B
:1007E0009046002B3FD08B0740D14FF000639B6AAF
:1007F000006E1B6981181D1DA9421BD31C33984232
:1008000018D2A842024638BF2A46994294BFC2EB8A
:10081000010AC2EB030A101A3E18C5F16800104421
:1008200031465246204402F0F8FC5246FF21304641
:1008300002F0EBFC226E0F4B9A420BD80E4902EBF2
:100840000800884206D39B1AFA58C4F880204FF05B
:10085000FF32FA50D9E9003542463946206EA847A2
:10086000236E434423660020BDE8F08741F2020076
:10087000FAE700BF04800008088000082DE9F04175
:1008800000254FF0FF3704468846164603F0200344
:1008900080F842301822FF21C0E91855A0F84050D6
:1008A00080F84350A0F8445080F84650C0F8887053
:1008B000683002F0AAFC88222946C4E91286C4F8EE
:1008C0008070C4F8847004F1900002F09EFC074B25
:1008D000C4F82071C4E9463584F8245116B1304675
:1008E00000F012FC0020BDE8F08100BF0001010112
:1008F0002DE9F04FA5B09946CDE911230023044618
:100900000E464FF001082E9D1393139978E094F84A
:1009100046300C2B70D8062B4BD908FA03F212F490
:10092000286F40F00F8212F4885F40F0BA810A2BE2
:1009300066D1DFF8BCA3636D072B00F228814FF06E
:10094000080B382316AA2046CDE90188CDF800B05F
:1009500011A901F0C2FE41F203030A900A9A9A42D9
:1009600000F03F810A9B5BE0A3F10E02052A00F232
:100970009482DFE812F006030600F5003602360224
:1009800004030027636D0F2B00F28A80102314AA42
:10099000009320464023CDE9018711A901F09DFE77
:1009A00041F203030890089A9A4200F0CB80089B1A
:1009B00036E0013B052B27D8DFE813F074006E000A
:1009C0000600C401DC007B010127636D072B00F2E8
:1009D000DE80082314AA009320464023CDE9017746
:1009E00011A901F07AFE41F203030B900B9A9A428F
:1009F00000F021810B9B13E0A3F10D02062AB3D96D
:100A0000494584D3002065E014AA204611A9FFF7C8
:100A1000A3FE41F203020590059B934208D0059B7B
:100A2000049341F20303049A9A423FF46EAF50E0FC
:100A3000159A1499226500226265AB4A914240F0F2
:100A40000781022284F84620EAE7082314AA0093CB
:100A500020464023CDE9018711A901F03EFE41F275
:100A600003030690069A9A4201D0069BD8E7149B8E
:100A700003F07F43B3F1407F05D0132384F8463061
:100A800041F20903CCE7159BD90706D594F842300B
:100A900043F0010384F842300027636D072BD4D95B
:100AA000012303E1204614AA11A9FFF755FE41F2E4
:100AB00003030790079F9F420FD0079F41F2030354
:100AC0000497049A9A423FF420AF049B0BB1002391
:100AD000F370049825B0BDE8F08F1498FFF72AFE54
:100AE00028B9132341F2080784F84630E6E7437932
:100AF00094F824219A4205D9132341F20E0784F871
:100B00004630DBE7026879498A4205D00289D2077C
:100B100048BF013384F8243194F84230D9070DD509
:100B2000028994F84330920706D53BB1132341F272
:100B3000010784F84630C1E7002BF7D0037984F829
:100B40004630BBE7D4F848A000F0FAFA802302212F
:100B5000CDE9000315AA0123504600F031FA11E750
:100B6000226D0123A265002284F84330E26584F8F7
:100B70004630CAE600213C2215A81491012702F054
:100B800044FBD4E91432934204D884F8467041F20D
:100B9000030345E7009314AA40232046CDE90177DB
:100BA00011A901F09AFD41F203030990099A9A42B2
:100BB00001D0099B34E70DF1500C06F108030DF14B
:100BC000680E624603CA724518605960944603F184
:100BD0000803F6D110681860337843F001033370CE
:100BE000CFE7337843F004033370179BB362737815
:100BF0005F071CD50020236DCDF850A0C4F88430C9
:100C000094F84530606643F0020384F84530EF689D
:100C10006FB104222B6814A9B847606E2B685A463E
:100C2000EF6816A90830B847636E103363660B236C
:100C300084F846307FE6337843F002033370149B28
:100C40007360236D083B7362159BB3F1006F05D091
:100C5000132384F8463041F20103E1E6042384F8CB
:100C6000463094F8453043F0010384F845300023C2
:100C70006366AAE6042314AA009320464023CDE924
:100C8000017711A901F029FD41F203030C900C9AA0
:100C90009A4201D00C9BC3E6226D149B042A01D911
:100CA00023660127636D032BE4D9092384F84630BA
:100CB0006DE700236366072359E79F4252D89F429E
:100CC00028BF1F46402314AA2046CDE9018800977B
:100CD00011A901F002FD41F203030D900D9A9A4211
:100CE00011D00D9B9CE600BFEB17A603F90707F98F
:100CF000EB17A65E402F28BF40279F4228BF1F4604
:100D000027F00307DEE794F846B0BBF1070F2FD0BA
:100D1000042FC7F1040A88BF4FF0000A14AB5246F3
:100D2000FF21D81902F071FABBF1090FBA442DD195
:100D30002B465246204614A9FFF74CFD0D900D9B03
:100D4000002BCED1D4E914739F427FF6A9AEFF1ACF
:100D5000DDE912329B1A94F84020032F1344ACD9DA
:100D6000032BC7D8204611A901F096FC002357E6B3
:100D7000D5F808A0BAF1000FCAD02B683A46606EC9
:100D800014A9D047636E3B446366DBE7BBF1040FF5
:100D90001DD173789807D5D5EB68002BD2D0626E41
:100DA000042A0BD80AEB0203062B07D915AB9B1AB2
:100DB0001A68C4F884204FF0FF321A60EF682B687D
:100DC0005246606E14A9B847636E5344DCE7BBF12A
:100DD0000B0FB7D173785907B4D5EF68002FEED158
:100DE000B0E74FF000618A6A496B1269503A91424C
:100DF0003FF631AF112B0FD194F81831002B7FF44F
:100E00004FAE41F206030E930E9A9A4202D113237B
:100E100084F846300E9B03E694F84430002B7FF4B0
:100E20003FAECDE90133402314AA0093204611A917
:100E300001F053FC41F203030E900E9A9A42E9D15D
:100E4000E06C01F0DEFC94F81831A3B104F1B403B6
:100E50000093E06C04F194031CAA14A900F0DAF8E2
:100E60000E900E9BA3B10023F370132384F8463039
:100E700041F20603D4E5D4F84CA000F059F9074636
:100E800000F05AF93B4600901CAA504614A9E5E729
:100E90000123F37084F8443002E600234FF0040885
:100EA000CDE9013314AA40232046CDF8008011A9D2
:100EB00001F013FC41F203030F900F9A9A4202D003
:100EC0000F9B049305E6D4F888202F4B9A4205D057
:100ED000132384F8463041F20503F2E70123F3704F
:100EE00094F84530DA0707D5EF682FB142464046FF
:100EF0002B6804F18401B84794F845309B0707D567
:100F0000EF682FB104222B68104604F18401B84722
:100F1000236E6BB36F685FB34FF0FF3304F180084B
:100F20000422414610A8109302F05FF920B1042278
:100F300041462B681548B84704F168090422494620
:100F400010A802F052F998B14FF000639B6A142286
:100F5000D3F8108004F16C0108F10800D5E90037DE
:100F6000B847D5E900370422494608EB0200B847E4
:100F70000123B3700E2384F846300023A1E7002339
:100F8000F37041F20700A5E5E320BBDE0480000812
:100F900030B50824094B00255C66012403F5FE23C7
:100FA0005C6001449D601A61DC60884201D1586A2E
:100FB00030BD10F8012B1A62F7E700BF0090004027
:100FC000F8B516464FF400521D46114B04469A667A
:100FD0000222C3F860220F4602F029F8DDE906126A
:100FE000204602F028F8002384F8387063623368E2
:100FF000C4F839307368C4F83D30B368C4F8413080
:101000002B0C6DBA84F84530A4F84650F8BD00BFEB
:10101000009000402DE9F041B0B014460D461A464C
:101020000646369B002867D0002965D0002C63D087
:10103000002A61D0002B5FD006214FF400500691AA
:101040002F4920AF88660320C1F860020021BE4608
:1010500009910C910F9105F12008F4462868696800
:101060000835ACE803004545E646F6D10DF1A00C85
:1010700004F1200E654620686168083403C5744594
:10108000AC46F7D10DF1400C654602F1200E2C461E
:1010900010685168083203C472452546F7D118AC70
:1010A00003F12005224618685968083303C2AB4291
:1010B0001446F7D14023CDE90A73089320230AAAE6
:1010C0000E9303AB07CACDF81CC00D9683E807004A
:1010D00007AB93E807008DE807000DAB0ECB09487E
:1010E00001F0CEFE0690069B40F20460002B08BF84
:1010F000002030B0BDE8F08140F20160F9E700BFA8
:1011000000900040D43400084FF40052074B10B553
:101110009A6602220446C3F8602201F075FB20465D
:10112000BDE81040002101F073BB00BF00900040FB
:10113000004870474CE30B08004870476CE30B080D
:101140000048704786E20B082DE9F3471446DDE9B5
:101150000A920D461F4600284DD14CB313683F2B11
:101160002AD8516851B32549002F14BFB846884684
:1011700003F03F061B19136022BF5368013353600D
:10118000FEB93F2C0ED9A3092A46009341463B469F
:10119000002001F056FB24F03F031D4404F03F04FF
:1011A00034B100262246294609EB060002F035F844
:1011B000002002B0BDE8F087B846D9E7DFF83C80F0
:1011C000D6E7C6F1400A5445ECD32946524609EB0E
:1011D000060002F022F80123264400934A463B46CB
:1011E00041460020A6F1400401F02BFB3F2C554462
:1011F000D6D9B846C7E70248DBE700BFFC33000892
:1012000080AFFFFF2DE9F0411746146886B01E46F7
:10121000E3008DF80F3063098DF80E30630B8DF805
:101220000D30630D8DF80C3053680546DA0002EB83
:1012300054728DF80B2004F03F045A09372C8DF8B6
:101240000A204FEA53324FEA53538DF8092088465B
:1012500094BFC4F13802C4F17802CDE900178DF8CB
:1012600008300D4903460020FFF76EFF08222B4689
:101270000020CDE900870DEB0201FFF765FF28464E
:1012800005F1200350F8042B984246F8042BF9D1BD
:10129000002006B0BDE8F081BC3300082DE9F04124
:1012A000A2B0502204460D460EA8002101F0ADFF69
:1012B0003422002101A801F0A8FF01A800F03CFAA7
:1012C000049B012B11D8002320466A1E9D424FEA41
:1012D00082024FF0FF0108BF1A4640F8043B01F0BC
:1012E00094FF002022B0BDE8F081AB425DD300F056
:1012F00031F9059B0C220EA90646DF6801F074FB4C
:101300000028EFD1DFF8AC800E9B434515D1109A31
:101310000EA9304601F068FB4FF0FF3210990EA87D
:10132000FFF736FE224B98422ED0FF212046AA001E
:1013300001F06BFF40F20650D4E737440C223846E8
:101340000EA901F051FB0028CCD10E9B434507D0DC
:10135000FF212046AA0001F058FF40F20550C1E7E6
:101360000EA93846109A01F03FFB059B3046D9681C
:1013700001F071FB0028B5D13046109A0EA901F09A
:1013800043FB0028C3D0ADE7109E11A9103EB6085C
:10139000AE4228BF2E46B7003A46204601F03DFF38
:1013A000AA1BFF219200E01999E740F2045099E747
:1013B000E320BBDE39528FE144222DE9F043A3B094
:1013C0000C46814600210DEB020001F01EFF0123B7
:1013D00050262E4A0021CDE90E2301A83422109672
:1013E00001F013FF01A800F0A7F9049BA34249D321
:1013F000012B0AD8D9F8003040F204500133022BF7
:1014000038BF002023B0BDE8F08300F0A3F8102C13
:1014100028BF1024059B4FEA8408DF6842464946EE
:101420000744054611A801F0F8FEC4F110040EAB04
:1014300008F10C001844FF21A20001F0E6FE4C2147
:101440004FF0FF320EA8FFF7A3FDC043059B21908C
:10145000D968384601F0FFFA0028D3D13246384621
:101460000EA901F0D1FA0028CCD1059B2846D968F5
:1014700001F0F1FA0028C5D1324628460EA901F044
:10148000C3FABFE740F20450BCE700BF39528FE116
:1014900010B5ADF50E7D4FF40572002009A901F0DD
:1014A00074FA40F20124002109A801F045FAA04293
:1014B000F9D040F20323984227D19DF824305907F0
:1014C0000CD49DF824309A072FD4DB071DD50C9936
:1014D0008A9800F095F9C0B1002018E0139801F047
:1014E0004BF80028EDD000F06BFC184B04469842F6
:1014F00010D11C22002102A801F087FE01A801944E
:1015000000F07CFCB0F5403F04D140F205400DF501
:101510000E7D10BD8A9800F031F90028D1D00C481A
:10152000FEF778FF0028CCD1EFE74FF00062926A17
:101530000A9992689142C8D98A9800F03DF900282A
:10154000E3D012990248FEF73DFFDEE700000343B7
:1015500000800008004870470040040831B10A4B81
:101560005A68824205D80023C1E9003340F20140A5
:101570007047013053F8302003EBC0035B68002054
:101580000A604B60704700BF8034000870B40C469E
:1015900011461A460D4B5D68854210D9013003EBA8
:1015A000C0056D68A618AE420DD8A5420BD3954272
:1015B00009D353F83000204470BC01F015BA40F252
:1015C000014070BC704740F20240FAE780340008E6
:1015D00030B5CA681B4B04469A420D46A3B019D1D8
:1015E000FEF732FFD4F80432174A013352F8333091
:1015F000D4F80C221344984208D38033984209D27D
:1016000041F20D03C4F8103223B030BD00F5C030F4
:101610009842F5D88023D4F80C1202AAD4F8040218
:10162000FFF7B4FF80232146009502AA04F12C00A5
:10163000FFF75EF9D4F80C32C4F810028033C4F816
:101640000C32E1E7210200088034000870B50D4635
:10165000002186B00DF1070302931C4B0446164689
:10166000116028461C22CDE903338DF8071005933D
:1016700001F0CBFD9DF8072032B9D4F810321BB928
:10168000D4E98231994219D32378990744BF61681C
:101690003160DB0709D504F1080304F1240153F894
:1016A000040B8B4245F8040BF9D162B9237840F260
:1016B0000640002B18BF002006B070BD204602A9CE
:1016C000FFF786FFD6E70020F6E700BF33290008C2
:1016D00070B40C4611461A460D4B5D68854210D910
:1016E000013003EBC0056D68A618AE420DD8A542C7
:1016F0000BD3954209D353F83000204470BC01F05D
:1017000083B940F2014070BC704740F20240FAE7F2
:1017100080340008074B5A68824207D9013003EB36
:10172000C002516853F8300001F095B940F2014011
:10173000704700BF8034000870B5054688B0C0B15E
:101740004FF4403200236C46C0E900230A4B05F1F8
:1017500014061A785B680272C360684600F082F86B
:101760000FCC0FC694E80F0086E80F0005F11403B4
:101770002B6108B070BD00BF8034000800B5ADF526
:101780000B7D4FF4057205A901F0FFF878B9042329
:101790008DF81530074BCDE90100039001A905A88C
:1017A000049301F006F90DF50B7D5DF804FB0020B4
:1017B000F9E700BF210200084FF0006300B59B6A03
:1017C000ADF50B7D9B688B4204D300200DF50B7D9E
:1017D0005DF804FB4FF4057205A901F0D6F8002866
:1017E000F3D102238DF81530044BCDE901000390AD
:1017F00001A905A8049301F0DCF8E7E7210200083D
:1018000000B5ADF50B7D4FF4057205A901F0BDF8EB
:1018100078B901238DF81530074B0190CDE90230DE
:10182000049001A905A801F0C4F80DF50B7D5DF841
:1018300004FB0020F9E700BF15250008B1F5402F93
:101840000BD800F17843B3F5402F06D8044B084479
:1018500098428CBF0020012070470020704700BFD5
:1018600000000C0870B504460646044D0FCD0FC4A9
:1018700095E80F0084E80F00304670BD6034000822
:101880004FF40032014B00209A66704700900040F0
:10189000024BD86900F00100704700BF0000034010
:1018A0004FF40032014B00209A66704700A00040C0
:1018B000064B0748DA1C121AC11E22F00302994295
:1018C00088BF0022034901F0A8BC00BF1810002007
:1018D00010100020C4350008064B0748DA1C121A05
:1018E000C11E22F00302994288BF0022002101F0AC
:1018F0008CBC00BF3C100020181000200348044A94
:101900000449121A921001F0C7B800BFCC35000884
:10191000CC3500083C100020044B054A9A60D3F8EF
:10192000882042F47002C3F88820704700ED00E080
:1019300000000008420910B50FD0012A0FD00A4B51
:101940000A4C022A18BF234600F01F0049B103F5D4
:101950008053012282401A6010BD1346F4E7044B05
:10196000F2E703F50053F4E768800040608200402E
:1019700064800040F0B5114A114C124E00F0010590
:10198000E3695F0713D40DB9334213D103EA0007AB
:101990008F4207D10B4A1A40002A0CBF00206FF07B
:1019A0000100F0BD013AEBD16FF00200F9E74FF012
:1019B000FF30F6E76FF00100F3E700BF8096980074
:1019C000000003400200010070B5134C6061E36940
:1019D0005B071ED40E4656F8043B8D18A361AE4239
:1019E0000BD10423002121202361FFF7C3FF58B945
:1019F000BDE870402120FFF7BDBF08210846FFF772
:101A0000B9FF10B10423236170BD56F8043BA361F4
:101A1000E5E74FF0FF30F7E7000003404FF40032F6
:101A200038B50F4B0F4C9A6641F671330122E569C8
:101A3000E3630D4B0021DA60022360612120236102
:101A400005F48035FFF796FF10B92120FFF792FFCC
:101A50000122064BDA600DB10023E36338BD00BFFD
:101A600000900040000003400010034000200340AD
:101A70002DE9F84315464FF40032184B89469A6613
:101A800041F6713203F51C33DF69DA630122064641
:101A900003F58053DFF84C8007F48037DA6055B9DE
:101AA000284601220E4BDA601FB10022A3F5005335
:101AB000DA63BDE8F88306F5005404EA0804A41BC1
:101AC000AC4228BF2C46494622463046FFF77CFFF1
:101AD0000028E6D12644A1442D1BE0E700900040F9
:101AE0000020034000E0FFFF2DE9F04F01274FF4F5
:101AF000402530268400DFF8C0C004F1402404F5FE
:101B00008024CCF80470656000244FF40035DFF8C1
:101B1000ACE0DFF8AC9006FB00E6F46534663467B1
:101B2000234CDFF8A0A0A56641F6713504F51C34FE
:101B3000D4F81C80E563E56807FA00F03D43E560F2
:101B40004BB9E26818F4803F22F00102E26029D12B
:101B50000020BDE8F08F01F5005505EA09056D1A72
:101B60009D4228BF1D466161D4F81CB0AF081BF030
:101B7000040F19D1013F3F0147F060577766B26605
:101B8000C6F86CA0CCF82400DEF834703842FBD0E4
:101B9000084F294478630427CCF828002A44276199
:101BA0005B1BCDE7E363D3E74FF0FF30D1E700BF26
:101BB0000090004000200440001004400000044059
:101BC00000E0FFFF18000340F8B5C3690446042B8A
:101BD00066D800F06CFF4FF48032324B3249586EB9
:101BE00003F580535A66314D314BC003C1F80036BE
:101BF000C1F804565CBFA1F5E4214A662D4AE569A7
:101C00001A6022685A602C4A04F1080303EB85012C
:101C1000121B8B4202EB03001FD128460021636890
:101C2000264CF3B9224A41EA056191601368516874
:101C300092684B405340002282422CD144F822301B
:101C4000BFF34F8F1E491F4BCA6802F4E062134373
:101C5000CB60BFF34F8F00BFFDE753F8046F066002
:101C6000D7E70022D3F800E004EB80079E68BC466B
:101C7000C6F39906B24207F1040706D31144104493
:101C80005A68012ACED05B68CBE75EF82260013249
:101C9000CCF80060EAE754F8221001324B40CBE761
:101CA000F8BD00BF0080004000C00740004E00A00B
:101CB000004C00A0DEC0ECE5044C00A00C4C00A0E1
:101CC00000ED00E00400FA054FF48031174B10B529
:101CD000586E03F58053596603F5E623D3F80436AE
:101CE00003F1C042A2F58042B2F5606F01D9002035
:101CF00010BDC2035CBF0E4A516619680D4A91427D
:101D0000F5D11A690532B2F5007FF0D200210C46F8
:101D1000914205D353F82200031B58425841E7E78C
:101D200053F8210001314440F2E700BF0080004039
:101D300000A00040DEC0ECE538B50F4B0F495A6EED
:101D40004FF48033D20358BF0D4A4B6601F5E621AC
:101D5000D1F80456044658BF536630B1FFF7B4FFBC
:101D600030B100206B68236038BD4FF4E020FBE702
:101D70004FF47E00F8E700BF008000400090004074
:101D800000A000400B4B0C495A6E4FF48033D20335
:101D900058BF0A4A10B54B6601F5E621D1F8044652
:101DA00058BF5366FFF790FF10B1A068C0F3C05052
:101DB00010BD00BF008000400090004000A0004027
:101DC0000B4B0C495A6E4FF48033D20358BF0A4A6A
:101DD00010B54B6601F5E621D1F8044658BF5366AD
:101DE000FFF7D0FF08B1E06810BD4FF47E00FBE7BD
:101DF000008000400090004000A00040F8B5234B58
:101E000023495A6E4FF48033D2034B6658BF214AA0
:101E100001F5E621D1F8045658BF5366846805F1F0
:101E20001406FFF7AFFF48B32A6956F82230DB43A8
:101E300046F82230A86810F470201DD0A86800F47D
:101E40007020F8BD0021D4F800C0A668C6F399063A
:101E5000B1420DD0934203D19CB19342F2D3F0E74B
:101E6000013305EB83073F694CF821700131EFE73F
:101E7000646824F00104EFE70346EDE74FF47E00C9
:101E8000DFE7934238BF4FF4E020DAE700800040FC
:101E90000090004000A000402DE9F04717460D4695
:101EA00088B0002946D04C1EB4F5806F52D22A4A21
:101EB000D66816F48036FBD140EA0424390722287C
:101EC00044F0004401F0805108D02D38062833D862
:101ED0004FF0490C2CFA00F0C00734D51C430C43DA
:101EE00044F0407454601D4A03AB106851680222EC
:101EF00003C30023CDE90623DFF864A00DF10C092C
:101F00000DF11408CDF8149098E80E00DAE90004F9
:101F1000A0470221484601F026F80028F2D00F22FF
:101F2000EB1C009223F0030398E807007FB100F058
:101F3000D3FD04E00C46BAE7194321435160304613
:101F400008B0BDE8F0870B4323435360F7E700F088
:101F500026FEF4E70126F2E70020024C9034000848
:101F6000301000200122054B9A60DA68D203FCD4BD
:101F7000D86820F00F000004000C70470020024CCD
:101F8000014B1868704700BF0010024C044B1A68E0
:101F900042F480721A601A6822F480721A607047E4
:101FA0000010024C024B186B00F00E00704700BF8F
:101FB0000010024C0322024B186019615A637047EB
:101FC0000000024C82B01FB507930A9B04AC8B4201
:101FD00028BF0B4604E907001048D100079948BF05
:101FE00003330160099948BF23F0030323F07043D2
:101FF00001F0E041194341F000518160002102F0FD
:10200000E042019C1A4342F00052C16004618261C7
:10201000416304B0BDE8104002B070470000024CBC
:102020003F22034B1A631022DA6103229A6370473E
:102030000000024C024AD36B9B07FCD4704700BFE0
:102040000000024C044B9B6A13F0240F14BF0120C4
:1020500000208000704700BF0000024C08B5FFF769
:10206000F1FF064BDB6B23F47F4323F0EF030343C5
:102070001EBF0122024BC3F8FC2F08BD0000024C1A
:1020800000F0FF3F4368182B0AD0202B1DD0102BE7
:102090002BD1174BD3F80434DB010AD4012070474D
:1020A000134BD3F804349A01F8D50B6843F00803B6
:1020B0000B6003680F4A934210D10B6843F0400352
:1020C0000B600023436000207047094BD3F80434B1
:1020D0005B01E3D50B6843F00403E9E7064A93424A
:1020E000F1D10B6843F08003EAE70720704700BF97
:1020F0000000024C3A100020391000200B4607B5B2
:102100000749D1F80414C90708D5002100920246F6
:10211000084600F033F803B05DF804FB0120FAE74D
:102120000000024C0B4607B50749D1F80414C90753
:1021300008D5009201210246002000F01FF803B0EC
:102140005DF804FB0120FAE70000024C1FB50A4CC1
:10215000D4F8044464070CD5CDE900120021069C94
:102160000222CDE902340346084600F031F804B0FB
:1021700010BD0120FBE700BF0000024CF0B51C467B
:102180005B6815468DB01A07129E1AD1CBB17268E2
:10219000934216D10C4B0D4A53F8217009AB07CA74
:1021A00083E807001A462946CDE90533CDE9033314
:1021B000CDE90163009447F4807000F08BFD0DB011
:1021C000F0BD0720FBE700BFCC3400089C340008BA
:1021D0002DE9F0418CB0DDE9127C7C681E46DDE91A
:1021E000143E200728D13CB3DCF80400844223D1FC
:1021F0005868102820D1DEF8040010281CD10F48A0
:1022000009AC50F821500E4951F822800D4A07CAF6
:1022100084E8070045EA080022463146CDE9054E2C
:10222000CDE90344CDE901C4009740F0300000F04F
:1022300051FD0CB0BDE8F0810720FAE7CC3400086E
:10224000A83400089C3400080138C0B206289ABFA0
:10225000014B185C00207047AF3500080138C0B250
:1022600006289ABF014B185C00207047A83500086B
:102270002DE9F04FBBB0804603A880E80E001E4653
:102280007A4B1746D3F800248A46D4069DF810915D
:1022900003D401203BB0BDE8F08F08F1FF32062ADD
:1022A0006DD8DFE802F004191F252B313700D3F871
:1022B0000C34D807EDD5012307930023B9F1010FA2
:1022C000CDE908332CD0B9F1020F5AD04046FFF7C0
:1022D000C5FF6324054631E0D3F80C349907D8D5FF
:1022E0000223E9E7D3F80C345A07D2D50423E3E7F5
:1022F000D3F80C341B07CCD50823DDE7D3F80C3416
:10230000DD06C6D51023D7E7D3F80C349C06C0D51C
:102310002023D1E7D3F80C345806BAD54023CBE7B5
:10232000524BD3F80C34D903B3D5079B404643F442
:10233000C0630793FFF788FF032405461323042295
:10234000009307A94FF0005312A800F081FC5146FA
:10235000009446F000533A4600F07AFC4FF0000B30
:1023600004465E46DDF814A1469B9B452CD1B9F18D
:10237000030F42D14046FFF771FFB84237D0072024
:1023800088E73A4BD3F80C24D20382D5D3F80C3427
:102390009B037FF57EAF97B17C423946374604F008
:1023A0000304079B404643F4E0630793FFF74CFFA9
:1023B00024023E4605460F4644F0A304BEE704212E
:1023C0000DF1200A0C46ECE7DAF8042016444AB175
:1023D000032300932046DAF80830DAF8001000F002
:1023E00037FC04460BF1010B0AF10C0ABCE740462E
:1023F00000F090FD01383042C1D17EBB032332464C
:102400002046009308A9334600F022FC0426044627
:10241000103C204600F031FC2046314600F038FCEC
:10242000489BAB4228BF2B461C46EBB100232246FB
:1024300000934799499B0AA800F00AFC2A1B04D084
:1024400000231946009300F003FC103800F015FC3F
:1024500012A80AA900F0F1FB00201BE716F0030602
:1024600018BFC6F10406D3E70AA8E7E70000024C4C
:1024700008B5FFF78BFD0122014B1A7008BD00BFA4
:102480003B1000204FF40052034B00209A660322B9
:10249000C3F86022704700BF0090004008B5FFF706
:1024A0006FFDC30708D5FFF77DFD062804D00A2875
:1024B000F5D1FFF7DDFFF2E74FF40052034B0020A8
:1024C0009A660322C3F8602208BD00BF00A0004046
:1024D000C0F30C032DE9F04105460F4616460BB933
:1024E000FEF7DCF805F5005424F4FF5424F01F0433
:1024F00005EB0608A04507D8324639462846BDE810
:10250000F0410223FEF7D8B82046FEF7C7F804F5DD
:102510000054EFE770B44FF00065AD6A03462E69D2
:10252000864206D86C6913449C4202D370BCFFF704
:10253000CFBF70BC7047036913F0FE0F0CBF0120C2
:102540000020704738B504460D46FDF797FE38B1B8
:102550006369012B07D12046FFF7EDFF10B1A46995
:1025600001202C6038BD0020FCE708B5FFF7E4FB34
:10257000B0FA80F0400908BD4FF0FF3313B50446B0
:1025800001A80193FFF7F1FF20B1019BA3422CBFEB
:102590000020012002B010BDFFF772B9FFF780B92B
:1025A00003461846016881F3088881F3098840686A
:1025B0008746FEE74FF40170FEF746B8B1F5057F98
:1025C00010B504460FD34FF40572002100F01DFE34
:1025D00004F5CE7204F5AA7104F12C000023BDE8C5
:1025E0001040FEF74BB940F2052010BD13B504466C
:1025F000009101462C30FEF77BF9C4F8100218B1A7
:1026000041F20703984204D1A37823B1E07800F2A5
:10261000022002B010BD40F20120FAE72DE9F0439C
:1026200087B00DF1080904460E4617460021102216
:1026300048461D46DDF8388000F0E7FD00211C22E9
:10264000C8F80010284600F0E0FD32463B4621461F
:10265000CDF8009004F12C00FEF74AF923789A0790
:1026600044BF6268C8F80020DB0709D504F10803FD
:1026700004F1240253F8041B934245F8041BF9D1DA
:10268000237840F20640002B18BF002007B0BDE8B9
:10269000F0834FF40570704770B5D1E90152AA423A
:1026A00005D290F840302B449B1A402B10D90020C3
:1026B00012E00A6890F84040D65C90F8412001335F
:1026C000224402F03F02013486548B6080F840407F
:1026D0008B689D42EDD8012070BD2DE9F84390F83C
:1026E00040C017469E46D1E90123089DD21A624494
:1026F000954204460E469DF824909DF828800AD9FC
:10270000FFF7CAFF002867D1132341F2020084F8C3
:102710004630BDE8F883754555D8002394F840202D
:102720000AB19D4235D1D6E90121914201D29D42A3
:1027300041D89D424DD129463846D4F88820FEF72D
:1027400027FCC4F88800B9F1000F04D02A463946A6
:10275000E06C00F054F894F84330B8F1000F06D064
:102760008BB12B463A463946A06C00F037F894F806
:10277000433043B1E36DA26D2B449342E36524BF24
:10278000002384F84330636D41F203002B446365FA
:10279000BFE794F84120A25CFA5494F84120013339
:1027A000013202F03F0284F8412094F84020013ABF
:1027B00084F84020B2E73268525CFA54B2680133C0
:1027C0000132B260AFE741F20100132384F84630D2
:1027D0009FE741F20200F8E700209AE730B50D4686
:1027E00085B0194600F12803CDE90152009300F1AC
:1027F000240200F1380300F06FFC05B030BD00F09A
:102800000CB8014600F016B86822002100F0FDBCAB
:1028100003460020C3E90000704707B500F1280314
:102820000190009300F108030020FEF78DFC03B037
:102830005DF804FB02460B4600F128010830FEF764
:10284000E1BCF0B51D4693B0002837D1189B069027
:102850009B01CDE904230AAB0A461E4601F120077D
:102860001C4610685168083203C4BA422346F7D1A7
:10287000002307960993FFF705FE0446D8B92023E5
:10288000089304AB93E807008DE8070007AB04202A
:102890000ECB00F050FB0746FFF700FE8FB92B462A
:1028A000324612AE154603CDB542186059602A462D
:1028B00003F10803F6D1204613B0F0BD6FF07104A8
:1028C000F9E76FF06F04F6E730B59FB034220021CE
:1028D000054601A800F099FC01A8FEF72DFF049C15
:1028E000012C1ED921460EA8FEF7D8FC18B140F2E3
:1028F000055398420ED100230EAA52F8041B481C1F
:102900000AD11EAA02EB830321460EA843F8405CBD
:10291000FEF752FD1FB030BDA94205D001339C42E5
:10292000EBD140F20250F5E740F20350F2E7FEF738
:10293000AFBD01221A7070471FB50023CDE90033E7
:10294000CDE90213D0F81032044693B9D0E98232AF
:102950009A420ED26946FEF73BFED4F8100270B1DF
:1029600041F2070240F20123904208BF184604B02A
:1029700010BDA37833B1E07800F20220F7E740F20F
:102980000120F4E740F20220F1E737B50C46054696
:1029900011462046FFF712FE48B969462846FEF761
:1029A000DDFD20B9019BC4F80452C4F8083203B01D
:1029B00030BD38B500F5CE7204460D46202300F533
:1029C000AA712C30FDF75AFFD4F810321BB9D4E9A4
:1029D00082329A4203D3A07800B1E07838BD29460C
:1029E0002046FEF7F5FDEFE738B50C4611460546E3
:1029F000FEF724FF28B12946204600F00EFC0020F7
:102A000038BD40F20240FBE738B50D46114604469A
:102A1000FEF714FF80B940F2024038BDE1580131A1
:102A200014D104339A42F9D8AB0707D102232946BF
:102A30002046FDF741FE05E00023F3E72946204646
:102A4000FDF762FE0028E6D00020E6E740F20340F2
:102A5000E3E70220704738B541EA0003C3F30C03F3
:102A600004460D46A3B9FEF7E9FE10B940F2024054
:102A700038BD2544204604F50054FDF70FFEA5425D
:102A800002D00028F6D1F1E70028EFD00020EFE7D0
:102A900040F20440ECE7FEE710B53AB1002350F8ED
:102AA000234041F8234001339A42F8D110BDEFF39F
:102AB000108072B67047C369032B9FBF00EB83027F
:102AC0000133D160C361704713B51AB1002400947B
:102AD00000F0BEF802B010BDF0B58DB005AC84E8D2
:102AE00007001C46A1420D4628BF2546129B0DB388
:102AF00004B311462846002603F51813CDE90A460B
:102B00008DE8030003F241135F02C5EB43230993F1
:102B100002950CAA059B12E90700069500F036FA0B
:102B2000A54207D23146621B381B0DB0BDE8F0400C
:102B300000F02ABA0DB0F0BD30B591B001AC84E818
:102B400007001C461346DA0049BF029A62000332AE
:102B500022F00302014604A8FFF7B6FF04A800F024
:102B60008CF81499224601F5181101F241114D0219
:102B700008A8C4EB41210023FFF7A6FF05F500716B
:102B800000232246091B0CA8FFF79EFF0CA800F0AB
:102B900074F808A904A800F050F811B030BD10B5C1
:102BA0008CB005AC84E807000E9ADDE9060102F559
:102BB000181202F5A0725202CDE9092300228DE815
:102BC00003000B9202930CAA059B12E9070000F088
:102BD000DDF90CB010BD2DE9F04B4FF0000899461F
:102BE0000746164645468AB003AC84E8070002F063
:102BF000805B07AC049A424502D80AB0BDE8F08B6E
:102C0000139B13B9AA1E012A0AD9129BCDE9077991
:102C1000099600955BB194E807004B46FFF75CFF0F
:102C2000BBF1000F00D14F440135C844E2E74B46E9
:102C300094E80700FFF7B3FFF2E708B5FFF7BAF92A
:102C4000FFF7EEF9FFF7F6F9BDE80840FFF706BA1F
:102C500010B5044622F07042103060602160A2601E
:102C600039B1A26803F070431343A360029BE36091
:102C700010BDA36843F08043F7E701234360C368B6
:102C800043F02003C360836843F0005383607047C0
:102C9000C36803F00F03012B02D0033B012B08D8BC
:102CA000C36801F01F0143EA0123C36083680B443A
:102CB0008360704737B515464A6804463AB18C6858
:102CC0000093096845EA0403FFF7C2FF0446204663
:102CD00003B030BD2DE9F04FD3B0CDE90123DDE9DC
:102CE0005D7BDDE95FA900230390042003ACCDE9FF
:102CF000050307C907AB83E8070021461846619E14
:102D00000494FFF7BFF98046002840F0B3805C9A36
:102D10000AAB07CADBF8045083E80700DAF804308E
:102D20004C421D44D9F804306D425B420093BB68AD
:102D300005F00F05DA0048BF7B6804F00F0442BFBE
:102D4000033323F003037B60B368DB0041BF736888
:102D5000033323F0030373600023DBF80400DAF885
:102D60000420CDE9153381182944CDE90E13796883
:102D70000D93494201F00F01CDE9103171681293B2
:102D8000494201F00F01CDE91331CDE91733199311
:102D90005C9B5B684BB9D9F804301343184301BFFF
:102DA0001024CDE90B4016AB0A9311234FF00052CB
:102DB00004A932A8FFF77EFF40F611034FF000523E
:102DC00007A9FFF777FF42F611034FF0005202996F
:102DD000FFF770FF44F611034FF000520199FFF71F
:102DE00069FF412300225946FFF764FF2B024FF091
:102DF0000052514643F04103FFF75CFF23024FF0BE
:102E0000005243F001030AA9FFF754FF009B4FF063
:102E100000521B0203F47063494643F00103FFF7BD
:102E200049FF1038FFF729FF00230DA91A461AA8F9
:102E3000FFF740FF002339461A46FFF73BFF002308
:102E400010A91A46FFF736FF002331461A46FFF74E
:102E500031FF002313A91A46FFF72CFF00236299C4
:102E60001A46FFF727FF1038FFF707FF1AA932A805
:102E7000FFF7E3FE404653B0BDE8F08F00697047AE
:102E800070B586B003AE054686E80E00FFF7F6FF84
:102E9000202804463AD86A6800EB80039A4203D09F
:102EA000062343439A4233D10B9BB3EB440F2FD1FC
:102EB0000E9A93422CD1012221463120EB68FEF775
:102EC000EBFF08BB0123CDE90033234695E807005B
:102ED000FFF781FE08230AAA009307CA2346FFF7DB
:102EE0002BFE0C23009396E807002346FFF7F4FD22
:102EF0000A230DAA009307CA2346FFF71DFEFFF71A
:102F000031F8002818BF032006B070BD0120FBE790
:102F10000720F9E7062808D804280AD8013803282A
:102F20008CBF0020012080017047C31F58425841C8
:102F3000F9E78020704770B58AB007AC84E80E00CE
:102F400003AD064694E8070085E80B0001230293D1
:102F50000EAB019303230093304694E80E00FFF775
:102F600087F90AB070BD0122002310B501399942DA
:102F700002D882F0010010BDC45C0133002C14BFE4
:102F8000002202F00102F2E700F03FB982B02DE921
:102F9000F0438BB005AE86E80700079D1F4615F08D
:102FA000804513938046DDE914328946169C16D17C
:102FB0008C4228BF0C46D20016D584B10F2C1AD8EB
:102FC000A9EB0502042A3B6828BF042208EB050090
:102FD00009A90435099300F020F9AC42F0D80BB0F0
:102FE000BDE8F04302B070479C4228BF1C46002C4D
:102FF000F5D00F2C13D9DDE914018DE803000294FC
:10300000139B96E80700FEF7DDFFFFF709F8FFF7CF
:1030100011F80BB0BDE8F04302B0FFF71FB822462D
:1030200039460BB0BDE8F04302B000F0F6B82422F8
:10303000002100F0EAB870B515460E4624220021A2
:10304000044600F0E2F825F04003802B02D0B5F5ED
:10305000807F08D12046314640F8045BEA0800F042
:10306000DCF8002070BD6FF01F00FBE730B50129D0
:103070000D468BB02AD8046824F04001802902D084
:10308000B4F5807F25D10021CDE903121022043050
:10309000E408CDE90521CDE90732019002940991B8
:1030A000FFF7F0F968B9012D07AA04A901A80AD110
:1030B000FFF724F80446FFF7F1F9204318BF6FF03B
:1030C0006F000BB030BDFFF72DF8F3E76FF0200075
:1030D000F7E76FF07100F4E72DE9F04F91B0824609
:1030E0000F4698461646DDF86CB0FAB11568DAF866
:1030F000003023F04002802A02D0B3F5807F6ED1E9
:103100000024DB0805931023CDE90648CDE90834F7
:103110000AF104020BEB070304920293BC4207D3AB
:1031200006B13560002011B0BDE8F08F1546DEE72E
:103130005DB11A9A1BF80430525D013553401C9A58
:1031400005F00F0513550134E8E7A7EB0409B9F1C1
:103150000F0F1DD929F00F090BEB0403CDE90A3934
:103160001C9B0C952344CDE90D390F95FFF78AF987
:103170000028D8D107AB00930DAA0AA904A8FEF72E
:10318000E5FF0390FFF78AF9039B03432AD14C44E0
:103190001C9B0BEB04091C44029B4B4501D13C4694
:1031A000BCE78DB94246012150461A9BFFF75EFFEE
:1031B0000028B8D108F1100212F8013D0133DBB24A
:1031C00013700BB94245F7D11A9A19F8013B525DB9
:1031D0000135534004F8013B05F00F05DCE76FF0C3
:1031E0007100A0E76FF06F009DE70139024410B550
:1031F000904201D1002005E0037811F8014FA3426D
:1032000001D0181B10BD0130F2E70244034693427F
:1032100000D1704703F8011BF9E70A44431E9142AD
:1032200000D1704710B511F8014B914203F8014FDE
:10323000F9D110BD000000000000000000000000F7
:10324000F8B500BFF8BC08BC9E467047F8B500BF93
:10325000F8BC08BC9E46704700000000000000005B
:10326000000000000000000000000000000000005E
:10327000000000000000000000000000000000004E
:10328000B814B6F1E0CFF3ADB7DD25C9FA79B713BD
:103290000000000013B779FAC925DDB7ADF3CFE020
:1032A000F1B614B80102000000000000CC350000A7
:1032B00040000000000004020000000000000000C8
:1032C00000000000000000000000000000000000FE
:1032D00000000000000000000000000000000000EE
:1032E0000000000007B0CD5E0200000000000402F4
:1032F000D03500000060000800000C08F004010058
:10330000992500089D250008C9020008BD25000870
:10331000ED2500081C3400081D260008932600082F
:10332000000000005104000849040008EB17A60340
:103330000201000003000000FA0606FA0F04000074
:1033400003000000F40A0AF4050500000100000073
:10335000EB17A65E0A06000001000000F50909F55A
:103360000307000001000000F60808F60608000048
:1033700000000000FE0101FE08080000000000003F
:10338000FD0303FD0C08000000000000F90707F929
:103390001009000002000000F30B0BF3110A0000FB
:1033A00003000000F70A0AF7120B000003000000F8
:1033B000FC0404FC0D0C0000030000008000000071
:1033C00000000000000000000000000000000000FD
:1033D00000000000000000000000000000000000ED
:1033E00000000000000000000000000000000000DD
:1033F0000000000000000000000000006A09E6670D
:10340000BB67AE853C6EF372A54FF53A510E527F05
:103410009B05688C1F83D9AB5BE0CD1900010000D0
:10342000391700085D1500088D150008D116000831
:1034300015170008B91300089D120008C9280008D4
:103440008B290008392900084D160008911800083A
:10345000E9290008092A0008572A0008532A000809
:1034600010020300280000002800000000200000D7
:1034700000000C00000000000400000000000040FC
:1034800001000000010000000040040800000300EB
:10349000B5B5B5B5B5B5B5B5000000000000000084
:1034A00000000000000000400001000000020000D9
:1034B00000040000000800000010000000200000D0
:1034C000004000000080000000000100000000003B
:1034D00001000000E8340008C00000000000000007
:1034E0000000100020000000FFFFFFFF00000001AF
:1034F000000000000000000000000000FFFFFFFFD0
:10350000FFFFFFFFFFFFFFFFFFFFFFFF00000000C7
:10351000FFFFFFFFFFFFFFFFBCE6FAADA7179E848A
:10352000F3B9CAC2FC6325516B17D1F2E12C4247B3
:10353000F8BCE6E563A440F277037D812DEB33A070
:10354000F4A13945D898C2964FE342E2FE1A7F9B18
:103550008EE7EB4A7C0F9E162BCE33576B315ECE37
:10356000CBB6406837BF51F5FFFFFFFF00000001F9
:10357000000000000000000000000000FFFFFFFF4F
:10358000FFFFFFFFFFFFFFFC5AC635D8AA3A93E7BB
:10359000B3EBBD55769886BC651D06B0CC53B0F62E
:1035A0003BCE3C3E27D2604B1014202040402010E0
:0835B000141C20304020000033
:0C35B800C43500081010002002000000C4
:0835C400FD010008D50100081B
:04000005080001519D
:00000001FF
